{
  "contractName": "Base1155",
  "abi": [
    {
      "inputs": [],
      "stateMutability": "nonpayable",
      "type": "constructor"
    },
    {
      "anonymous": false,
      "inputs": [
        {
          "indexed": true,
          "internalType": "address",
          "name": "account",
          "type": "address"
        },
        {
          "indexed": true,
          "internalType": "address",
          "name": "operator",
          "type": "address"
        },
        {
          "indexed": false,
          "internalType": "bool",
          "name": "approved",
          "type": "bool"
        }
      ],
      "name": "ApprovalForAll",
      "type": "event"
    },
    {
      "anonymous": false,
      "inputs": [
        {
          "indexed": true,
          "internalType": "address",
          "name": "previousOwner",
          "type": "address"
        },
        {
          "indexed": true,
          "internalType": "address",
          "name": "newOwner",
          "type": "address"
        }
      ],
      "name": "OwnershipTransferred",
      "type": "event"
    },
    {
      "anonymous": false,
      "inputs": [
        {
          "indexed": true,
          "internalType": "address",
          "name": "operator",
          "type": "address"
        },
        {
          "indexed": true,
          "internalType": "address",
          "name": "from",
          "type": "address"
        },
        {
          "indexed": true,
          "internalType": "address",
          "name": "to",
          "type": "address"
        },
        {
          "indexed": false,
          "internalType": "uint256[]",
          "name": "ids",
          "type": "uint256[]"
        },
        {
          "indexed": false,
          "internalType": "uint256[]",
          "name": "values",
          "type": "uint256[]"
        }
      ],
      "name": "TransferBatch",
      "type": "event"
    },
    {
      "anonymous": false,
      "inputs": [
        {
          "indexed": true,
          "internalType": "address",
          "name": "operator",
          "type": "address"
        },
        {
          "indexed": true,
          "internalType": "address",
          "name": "from",
          "type": "address"
        },
        {
          "indexed": true,
          "internalType": "address",
          "name": "to",
          "type": "address"
        },
        {
          "indexed": false,
          "internalType": "uint256",
          "name": "id",
          "type": "uint256"
        },
        {
          "indexed": false,
          "internalType": "uint256",
          "name": "value",
          "type": "uint256"
        }
      ],
      "name": "TransferSingle",
      "type": "event"
    },
    {
      "anonymous": false,
      "inputs": [
        {
          "indexed": false,
          "internalType": "string",
          "name": "value",
          "type": "string"
        },
        {
          "indexed": true,
          "internalType": "uint256",
          "name": "id",
          "type": "uint256"
        }
      ],
      "name": "URI",
      "type": "event"
    },
    {
      "inputs": [
        {
          "internalType": "address",
          "name": "account",
          "type": "address"
        },
        {
          "internalType": "uint256",
          "name": "id",
          "type": "uint256"
        }
      ],
      "name": "balanceOf",
      "outputs": [
        {
          "internalType": "uint256",
          "name": "",
          "type": "uint256"
        }
      ],
      "stateMutability": "view",
      "type": "function",
      "constant": true
    },
    {
      "inputs": [
        {
          "internalType": "address[]",
          "name": "accounts",
          "type": "address[]"
        },
        {
          "internalType": "uint256[]",
          "name": "ids",
          "type": "uint256[]"
        }
      ],
      "name": "balanceOfBatch",
      "outputs": [
        {
          "internalType": "uint256[]",
          "name": "",
          "type": "uint256[]"
        }
      ],
      "stateMutability": "view",
      "type": "function",
      "constant": true
    },
    {
      "inputs": [
        {
          "internalType": "address",
          "name": "account",
          "type": "address"
        },
        {
          "internalType": "address",
          "name": "operator",
          "type": "address"
        }
      ],
      "name": "isApprovedForAll",
      "outputs": [
        {
          "internalType": "bool",
          "name": "",
          "type": "bool"
        }
      ],
      "stateMutability": "view",
      "type": "function",
      "constant": true
    },
    {
      "inputs": [],
      "name": "owner",
      "outputs": [
        {
          "internalType": "address",
          "name": "",
          "type": "address"
        }
      ],
      "stateMutability": "view",
      "type": "function",
      "constant": true
    },
    {
      "inputs": [],
      "name": "renounceOwnership",
      "outputs": [],
      "stateMutability": "nonpayable",
      "type": "function"
    },
    {
      "inputs": [
        {
          "internalType": "address",
          "name": "from",
          "type": "address"
        },
        {
          "internalType": "address",
          "name": "to",
          "type": "address"
        },
        {
          "internalType": "uint256[]",
          "name": "ids",
          "type": "uint256[]"
        },
        {
          "internalType": "uint256[]",
          "name": "amounts",
          "type": "uint256[]"
        },
        {
          "internalType": "bytes",
          "name": "data",
          "type": "bytes"
        }
      ],
      "name": "safeBatchTransferFrom",
      "outputs": [],
      "stateMutability": "nonpayable",
      "type": "function"
    },
    {
      "inputs": [
        {
          "internalType": "address",
          "name": "from",
          "type": "address"
        },
        {
          "internalType": "address",
          "name": "to",
          "type": "address"
        },
        {
          "internalType": "uint256",
          "name": "id",
          "type": "uint256"
        },
        {
          "internalType": "uint256",
          "name": "amount",
          "type": "uint256"
        },
        {
          "internalType": "bytes",
          "name": "data",
          "type": "bytes"
        }
      ],
      "name": "safeTransferFrom",
      "outputs": [],
      "stateMutability": "nonpayable",
      "type": "function"
    },
    {
      "inputs": [
        {
          "internalType": "address",
          "name": "operator",
          "type": "address"
        },
        {
          "internalType": "bool",
          "name": "approved",
          "type": "bool"
        }
      ],
      "name": "setApprovalForAll",
      "outputs": [],
      "stateMutability": "nonpayable",
      "type": "function"
    },
    {
      "inputs": [
        {
          "internalType": "bytes4",
          "name": "interfaceId",
          "type": "bytes4"
        }
      ],
      "name": "supportsInterface",
      "outputs": [
        {
          "internalType": "bool",
          "name": "",
          "type": "bool"
        }
      ],
      "stateMutability": "view",
      "type": "function",
      "constant": true
    },
    {
      "inputs": [
        {
          "internalType": "uint256",
          "name": "",
          "type": "uint256"
        }
      ],
      "name": "tokens",
      "outputs": [
        {
          "internalType": "address",
          "name": "creator",
          "type": "address"
        },
        {
          "internalType": "uint256",
          "name": "royalties",
          "type": "uint256"
        },
        {
          "internalType": "string",
          "name": "lockedContent",
          "type": "string"
        }
      ],
      "stateMutability": "view",
      "type": "function",
      "constant": true
    },
    {
      "inputs": [
        {
          "internalType": "address",
          "name": "newOwner",
          "type": "address"
        }
      ],
      "name": "transferOwnership",
      "outputs": [],
      "stateMutability": "nonpayable",
      "type": "function"
    },
    {
      "inputs": [
        {
          "internalType": "uint256",
          "name": "",
          "type": "uint256"
        }
      ],
      "name": "uri",
      "outputs": [
        {
          "internalType": "string",
          "name": "",
          "type": "string"
        }
      ],
      "stateMutability": "view",
      "type": "function",
      "constant": true
    },
    {
      "inputs": [
        {
          "internalType": "uint256",
          "name": "_amount",
          "type": "uint256"
        },
        {
          "internalType": "uint256",
          "name": "_royalties",
          "type": "uint256"
        },
        {
          "internalType": "string",
          "name": "_lockedContent",
          "type": "string"
        }
      ],
      "name": "createItem",
      "outputs": [
        {
          "internalType": "uint256",
          "name": "",
          "type": "uint256"
        }
      ],
      "stateMutability": "nonpayable",
      "type": "function"
    },
    {
      "inputs": [
        {
          "internalType": "uint256",
          "name": "_tokenId",
          "type": "uint256"
        }
      ],
      "name": "getCreator",
      "outputs": [
        {
          "internalType": "address",
          "name": "",
          "type": "address"
        }
      ],
      "stateMutability": "view",
      "type": "function",
      "constant": true
    },
    {
      "inputs": [
        {
          "internalType": "uint256",
          "name": "_tokenId",
          "type": "uint256"
        }
      ],
      "name": "getRoyalties",
      "outputs": [
        {
          "internalType": "uint256",
          "name": "",
          "type": "uint256"
        }
      ],
      "stateMutability": "view",
      "type": "function",
      "constant": true
    },
    {
      "inputs": [
        {
          "internalType": "uint256",
          "name": "_tokenId",
          "type": "uint256"
        }
      ],
      "name": "getLockedContent",
      "outputs": [
        {
          "internalType": "string",
          "name": "",
          "type": "string"
        }
      ],
      "stateMutability": "view",
      "type": "function",
      "constant": true
    }
  ],
  "bytecode": "0x60806040523480156200001157600080fd5b506040518060600160405280602a81526020016200359b602a91396200003d81620000f560201b60201c565b506000620000506200011160201b60201c565b905080600360006101000a81548173ffffffffffffffffffffffffffffffffffffffff021916908373ffffffffffffffffffffffffffffffffffffffff1602179055508073ffffffffffffffffffffffffffffffffffffffff16600073ffffffffffffffffffffffffffffffffffffffff167f8be0079c531659141344cd1fd0a4f28419497f9722a3daafe3b4186f6b6457e060405160405180910390a3506200022e565b80600290805190602001906200010d92919062000119565b5050565b600033905090565b8280546200012790620001c9565b90600052602060002090601f0160209004810192826200014b576000855562000197565b82601f106200016657805160ff191683800117855562000197565b8280016001018555821562000197579182015b828111156200019657825182559160200191906001019062000179565b5b509050620001a69190620001aa565b5090565b5b80821115620001c5576000816000905550600101620001ab565b5090565b60006002820490506001821680620001e257607f821691505b60208210811415620001f957620001f8620001ff565b5b50919050565b7f4e487b7100000000000000000000000000000000000000000000000000000000600052602260045260246000fd5b61335d806200023e6000396000f3fe608060405234801561001057600080fd5b50600436106100ff5760003560e01c806374c6f88f11610097578063d48e638a11610066578063d48e638a146102e6578063e985e9c514610316578063f242432a14610346578063f2fde38b14610362576100ff565b806374c6f88f1461024c5780638da5cb5b1461027c578063a22cb4651461029a578063bb3bafd6146102b6576100ff565b80632eb2c2d6116100d35780632eb2c2d6146101c45780634e1273f4146101e05780634f64b2be14610210578063715018a614610242576100ff565b8062fdd58e1461010457806301ffc9a7146101345780630e89341c146101645780631c7e78f314610194575b600080fd5b61011e60048036038101906101199190612245565b61037e565b60405161012b9190612a0b565b60405180910390f35b61014e600480360381019061014991906122ed565b610447565b60405161015b919061282e565b60405180910390f35b61017e6004803603810190610179919061233f565b610529565b60405161018b9190612849565b60405180910390f35b6101ae60048036038101906101a9919061233f565b6105bd565b6040516101bb9190612849565b60405180910390f35b6101de60048036038101906101d991906120bb565b610665565b005b6101fa60048036038101906101f59190612281565b610a5b565b60405161020791906127d5565b60405180910390f35b61022a6004803603810190610225919061233f565b610c0c565b60405161023993929190612797565b60405180910390f35b61024a610cde565b005b61026660048036038101906102619190612368565b610e1b565b6040516102739190612a0b565b60405180910390f35b610284610f10565b60405161029191906126ba565b60405180910390f35b6102b460048036038101906102af9190612209565b610f3a565b005b6102d060048036038101906102cb919061233f565b6110bb565b6040516102dd9190612a0b565b60405180910390f35b61030060048036038101906102fb919061233f565b6110db565b60405161030d91906126ba565b60405180910390f35b610330600480360381019061032b919061207f565b61111b565b60405161033d919061282e565b60405180910390f35b610360600480360381019061035b919061217a565b6111af565b005b61037c60048036038101906103779190612056565b6114c7565b005b60008073ffffffffffffffffffffffffffffffffffffffff168373ffffffffffffffffffffffffffffffffffffffff1614156103ef576040517f08c379a00000000000000000000000000000000000000000000000000000000081526004016103e6906128ab565b60405180910390fd5b60008083815260200190815260200160002060008473ffffffffffffffffffffffffffffffffffffffff1673ffffffffffffffffffffffffffffffffffffffff16815260200190815260200160002054905092915050565b60007fd9b67a26000000000000000000000000000000000000000000000000000000007bffffffffffffffffffffffffffffffffffffffffffffffffffffffff1916827bffffffffffffffffffffffffffffffffffffffffffffffffffffffff1916148061051257507f0e89341c000000000000000000000000000000000000000000000000000000007bffffffffffffffffffffffffffffffffffffffffffffffffffffffff1916827bffffffffffffffffffffffffffffffffffffffffffffffffffffffff1916145b80610522575061052182611673565b5b9050919050565b60606002805461053890612cdf565b80601f016020809104026020016040519081016040528092919081815260200182805461056490612cdf565b80156105b15780601f10610586576101008083540402835291602001916105b1565b820191906000526020600020905b81548152906001019060200180831161059457829003601f168201915b50505050509050919050565b60606005600083815260200190815260200160002060020180546105e090612cdf565b80601f016020809104026020016040519081016040528092919081815260200182805461060c90612cdf565b80156106595780601f1061062e57610100808354040283529160200191610659565b820191906000526020600020905b81548152906001019060200180831161063c57829003601f168201915b50505050509050919050565b81518351146106a9576040517f08c379a00000000000000000000000000000000000000000000000000000000081526004016106a0906129cb565b60405180910390fd5b600073ffffffffffffffffffffffffffffffffffffffff168473ffffffffffffffffffffffffffffffffffffffff161415610719576040517f08c379a00000000000000000000000000000000000000000000000000000000081526004016107109061290b565b60405180910390fd5b6107216116dd565b73ffffffffffffffffffffffffffffffffffffffff168573ffffffffffffffffffffffffffffffffffffffff1614806107675750610766856107616116dd565b61111b565b5b6107a6576040517f08c379a000000000000000000000000000000000000000000000000000000000815260040161079d9061292b565b60405180910390fd5b60006107b06116dd565b90506107c08187878787876116e5565b60005b84518110156109c6576000858281518110610807577f4e487b7100000000000000000000000000000000000000000000000000000000600052603260045260246000fd5b60200260200101519050600085838151811061084c577f4e487b7100000000000000000000000000000000000000000000000000000000600052603260045260246000fd5b60200260200101519050600080600084815260200190815260200160002060008b73ffffffffffffffffffffffffffffffffffffffff1673ffffffffffffffffffffffffffffffffffffffff168152602001908152602001600020549050818110156108ed576040517f08c379a00000000000000000000000000000000000000000000000000000000081526004016108e49061294b565b60405180910390fd5b81816108f99190612bf5565b60008085815260200190815260200160002060008c73ffffffffffffffffffffffffffffffffffffffff1673ffffffffffffffffffffffffffffffffffffffff168152602001908152602001600020819055508160008085815260200190815260200160002060008b73ffffffffffffffffffffffffffffffffffffffff1673ffffffffffffffffffffffffffffffffffffffff16815260200190815260200160002060008282546109ab9190612b9f565b92505081905550505050806109bf90612d42565b90506107c3565b508473ffffffffffffffffffffffffffffffffffffffff168673ffffffffffffffffffffffffffffffffffffffff168273ffffffffffffffffffffffffffffffffffffffff167f4a39dc06d4c0dbc64b70af90fd698a233a518aa5d07e595d983b8c0526c8f7fb8787604051610a3d9291906127f7565b60405180910390a4610a538187878787876116ed565b505050505050565b60608151835114610aa1576040517f08c379a0000000000000000000000000000000000000000000000000000000008152600401610a98906129ab565b60405180910390fd5b6000835167ffffffffffffffff811115610ae4577f4e487b7100000000000000000000000000000000000000000000000000000000600052604160045260246000fd5b604051908082528060200260200182016040528015610b125781602001602082028036833780820191505090505b50905060005b8451811015610c0157610bab858281518110610b5d577f4e487b7100000000000000000000000000000000000000000000000000000000600052603260045260246000fd5b6020026020010151858381518110610b9e577f4e487b7100000000000000000000000000000000000000000000000000000000600052603260045260246000fd5b602002602001015161037e565b828281518110610be4577f4e487b7100000000000000000000000000000000000000000000000000000000600052603260045260246000fd5b60200260200101818152505080610bfa90612d42565b9050610b18565b508091505092915050565b60056020528060005260406000206000915090508060000160009054906101000a900473ffffffffffffffffffffffffffffffffffffffff1690806001015490806002018054610c5b90612cdf565b80601f0160208091040260200160405190810160405280929190818152602001828054610c8790612cdf565b8015610cd45780601f10610ca957610100808354040283529160200191610cd4565b820191906000526020600020905b815481529060010190602001808311610cb757829003601f168201915b5050505050905083565b610ce66116dd565b73ffffffffffffffffffffffffffffffffffffffff16610d04610f10565b73ffffffffffffffffffffffffffffffffffffffff1614610d5a576040517f08c379a0000000000000000000000000000000000000000000000000000000008152600401610d519061296b565b60405180910390fd5b600073ffffffffffffffffffffffffffffffffffffffff16600360009054906101000a900473ffffffffffffffffffffffffffffffffffffffff1673ffffffffffffffffffffffffffffffffffffffff167f8be0079c531659141344cd1fd0a4f28419497f9722a3daafe3b4186f6b6457e060405160405180910390a36000600360006101000a81548173ffffffffffffffffffffffffffffffffffffffff021916908373ffffffffffffffffffffffffffffffffffffffff160217905550565b6000610e2760046118d4565b6000610e3360046118ea565b9050610e50338287604051806020016040528060008152506118f8565b60405180606001604052803373ffffffffffffffffffffffffffffffffffffffff168152602001858152602001848152506005600083815260200190815260200160002060008201518160000160006101000a81548173ffffffffffffffffffffffffffffffffffffffff021916908373ffffffffffffffffffffffffffffffffffffffff160217905550602082015181600101556040820151816002019080519060200190610f01929190611d4e565b50905050809150509392505050565b6000600360009054906101000a900473ffffffffffffffffffffffffffffffffffffffff16905090565b8173ffffffffffffffffffffffffffffffffffffffff16610f596116dd565b73ffffffffffffffffffffffffffffffffffffffff161415610fb0576040517f08c379a0000000000000000000000000000000000000000000000000000000008152600401610fa79061298b565b60405180910390fd5b8060016000610fbd6116dd565b73ffffffffffffffffffffffffffffffffffffffff1673ffffffffffffffffffffffffffffffffffffffff16815260200190815260200160002060008473ffffffffffffffffffffffffffffffffffffffff1673ffffffffffffffffffffffffffffffffffffffff16815260200190815260200160002060006101000a81548160ff0219169083151502179055508173ffffffffffffffffffffffffffffffffffffffff1661106a6116dd565b73ffffffffffffffffffffffffffffffffffffffff167f17307eab39ab6107e8899845ad3d59bd9653f200f220920489ca2b5937696c31836040516110af919061282e565b60405180910390a35050565b600060056000838152602001908152602001600020600101549050919050565b60006005600083815260200190815260200160002060000160009054906101000a900473ffffffffffffffffffffffffffffffffffffffff169050919050565b6000600160008473ffffffffffffffffffffffffffffffffffffffff1673ffffffffffffffffffffffffffffffffffffffff16815260200190815260200160002060008373ffffffffffffffffffffffffffffffffffffffff1673ffffffffffffffffffffffffffffffffffffffff16815260200190815260200160002060009054906101000a900460ff16905092915050565b600073ffffffffffffffffffffffffffffffffffffffff168473ffffffffffffffffffffffffffffffffffffffff16141561121f576040517f08c379a00000000000000000000000000000000000000000000000000000000081526004016112169061290b565b60405180910390fd5b6112276116dd565b73ffffffffffffffffffffffffffffffffffffffff168573ffffffffffffffffffffffffffffffffffffffff16148061126d575061126c856112676116dd565b61111b565b5b6112ac576040517f08c379a00000000000000000000000000000000000000000000000000000000081526004016112a3906128eb565b60405180910390fd5b60006112b66116dd565b90506112d68187876112c788611a8e565b6112d088611a8e565b876116e5565b600080600086815260200190815260200160002060008873ffffffffffffffffffffffffffffffffffffffff1673ffffffffffffffffffffffffffffffffffffffff1681526020019081526020016000205490508381101561136d576040517f08c379a00000000000000000000000000000000000000000000000000000000081526004016113649061294b565b60405180910390fd5b83816113799190612bf5565b60008087815260200190815260200160002060008973ffffffffffffffffffffffffffffffffffffffff1673ffffffffffffffffffffffffffffffffffffffff168152602001908152602001600020819055508360008087815260200190815260200160002060008873ffffffffffffffffffffffffffffffffffffffff1673ffffffffffffffffffffffffffffffffffffffff168152602001908152602001600020600082825461142b9190612b9f565b925050819055508573ffffffffffffffffffffffffffffffffffffffff168773ffffffffffffffffffffffffffffffffffffffff168373ffffffffffffffffffffffffffffffffffffffff167fc3d58168c5ae7397731d063d5bbf3d657854427343f4c083240f7aacaa2d0f6288886040516114a8929190612a26565b60405180910390a46114be828888888888611b54565b50505050505050565b6114cf6116dd565b73ffffffffffffffffffffffffffffffffffffffff166114ed610f10565b73ffffffffffffffffffffffffffffffffffffffff1614611543576040517f08c379a000000000000000000000000000000000000000000000000000000000815260040161153a9061296b565b60405180910390fd5b600073ffffffffffffffffffffffffffffffffffffffff168173ffffffffffffffffffffffffffffffffffffffff1614156115b3576040517f08c379a00000000000000000000000000000000000000000000000000000000081526004016115aa906128cb565b60405180910390fd5b8073ffffffffffffffffffffffffffffffffffffffff16600360009054906101000a900473ffffffffffffffffffffffffffffffffffffffff1673ffffffffffffffffffffffffffffffffffffffff167f8be0079c531659141344cd1fd0a4f28419497f9722a3daafe3b4186f6b6457e060405160405180910390a380600360006101000a81548173ffffffffffffffffffffffffffffffffffffffff021916908373ffffffffffffffffffffffffffffffffffffffff16021790555050565b60007f01ffc9a7000000000000000000000000000000000000000000000000000000007bffffffffffffffffffffffffffffffffffffffffffffffffffffffff1916827bffffffffffffffffffffffffffffffffffffffffffffffffffffffff1916149050919050565b600033905090565b505050505050565b61170c8473ffffffffffffffffffffffffffffffffffffffff16611d3b565b156118cc578373ffffffffffffffffffffffffffffffffffffffff1663bc197c8187878686866040518663ffffffff1660e01b81526004016117529594939291906126d5565b602060405180830381600087803b15801561176c57600080fd5b505af192505050801561179d57506040513d601f19601f8201168201806040525081019061179a9190612316565b60015b611843576117a9612e18565b806308c379a0141561180657506117be613235565b806117c95750611808565b806040517f08c379a00000000000000000000000000000000000000000000000000000000081526004016117fd9190612849565b60405180910390fd5b505b6040517f08c379a000000000000000000000000000000000000000000000000000000000815260040161183a9061286b565b60405180910390fd5b63bc197c8160e01b7bffffffffffffffffffffffffffffffffffffffffffffffffffffffff1916817bffffffffffffffffffffffffffffffffffffffffffffffffffffffff1916146118ca576040517f08c379a00000000000000000000000000000000000000000000000000000000081526004016118c19061288b565b60405180910390fd5b505b505050505050565b6001816000016000828254019250508190555050565b600081600001549050919050565b600073ffffffffffffffffffffffffffffffffffffffff168473ffffffffffffffffffffffffffffffffffffffff161415611968576040517f08c379a000000000000000000000000000000000000000000000000000000000815260040161195f906129eb565b60405180910390fd5b60006119726116dd565b90506119938160008761198488611a8e565b61198d88611a8e565b876116e5565b8260008086815260200190815260200160002060008773ffffffffffffffffffffffffffffffffffffffff1673ffffffffffffffffffffffffffffffffffffffff16815260200190815260200160002060008282546119f29190612b9f565b925050819055508473ffffffffffffffffffffffffffffffffffffffff16600073ffffffffffffffffffffffffffffffffffffffff168273ffffffffffffffffffffffffffffffffffffffff167fc3d58168c5ae7397731d063d5bbf3d657854427343f4c083240f7aacaa2d0f628787604051611a70929190612a26565b60405180910390a4611a8781600087878787611b54565b5050505050565b60606000600167ffffffffffffffff811115611ad3577f4e487b7100000000000000000000000000000000000000000000000000000000600052604160045260246000fd5b604051908082528060200260200182016040528015611b015781602001602082028036833780820191505090505b5090508281600081518110611b3f577f4e487b7100000000000000000000000000000000000000000000000000000000600052603260045260246000fd5b60200260200101818152505080915050919050565b611b738473ffffffffffffffffffffffffffffffffffffffff16611d3b565b15611d33578373ffffffffffffffffffffffffffffffffffffffff1663f23a6e6187878686866040518663ffffffff1660e01b8152600401611bb995949392919061273d565b602060405180830381600087803b158015611bd357600080fd5b505af1925050508015611c0457506040513d601f19601f82011682018060405250810190611c019190612316565b60015b611caa57611c10612e18565b806308c379a01415611c6d5750611c25613235565b80611c305750611c6f565b806040517f08c379a0000000000000000000000000000000000000000000000000000000008152600401611c649190612849565b60405180910390fd5b505b6040517f08c379a0000000000000000000000000000000000000000000000000000000008152600401611ca19061286b565b60405180910390fd5b63f23a6e6160e01b7bffffffffffffffffffffffffffffffffffffffffffffffffffffffff1916817bffffffffffffffffffffffffffffffffffffffffffffffffffffffff191614611d31576040517f08c379a0000000000000000000000000000000000000000000000000000000008152600401611d289061288b565b60405180910390fd5b505b505050505050565b600080823b905060008111915050919050565b828054611d5a90612cdf565b90600052602060002090601f016020900481019282611d7c5760008555611dc3565b82601f10611d9557805160ff1916838001178555611dc3565b82800160010185558215611dc3579182015b82811115611dc2578251825591602001919060010190611da7565b5b509050611dd09190611dd4565b5090565b5b80821115611ded576000816000905550600101611dd5565b5090565b6000611e04611dff84612a74565b612a4f565b90508083825260208201905082856020860282011115611e2357600080fd5b60005b85811015611e535781611e398882611f45565b845260208401935060208301925050600181019050611e26565b5050509392505050565b6000611e70611e6b84612aa0565b612a4f565b90508083825260208201905082856020860282011115611e8f57600080fd5b60005b85811015611ebf5781611ea58882612041565b845260208401935060208301925050600181019050611e92565b5050509392505050565b6000611edc611ed784612acc565b612a4f565b905082815260208101848484011115611ef457600080fd5b611eff848285612c9d565b509392505050565b6000611f1a611f1584612afd565b612a4f565b905082815260208101848484011115611f3257600080fd5b611f3d848285612c9d565b509392505050565b600081359050611f54816132cb565b92915050565b600082601f830112611f6b57600080fd5b8135611f7b848260208601611df1565b91505092915050565b600082601f830112611f9557600080fd5b8135611fa5848260208601611e5d565b91505092915050565b600081359050611fbd816132e2565b92915050565b600081359050611fd2816132f9565b92915050565b600081519050611fe7816132f9565b92915050565b600082601f830112611ffe57600080fd5b813561200e848260208601611ec9565b91505092915050565b600082601f83011261202857600080fd5b8135612038848260208601611f07565b91505092915050565b60008135905061205081613310565b92915050565b60006020828403121561206857600080fd5b600061207684828501611f45565b91505092915050565b6000806040838503121561209257600080fd5b60006120a085828601611f45565b92505060206120b185828601611f45565b9150509250929050565b600080600080600060a086880312156120d357600080fd5b60006120e188828901611f45565b95505060206120f288828901611f45565b945050604086013567ffffffffffffffff81111561210f57600080fd5b61211b88828901611f84565b935050606086013567ffffffffffffffff81111561213857600080fd5b61214488828901611f84565b925050608086013567ffffffffffffffff81111561216157600080fd5b61216d88828901611fed565b9150509295509295909350565b600080600080600060a0868803121561219257600080fd5b60006121a088828901611f45565b95505060206121b188828901611f45565b94505060406121c288828901612041565b93505060606121d388828901612041565b925050608086013567ffffffffffffffff8111156121f057600080fd5b6121fc88828901611fed565b9150509295509295909350565b6000806040838503121561221c57600080fd5b600061222a85828601611f45565b925050602061223b85828601611fae565b9150509250929050565b6000806040838503121561225857600080fd5b600061226685828601611f45565b925050602061227785828601612041565b9150509250929050565b6000806040838503121561229457600080fd5b600083013567ffffffffffffffff8111156122ae57600080fd5b6122ba85828601611f5a565b925050602083013567ffffffffffffffff8111156122d757600080fd5b6122e385828601611f84565b9150509250929050565b6000602082840312156122ff57600080fd5b600061230d84828501611fc3565b91505092915050565b60006020828403121561232857600080fd5b600061233684828501611fd8565b91505092915050565b60006020828403121561235157600080fd5b600061235f84828501612041565b91505092915050565b60008060006060848603121561237d57600080fd5b600061238b86828701612041565b935050602061239c86828701612041565b925050604084013567ffffffffffffffff8111156123b957600080fd5b6123c586828701612017565b9150509250925092565b60006123db838361269c565b60208301905092915050565b6123f081612c29565b82525050565b600061240182612b3e565b61240b8185612b6c565b935061241683612b2e565b8060005b8381101561244757815161242e88826123cf565b975061243983612b5f565b92505060018101905061241a565b5085935050505092915050565b61245d81612c3b565b82525050565b600061246e82612b49565b6124788185612b7d565b9350612488818560208601612cac565b61249181612e3a565b840191505092915050565b60006124a782612b54565b6124b18185612b8e565b93506124c1818560208601612cac565b6124ca81612e3a565b840191505092915050565b60006124e2603483612b8e565b91506124ed82612e58565b604082019050919050565b6000612505602883612b8e565b915061251082612ea7565b604082019050919050565b6000612528602b83612b8e565b915061253382612ef6565b604082019050919050565b600061254b602683612b8e565b915061255682612f45565b604082019050919050565b600061256e602983612b8e565b915061257982612f94565b604082019050919050565b6000612591602583612b8e565b915061259c82612fe3565b604082019050919050565b60006125b4603283612b8e565b91506125bf82613032565b604082019050919050565b60006125d7602a83612b8e565b91506125e282613081565b604082019050919050565b60006125fa602083612b8e565b9150612605826130d0565b602082019050919050565b600061261d602983612b8e565b9150612628826130f9565b604082019050919050565b6000612640602983612b8e565b915061264b82613148565b604082019050919050565b6000612663602883612b8e565b915061266e82613197565b604082019050919050565b6000612686602183612b8e565b9150612691826131e6565b604082019050919050565b6126a581612c93565b82525050565b6126b481612c93565b82525050565b60006020820190506126cf60008301846123e7565b92915050565b600060a0820190506126ea60008301886123e7565b6126f760208301876123e7565b818103604083015261270981866123f6565b9050818103606083015261271d81856123f6565b905081810360808301526127318184612463565b90509695505050505050565b600060a08201905061275260008301886123e7565b61275f60208301876123e7565b61276c60408301866126ab565b61277960608301856126ab565b818103608083015261278b8184612463565b90509695505050505050565b60006060820190506127ac60008301866123e7565b6127b960208301856126ab565b81810360408301526127cb818461249c565b9050949350505050565b600060208201905081810360008301526127ef81846123f6565b905092915050565b6000604082019050818103600083015261281181856123f6565b9050818103602083015261282581846123f6565b90509392505050565b60006020820190506128436000830184612454565b92915050565b60006020820190508181036000830152612863818461249c565b905092915050565b60006020820190508181036000830152612884816124d5565b9050919050565b600060208201905081810360008301526128a4816124f8565b9050919050565b600060208201905081810360008301526128c48161251b565b9050919050565b600060208201905081810360008301526128e48161253e565b9050919050565b6000602082019050818103600083015261290481612561565b9050919050565b6000602082019050818103600083015261292481612584565b9050919050565b60006020820190508181036000830152612944816125a7565b9050919050565b60006020820190508181036000830152612964816125ca565b9050919050565b60006020820190508181036000830152612984816125ed565b9050919050565b600060208201905081810360008301526129a481612610565b9050919050565b600060208201905081810360008301526129c481612633565b9050919050565b600060208201905081810360008301526129e481612656565b9050919050565b60006020820190508181036000830152612a0481612679565b9050919050565b6000602082019050612a2060008301846126ab565b92915050565b6000604082019050612a3b60008301856126ab565b612a4860208301846126ab565b9392505050565b6000612a59612a6a565b9050612a658282612d11565b919050565b6000604051905090565b600067ffffffffffffffff821115612a8f57612a8e612de9565b5b602082029050602081019050919050565b600067ffffffffffffffff821115612abb57612aba612de9565b5b602082029050602081019050919050565b600067ffffffffffffffff821115612ae757612ae6612de9565b5b612af082612e3a565b9050602081019050919050565b600067ffffffffffffffff821115612b1857612b17612de9565b5b612b2182612e3a565b9050602081019050919050565b6000819050602082019050919050565b600081519050919050565b600081519050919050565b600081519050919050565b6000602082019050919050565b600082825260208201905092915050565b600082825260208201905092915050565b600082825260208201905092915050565b6000612baa82612c93565b9150612bb583612c93565b9250827fffffffffffffffffffffffffffffffffffffffffffffffffffffffffffffffff03821115612bea57612be9612d8b565b5b828201905092915050565b6000612c0082612c93565b9150612c0b83612c93565b925082821015612c1e57612c1d612d8b565b5b828203905092915050565b6000612c3482612c73565b9050919050565b60008115159050919050565b60007fffffffff0000000000000000000000000000000000000000000000000000000082169050919050565b600073ffffffffffffffffffffffffffffffffffffffff82169050919050565b6000819050919050565b82818337600083830152505050565b60005b83811015612cca578082015181840152602081019050612caf565b83811115612cd9576000848401525b50505050565b60006002820490506001821680612cf757607f821691505b60208210811415612d0b57612d0a612dba565b5b50919050565b612d1a82612e3a565b810181811067ffffffffffffffff82111715612d3957612d38612de9565b5b80604052505050565b6000612d4d82612c93565b91507fffffffffffffffffffffffffffffffffffffffffffffffffffffffffffffffff821415612d8057612d7f612d8b565b5b600182019050919050565b7f4e487b7100000000000000000000000000000000000000000000000000000000600052601160045260246000fd5b7f4e487b7100000000000000000000000000000000000000000000000000000000600052602260045260246000fd5b7f4e487b7100000000000000000000000000000000000000000000000000000000600052604160045260246000fd5b600060033d1115612e375760046000803e612e34600051612e4b565b90505b90565b6000601f19601f8301169050919050565b60008160e01c9050919050565b7f455243313135353a207472616e7366657220746f206e6f6e204552433131353560008201527f526563656976657220696d706c656d656e746572000000000000000000000000602082015250565b7f455243313135353a204552433131353552656365697665722072656a6563746560008201527f6420746f6b656e73000000000000000000000000000000000000000000000000602082015250565b7f455243313135353a2062616c616e636520717565727920666f7220746865207a60008201527f65726f2061646472657373000000000000000000000000000000000000000000602082015250565b7f4f776e61626c653a206e6577206f776e657220697320746865207a65726f206160008201527f6464726573730000000000000000000000000000000000000000000000000000602082015250565b7f455243313135353a2063616c6c6572206973206e6f74206f776e6572206e6f7260008201527f20617070726f7665640000000000000000000000000000000000000000000000602082015250565b7f455243313135353a207472616e7366657220746f20746865207a65726f20616460008201527f6472657373000000000000000000000000000000000000000000000000000000602082015250565b7f455243313135353a207472616e736665722063616c6c6572206973206e6f742060008201527f6f776e6572206e6f7220617070726f7665640000000000000000000000000000602082015250565b7f455243313135353a20696e73756666696369656e742062616c616e636520666f60008201527f72207472616e7366657200000000000000000000000000000000000000000000602082015250565b7f4f776e61626c653a2063616c6c6572206973206e6f7420746865206f776e6572600082015250565b7f455243313135353a2073657474696e6720617070726f76616c2073746174757360008201527f20666f722073656c660000000000000000000000000000000000000000000000602082015250565b7f455243313135353a206163636f756e747320616e6420696473206c656e67746860008201527f206d69736d617463680000000000000000000000000000000000000000000000602082015250565b7f455243313135353a2069647320616e6420616d6f756e7473206c656e6774682060008201527f6d69736d61746368000000000000000000000000000000000000000000000000602082015250565b7f455243313135353a206d696e7420746f20746865207a65726f2061646472657360008201527f7300000000000000000000000000000000000000000000000000000000000000602082015250565b600060443d1015613245576132c8565b61324d612a6a565b60043d036004823e80513d602482011167ffffffffffffffff821117156132755750506132c8565b808201805167ffffffffffffffff81111561329357505050506132c8565b80602083010160043d0385018111156132b05750505050506132c8565b6132bf82602001850186612d11565b82955050505050505b90565b6132d481612c29565b81146132df57600080fd5b50565b6132eb81612c3b565b81146132f657600080fd5b50565b61330281612c47565b811461330d57600080fd5b50565b61331981612c93565b811461332457600080fd5b5056fea26469706673582212202c09cc5922b6d184cb228614312a0e69c4c18b9ad3b46861a03444282adacb7c64736f6c6343000804003368747470733a2f2f6e66742e787369676d612e67612f6170692f746f6b656e732f7b69647d2e6a736f6e",
  "immutableReferences": {},
  "source": "// SPDX-License-Identifier: UNLICENSED\n\npragma solidity ^0.8.4;\n\nimport \"@openzeppelin/contracts/token/ERC1155/ERC1155.sol\";\nimport \"@openzeppelin/contracts/utils/Counters.sol\";\nimport \"@openzeppelin/contracts/access/Ownable.sol\";\n\ncontract Base1155 is ERC1155, Ownable {\n    using Counters for Counters.Counter;\n    Counters.Counter private _tokenIds;\n \n struct TokenData {\n        address creator; // creator/artist. Needed for knowing who will receive the royalties\n        uint256 royalties; // royalties in basic points (so a 2% is 200, a 1.5% is 150, etc.)\n        string lockedContent; // content only available to the owner that could contain stuff like coupons, discounts, etc.\n    }\n    mapping(uint256 => TokenData) public tokens;\n\n    constructor()        \n        ERC1155(\"https://nft.xsigma.ga/api/tokens/{id}.json\")\n    {}\n    \n    function createItem(\n        uint256 _amount, // amount of tokens for this item\n        uint256 _royalties,\n        string memory _lockedContent\n    ) public returns (uint256) { \n        _tokenIds.increment();\n        uint256 newItemId = _tokenIds.current();\n\n        // mint the NFT tokens of the collection\n        _mint(msg.sender, newItemId, _amount, \"\");\n\n        tokens[newItemId] = TokenData({creator: msg.sender, royalties: _royalties, lockedContent: _lockedContent});\n      \n        return newItemId;\n    }\n\n    function getCreator(uint256 _tokenId) public view returns (address)\n    {\n        return tokens[_tokenId].creator;\n    }\n\n    function getRoyalties(uint256 _tokenId) public view returns (uint256)\n    {\n        return tokens[_tokenId].royalties;\n    }\n   \n   function getLockedContent(uint256 _tokenId) public view returns (string memory)\n    {\n        return tokens[_tokenId].lockedContent;\n    }\n}\n",
  "sourcePath": "/home/linux/ether/XSigma1155/contracts/Base1155.sol",
  "compiler": {
    "name": "solc",
    "version": "0.8.4+commit.c7e474f2.Emscripten.clang"
  },
  "schemaVersion": "3.3.4",
  "updatedAt": "2021-09-08T07:44:21.106Z",
  "networkType": "ethereum",
  "devdoc": {
    "kind": "dev",
    "methods": {
      "balanceOf(address,uint256)": {
        "details": "See {IERC1155-balanceOf}. Requirements: - `account` cannot be the zero address."
      },
      "balanceOfBatch(address[],uint256[])": {
        "details": "See {IERC1155-balanceOfBatch}. Requirements: - `accounts` and `ids` must have the same length."
      },
      "isApprovedForAll(address,address)": {
        "details": "See {IERC1155-isApprovedForAll}."
      },
      "owner()": {
        "details": "Returns the address of the current owner."
      },
      "renounceOwnership()": {
        "details": "Leaves the contract without owner. It will not be possible to call `onlyOwner` functions anymore. Can only be called by the current owner. NOTE: Renouncing ownership will leave the contract without an owner, thereby removing any functionality that is only available to the owner."
      },
      "safeBatchTransferFrom(address,address,uint256[],uint256[],bytes)": {
        "details": "See {IERC1155-safeBatchTransferFrom}."
      },
      "safeTransferFrom(address,address,uint256,uint256,bytes)": {
        "details": "See {IERC1155-safeTransferFrom}."
      },
      "setApprovalForAll(address,bool)": {
        "details": "See {IERC1155-setApprovalForAll}."
      },
      "supportsInterface(bytes4)": {
        "details": "See {IERC165-supportsInterface}."
      },
      "transferOwnership(address)": {
        "details": "Transfers ownership of the contract to a new account (`newOwner`). Can only be called by the current owner."
      },
      "uri(uint256)": {
        "details": "See {IERC1155MetadataURI-uri}. This implementation returns the same URI for *all* token types. It relies on the token type ID substitution mechanism https://eips.ethereum.org/EIPS/eip-1155#metadata[defined in the EIP]. Clients calling this function must replace the `\\{id\\}` substring with the actual token type ID."
      }
    },
    "version": 1
  },
  "userdoc": {
    "kind": "user",
    "methods": {},
    "version": 1
  }
}