{
  "contractName": "Base1155",
  "abi": [
    {
      "inputs": [],
      "stateMutability": "nonpayable",
      "type": "constructor"
    },
    {
      "anonymous": false,
      "inputs": [
        {
          "indexed": true,
          "internalType": "address",
          "name": "account",
          "type": "address"
        },
        {
          "indexed": true,
          "internalType": "address",
          "name": "operator",
          "type": "address"
        },
        {
          "indexed": false,
          "internalType": "bool",
          "name": "approved",
          "type": "bool"
        }
      ],
      "name": "ApprovalForAll",
      "type": "event"
    },
    {
      "anonymous": false,
      "inputs": [
        {
          "indexed": true,
          "internalType": "address",
          "name": "previousOwner",
          "type": "address"
        },
        {
          "indexed": true,
          "internalType": "address",
          "name": "newOwner",
          "type": "address"
        }
      ],
      "name": "OwnershipTransferred",
      "type": "event"
    },
    {
      "anonymous": false,
      "inputs": [
        {
          "indexed": true,
          "internalType": "address",
          "name": "operator",
          "type": "address"
        },
        {
          "indexed": true,
          "internalType": "address",
          "name": "from",
          "type": "address"
        },
        {
          "indexed": true,
          "internalType": "address",
          "name": "to",
          "type": "address"
        },
        {
          "indexed": false,
          "internalType": "uint256[]",
          "name": "ids",
          "type": "uint256[]"
        },
        {
          "indexed": false,
          "internalType": "uint256[]",
          "name": "values",
          "type": "uint256[]"
        }
      ],
      "name": "TransferBatch",
      "type": "event"
    },
    {
      "anonymous": false,
      "inputs": [
        {
          "indexed": true,
          "internalType": "address",
          "name": "operator",
          "type": "address"
        },
        {
          "indexed": true,
          "internalType": "address",
          "name": "from",
          "type": "address"
        },
        {
          "indexed": true,
          "internalType": "address",
          "name": "to",
          "type": "address"
        },
        {
          "indexed": false,
          "internalType": "uint256",
          "name": "id",
          "type": "uint256"
        },
        {
          "indexed": false,
          "internalType": "uint256",
          "name": "value",
          "type": "uint256"
        }
      ],
      "name": "TransferSingle",
      "type": "event"
    },
    {
      "anonymous": false,
      "inputs": [
        {
          "indexed": false,
          "internalType": "string",
          "name": "value",
          "type": "string"
        },
        {
          "indexed": true,
          "internalType": "uint256",
          "name": "id",
          "type": "uint256"
        }
      ],
      "name": "URI",
      "type": "event"
    },
    {
      "inputs": [
        {
          "internalType": "address",
          "name": "account",
          "type": "address"
        },
        {
          "internalType": "uint256",
          "name": "id",
          "type": "uint256"
        }
      ],
      "name": "balanceOf",
      "outputs": [
        {
          "internalType": "uint256",
          "name": "",
          "type": "uint256"
        }
      ],
      "stateMutability": "view",
      "type": "function"
    },
    {
      "inputs": [
        {
          "internalType": "address[]",
          "name": "accounts",
          "type": "address[]"
        },
        {
          "internalType": "uint256[]",
          "name": "ids",
          "type": "uint256[]"
        }
      ],
      "name": "balanceOfBatch",
      "outputs": [
        {
          "internalType": "uint256[]",
          "name": "",
          "type": "uint256[]"
        }
      ],
      "stateMutability": "view",
      "type": "function"
    },
    {
      "inputs": [
        {
          "internalType": "address",
          "name": "account",
          "type": "address"
        },
        {
          "internalType": "address",
          "name": "operator",
          "type": "address"
        }
      ],
      "name": "isApprovedForAll",
      "outputs": [
        {
          "internalType": "bool",
          "name": "",
          "type": "bool"
        }
      ],
      "stateMutability": "view",
      "type": "function"
    },
    {
      "inputs": [],
      "name": "owner",
      "outputs": [
        {
          "internalType": "address",
          "name": "",
          "type": "address"
        }
      ],
      "stateMutability": "view",
      "type": "function"
    },
    {
      "inputs": [],
      "name": "renounceOwnership",
      "outputs": [],
      "stateMutability": "nonpayable",
      "type": "function"
    },
    {
      "inputs": [
        {
          "internalType": "address",
          "name": "from",
          "type": "address"
        },
        {
          "internalType": "address",
          "name": "to",
          "type": "address"
        },
        {
          "internalType": "uint256[]",
          "name": "ids",
          "type": "uint256[]"
        },
        {
          "internalType": "uint256[]",
          "name": "amounts",
          "type": "uint256[]"
        },
        {
          "internalType": "bytes",
          "name": "data",
          "type": "bytes"
        }
      ],
      "name": "safeBatchTransferFrom",
      "outputs": [],
      "stateMutability": "nonpayable",
      "type": "function"
    },
    {
      "inputs": [
        {
          "internalType": "address",
          "name": "from",
          "type": "address"
        },
        {
          "internalType": "address",
          "name": "to",
          "type": "address"
        },
        {
          "internalType": "uint256",
          "name": "id",
          "type": "uint256"
        },
        {
          "internalType": "uint256",
          "name": "amount",
          "type": "uint256"
        },
        {
          "internalType": "bytes",
          "name": "data",
          "type": "bytes"
        }
      ],
      "name": "safeTransferFrom",
      "outputs": [],
      "stateMutability": "nonpayable",
      "type": "function"
    },
    {
      "inputs": [
        {
          "internalType": "address",
          "name": "operator",
          "type": "address"
        },
        {
          "internalType": "bool",
          "name": "approved",
          "type": "bool"
        }
      ],
      "name": "setApprovalForAll",
      "outputs": [],
      "stateMutability": "nonpayable",
      "type": "function"
    },
    {
      "inputs": [
        {
          "internalType": "bytes4",
          "name": "interfaceId",
          "type": "bytes4"
        }
      ],
      "name": "supportsInterface",
      "outputs": [
        {
          "internalType": "bool",
          "name": "",
          "type": "bool"
        }
      ],
      "stateMutability": "view",
      "type": "function"
    },
    {
      "inputs": [
        {
          "internalType": "address",
          "name": "newOwner",
          "type": "address"
        }
      ],
      "name": "transferOwnership",
      "outputs": [],
      "stateMutability": "nonpayable",
      "type": "function"
    },
    {
      "inputs": [
        {
          "internalType": "uint256",
          "name": "",
          "type": "uint256"
        }
      ],
      "name": "uri",
      "outputs": [
        {
          "internalType": "string",
          "name": "",
          "type": "string"
        }
      ],
      "stateMutability": "view",
      "type": "function"
    },
    {
      "inputs": [],
      "name": "ImAlive",
      "outputs": [
        {
          "internalType": "uint256",
          "name": "",
          "type": "uint256"
        }
      ],
      "stateMutability": "pure",
      "type": "function"
    },
    {
      "inputs": [
        {
          "internalType": "uint256",
          "name": "_amount",
          "type": "uint256"
        }
      ],
      "name": "createItem",
      "outputs": [
        {
          "internalType": "uint256",
          "name": "",
          "type": "uint256"
        }
      ],
      "stateMutability": "nonpayable",
      "type": "function"
    }
  ],
  "bytecode": "0x60806040523480156200001157600080fd5b506040518060400160405280601e81526020017f7777772e787369676d612e66692f746f6b656e732f7b69647d2e6a736f6e000081525062000059816200011160201b60201c565b5060006200006c6200012d60201b60201c565b905080600360006101000a81548173ffffffffffffffffffffffffffffffffffffffff021916908373ffffffffffffffffffffffffffffffffffffffff1602179055508073ffffffffffffffffffffffffffffffffffffffff16600073ffffffffffffffffffffffffffffffffffffffff167f8be0079c531659141344cd1fd0a4f28419497f9722a3daafe3b4186f6b6457e060405160405180910390a3506200024a565b80600290805190602001906200012992919062000135565b5050565b600033905090565b8280546200014390620001e5565b90600052602060002090601f016020900481019282620001675760008555620001b3565b82601f106200018257805160ff1916838001178555620001b3565b82800160010185558215620001b3579182015b82811115620001b257825182559160200191906001019062000195565b5b509050620001c29190620001c6565b5090565b5b80821115620001e1576000816000905550600101620001c7565b5090565b60006002820490506001821680620001fe57607f821691505b602082108114156200021557620002146200021b565b5b50919050565b7f4e487b7100000000000000000000000000000000000000000000000000000000600052602260045260246000fd5b612e1f806200025a6000396000f3fe608060405234801561001057600080fd5b50600436106100ce5760003560e01c8063715018a61161008c578063d7a5d5d311610066578063d7a5d5d314610211578063e985e9c514610241578063f242432a14610271578063f2fde38b1461028d576100ce565b8063715018a6146101cd5780638da5cb5b146101d7578063a22cb465146101f5576100ce565b8062fdd58e146100d357806301ffc9a7146101035780630e89341c14610133578063114ed58f146101635780632eb2c2d6146101815780634e1273f41461019d575b600080fd5b6100ed60048036038101906100e89190611ddd565b6102a9565b6040516100fa91906124fe565b60405180910390f35b61011d60048036038101906101189190611e85565b610372565b60405161012a9190612321565b60405180910390f35b61014d60048036038101906101489190611ed7565b610454565b60405161015a919061233c565b60405180910390f35b61016b6104e8565b60405161017891906124fe565b60405180910390f35b61019b60048036038101906101969190611c53565b6104f1565b005b6101b760048036038101906101b29190611e19565b6108e7565b6040516101c491906122c8565b60405180910390f35b6101d5610a98565b005b6101df610bd5565b6040516101ec91906121eb565b60405180910390f35b61020f600480360381019061020a9190611da1565b610bff565b005b61022b60048036038101906102269190611ed7565b610d80565b60405161023891906124fe565b60405180910390f35b61025b60048036038101906102569190611c17565b610dbe565b6040516102689190612321565b60405180910390f35b61028b60048036038101906102869190611d12565b610e52565b005b6102a760048036038101906102a29190611bee565b61116a565b005b60008073ffffffffffffffffffffffffffffffffffffffff168373ffffffffffffffffffffffffffffffffffffffff16141561031a576040517f08c379a00000000000000000000000000000000000000000000000000000000081526004016103119061239e565b60405180910390fd5b60008083815260200190815260200160002060008473ffffffffffffffffffffffffffffffffffffffff1673ffffffffffffffffffffffffffffffffffffffff16815260200190815260200160002054905092915050565b60007fd9b67a26000000000000000000000000000000000000000000000000000000007bffffffffffffffffffffffffffffffffffffffffffffffffffffffff1916827bffffffffffffffffffffffffffffffffffffffffffffffffffffffff1916148061043d57507f0e89341c000000000000000000000000000000000000000000000000000000007bffffffffffffffffffffffffffffffffffffffffffffffffffffffff1916827bffffffffffffffffffffffffffffffffffffffffffffffffffffffff1916145b8061044d575061044c82611316565b5b9050919050565b606060028054610463906127a1565b80601f016020809104026020016040519081016040528092919081815260200182805461048f906127a1565b80156104dc5780601f106104b1576101008083540402835291602001916104dc565b820191906000526020600020905b8154815290600101906020018083116104bf57829003601f168201915b50505050509050919050565b60006001905090565b8151835114610535576040517f08c379a000000000000000000000000000000000000000000000000000000000815260040161052c906124be565b60405180910390fd5b600073ffffffffffffffffffffffffffffffffffffffff168473ffffffffffffffffffffffffffffffffffffffff1614156105a5576040517f08c379a000000000000000000000000000000000000000000000000000000000815260040161059c906123fe565b60405180910390fd5b6105ad611380565b73ffffffffffffffffffffffffffffffffffffffff168573ffffffffffffffffffffffffffffffffffffffff1614806105f357506105f2856105ed611380565b610dbe565b5b610632576040517f08c379a00000000000000000000000000000000000000000000000000000000081526004016106299061241e565b60405180910390fd5b600061063c611380565b905061064c818787878787611388565b60005b8451811015610852576000858281518110610693577f4e487b7100000000000000000000000000000000000000000000000000000000600052603260045260246000fd5b6020026020010151905060008583815181106106d8577f4e487b7100000000000000000000000000000000000000000000000000000000600052603260045260246000fd5b60200260200101519050600080600084815260200190815260200160002060008b73ffffffffffffffffffffffffffffffffffffffff1673ffffffffffffffffffffffffffffffffffffffff16815260200190815260200160002054905081811015610779576040517f08c379a00000000000000000000000000000000000000000000000000000000081526004016107709061243e565b60405180910390fd5b818161078591906126b7565b60008085815260200190815260200160002060008c73ffffffffffffffffffffffffffffffffffffffff1673ffffffffffffffffffffffffffffffffffffffff168152602001908152602001600020819055508160008085815260200190815260200160002060008b73ffffffffffffffffffffffffffffffffffffffff1673ffffffffffffffffffffffffffffffffffffffff16815260200190815260200160002060008282546108379190612661565b925050819055505050508061084b90612804565b905061064f565b508473ffffffffffffffffffffffffffffffffffffffff168673ffffffffffffffffffffffffffffffffffffffff168273ffffffffffffffffffffffffffffffffffffffff167f4a39dc06d4c0dbc64b70af90fd698a233a518aa5d07e595d983b8c0526c8f7fb87876040516108c99291906122ea565b60405180910390a46108df818787878787611390565b505050505050565b6060815183511461092d576040517f08c379a00000000000000000000000000000000000000000000000000000000081526004016109249061249e565b60405180910390fd5b6000835167ffffffffffffffff811115610970577f4e487b7100000000000000000000000000000000000000000000000000000000600052604160045260246000fd5b60405190808252806020026020018201604052801561099e5781602001602082028036833780820191505090505b50905060005b8451811015610a8d57610a378582815181106109e9577f4e487b7100000000000000000000000000000000000000000000000000000000600052603260045260246000fd5b6020026020010151858381518110610a2a577f4e487b7100000000000000000000000000000000000000000000000000000000600052603260045260246000fd5b60200260200101516102a9565b828281518110610a70577f4e487b7100000000000000000000000000000000000000000000000000000000600052603260045260246000fd5b60200260200101818152505080610a8690612804565b90506109a4565b508091505092915050565b610aa0611380565b73ffffffffffffffffffffffffffffffffffffffff16610abe610bd5565b73ffffffffffffffffffffffffffffffffffffffff1614610b14576040517f08c379a0000000000000000000000000000000000000000000000000000000008152600401610b0b9061245e565b60405180910390fd5b600073ffffffffffffffffffffffffffffffffffffffff16600360009054906101000a900473ffffffffffffffffffffffffffffffffffffffff1673ffffffffffffffffffffffffffffffffffffffff167f8be0079c531659141344cd1fd0a4f28419497f9722a3daafe3b4186f6b6457e060405160405180910390a36000600360006101000a81548173ffffffffffffffffffffffffffffffffffffffff021916908373ffffffffffffffffffffffffffffffffffffffff160217905550565b6000600360009054906101000a900473ffffffffffffffffffffffffffffffffffffffff16905090565b8173ffffffffffffffffffffffffffffffffffffffff16610c1e611380565b73ffffffffffffffffffffffffffffffffffffffff161415610c75576040517f08c379a0000000000000000000000000000000000000000000000000000000008152600401610c6c9061247e565b60405180910390fd5b8060016000610c82611380565b73ffffffffffffffffffffffffffffffffffffffff1673ffffffffffffffffffffffffffffffffffffffff16815260200190815260200160002060008473ffffffffffffffffffffffffffffffffffffffff1673ffffffffffffffffffffffffffffffffffffffff16815260200190815260200160002060006101000a81548160ff0219169083151502179055508173ffffffffffffffffffffffffffffffffffffffff16610d2f611380565b73ffffffffffffffffffffffffffffffffffffffff167f17307eab39ab6107e8899845ad3d59bd9653f200f220920489ca2b5937696c3183604051610d749190612321565b60405180910390a35050565b6000610d8c6004611577565b6000610d98600461158d565b9050610db53382856040518060200160405280600081525061159b565b80915050919050565b6000600160008473ffffffffffffffffffffffffffffffffffffffff1673ffffffffffffffffffffffffffffffffffffffff16815260200190815260200160002060008373ffffffffffffffffffffffffffffffffffffffff1673ffffffffffffffffffffffffffffffffffffffff16815260200190815260200160002060009054906101000a900460ff16905092915050565b600073ffffffffffffffffffffffffffffffffffffffff168473ffffffffffffffffffffffffffffffffffffffff161415610ec2576040517f08c379a0000000000000000000000000000000000000000000000000000000008152600401610eb9906123fe565b60405180910390fd5b610eca611380565b73ffffffffffffffffffffffffffffffffffffffff168573ffffffffffffffffffffffffffffffffffffffff161480610f105750610f0f85610f0a611380565b610dbe565b5b610f4f576040517f08c379a0000000000000000000000000000000000000000000000000000000008152600401610f46906123de565b60405180910390fd5b6000610f59611380565b9050610f79818787610f6a88611731565b610f7388611731565b87611388565b600080600086815260200190815260200160002060008873ffffffffffffffffffffffffffffffffffffffff1673ffffffffffffffffffffffffffffffffffffffff16815260200190815260200160002054905083811015611010576040517f08c379a00000000000000000000000000000000000000000000000000000000081526004016110079061243e565b60405180910390fd5b838161101c91906126b7565b60008087815260200190815260200160002060008973ffffffffffffffffffffffffffffffffffffffff1673ffffffffffffffffffffffffffffffffffffffff168152602001908152602001600020819055508360008087815260200190815260200160002060008873ffffffffffffffffffffffffffffffffffffffff1673ffffffffffffffffffffffffffffffffffffffff16815260200190815260200160002060008282546110ce9190612661565b925050819055508573ffffffffffffffffffffffffffffffffffffffff168773ffffffffffffffffffffffffffffffffffffffff168373ffffffffffffffffffffffffffffffffffffffff167fc3d58168c5ae7397731d063d5bbf3d657854427343f4c083240f7aacaa2d0f62888860405161114b929190612519565b60405180910390a46111618288888888886117f7565b50505050505050565b611172611380565b73ffffffffffffffffffffffffffffffffffffffff16611190610bd5565b73ffffffffffffffffffffffffffffffffffffffff16146111e6576040517f08c379a00000000000000000000000000000000000000000000000000000000081526004016111dd9061245e565b60405180910390fd5b600073ffffffffffffffffffffffffffffffffffffffff168173ffffffffffffffffffffffffffffffffffffffff161415611256576040517f08c379a000000000000000000000000000000000000000000000000000000000815260040161124d906123be565b60405180910390fd5b8073ffffffffffffffffffffffffffffffffffffffff16600360009054906101000a900473ffffffffffffffffffffffffffffffffffffffff1673ffffffffffffffffffffffffffffffffffffffff167f8be0079c531659141344cd1fd0a4f28419497f9722a3daafe3b4186f6b6457e060405160405180910390a380600360006101000a81548173ffffffffffffffffffffffffffffffffffffffff021916908373ffffffffffffffffffffffffffffffffffffffff16021790555050565b60007f01ffc9a7000000000000000000000000000000000000000000000000000000007bffffffffffffffffffffffffffffffffffffffffffffffffffffffff1916827bffffffffffffffffffffffffffffffffffffffffffffffffffffffff1916149050919050565b600033905090565b505050505050565b6113af8473ffffffffffffffffffffffffffffffffffffffff166119de565b1561156f578373ffffffffffffffffffffffffffffffffffffffff1663bc197c8187878686866040518663ffffffff1660e01b81526004016113f5959493929190612206565b602060405180830381600087803b15801561140f57600080fd5b505af192505050801561144057506040513d601f19601f8201168201806040525081019061143d9190611eae565b60015b6114e65761144c6128da565b806308c379a014156114a95750611461612cf7565b8061146c57506114ab565b806040517f08c379a00000000000000000000000000000000000000000000000000000000081526004016114a0919061233c565b60405180910390fd5b505b6040517f08c379a00000000000000000000000000000000000000000000000000000000081526004016114dd9061235e565b60405180910390fd5b63bc197c8160e01b7bffffffffffffffffffffffffffffffffffffffffffffffffffffffff1916817bffffffffffffffffffffffffffffffffffffffffffffffffffffffff19161461156d576040517f08c379a00000000000000000000000000000000000000000000000000000000081526004016115649061237e565b60405180910390fd5b505b505050505050565b6001816000016000828254019250508190555050565b600081600001549050919050565b600073ffffffffffffffffffffffffffffffffffffffff168473ffffffffffffffffffffffffffffffffffffffff16141561160b576040517f08c379a0000000000000000000000000000000000000000000000000000000008152600401611602906124de565b60405180910390fd5b6000611615611380565b90506116368160008761162788611731565b61163088611731565b87611388565b8260008086815260200190815260200160002060008773ffffffffffffffffffffffffffffffffffffffff1673ffffffffffffffffffffffffffffffffffffffff16815260200190815260200160002060008282546116959190612661565b925050819055508473ffffffffffffffffffffffffffffffffffffffff16600073ffffffffffffffffffffffffffffffffffffffff168273ffffffffffffffffffffffffffffffffffffffff167fc3d58168c5ae7397731d063d5bbf3d657854427343f4c083240f7aacaa2d0f628787604051611713929190612519565b60405180910390a461172a816000878787876117f7565b5050505050565b60606000600167ffffffffffffffff811115611776577f4e487b7100000000000000000000000000000000000000000000000000000000600052604160045260246000fd5b6040519080825280602002602001820160405280156117a45781602001602082028036833780820191505090505b50905082816000815181106117e2577f4e487b7100000000000000000000000000000000000000000000000000000000600052603260045260246000fd5b60200260200101818152505080915050919050565b6118168473ffffffffffffffffffffffffffffffffffffffff166119de565b156119d6578373ffffffffffffffffffffffffffffffffffffffff1663f23a6e6187878686866040518663ffffffff1660e01b815260040161185c95949392919061226e565b602060405180830381600087803b15801561187657600080fd5b505af19250505080156118a757506040513d601f19601f820116820180604052508101906118a49190611eae565b60015b61194d576118b36128da565b806308c379a0141561191057506118c8612cf7565b806118d35750611912565b806040517f08c379a0000000000000000000000000000000000000000000000000000000008152600401611907919061233c565b60405180910390fd5b505b6040517f08c379a00000000000000000000000000000000000000000000000000000000081526004016119449061235e565b60405180910390fd5b63f23a6e6160e01b7bffffffffffffffffffffffffffffffffffffffffffffffffffffffff1916817bffffffffffffffffffffffffffffffffffffffffffffffffffffffff1916146119d4576040517f08c379a00000000000000000000000000000000000000000000000000000000081526004016119cb9061237e565b60405180910390fd5b505b505050505050565b600080823b905060008111915050919050565b6000611a046119ff84612567565b612542565b90508083825260208201905082856020860282011115611a2357600080fd5b60005b85811015611a535781611a398882611b07565b845260208401935060208301925050600181019050611a26565b5050509392505050565b6000611a70611a6b84612593565b612542565b90508083825260208201905082856020860282011115611a8f57600080fd5b60005b85811015611abf5781611aa58882611bd9565b845260208401935060208301925050600181019050611a92565b5050509392505050565b6000611adc611ad7846125bf565b612542565b905082815260208101848484011115611af457600080fd5b611aff84828561275f565b509392505050565b600081359050611b1681612d8d565b92915050565b600082601f830112611b2d57600080fd5b8135611b3d8482602086016119f1565b91505092915050565b600082601f830112611b5757600080fd5b8135611b67848260208601611a5d565b91505092915050565b600081359050611b7f81612da4565b92915050565b600081359050611b9481612dbb565b92915050565b600081519050611ba981612dbb565b92915050565b600082601f830112611bc057600080fd5b8135611bd0848260208601611ac9565b91505092915050565b600081359050611be881612dd2565b92915050565b600060208284031215611c0057600080fd5b6000611c0e84828501611b07565b91505092915050565b60008060408385031215611c2a57600080fd5b6000611c3885828601611b07565b9250506020611c4985828601611b07565b9150509250929050565b600080600080600060a08688031215611c6b57600080fd5b6000611c7988828901611b07565b9550506020611c8a88828901611b07565b945050604086013567ffffffffffffffff811115611ca757600080fd5b611cb388828901611b46565b935050606086013567ffffffffffffffff811115611cd057600080fd5b611cdc88828901611b46565b925050608086013567ffffffffffffffff811115611cf957600080fd5b611d0588828901611baf565b9150509295509295909350565b600080600080600060a08688031215611d2a57600080fd5b6000611d3888828901611b07565b9550506020611d4988828901611b07565b9450506040611d5a88828901611bd9565b9350506060611d6b88828901611bd9565b925050608086013567ffffffffffffffff811115611d8857600080fd5b611d9488828901611baf565b9150509295509295909350565b60008060408385031215611db457600080fd5b6000611dc285828601611b07565b9250506020611dd385828601611b70565b9150509250929050565b60008060408385031215611df057600080fd5b6000611dfe85828601611b07565b9250506020611e0f85828601611bd9565b9150509250929050565b60008060408385031215611e2c57600080fd5b600083013567ffffffffffffffff811115611e4657600080fd5b611e5285828601611b1c565b925050602083013567ffffffffffffffff811115611e6f57600080fd5b611e7b85828601611b46565b9150509250929050565b600060208284031215611e9757600080fd5b6000611ea584828501611b85565b91505092915050565b600060208284031215611ec057600080fd5b6000611ece84828501611b9a565b91505092915050565b600060208284031215611ee957600080fd5b6000611ef784828501611bd9565b91505092915050565b6000611f0c83836121cd565b60208301905092915050565b611f21816126eb565b82525050565b6000611f3282612600565b611f3c818561262e565b9350611f47836125f0565b8060005b83811015611f78578151611f5f8882611f00565b9750611f6a83612621565b925050600181019050611f4b565b5085935050505092915050565b611f8e816126fd565b82525050565b6000611f9f8261260b565b611fa9818561263f565b9350611fb981856020860161276e565b611fc2816128fc565b840191505092915050565b6000611fd882612616565b611fe28185612650565b9350611ff281856020860161276e565b611ffb816128fc565b840191505092915050565b6000612013603483612650565b915061201e8261291a565b604082019050919050565b6000612036602883612650565b915061204182612969565b604082019050919050565b6000612059602b83612650565b9150612064826129b8565b604082019050919050565b600061207c602683612650565b915061208782612a07565b604082019050919050565b600061209f602983612650565b91506120aa82612a56565b604082019050919050565b60006120c2602583612650565b91506120cd82612aa5565b604082019050919050565b60006120e5603283612650565b91506120f082612af4565b604082019050919050565b6000612108602a83612650565b915061211382612b43565b604082019050919050565b600061212b602083612650565b915061213682612b92565b602082019050919050565b600061214e602983612650565b915061215982612bbb565b604082019050919050565b6000612171602983612650565b915061217c82612c0a565b604082019050919050565b6000612194602883612650565b915061219f82612c59565b604082019050919050565b60006121b7602183612650565b91506121c282612ca8565b604082019050919050565b6121d681612755565b82525050565b6121e581612755565b82525050565b60006020820190506122006000830184611f18565b92915050565b600060a08201905061221b6000830188611f18565b6122286020830187611f18565b818103604083015261223a8186611f27565b9050818103606083015261224e8185611f27565b905081810360808301526122628184611f94565b90509695505050505050565b600060a0820190506122836000830188611f18565b6122906020830187611f18565b61229d60408301866121dc565b6122aa60608301856121dc565b81810360808301526122bc8184611f94565b90509695505050505050565b600060208201905081810360008301526122e28184611f27565b905092915050565b600060408201905081810360008301526123048185611f27565b905081810360208301526123188184611f27565b90509392505050565b60006020820190506123366000830184611f85565b92915050565b600060208201905081810360008301526123568184611fcd565b905092915050565b6000602082019050818103600083015261237781612006565b9050919050565b6000602082019050818103600083015261239781612029565b9050919050565b600060208201905081810360008301526123b78161204c565b9050919050565b600060208201905081810360008301526123d78161206f565b9050919050565b600060208201905081810360008301526123f781612092565b9050919050565b60006020820190508181036000830152612417816120b5565b9050919050565b60006020820190508181036000830152612437816120d8565b9050919050565b60006020820190508181036000830152612457816120fb565b9050919050565b600060208201905081810360008301526124778161211e565b9050919050565b6000602082019050818103600083015261249781612141565b9050919050565b600060208201905081810360008301526124b781612164565b9050919050565b600060208201905081810360008301526124d781612187565b9050919050565b600060208201905081810360008301526124f7816121aa565b9050919050565b600060208201905061251360008301846121dc565b92915050565b600060408201905061252e60008301856121dc565b61253b60208301846121dc565b9392505050565b600061254c61255d565b905061255882826127d3565b919050565b6000604051905090565b600067ffffffffffffffff821115612582576125816128ab565b5b602082029050602081019050919050565b600067ffffffffffffffff8211156125ae576125ad6128ab565b5b602082029050602081019050919050565b600067ffffffffffffffff8211156125da576125d96128ab565b5b6125e3826128fc565b9050602081019050919050565b6000819050602082019050919050565b600081519050919050565b600081519050919050565b600081519050919050565b6000602082019050919050565b600082825260208201905092915050565b600082825260208201905092915050565b600082825260208201905092915050565b600061266c82612755565b915061267783612755565b9250827fffffffffffffffffffffffffffffffffffffffffffffffffffffffffffffffff038211156126ac576126ab61284d565b5b828201905092915050565b60006126c282612755565b91506126cd83612755565b9250828210156126e0576126df61284d565b5b828203905092915050565b60006126f682612735565b9050919050565b60008115159050919050565b60007fffffffff0000000000000000000000000000000000000000000000000000000082169050919050565b600073ffffffffffffffffffffffffffffffffffffffff82169050919050565b6000819050919050565b82818337600083830152505050565b60005b8381101561278c578082015181840152602081019050612771565b8381111561279b576000848401525b50505050565b600060028204905060018216806127b957607f821691505b602082108114156127cd576127cc61287c565b5b50919050565b6127dc826128fc565b810181811067ffffffffffffffff821117156127fb576127fa6128ab565b5b80604052505050565b600061280f82612755565b91507fffffffffffffffffffffffffffffffffffffffffffffffffffffffffffffffff8214156128425761284161284d565b5b600182019050919050565b7f4e487b7100000000000000000000000000000000000000000000000000000000600052601160045260246000fd5b7f4e487b7100000000000000000000000000000000000000000000000000000000600052602260045260246000fd5b7f4e487b7100000000000000000000000000000000000000000000000000000000600052604160045260246000fd5b600060033d11156128f95760046000803e6128f660005161290d565b90505b90565b6000601f19601f8301169050919050565b60008160e01c9050919050565b7f455243313135353a207472616e7366657220746f206e6f6e204552433131353560008201527f526563656976657220696d706c656d656e746572000000000000000000000000602082015250565b7f455243313135353a204552433131353552656365697665722072656a6563746560008201527f6420746f6b656e73000000000000000000000000000000000000000000000000602082015250565b7f455243313135353a2062616c616e636520717565727920666f7220746865207a60008201527f65726f2061646472657373000000000000000000000000000000000000000000602082015250565b7f4f776e61626c653a206e6577206f776e657220697320746865207a65726f206160008201527f6464726573730000000000000000000000000000000000000000000000000000602082015250565b7f455243313135353a2063616c6c6572206973206e6f74206f776e6572206e6f7260008201527f20617070726f7665640000000000000000000000000000000000000000000000602082015250565b7f455243313135353a207472616e7366657220746f20746865207a65726f20616460008201527f6472657373000000000000000000000000000000000000000000000000000000602082015250565b7f455243313135353a207472616e736665722063616c6c6572206973206e6f742060008201527f6f776e6572206e6f7220617070726f7665640000000000000000000000000000602082015250565b7f455243313135353a20696e73756666696369656e742062616c616e636520666f60008201527f72207472616e7366657200000000000000000000000000000000000000000000602082015250565b7f4f776e61626c653a2063616c6c6572206973206e6f7420746865206f776e6572600082015250565b7f455243313135353a2073657474696e6720617070726f76616c2073746174757360008201527f20666f722073656c660000000000000000000000000000000000000000000000602082015250565b7f455243313135353a206163636f756e747320616e6420696473206c656e67746860008201527f206d69736d617463680000000000000000000000000000000000000000000000602082015250565b7f455243313135353a2069647320616e6420616d6f756e7473206c656e6774682060008201527f6d69736d61746368000000000000000000000000000000000000000000000000602082015250565b7f455243313135353a206d696e7420746f20746865207a65726f2061646472657360008201527f7300000000000000000000000000000000000000000000000000000000000000602082015250565b600060443d1015612d0757612d8a565b612d0f61255d565b60043d036004823e80513d602482011167ffffffffffffffff82111715612d37575050612d8a565b808201805167ffffffffffffffff811115612d555750505050612d8a565b80602083010160043d038501811115612d72575050505050612d8a565b612d81826020018501866127d3565b82955050505050505b90565b612d96816126eb565b8114612da157600080fd5b50565b612dad816126fd565b8114612db857600080fd5b50565b612dc481612709565b8114612dcf57600080fd5b50565b612ddb81612755565b8114612de657600080fd5b5056fea2646970667358221220e8b5778afe5125808b7d661faf03b65fdee6251dda6fdb3985e92399d43007a964736f6c63430008040033",
  "immutableReferences": {},
  "source": "// SPDX-License-Identifier: UNLICENSED\n\npragma solidity ^0.8.4;\n\nimport \"@openzeppelin/contracts/token/ERC1155/ERC1155.sol\";\nimport \"@openzeppelin/contracts/utils/Counters.sol\";\nimport \"@openzeppelin/contracts/access/Ownable.sol\";\n\ninterface IEngine {\n    function buy(\n        uint256 offerIndex,\n        address to,\n        uint256 amount\n    ) external payable;\n}\n\ncontract Base1155 is ERC1155, Ownable {\n    using Counters for Counters.Counter;\n    Counters.Counter private _tokenIds;\n \n    constructor()        \n        ERC1155(\"www.xsigma.fi/tokens/{id}.json\")\n    {}\n\n    function ImAlive() external pure returns (uint256) {\n        return 1;\n    }\n    \n    function createItem(\n        uint256 _amount // amount of tokens for this item\n    ) public returns (uint256) {\n        _tokenIds.increment();\n        uint256 newItemId = _tokenIds.current();\n\n        // mint the NFT tokens of the collection\n        _mint(msg.sender, newItemId, _amount, \"\");\n      \n        return newItemId;\n    }\n   \n}\n",
  "sourcePath": "/home/linux/ether/XSigma1155/contracts/Base1155.sol",
  "compiler": {
    "name": "solc",
    "version": "0.8.4+commit.c7e474f2.Emscripten.clang"
  },
  "schemaVersion": "3.3.4",
  "updatedAt": "2021-06-08T15:35:25.003Z",
  "devdoc": {
    "kind": "dev",
    "methods": {
      "balanceOf(address,uint256)": {
        "details": "See {IERC1155-balanceOf}. Requirements: - `account` cannot be the zero address."
      },
      "balanceOfBatch(address[],uint256[])": {
        "details": "See {IERC1155-balanceOfBatch}. Requirements: - `accounts` and `ids` must have the same length."
      },
      "isApprovedForAll(address,address)": {
        "details": "See {IERC1155-isApprovedForAll}."
      },
      "owner()": {
        "details": "Returns the address of the current owner."
      },
      "renounceOwnership()": {
        "details": "Leaves the contract without owner. It will not be possible to call `onlyOwner` functions anymore. Can only be called by the current owner. NOTE: Renouncing ownership will leave the contract without an owner, thereby removing any functionality that is only available to the owner."
      },
      "safeBatchTransferFrom(address,address,uint256[],uint256[],bytes)": {
        "details": "See {IERC1155-safeBatchTransferFrom}."
      },
      "safeTransferFrom(address,address,uint256,uint256,bytes)": {
        "details": "See {IERC1155-safeTransferFrom}."
      },
      "setApprovalForAll(address,bool)": {
        "details": "See {IERC1155-setApprovalForAll}."
      },
      "supportsInterface(bytes4)": {
        "details": "See {IERC165-supportsInterface}."
      },
      "transferOwnership(address)": {
        "details": "Transfers ownership of the contract to a new account (`newOwner`). Can only be called by the current owner."
      },
      "uri(uint256)": {
        "details": "See {IERC1155MetadataURI-uri}. This implementation returns the same URI for *all* token types. It relies on the token type ID substitution mechanism https://eips.ethereum.org/EIPS/eip-1155#metadata[defined in the EIP]. Clients calling this function must replace the `\\{id\\}` substring with the actual token type ID."
      }
    },
    "version": 1
  },
  "userdoc": {
    "kind": "user",
    "methods": {},
    "version": 1
  }
}