{
  "contractName": "Base1155",
  "abi": [
    {
      "inputs": [],
      "stateMutability": "nonpayable",
      "type": "constructor"
    },
    {
      "anonymous": false,
      "inputs": [
        {
          "indexed": true,
          "internalType": "address",
          "name": "account",
          "type": "address"
        },
        {
          "indexed": true,
          "internalType": "address",
          "name": "operator",
          "type": "address"
        },
        {
          "indexed": false,
          "internalType": "bool",
          "name": "approved",
          "type": "bool"
        }
      ],
      "name": "ApprovalForAll",
      "type": "event"
    },
    {
      "anonymous": false,
      "inputs": [
        {
          "indexed": true,
          "internalType": "address",
          "name": "previousOwner",
          "type": "address"
        },
        {
          "indexed": true,
          "internalType": "address",
          "name": "newOwner",
          "type": "address"
        }
      ],
      "name": "OwnershipTransferred",
      "type": "event"
    },
    {
      "anonymous": false,
      "inputs": [
        {
          "indexed": true,
          "internalType": "address",
          "name": "operator",
          "type": "address"
        },
        {
          "indexed": true,
          "internalType": "address",
          "name": "from",
          "type": "address"
        },
        {
          "indexed": true,
          "internalType": "address",
          "name": "to",
          "type": "address"
        },
        {
          "indexed": false,
          "internalType": "uint256[]",
          "name": "ids",
          "type": "uint256[]"
        },
        {
          "indexed": false,
          "internalType": "uint256[]",
          "name": "values",
          "type": "uint256[]"
        }
      ],
      "name": "TransferBatch",
      "type": "event"
    },
    {
      "anonymous": false,
      "inputs": [
        {
          "indexed": true,
          "internalType": "address",
          "name": "operator",
          "type": "address"
        },
        {
          "indexed": true,
          "internalType": "address",
          "name": "from",
          "type": "address"
        },
        {
          "indexed": true,
          "internalType": "address",
          "name": "to",
          "type": "address"
        },
        {
          "indexed": false,
          "internalType": "uint256",
          "name": "id",
          "type": "uint256"
        },
        {
          "indexed": false,
          "internalType": "uint256",
          "name": "value",
          "type": "uint256"
        }
      ],
      "name": "TransferSingle",
      "type": "event"
    },
    {
      "anonymous": false,
      "inputs": [
        {
          "indexed": false,
          "internalType": "string",
          "name": "value",
          "type": "string"
        },
        {
          "indexed": true,
          "internalType": "uint256",
          "name": "id",
          "type": "uint256"
        }
      ],
      "name": "URI",
      "type": "event"
    },
    {
      "inputs": [
        {
          "internalType": "address",
          "name": "account",
          "type": "address"
        },
        {
          "internalType": "uint256",
          "name": "id",
          "type": "uint256"
        }
      ],
      "name": "balanceOf",
      "outputs": [
        {
          "internalType": "uint256",
          "name": "",
          "type": "uint256"
        }
      ],
      "stateMutability": "view",
      "type": "function"
    },
    {
      "inputs": [
        {
          "internalType": "address[]",
          "name": "accounts",
          "type": "address[]"
        },
        {
          "internalType": "uint256[]",
          "name": "ids",
          "type": "uint256[]"
        }
      ],
      "name": "balanceOfBatch",
      "outputs": [
        {
          "internalType": "uint256[]",
          "name": "",
          "type": "uint256[]"
        }
      ],
      "stateMutability": "view",
      "type": "function"
    },
    {
      "inputs": [
        {
          "internalType": "address",
          "name": "account",
          "type": "address"
        },
        {
          "internalType": "address",
          "name": "operator",
          "type": "address"
        }
      ],
      "name": "isApprovedForAll",
      "outputs": [
        {
          "internalType": "bool",
          "name": "",
          "type": "bool"
        }
      ],
      "stateMutability": "view",
      "type": "function"
    },
    {
      "inputs": [],
      "name": "owner",
      "outputs": [
        {
          "internalType": "address",
          "name": "",
          "type": "address"
        }
      ],
      "stateMutability": "view",
      "type": "function"
    },
    {
      "inputs": [],
      "name": "renounceOwnership",
      "outputs": [],
      "stateMutability": "nonpayable",
      "type": "function"
    },
    {
      "inputs": [
        {
          "internalType": "address",
          "name": "from",
          "type": "address"
        },
        {
          "internalType": "address",
          "name": "to",
          "type": "address"
        },
        {
          "internalType": "uint256[]",
          "name": "ids",
          "type": "uint256[]"
        },
        {
          "internalType": "uint256[]",
          "name": "amounts",
          "type": "uint256[]"
        },
        {
          "internalType": "bytes",
          "name": "data",
          "type": "bytes"
        }
      ],
      "name": "safeBatchTransferFrom",
      "outputs": [],
      "stateMutability": "nonpayable",
      "type": "function"
    },
    {
      "inputs": [
        {
          "internalType": "address",
          "name": "from",
          "type": "address"
        },
        {
          "internalType": "address",
          "name": "to",
          "type": "address"
        },
        {
          "internalType": "uint256",
          "name": "id",
          "type": "uint256"
        },
        {
          "internalType": "uint256",
          "name": "amount",
          "type": "uint256"
        },
        {
          "internalType": "bytes",
          "name": "data",
          "type": "bytes"
        }
      ],
      "name": "safeTransferFrom",
      "outputs": [],
      "stateMutability": "nonpayable",
      "type": "function"
    },
    {
      "inputs": [
        {
          "internalType": "address",
          "name": "operator",
          "type": "address"
        },
        {
          "internalType": "bool",
          "name": "approved",
          "type": "bool"
        }
      ],
      "name": "setApprovalForAll",
      "outputs": [],
      "stateMutability": "nonpayable",
      "type": "function"
    },
    {
      "inputs": [
        {
          "internalType": "bytes4",
          "name": "interfaceId",
          "type": "bytes4"
        }
      ],
      "name": "supportsInterface",
      "outputs": [
        {
          "internalType": "bool",
          "name": "",
          "type": "bool"
        }
      ],
      "stateMutability": "view",
      "type": "function"
    },
    {
      "inputs": [
        {
          "internalType": "uint256",
          "name": "",
          "type": "uint256"
        }
      ],
      "name": "tokens",
      "outputs": [
        {
          "internalType": "address",
          "name": "creator",
          "type": "address"
        },
        {
          "internalType": "uint256",
          "name": "royalties",
          "type": "uint256"
        }
      ],
      "stateMutability": "view",
      "type": "function"
    },
    {
      "inputs": [
        {
          "internalType": "address",
          "name": "newOwner",
          "type": "address"
        }
      ],
      "name": "transferOwnership",
      "outputs": [],
      "stateMutability": "nonpayable",
      "type": "function"
    },
    {
      "inputs": [
        {
          "internalType": "uint256",
          "name": "",
          "type": "uint256"
        }
      ],
      "name": "uri",
      "outputs": [
        {
          "internalType": "string",
          "name": "",
          "type": "string"
        }
      ],
      "stateMutability": "view",
      "type": "function"
    },
    {
      "inputs": [],
      "name": "ImAlive",
      "outputs": [
        {
          "internalType": "uint256",
          "name": "",
          "type": "uint256"
        }
      ],
      "stateMutability": "pure",
      "type": "function"
    },
    {
      "inputs": [
        {
          "internalType": "uint256",
          "name": "_id",
          "type": "uint256"
        }
      ],
      "name": "getCreator",
      "outputs": [
        {
          "internalType": "address",
          "name": "",
          "type": "address"
        }
      ],
      "stateMutability": "view",
      "type": "function"
    },
    {
      "inputs": [
        {
          "internalType": "uint256",
          "name": "_id",
          "type": "uint256"
        }
      ],
      "name": "getRoyalties",
      "outputs": [
        {
          "internalType": "uint256",
          "name": "",
          "type": "uint256"
        }
      ],
      "stateMutability": "view",
      "type": "function"
    },
    {
      "inputs": [
        {
          "internalType": "address",
          "name": "engine",
          "type": "address"
        },
        {
          "internalType": "uint256",
          "name": "_amount",
          "type": "uint256"
        },
        {
          "internalType": "uint256",
          "name": "_royalties",
          "type": "uint256"
        }
      ],
      "name": "createItem",
      "outputs": [
        {
          "internalType": "uint256",
          "name": "",
          "type": "uint256"
        }
      ],
      "stateMutability": "nonpayable",
      "type": "function"
    }
  ],
  "bytecode": "0x6080604052612616600760006101000a8154816fffffffffffffffffffffffffffffffff02191690836fffffffffffffffffffffffffffffffff16021790555060fa600760106101000a8154816fffffffffffffffffffffffffffffffff02191690836fffffffffffffffffffffffffffffffff1602179055503480156200008657600080fd5b506040518060400160405280602081526020017f7777772e7361746f7368692e6172742f746f6b656e732f7b69647d2e6a736f6e815250620000ce81620001c760201b60201c565b506000620000e1620001e360201b60201c565b905080600360006101000a81548173ffffffffffffffffffffffffffffffffffffffff021916908373ffffffffffffffffffffffffffffffffffffffff1602179055508073ffffffffffffffffffffffffffffffffffffffff16600073ffffffffffffffffffffffffffffffffffffffff167f8be0079c531659141344cd1fd0a4f28419497f9722a3daafe3b4186f6b6457e060405160405180910390a35033600560006101000a81548173ffffffffffffffffffffffffffffffffffffffff021916908373ffffffffffffffffffffffffffffffffffffffff16021790555062000300565b8060029080519060200190620001df929190620001eb565b5050565b600033905090565b828054620001f9906200029b565b90600052602060002090601f0160209004810192826200021d576000855562000269565b82601f106200023857805160ff191683800117855562000269565b8280016001018555821562000269579182015b82811115620002685782518255916020019190600101906200024b565b5b5090506200027891906200027c565b5090565b5b80821115620002975760008160009055506001016200027d565b5090565b60006002820490506001821680620002b457607f821691505b60208210811415620002cb57620002ca620002d1565b5b50919050565b7f4e487b7100000000000000000000000000000000000000000000000000000000600052602260045260246000fd5b61314d80620003106000396000f3fe608060405234801561001057600080fd5b50600436106100ff5760003560e01c8063715018a611610097578063d48e638a11610066578063d48e638a146102d3578063e985e9c514610303578063f242432a14610333578063f2fde38b1461034f576100ff565b8063715018a61461025f5780638da5cb5b14610269578063a22cb46514610287578063bb3bafd6146102a3576100ff565b80632eb2c2d6116100d35780632eb2c2d6146101b25780634e1273f4146101ce5780634f64b2be146101fe57806357baf0fb1461022f576100ff565b8062fdd58e1461010457806301ffc9a7146101345780630e89341c14610164578063114ed58f14610194575b600080fd5b61011e60048036038101906101199190612027565b61036b565b60405161012b9190612803565b60405180910390f35b61014e6004803603810190610149919061211e565b610434565b60405161015b9190612606565b60405180910390f35b61017e60048036038101906101799190612170565b610516565b60405161018b9190612621565b60405180910390f35b61019c6105aa565b6040516101a99190612803565b60405180910390f35b6101cc60048036038101906101c79190611e9d565b6105b3565b005b6101e860048036038101906101e391906120b2565b6109a9565b6040516101f591906125ad565b60405180910390f35b61021860048036038101906102139190612170565b610b5a565b604051610226929190612584565b60405180910390f35b61024960048036038101906102449190612063565b610b9e565b6040516102569190612803565b60405180910390f35b610267610cc0565b005b610271610dfd565b60405161027e91906124a7565b60405180910390f35b6102a1600480360381019061029c9190611feb565b610e27565b005b6102bd60048036038101906102b89190612170565b610fa8565b6040516102ca9190612803565b60405180910390f35b6102ed60048036038101906102e89190612170565b610fc8565b6040516102fa91906124a7565b60405180910390f35b61031d60048036038101906103189190611e61565b611008565b60405161032a9190612606565b60405180910390f35b61034d60048036038101906103489190611f5c565b61109c565b005b61036960048036038101906103649190611e38565b6113b4565b005b60008073ffffffffffffffffffffffffffffffffffffffff168373ffffffffffffffffffffffffffffffffffffffff1614156103dc576040517f08c379a00000000000000000000000000000000000000000000000000000000081526004016103d390612683565b60405180910390fd5b60008083815260200190815260200160002060008473ffffffffffffffffffffffffffffffffffffffff1673ffffffffffffffffffffffffffffffffffffffff16815260200190815260200160002054905092915050565b60007fd9b67a26000000000000000000000000000000000000000000000000000000007bffffffffffffffffffffffffffffffffffffffffffffffffffffffff1916827bffffffffffffffffffffffffffffffffffffffffffffffffffffffff191614806104ff57507f0e89341c000000000000000000000000000000000000000000000000000000007bffffffffffffffffffffffffffffffffffffffffffffffffffffffff1916827bffffffffffffffffffffffffffffffffffffffffffffffffffffffff1916145b8061050f575061050e82611560565b5b9050919050565b60606002805461052590612aa6565b80601f016020809104026020016040519081016040528092919081815260200182805461055190612aa6565b801561059e5780601f106105735761010080835404028352916020019161059e565b820191906000526020600020905b81548152906001019060200180831161058157829003601f168201915b50505050509050919050565b60006001905090565b81518351146105f7576040517f08c379a00000000000000000000000000000000000000000000000000000000081526004016105ee906127c3565b60405180910390fd5b600073ffffffffffffffffffffffffffffffffffffffff168473ffffffffffffffffffffffffffffffffffffffff161415610667576040517f08c379a000000000000000000000000000000000000000000000000000000000815260040161065e90612703565b60405180910390fd5b61066f6115ca565b73ffffffffffffffffffffffffffffffffffffffff168573ffffffffffffffffffffffffffffffffffffffff1614806106b557506106b4856106af6115ca565b611008565b5b6106f4576040517f08c379a00000000000000000000000000000000000000000000000000000000081526004016106eb90612723565b60405180910390fd5b60006106fe6115ca565b905061070e8187878787876115d2565b60005b8451811015610914576000858281518110610755577f4e487b7100000000000000000000000000000000000000000000000000000000600052603260045260246000fd5b60200260200101519050600085838151811061079a577f4e487b7100000000000000000000000000000000000000000000000000000000600052603260045260246000fd5b60200260200101519050600080600084815260200190815260200160002060008b73ffffffffffffffffffffffffffffffffffffffff1673ffffffffffffffffffffffffffffffffffffffff1681526020019081526020016000205490508181101561083b576040517f08c379a000000000000000000000000000000000000000000000000000000000815260040161083290612743565b60405180910390fd5b818161084791906129bc565b60008085815260200190815260200160002060008c73ffffffffffffffffffffffffffffffffffffffff1673ffffffffffffffffffffffffffffffffffffffff168152602001908152602001600020819055508160008085815260200190815260200160002060008b73ffffffffffffffffffffffffffffffffffffffff1673ffffffffffffffffffffffffffffffffffffffff16815260200190815260200160002060008282546108f99190612966565b925050819055505050508061090d90612b09565b9050610711565b508473ffffffffffffffffffffffffffffffffffffffff168673ffffffffffffffffffffffffffffffffffffffff168273ffffffffffffffffffffffffffffffffffffffff167f4a39dc06d4c0dbc64b70af90fd698a233a518aa5d07e595d983b8c0526c8f7fb878760405161098b9291906125cf565b60405180910390a46109a18187878787876115da565b505050505050565b606081518351146109ef576040517f08c379a00000000000000000000000000000000000000000000000000000000081526004016109e6906127a3565b60405180910390fd5b6000835167ffffffffffffffff811115610a32577f4e487b7100000000000000000000000000000000000000000000000000000000600052604160045260246000fd5b604051908082528060200260200182016040528015610a605781602001602082028036833780820191505090505b50905060005b8451811015610b4f57610af9858281518110610aab577f4e487b7100000000000000000000000000000000000000000000000000000000600052603260045260246000fd5b6020026020010151858381518110610aec577f4e487b7100000000000000000000000000000000000000000000000000000000600052603260045260246000fd5b602002602001015161036b565b828281518110610b32577f4e487b7100000000000000000000000000000000000000000000000000000000600052603260045260246000fd5b60200260200101818152505080610b4890612b09565b9050610a66565b508091505092915050565b60066020528060005260406000206000915090508060000160009054906101000a900473ffffffffffffffffffffffffffffffffffffffff16908060010154905082565b60006103e8821115610be5576040517f08c379a0000000000000000000000000000000000000000000000000000000008152600401610bdc906126e3565b60405180910390fd5b610bef60046117c1565b6000610bfb60046117d7565b9050610c18338286604051806020016040528060008152506117e5565b610c23856001610e27565b60405180604001604052803373ffffffffffffffffffffffffffffffffffffffff168152602001848152506006600083815260200190815260200160002060008201518160000160006101000a81548173ffffffffffffffffffffffffffffffffffffffff021916908373ffffffffffffffffffffffffffffffffffffffff16021790555060208201518160010155905050809150509392505050565b610cc86115ca565b73ffffffffffffffffffffffffffffffffffffffff16610ce6610dfd565b73ffffffffffffffffffffffffffffffffffffffff1614610d3c576040517f08c379a0000000000000000000000000000000000000000000000000000000008152600401610d3390612763565b60405180910390fd5b600073ffffffffffffffffffffffffffffffffffffffff16600360009054906101000a900473ffffffffffffffffffffffffffffffffffffffff1673ffffffffffffffffffffffffffffffffffffffff167f8be0079c531659141344cd1fd0a4f28419497f9722a3daafe3b4186f6b6457e060405160405180910390a36000600360006101000a81548173ffffffffffffffffffffffffffffffffffffffff021916908373ffffffffffffffffffffffffffffffffffffffff160217905550565b6000600360009054906101000a900473ffffffffffffffffffffffffffffffffffffffff16905090565b8173ffffffffffffffffffffffffffffffffffffffff16610e466115ca565b73ffffffffffffffffffffffffffffffffffffffff161415610e9d576040517f08c379a0000000000000000000000000000000000000000000000000000000008152600401610e9490612783565b60405180910390fd5b8060016000610eaa6115ca565b73ffffffffffffffffffffffffffffffffffffffff1673ffffffffffffffffffffffffffffffffffffffff16815260200190815260200160002060008473ffffffffffffffffffffffffffffffffffffffff1673ffffffffffffffffffffffffffffffffffffffff16815260200190815260200160002060006101000a81548160ff0219169083151502179055508173ffffffffffffffffffffffffffffffffffffffff16610f576115ca565b73ffffffffffffffffffffffffffffffffffffffff167f17307eab39ab6107e8899845ad3d59bd9653f200f220920489ca2b5937696c3183604051610f9c9190612606565b60405180910390a35050565b600060066000838152602001908152602001600020600101549050919050565b60006006600083815260200190815260200160002060000160009054906101000a900473ffffffffffffffffffffffffffffffffffffffff169050919050565b6000600160008473ffffffffffffffffffffffffffffffffffffffff1673ffffffffffffffffffffffffffffffffffffffff16815260200190815260200160002060008373ffffffffffffffffffffffffffffffffffffffff1673ffffffffffffffffffffffffffffffffffffffff16815260200190815260200160002060009054906101000a900460ff16905092915050565b600073ffffffffffffffffffffffffffffffffffffffff168473ffffffffffffffffffffffffffffffffffffffff16141561110c576040517f08c379a000000000000000000000000000000000000000000000000000000000815260040161110390612703565b60405180910390fd5b6111146115ca565b73ffffffffffffffffffffffffffffffffffffffff168573ffffffffffffffffffffffffffffffffffffffff16148061115a5750611159856111546115ca565b611008565b5b611199576040517f08c379a0000000000000000000000000000000000000000000000000000000008152600401611190906126c3565b60405180910390fd5b60006111a36115ca565b90506111c38187876111b48861197b565b6111bd8861197b565b876115d2565b600080600086815260200190815260200160002060008873ffffffffffffffffffffffffffffffffffffffff1673ffffffffffffffffffffffffffffffffffffffff1681526020019081526020016000205490508381101561125a576040517f08c379a000000000000000000000000000000000000000000000000000000000815260040161125190612743565b60405180910390fd5b838161126691906129bc565b60008087815260200190815260200160002060008973ffffffffffffffffffffffffffffffffffffffff1673ffffffffffffffffffffffffffffffffffffffff168152602001908152602001600020819055508360008087815260200190815260200160002060008873ffffffffffffffffffffffffffffffffffffffff1673ffffffffffffffffffffffffffffffffffffffff16815260200190815260200160002060008282546113189190612966565b925050819055508573ffffffffffffffffffffffffffffffffffffffff168773ffffffffffffffffffffffffffffffffffffffff168373ffffffffffffffffffffffffffffffffffffffff167fc3d58168c5ae7397731d063d5bbf3d657854427343f4c083240f7aacaa2d0f62888860405161139592919061281e565b60405180910390a46113ab828888888888611a41565b50505050505050565b6113bc6115ca565b73ffffffffffffffffffffffffffffffffffffffff166113da610dfd565b73ffffffffffffffffffffffffffffffffffffffff1614611430576040517f08c379a000000000000000000000000000000000000000000000000000000000815260040161142790612763565b60405180910390fd5b600073ffffffffffffffffffffffffffffffffffffffff168173ffffffffffffffffffffffffffffffffffffffff1614156114a0576040517f08c379a0000000000000000000000000000000000000000000000000000000008152600401611497906126a3565b60405180910390fd5b8073ffffffffffffffffffffffffffffffffffffffff16600360009054906101000a900473ffffffffffffffffffffffffffffffffffffffff1673ffffffffffffffffffffffffffffffffffffffff167f8be0079c531659141344cd1fd0a4f28419497f9722a3daafe3b4186f6b6457e060405160405180910390a380600360006101000a81548173ffffffffffffffffffffffffffffffffffffffff021916908373ffffffffffffffffffffffffffffffffffffffff16021790555050565b60007f01ffc9a7000000000000000000000000000000000000000000000000000000007bffffffffffffffffffffffffffffffffffffffffffffffffffffffff1916827bffffffffffffffffffffffffffffffffffffffffffffffffffffffff1916149050919050565b600033905090565b505050505050565b6115f98473ffffffffffffffffffffffffffffffffffffffff16611c28565b156117b9578373ffffffffffffffffffffffffffffffffffffffff1663bc197c8187878686866040518663ffffffff1660e01b815260040161163f9594939291906124c2565b602060405180830381600087803b15801561165957600080fd5b505af192505050801561168a57506040513d601f19601f820116820180604052508101906116879190612147565b60015b61173057611696612bdf565b806308c379a014156116f357506116ab613025565b806116b657506116f5565b806040517f08c379a00000000000000000000000000000000000000000000000000000000081526004016116ea9190612621565b60405180910390fd5b505b6040517f08c379a000000000000000000000000000000000000000000000000000000000815260040161172790612643565b60405180910390fd5b63bc197c8160e01b7bffffffffffffffffffffffffffffffffffffffffffffffffffffffff1916817bffffffffffffffffffffffffffffffffffffffffffffffffffffffff1916146117b7576040517f08c379a00000000000000000000000000000000000000000000000000000000081526004016117ae90612663565b60405180910390fd5b505b505050505050565b6001816000016000828254019250508190555050565b600081600001549050919050565b600073ffffffffffffffffffffffffffffffffffffffff168473ffffffffffffffffffffffffffffffffffffffff161415611855576040517f08c379a000000000000000000000000000000000000000000000000000000000815260040161184c906127e3565b60405180910390fd5b600061185f6115ca565b9050611880816000876118718861197b565b61187a8861197b565b876115d2565b8260008086815260200190815260200160002060008773ffffffffffffffffffffffffffffffffffffffff1673ffffffffffffffffffffffffffffffffffffffff16815260200190815260200160002060008282546118df9190612966565b925050819055508473ffffffffffffffffffffffffffffffffffffffff16600073ffffffffffffffffffffffffffffffffffffffff168273ffffffffffffffffffffffffffffffffffffffff167fc3d58168c5ae7397731d063d5bbf3d657854427343f4c083240f7aacaa2d0f62878760405161195d92919061281e565b60405180910390a461197481600087878787611a41565b5050505050565b60606000600167ffffffffffffffff8111156119c0577f4e487b7100000000000000000000000000000000000000000000000000000000600052604160045260246000fd5b6040519080825280602002602001820160405280156119ee5781602001602082028036833780820191505090505b5090508281600081518110611a2c577f4e487b7100000000000000000000000000000000000000000000000000000000600052603260045260246000fd5b60200260200101818152505080915050919050565b611a608473ffffffffffffffffffffffffffffffffffffffff16611c28565b15611c20578373ffffffffffffffffffffffffffffffffffffffff1663f23a6e6187878686866040518663ffffffff1660e01b8152600401611aa695949392919061252a565b602060405180830381600087803b158015611ac057600080fd5b505af1925050508015611af157506040513d601f19601f82011682018060405250810190611aee9190612147565b60015b611b9757611afd612bdf565b806308c379a01415611b5a5750611b12613025565b80611b1d5750611b5c565b806040517f08c379a0000000000000000000000000000000000000000000000000000000008152600401611b519190612621565b60405180910390fd5b505b6040517f08c379a0000000000000000000000000000000000000000000000000000000008152600401611b8e90612643565b60405180910390fd5b63f23a6e6160e01b7bffffffffffffffffffffffffffffffffffffffffffffffffffffffff1916817bffffffffffffffffffffffffffffffffffffffffffffffffffffffff191614611c1e576040517f08c379a0000000000000000000000000000000000000000000000000000000008152600401611c1590612663565b60405180910390fd5b505b505050505050565b600080823b905060008111915050919050565b6000611c4e611c498461286c565b612847565b90508083825260208201905082856020860282011115611c6d57600080fd5b60005b85811015611c9d5781611c838882611d51565b845260208401935060208301925050600181019050611c70565b5050509392505050565b6000611cba611cb584612898565b612847565b90508083825260208201905082856020860282011115611cd957600080fd5b60005b85811015611d095781611cef8882611e23565b845260208401935060208301925050600181019050611cdc565b5050509392505050565b6000611d26611d21846128c4565b612847565b905082815260208101848484011115611d3e57600080fd5b611d49848285612a64565b509392505050565b600081359050611d60816130bb565b92915050565b600082601f830112611d7757600080fd5b8135611d87848260208601611c3b565b91505092915050565b600082601f830112611da157600080fd5b8135611db1848260208601611ca7565b91505092915050565b600081359050611dc9816130d2565b92915050565b600081359050611dde816130e9565b92915050565b600081519050611df3816130e9565b92915050565b600082601f830112611e0a57600080fd5b8135611e1a848260208601611d13565b91505092915050565b600081359050611e3281613100565b92915050565b600060208284031215611e4a57600080fd5b6000611e5884828501611d51565b91505092915050565b60008060408385031215611e7457600080fd5b6000611e8285828601611d51565b9250506020611e9385828601611d51565b9150509250929050565b600080600080600060a08688031215611eb557600080fd5b6000611ec388828901611d51565b9550506020611ed488828901611d51565b945050604086013567ffffffffffffffff811115611ef157600080fd5b611efd88828901611d90565b935050606086013567ffffffffffffffff811115611f1a57600080fd5b611f2688828901611d90565b925050608086013567ffffffffffffffff811115611f4357600080fd5b611f4f88828901611df9565b9150509295509295909350565b600080600080600060a08688031215611f7457600080fd5b6000611f8288828901611d51565b9550506020611f9388828901611d51565b9450506040611fa488828901611e23565b9350506060611fb588828901611e23565b925050608086013567ffffffffffffffff811115611fd257600080fd5b611fde88828901611df9565b9150509295509295909350565b60008060408385031215611ffe57600080fd5b600061200c85828601611d51565b925050602061201d85828601611dba565b9150509250929050565b6000806040838503121561203a57600080fd5b600061204885828601611d51565b925050602061205985828601611e23565b9150509250929050565b60008060006060848603121561207857600080fd5b600061208686828701611d51565b935050602061209786828701611e23565b92505060406120a886828701611e23565b9150509250925092565b600080604083850312156120c557600080fd5b600083013567ffffffffffffffff8111156120df57600080fd5b6120eb85828601611d66565b925050602083013567ffffffffffffffff81111561210857600080fd5b61211485828601611d90565b9150509250929050565b60006020828403121561213057600080fd5b600061213e84828501611dcf565b91505092915050565b60006020828403121561215957600080fd5b600061216784828501611de4565b91505092915050565b60006020828403121561218257600080fd5b600061219084828501611e23565b91505092915050565b60006121a58383612489565b60208301905092915050565b6121ba816129f0565b82525050565b60006121cb82612905565b6121d58185612933565b93506121e0836128f5565b8060005b838110156122115781516121f88882612199565b975061220383612926565b9250506001810190506121e4565b5085935050505092915050565b61222781612a02565b82525050565b600061223882612910565b6122428185612944565b9350612252818560208601612a73565b61225b81612c01565b840191505092915050565b60006122718261291b565b61227b8185612955565b935061228b818560208601612a73565b61229481612c01565b840191505092915050565b60006122ac603483612955565b91506122b782612c1f565b604082019050919050565b60006122cf602883612955565b91506122da82612c6e565b604082019050919050565b60006122f2602b83612955565b91506122fd82612cbd565b604082019050919050565b6000612315602683612955565b915061232082612d0c565b604082019050919050565b6000612338602983612955565b915061234382612d5b565b604082019050919050565b600061235b601283612955565b915061236682612daa565b602082019050919050565b600061237e602583612955565b915061238982612dd3565b604082019050919050565b60006123a1603283612955565b91506123ac82612e22565b604082019050919050565b60006123c4602a83612955565b91506123cf82612e71565b604082019050919050565b60006123e7602083612955565b91506123f282612ec0565b602082019050919050565b600061240a602983612955565b915061241582612ee9565b604082019050919050565b600061242d602983612955565b915061243882612f38565b604082019050919050565b6000612450602883612955565b915061245b82612f87565b604082019050919050565b6000612473602183612955565b915061247e82612fd6565b604082019050919050565b61249281612a5a565b82525050565b6124a181612a5a565b82525050565b60006020820190506124bc60008301846121b1565b92915050565b600060a0820190506124d760008301886121b1565b6124e460208301876121b1565b81810360408301526124f681866121c0565b9050818103606083015261250a81856121c0565b9050818103608083015261251e818461222d565b90509695505050505050565b600060a08201905061253f60008301886121b1565b61254c60208301876121b1565b6125596040830186612498565b6125666060830185612498565b8181036080830152612578818461222d565b90509695505050505050565b600060408201905061259960008301856121b1565b6125a66020830184612498565b9392505050565b600060208201905081810360008301526125c781846121c0565b905092915050565b600060408201905081810360008301526125e981856121c0565b905081810360208301526125fd81846121c0565b90509392505050565b600060208201905061261b600083018461221e565b92915050565b6000602082019050818103600083015261263b8184612266565b905092915050565b6000602082019050818103600083015261265c8161229f565b9050919050565b6000602082019050818103600083015261267c816122c2565b9050919050565b6000602082019050818103600083015261269c816122e5565b9050919050565b600060208201905081810360008301526126bc81612308565b9050919050565b600060208201905081810360008301526126dc8161232b565b9050919050565b600060208201905081810360008301526126fc8161234e565b9050919050565b6000602082019050818103600083015261271c81612371565b9050919050565b6000602082019050818103600083015261273c81612394565b9050919050565b6000602082019050818103600083015261275c816123b7565b9050919050565b6000602082019050818103600083015261277c816123da565b9050919050565b6000602082019050818103600083015261279c816123fd565b9050919050565b600060208201905081810360008301526127bc81612420565b9050919050565b600060208201905081810360008301526127dc81612443565b9050919050565b600060208201905081810360008301526127fc81612466565b9050919050565b60006020820190506128186000830184612498565b92915050565b60006040820190506128336000830185612498565b6128406020830184612498565b9392505050565b6000612851612862565b905061285d8282612ad8565b919050565b6000604051905090565b600067ffffffffffffffff82111561288757612886612bb0565b5b602082029050602081019050919050565b600067ffffffffffffffff8211156128b3576128b2612bb0565b5b602082029050602081019050919050565b600067ffffffffffffffff8211156128df576128de612bb0565b5b6128e882612c01565b9050602081019050919050565b6000819050602082019050919050565b600081519050919050565b600081519050919050565b600081519050919050565b6000602082019050919050565b600082825260208201905092915050565b600082825260208201905092915050565b600082825260208201905092915050565b600061297182612a5a565b915061297c83612a5a565b9250827fffffffffffffffffffffffffffffffffffffffffffffffffffffffffffffffff038211156129b1576129b0612b52565b5b828201905092915050565b60006129c782612a5a565b91506129d283612a5a565b9250828210156129e5576129e4612b52565b5b828203905092915050565b60006129fb82612a3a565b9050919050565b60008115159050919050565b60007fffffffff0000000000000000000000000000000000000000000000000000000082169050919050565b600073ffffffffffffffffffffffffffffffffffffffff82169050919050565b6000819050919050565b82818337600083830152505050565b60005b83811015612a91578082015181840152602081019050612a76565b83811115612aa0576000848401525b50505050565b60006002820490506001821680612abe57607f821691505b60208210811415612ad257612ad1612b81565b5b50919050565b612ae182612c01565b810181811067ffffffffffffffff82111715612b0057612aff612bb0565b5b80604052505050565b6000612b1482612a5a565b91507fffffffffffffffffffffffffffffffffffffffffffffffffffffffffffffffff821415612b4757612b46612b52565b5b600182019050919050565b7f4e487b7100000000000000000000000000000000000000000000000000000000600052601160045260246000fd5b7f4e487b7100000000000000000000000000000000000000000000000000000000600052602260045260246000fd5b7f4e487b7100000000000000000000000000000000000000000000000000000000600052604160045260246000fd5b600060033d1115612bfe5760046000803e612bfb600051612c12565b90505b90565b6000601f19601f8301169050919050565b60008160e01c9050919050565b7f455243313135353a207472616e7366657220746f206e6f6e204552433131353560008201527f526563656976657220696d706c656d656e746572000000000000000000000000602082015250565b7f455243313135353a204552433131353552656365697665722072656a6563746560008201527f6420746f6b656e73000000000000000000000000000000000000000000000000602082015250565b7f455243313135353a2062616c616e636520717565727920666f7220746865207a60008201527f65726f2061646472657373000000000000000000000000000000000000000000602082015250565b7f4f776e61626c653a206e6577206f776e657220697320746865207a65726f206160008201527f6464726573730000000000000000000000000000000000000000000000000000602082015250565b7f455243313135353a2063616c6c6572206973206e6f74206f776e6572206e6f7260008201527f20617070726f7665640000000000000000000000000000000000000000000000602082015250565b7f526f79616c7469657320746f6f20686967680000000000000000000000000000600082015250565b7f455243313135353a207472616e7366657220746f20746865207a65726f20616460008201527f6472657373000000000000000000000000000000000000000000000000000000602082015250565b7f455243313135353a207472616e736665722063616c6c6572206973206e6f742060008201527f6f776e6572206e6f7220617070726f7665640000000000000000000000000000602082015250565b7f455243313135353a20696e73756666696369656e742062616c616e636520666f60008201527f72207472616e7366657200000000000000000000000000000000000000000000602082015250565b7f4f776e61626c653a2063616c6c6572206973206e6f7420746865206f776e6572600082015250565b7f455243313135353a2073657474696e6720617070726f76616c2073746174757360008201527f20666f722073656c660000000000000000000000000000000000000000000000602082015250565b7f455243313135353a206163636f756e747320616e6420696473206c656e67746860008201527f206d69736d617463680000000000000000000000000000000000000000000000602082015250565b7f455243313135353a2069647320616e6420616d6f756e7473206c656e6774682060008201527f6d69736d61746368000000000000000000000000000000000000000000000000602082015250565b7f455243313135353a206d696e7420746f20746865207a65726f2061646472657360008201527f7300000000000000000000000000000000000000000000000000000000000000602082015250565b600060443d1015613035576130b8565b61303d612862565b60043d036004823e80513d602482011167ffffffffffffffff821117156130655750506130b8565b808201805167ffffffffffffffff81111561308357505050506130b8565b80602083010160043d0385018111156130a05750505050506130b8565b6130af82602001850186612ad8565b82955050505050505b90565b6130c4816129f0565b81146130cf57600080fd5b50565b6130db81612a02565b81146130e657600080fd5b50565b6130f281612a0e565b81146130fd57600080fd5b50565b61310981612a5a565b811461311457600080fd5b5056fea2646970667358221220f933b9d0f345dcfbaef2a71facc027c6aeddb2c312107149dbb11cd30c98689f64736f6c63430008040033",
  "immutableReferences": {},
  "source": "// SPDX-License-Identifier: UNLICENSED\n\npragma solidity ^0.8.4;\n\nimport \"@openzeppelin/contracts/token/ERC1155/ERC1155.sol\";\nimport \"@openzeppelin/contracts/utils/Counters.sol\";\nimport \"@openzeppelin/contracts/access/Ownable.sol\";\n\ninterface IEngine {\n    function buy(\n        uint256 offerIndex,\n        address to,\n        uint256 amount\n    ) external payable;\n}\n\ncontract Base1155 is ERC1155, Ownable {\n    using Counters for Counters.Counter;\n    Counters.Counter private _tokenIds;\n    address theOwner;\n\n    // Data of each token\n    struct TokenData {\n        address creator;\n        uint256 royalties;\n    }\n    mapping(uint256 => TokenData) public tokens;\n\n    uint128 bpArtists = 9750; // 94.00 in basis points (parts per 10,000)\n    uint128 bpPlatform = 250; // 6% for the platform\n\n    constructor()        \n        ERC1155(\"www.satoshi.art/tokens/{id}.json\")\n    {\n        theOwner = msg.sender;       \n    }\n\n    function ImAlive() external pure returns (uint256) {\n        return 1;\n    }\n\n    // returns the creator of the token\n    function getCreator(uint256 _id) external view returns (address) {\n        return tokens[_id].creator;\n    }\n\n    function getRoyalties(uint256 _id) external view returns (uint256) {\n        return tokens[_id].royalties;\n    }\n\n    function createItem(\n        address engine,\n        uint256 _amount, // amount of tokens for this item\n        uint256 _royalties // amount of royalties in bp\n    ) public returns (uint256) {\n        require(_royalties <= 1000, \"Royalties too high\"); // you cannot set all royalties + commision. So the limit is 2% for royalties\n        _tokenIds.increment();\n        uint256 newItemId = _tokenIds.current();\n\n        // mint the NFT tokens of the collection\n        _mint(msg.sender, newItemId, _amount, \"\");\n\n        // approves the engine to deal with the token\n        setApprovalForAll(engine, true);\n        // save the token data\n        tokens[newItemId] = TokenData({\n            creator: msg.sender,\n            royalties: _royalties\n        });\n\n        return newItemId;\n    }\n   \n}\n",
  "sourcePath": "/home/linux/ether/base/ERC1155/contracts/Base1155.sol",
  "compiler": {
    "name": "solc",
    "version": "0.8.4+commit.c7e474f2.Emscripten.clang"
  },
  "schemaVersion": "3.3.4",
  "updatedAt": "2021-05-10T11:30:34.931Z",
  "devdoc": {
    "kind": "dev",
    "methods": {
      "balanceOf(address,uint256)": {
        "details": "See {IERC1155-balanceOf}. Requirements: - `account` cannot be the zero address."
      },
      "balanceOfBatch(address[],uint256[])": {
        "details": "See {IERC1155-balanceOfBatch}. Requirements: - `accounts` and `ids` must have the same length."
      },
      "isApprovedForAll(address,address)": {
        "details": "See {IERC1155-isApprovedForAll}."
      },
      "owner()": {
        "details": "Returns the address of the current owner."
      },
      "renounceOwnership()": {
        "details": "Leaves the contract without owner. It will not be possible to call `onlyOwner` functions anymore. Can only be called by the current owner. NOTE: Renouncing ownership will leave the contract without an owner, thereby removing any functionality that is only available to the owner."
      },
      "safeBatchTransferFrom(address,address,uint256[],uint256[],bytes)": {
        "details": "See {IERC1155-safeBatchTransferFrom}."
      },
      "safeTransferFrom(address,address,uint256,uint256,bytes)": {
        "details": "See {IERC1155-safeTransferFrom}."
      },
      "setApprovalForAll(address,bool)": {
        "details": "See {IERC1155-setApprovalForAll}."
      },
      "supportsInterface(bytes4)": {
        "details": "See {IERC165-supportsInterface}."
      },
      "transferOwnership(address)": {
        "details": "Transfers ownership of the contract to a new account (`newOwner`). Can only be called by the current owner."
      },
      "uri(uint256)": {
        "details": "See {IERC1155MetadataURI-uri}. This implementation returns the same URI for *all* token types. It relies on the token type ID substitution mechanism https://eips.ethereum.org/EIPS/eip-1155#metadata[defined in the EIP]. Clients calling this function must replace the `\\{id\\}` substring with the actual token type ID."
      }
    },
    "version": 1
  },
  "userdoc": {
    "kind": "user",
    "methods": {},
    "version": 1
  }
}