{
  "contractName": "Engine",
  "abi": [
    {
      "anonymous": false,
      "inputs": [
        {
          "indexed": false,
          "internalType": "uint256",
          "name": "_index",
          "type": "uint256"
        },
        {
          "indexed": false,
          "internalType": "address",
          "name": "_bidder",
          "type": "address"
        },
        {
          "indexed": false,
          "internalType": "uint256",
          "name": "amount",
          "type": "uint256"
        }
      ],
      "name": "AuctionBid",
      "type": "event"
    },
    {
      "anonymous": false,
      "inputs": [
        {
          "indexed": false,
          "internalType": "uint256",
          "name": "_index",
          "type": "uint256"
        },
        {
          "indexed": false,
          "internalType": "address",
          "name": "_creator",
          "type": "address"
        },
        {
          "indexed": false,
          "internalType": "address",
          "name": "_asset",
          "type": "address"
        }
      ],
      "name": "AuctionCreated",
      "type": "event"
    },
    {
      "anonymous": false,
      "inputs": [
        {
          "indexed": false,
          "internalType": "uint256",
          "name": "auctionIndex",
          "type": "uint256"
        },
        {
          "indexed": false,
          "internalType": "address",
          "name": "claimer",
          "type": "address"
        }
      ],
      "name": "Claim",
      "type": "event"
    },
    {
      "anonymous": false,
      "inputs": [
        {
          "indexed": true,
          "internalType": "address",
          "name": "previousOwner",
          "type": "address"
        },
        {
          "indexed": true,
          "internalType": "address",
          "name": "newOwner",
          "type": "address"
        }
      ],
      "name": "OwnershipTransferred",
      "type": "event"
    },
    {
      "anonymous": false,
      "inputs": [
        {
          "indexed": false,
          "internalType": "address",
          "name": "receiver",
          "type": "address"
        },
        {
          "indexed": false,
          "internalType": "uint256",
          "name": "amount",
          "type": "uint256"
        },
        {
          "indexed": false,
          "internalType": "uint256",
          "name": "paidByCustomer",
          "type": "uint256"
        },
        {
          "indexed": false,
          "internalType": "uint256",
          "name": "commission",
          "type": "uint256"
        },
        {
          "indexed": false,
          "internalType": "uint256",
          "name": "royalties",
          "type": "uint256"
        },
        {
          "indexed": false,
          "internalType": "uint256",
          "name": "safetyCheckValue",
          "type": "uint256"
        }
      ],
      "name": "PaymentToOwner",
      "type": "event"
    },
    {
      "anonymous": false,
      "inputs": [
        {
          "indexed": false,
          "internalType": "uint256",
          "name": "_index",
          "type": "uint256"
        },
        {
          "indexed": false,
          "internalType": "address",
          "name": "_bidder",
          "type": "address"
        },
        {
          "indexed": false,
          "internalType": "uint256",
          "name": "amount",
          "type": "uint256"
        }
      ],
      "name": "ReturnBidFunds",
      "type": "event"
    },
    {
      "anonymous": false,
      "inputs": [
        {
          "indexed": false,
          "internalType": "address",
          "name": "receiver",
          "type": "address"
        },
        {
          "indexed": false,
          "internalType": "uint256",
          "name": "amount",
          "type": "uint256"
        }
      ],
      "name": "Royalties",
      "type": "event"
    },
    {
      "inputs": [],
      "name": "accumulatedCommission",
      "outputs": [
        {
          "internalType": "uint256",
          "name": "",
          "type": "uint256"
        }
      ],
      "stateMutability": "view",
      "type": "function"
    },
    {
      "inputs": [],
      "name": "commission",
      "outputs": [
        {
          "internalType": "uint256",
          "name": "",
          "type": "uint256"
        }
      ],
      "stateMutability": "view",
      "type": "function"
    },
    {
      "inputs": [
        {
          "internalType": "uint256",
          "name": "",
          "type": "uint256"
        }
      ],
      "name": "offers",
      "outputs": [
        {
          "internalType": "address",
          "name": "assetAddress",
          "type": "address"
        },
        {
          "internalType": "uint256",
          "name": "tokenId",
          "type": "uint256"
        },
        {
          "internalType": "uint256",
          "name": "amount",
          "type": "uint256"
        },
        {
          "internalType": "address payable",
          "name": "creator",
          "type": "address"
        },
        {
          "internalType": "uint256",
          "name": "price",
          "type": "uint256"
        },
        {
          "internalType": "bool",
          "name": "isOnSale",
          "type": "bool"
        },
        {
          "internalType": "bool",
          "name": "isAuction",
          "type": "bool"
        },
        {
          "internalType": "uint256",
          "name": "startTime",
          "type": "uint256"
        },
        {
          "internalType": "uint256",
          "name": "duration",
          "type": "uint256"
        },
        {
          "internalType": "uint256",
          "name": "currentBidAmount",
          "type": "uint256"
        },
        {
          "internalType": "address payable",
          "name": "currentBidOwner",
          "type": "address"
        },
        {
          "internalType": "uint256",
          "name": "bidCount",
          "type": "uint256"
        }
      ],
      "stateMutability": "view",
      "type": "function"
    },
    {
      "inputs": [],
      "name": "owner",
      "outputs": [
        {
          "internalType": "address",
          "name": "",
          "type": "address"
        }
      ],
      "stateMutability": "view",
      "type": "function"
    },
    {
      "inputs": [],
      "name": "renounceOwnership",
      "outputs": [],
      "stateMutability": "nonpayable",
      "type": "function"
    },
    {
      "inputs": [
        {
          "internalType": "address",
          "name": "newOwner",
          "type": "address"
        }
      ],
      "name": "transferOwnership",
      "outputs": [],
      "stateMutability": "nonpayable",
      "type": "function"
    },
    {
      "inputs": [
        {
          "internalType": "address",
          "name": "_assetAddress",
          "type": "address"
        },
        {
          "internalType": "uint256",
          "name": "_tokenId",
          "type": "uint256"
        },
        {
          "internalType": "uint256",
          "name": "_amount",
          "type": "uint256"
        },
        {
          "internalType": "bool",
          "name": "_isDirectSale",
          "type": "bool"
        },
        {
          "internalType": "bool",
          "name": "_isAuction",
          "type": "bool"
        },
        {
          "internalType": "uint256",
          "name": "_price",
          "type": "uint256"
        },
        {
          "internalType": "uint256",
          "name": "_startPrice",
          "type": "uint256"
        },
        {
          "internalType": "uint256",
          "name": "_startTime",
          "type": "uint256"
        },
        {
          "internalType": "uint256",
          "name": "_duration",
          "type": "uint256"
        }
      ],
      "name": "createOffer",
      "outputs": [
        {
          "internalType": "uint256",
          "name": "",
          "type": "uint256"
        }
      ],
      "stateMutability": "nonpayable",
      "type": "function"
    },
    {
      "inputs": [],
      "name": "getOffersCount",
      "outputs": [
        {
          "internalType": "uint256",
          "name": "",
          "type": "uint256"
        }
      ],
      "stateMutability": "view",
      "type": "function"
    },
    {
      "inputs": [],
      "name": "ahora",
      "outputs": [
        {
          "internalType": "uint256",
          "name": "",
          "type": "uint256"
        }
      ],
      "stateMutability": "view",
      "type": "function"
    },
    {
      "inputs": [
        {
          "internalType": "uint256",
          "name": "_offerId",
          "type": "uint256"
        }
      ],
      "name": "getEndDate",
      "outputs": [
        {
          "internalType": "uint256",
          "name": "",
          "type": "uint256"
        }
      ],
      "stateMutability": "view",
      "type": "function"
    },
    {
      "inputs": [
        {
          "internalType": "uint256",
          "name": "_offerId",
          "type": "uint256"
        }
      ],
      "name": "removeFromAuction",
      "outputs": [],
      "stateMutability": "nonpayable",
      "type": "function"
    },
    {
      "inputs": [
        {
          "internalType": "uint256",
          "name": "_offerId",
          "type": "uint256"
        }
      ],
      "name": "removeFromSale",
      "outputs": [],
      "stateMutability": "nonpayable",
      "type": "function"
    },
    {
      "inputs": [
        {
          "internalType": "uint256",
          "name": "_commission",
          "type": "uint256"
        }
      ],
      "name": "setCommission",
      "outputs": [],
      "stateMutability": "nonpayable",
      "type": "function"
    },
    {
      "inputs": [
        {
          "internalType": "uint256",
          "name": "_offerId",
          "type": "uint256"
        }
      ],
      "name": "buy",
      "outputs": [],
      "stateMutability": "payable",
      "type": "function"
    },
    {
      "inputs": [
        {
          "internalType": "uint256",
          "name": "_offerId",
          "type": "uint256"
        }
      ],
      "name": "bid",
      "outputs": [],
      "stateMutability": "payable",
      "type": "function"
    },
    {
      "inputs": [
        {
          "internalType": "uint256",
          "name": "_offerId",
          "type": "uint256"
        }
      ],
      "name": "isActive",
      "outputs": [
        {
          "internalType": "bool",
          "name": "",
          "type": "bool"
        }
      ],
      "stateMutability": "view",
      "type": "function"
    },
    {
      "inputs": [
        {
          "internalType": "uint256",
          "name": "_offerId",
          "type": "uint256"
        }
      ],
      "name": "isFinished",
      "outputs": [
        {
          "internalType": "bool",
          "name": "",
          "type": "bool"
        }
      ],
      "stateMutability": "view",
      "type": "function"
    },
    {
      "inputs": [
        {
          "internalType": "uint256",
          "name": "_offerId",
          "type": "uint256"
        }
      ],
      "name": "getStatus",
      "outputs": [
        {
          "internalType": "enum Engine.Status",
          "name": "",
          "type": "uint8"
        }
      ],
      "stateMutability": "view",
      "type": "function"
    },
    {
      "inputs": [
        {
          "internalType": "uint256",
          "name": "_offerId",
          "type": "uint256"
        }
      ],
      "name": "endDate",
      "outputs": [
        {
          "internalType": "uint256",
          "name": "",
          "type": "uint256"
        }
      ],
      "stateMutability": "view",
      "type": "function"
    },
    {
      "inputs": [
        {
          "internalType": "uint256",
          "name": "_offerId",
          "type": "uint256"
        }
      ],
      "name": "getCurrentBidOwner",
      "outputs": [
        {
          "internalType": "address",
          "name": "",
          "type": "address"
        }
      ],
      "stateMutability": "view",
      "type": "function"
    },
    {
      "inputs": [
        {
          "internalType": "uint256",
          "name": "_offerId",
          "type": "uint256"
        }
      ],
      "name": "getCurrentBidAmount",
      "outputs": [
        {
          "internalType": "uint256",
          "name": "",
          "type": "uint256"
        }
      ],
      "stateMutability": "view",
      "type": "function"
    },
    {
      "inputs": [
        {
          "internalType": "uint256",
          "name": "_offerId",
          "type": "uint256"
        }
      ],
      "name": "getBidCount",
      "outputs": [
        {
          "internalType": "uint256",
          "name": "",
          "type": "uint256"
        }
      ],
      "stateMutability": "view",
      "type": "function"
    },
    {
      "inputs": [
        {
          "internalType": "uint256",
          "name": "_offerId",
          "type": "uint256"
        }
      ],
      "name": "getWinner",
      "outputs": [
        {
          "internalType": "address",
          "name": "",
          "type": "address"
        }
      ],
      "stateMutability": "view",
      "type": "function"
    },
    {
      "inputs": [
        {
          "internalType": "uint256",
          "name": "_offerId",
          "type": "uint256"
        }
      ],
      "name": "claimAsset",
      "outputs": [],
      "stateMutability": "nonpayable",
      "type": "function"
    },
    {
      "inputs": [],
      "name": "extractBalance",
      "outputs": [],
      "stateMutability": "nonpayable",
      "type": "function"
    }
  ],
  "bytecode": "0x6080604052600060015560006002553480156200001b57600080fd5b5060006200002e620000d260201b60201c565b9050806000806101000a81548173ffffffffffffffffffffffffffffffffffffffff021916908373ffffffffffffffffffffffffffffffffffffffff1602179055508073ffffffffffffffffffffffffffffffffffffffff16600073ffffffffffffffffffffffffffffffffffffffff167f8be0079c531659141344cd1fd0a4f28419497f9722a3daafe3b4186f6b6457e060405160405180910390a350620000da565b600033905090565b613e8e80620000ea6000396000f3fe6080604052600436106101665760003560e01c8063715018a6116100d15780639f49be9c1161008a578063d96a094a11610064578063d96a094a14610572578063e14891911461058e578063e8ba6509146105b9578063f2fde38b146105f657610166565b80639f49be9c146104e1578063ae6936731461051e578063d3c2a5921461054957610166565b8063715018a6146103a0578063744d3411146103b757806382afd23b146103f457806386b46073146104315780638a72ea6a1461046e5780638da5cb5b146104b657610166565b8063454a2ab311610123578063454a2ab3146102795780634cac5b4b146102955780635c622a0e146102d25780635c6b047a1461030f5780636975846a1461034c5780636af83b241461038957610166565b80631361a3b61461016b5780632241091b146101945780632b866759146101bd5780632f2e7b75146101e8578063355e6b43146102135780634129b2c91461023c575b600080fd5b34801561017757600080fd5b50610192600480360381019061018d919061326a565b61061f565b005b3480156101a057600080fd5b506101bb60048036038101906101b6919061326a565b610a27565b005b3480156101c957600080fd5b506101d2610e77565b6040516101df9190613873565b60405180910390f35b3480156101f457600080fd5b506101fd610e7f565b60405161020a9190613873565b60405180910390f35b34801561021f57600080fd5b5061023a6004803603810190610235919061326a565b610e8c565b005b34801561024857600080fd5b50610263600480360381019061025e919061326a565b610f12565b60405161027091906134dd565b60405180910390f35b610293600480360381019061028e919061326a565b610fcf565b005b3480156102a157600080fd5b506102bc60048036038101906102b7919061326a565b6112cb565b6040516102c99190613873565b60405180910390f35b3480156102de57600080fd5b506102f960048036038101906102f4919061326a565b61133b565b60405161030691906136d8565b60405180910390f35b34801561031b57600080fd5b506103366004803603810190610331919061326a565b6113d5565b6040516103439190613873565b60405180910390f35b34801561035857600080fd5b50610373600480360381019061036e919061326a565b6115c9565b6040516103809190613873565b60405180910390f35b34801561039557600080fd5b5061039e61161e565b005b3480156103ac57600080fd5b506103b56116f3565b005b3480156103c357600080fd5b506103de60048036038101906103d9919061326a565b61182d565b6040516103eb9190613873565b60405180910390f35b34801561040057600080fd5b5061041b6004803603810190610416919061326a565b611882565b60405161042891906136bd565b60405180910390f35b34801561043d57600080fd5b506104586004803603810190610453919061326a565b611907565b60405161046591906134dd565b60405180910390f35b34801561047a57600080fd5b506104956004803603810190610490919061326a565b61197c565b6040516104ad9c9b9a99989796959493929190613603565b60405180910390f35b3480156104c257600080fd5b506104cb611a66565b6040516104d891906134dd565b60405180910390f35b3480156104ed57600080fd5b50610508600480360381019061050391906131a4565b611a8f565b6040516105159190613873565b60405180910390f35b34801561052a57600080fd5b50610533611db5565b6040516105409190613873565b60405180910390f35b34801561055557600080fd5b50610570600480360381019061056b919061326a565b611dbb565b005b61058c6004803603810190610587919061326a565b6125e1565b005b34801561059a57600080fd5b506105a3612e98565b6040516105b09190613873565b60405180910390f35b3480156105c557600080fd5b506105e060048036038101906105db919061326a565b612e9e565b6040516105ed91906136bd565b60405180910390f35b34801561060257600080fd5b5061061d60048036038101906106189190613152565b612f22565b005b60006003828154811061065b577f4e487b7100000000000000000000000000000000000000000000000000000000600052603260045260246000fd5b90600052602060002090600b0201604051806101800160405290816000820160009054906101000a900473ffffffffffffffffffffffffffffffffffffffff1673ffffffffffffffffffffffffffffffffffffffff1673ffffffffffffffffffffffffffffffffffffffff16815260200160018201548152602001600282015481526020016003820160009054906101000a900473ffffffffffffffffffffffffffffffffffffffff1673ffffffffffffffffffffffffffffffffffffffff1673ffffffffffffffffffffffffffffffffffffffff168152602001600482015481526020016005820160009054906101000a900460ff161515151581526020016005820160019054906101000a900460ff161515151581526020016006820154815260200160078201548152602001600882015481526020016009820160009054906101000a900473ffffffffffffffffffffffffffffffffffffffff1673ffffffffffffffffffffffffffffffffffffffff1673ffffffffffffffffffffffffffffffffffffffff168152602001600a820154815250509050806060015173ffffffffffffffffffffffffffffffffffffffff163373ffffffffffffffffffffffffffffffffffffffff1614610867576040517f08c379a000000000000000000000000000000000000000000000000000000000815260040161085e906137d3565b60405180910390fd5b60008160a001901515908115158152505080600383815481106108b3577f4e487b7100000000000000000000000000000000000000000000000000000000600052603260045260246000fd5b90600052602060002090600b020160008201518160000160006101000a81548173ffffffffffffffffffffffffffffffffffffffff021916908373ffffffffffffffffffffffffffffffffffffffff160217905550602082015181600101556040820151816002015560608201518160030160006101000a81548173ffffffffffffffffffffffffffffffffffffffff021916908373ffffffffffffffffffffffffffffffffffffffff1602179055506080820151816004015560a08201518160050160006101000a81548160ff02191690831515021790555060c08201518160050160016101000a81548160ff02191690831515021790555060e08201518160060155610100820151816007015561012082015181600801556101408201518160090160006101000a81548173ffffffffffffffffffffffffffffffffffffffff021916908373ffffffffffffffffffffffffffffffffffffffff16021790555061016082015181600a01559050505050565b600060038281548110610a63577f4e487b7100000000000000000000000000000000000000000000000000000000600052603260045260246000fd5b90600052602060002090600b0201604051806101800160405290816000820160009054906101000a900473ffffffffffffffffffffffffffffffffffffffff1673ffffffffffffffffffffffffffffffffffffffff1673ffffffffffffffffffffffffffffffffffffffff16815260200160018201548152602001600282015481526020016003820160009054906101000a900473ffffffffffffffffffffffffffffffffffffffff1673ffffffffffffffffffffffffffffffffffffffff1673ffffffffffffffffffffffffffffffffffffffff168152602001600482015481526020016005820160009054906101000a900460ff161515151581526020016005820160019054906101000a900460ff161515151581526020016006820154815260200160078201548152602001600882015481526020016009820160009054906101000a900473ffffffffffffffffffffffffffffffffffffffff1673ffffffffffffffffffffffffffffffffffffffff1673ffffffffffffffffffffffffffffffffffffffff168152602001600a820154815250509050806060015173ffffffffffffffffffffffffffffffffffffffff163373ffffffffffffffffffffffffffffffffffffffff1614610c6f576040517f08c379a0000000000000000000000000000000000000000000000000000000008152600401610c66906137d3565b60405180910390fd5b600081610160015114610cb7576040517f08c379a0000000000000000000000000000000000000000000000000000000008152600401610cae90613773565b60405180910390fd5b60008160c00190151590811515815250508060038381548110610d03577f4e487b7100000000000000000000000000000000000000000000000000000000600052603260045260246000fd5b90600052602060002090600b020160008201518160000160006101000a81548173ffffffffffffffffffffffffffffffffffffffff021916908373ffffffffffffffffffffffffffffffffffffffff160217905550602082015181600101556040820151816002015560608201518160030160006101000a81548173ffffffffffffffffffffffffffffffffffffffff021916908373ffffffffffffffffffffffffffffffffffffffff1602179055506080820151816004015560a08201518160050160006101000a81548160ff02191690831515021790555060c08201518160050160016101000a81548160ff02191690831515021790555060e08201518160060155610100820151816007015561012082015181600801556101408201518160090160006101000a81548173ffffffffffffffffffffffffffffffffffffffff021916908373ffffffffffffffffffffffffffffffffffffffff16021790555061016082015181600a01559050505050565b600042905090565b6000600380549050905090565b610e946130cb565b73ffffffffffffffffffffffffffffffffffffffff16610eb2611a66565b73ffffffffffffffffffffffffffffffffffffffff1614610f08576040517f08c379a0000000000000000000000000000000000000000000000000000000008152600401610eff906137f3565b60405180910390fd5b8060018190555050565b6000610f1d82612e9e565b610f5c576040517f08c379a0000000000000000000000000000000000000000000000000000000008152600401610f5390613713565b60405180910390fd5b60038281548110610f96577f4e487b7100000000000000000000000000000000000000000000000000000000600052603260045260246000fd5b90600052602060002090600b020160090160009054906101000a900473ffffffffffffffffffffffffffffffffffffffff169050919050565b60006003828154811061100b577f4e487b7100000000000000000000000000000000000000000000000000000000600052603260045260246000fd5b90600052602060002090600b02019050600073ffffffffffffffffffffffffffffffffffffffff168160030160009054906101000a900473ffffffffffffffffffffffffffffffffffffffff1673ffffffffffffffffffffffffffffffffffffffff16141561107957600080fd5b806008015434116110bf576040517f08c379a00000000000000000000000000000000000000000000000000000000081526004016110b690613733565b60405180910390fd5b600081600801541415801561114857508060030160009054906101000a900473ffffffffffffffffffffffffffffffffffffffff1673ffffffffffffffffffffffffffffffffffffffff168160090160009054906101000a900473ffffffffffffffffffffffffffffffffffffffff1673ffffffffffffffffffffffffffffffffffffffff1614155b15611220578060090160009054906101000a900473ffffffffffffffffffffffffffffffffffffffff1673ffffffffffffffffffffffffffffffffffffffff166108fc82600801549081150290604051600060405180830381858888f193505050501580156111bb573d6000803e3d6000fd5b507f972fd66eadedfb87beff023a37f4d8c6a91fdd147fa0d3c036e0c6c5a0cdc795828260090160009054906101000a900473ffffffffffffffffffffffffffffffffffffffff168360080154604051611217939291906138b7565b60405180910390a15b348160080181905550338160090160006101000a81548173ffffffffffffffffffffffffffffffffffffffff021916908373ffffffffffffffffffffffffffffffffffffffff160217905550611284600182600a01546130d390919063ffffffff16565b81600a01819055507fb8d756f2d1da4663767eb4d559780ace84f2f65a421a60ddcb47e8b2e5d2fd268233346040516112bf939291906138ee565b60405180910390a15050565b60008060038381548110611308577f4e487b7100000000000000000000000000000000000000000000000000000000600052603260045260246000fd5b90600052602060002090600b02019050611333816007015482600601546130d390919063ffffffff16565b915050919050565b60008060038381548110611378577f4e487b7100000000000000000000000000000000000000000000000000000000600052603260045260246000fd5b90600052602060002090600b02019050806006015442101561139e5760009150506113d0565b6113b9816007015482600601546130d390919063ffffffff16565b4210156113ca5760019150506113d0565b60029150505b919050565b60008060038381548110611412577f4e487b7100000000000000000000000000000000000000000000000000000000600052603260045260246000fd5b90600052602060002090600b0201604051806101800160405290816000820160009054906101000a900473ffffffffffffffffffffffffffffffffffffffff1673ffffffffffffffffffffffffffffffffffffffff1673ffffffffffffffffffffffffffffffffffffffff16815260200160018201548152602001600282015481526020016003820160009054906101000a900473ffffffffffffffffffffffffffffffffffffffff1673ffffffffffffffffffffffffffffffffffffffff1673ffffffffffffffffffffffffffffffffffffffff168152602001600482015481526020016005820160009054906101000a900460ff161515151581526020016005820160019054906101000a900460ff161515151581526020016006820154815260200160078201548152602001600882015481526020016009820160009054906101000a900473ffffffffffffffffffffffffffffffffffffffff1673ffffffffffffffffffffffffffffffffffffffff1673ffffffffffffffffffffffffffffffffffffffff168152602001600a8201548152505090508061010001518160e001516115c19190613947565b915050919050565b600060038281548110611605577f4e487b7100000000000000000000000000000000000000000000000000000000600052603260045260246000fd5b90600052602060002090600b0201600801549050919050565b6116266130cb565b73ffffffffffffffffffffffffffffffffffffffff16611644611a66565b73ffffffffffffffffffffffffffffffffffffffff161461169a576040517f08c379a0000000000000000000000000000000000000000000000000000000008152600401611691906137f3565b60405180910390fd5b60003390508073ffffffffffffffffffffffffffffffffffffffff166108fc6002549081150290604051600060405180830381858888f193505050501580156116e7573d6000803e3d6000fd5b50600060028190555050565b6116fb6130cb565b73ffffffffffffffffffffffffffffffffffffffff16611719611a66565b73ffffffffffffffffffffffffffffffffffffffff161461176f576040517f08c379a0000000000000000000000000000000000000000000000000000000008152600401611766906137f3565b60405180910390fd5b600073ffffffffffffffffffffffffffffffffffffffff1660008054906101000a900473ffffffffffffffffffffffffffffffffffffffff1673ffffffffffffffffffffffffffffffffffffffff167f8be0079c531659141344cd1fd0a4f28419497f9722a3daafe3b4186f6b6457e060405160405180910390a360008060006101000a81548173ffffffffffffffffffffffffffffffffffffffff021916908373ffffffffffffffffffffffffffffffffffffffff160217905550565b600060038281548110611869577f4e487b7100000000000000000000000000000000000000000000000000000000600052603260045260246000fd5b90600052602060002090600b0201600a01549050919050565b6000600160028111156118be577f4e487b7100000000000000000000000000000000000000000000000000000000600052602160045260246000fd5b6118c78361133b565b60028111156118ff577f4e487b7100000000000000000000000000000000000000000000000000000000600052602160045260246000fd5b149050919050565b600060038281548110611943577f4e487b7100000000000000000000000000000000000000000000000000000000600052603260045260246000fd5b90600052602060002090600b020160090160009054906101000a900473ffffffffffffffffffffffffffffffffffffffff169050919050565b6003818154811061198c57600080fd5b90600052602060002090600b02016000915090508060000160009054906101000a900473ffffffffffffffffffffffffffffffffffffffff16908060010154908060020154908060030160009054906101000a900473ffffffffffffffffffffffffffffffffffffffff16908060040154908060050160009054906101000a900460ff16908060050160019054906101000a900460ff16908060060154908060070154908060080154908060090160009054906101000a900473ffffffffffffffffffffffffffffffffffffffff169080600a015490508c565b60008060009054906101000a900473ffffffffffffffffffffffffffffffffffffffff16905090565b6000808a9050888173ffffffffffffffffffffffffffffffffffffffff1662fdd58e338d6040518363ffffffff1660e01b8152600401611ad09291906135da565b60206040518083038186803b158015611ae857600080fd5b505afa158015611afc573d6000803e3d6000fd5b505050506040513d601f19601f82011682018060405250810190611b209190613293565b1015611b61576040517f08c379a0000000000000000000000000000000000000000000000000000000008152600401611b58906137b3565b60405180910390fd5b60006040518061018001604052808d73ffffffffffffffffffffffffffffffffffffffff1681526020018c81526020018b81526020013373ffffffffffffffffffffffffffffffffffffffff1681526020018881526020018a151581526020018915158152602001868152602001858152602001878152602001600073ffffffffffffffffffffffffffffffffffffffff1681526020016000815250905060038190806001815401808255809150506001900390600052602060002090600b020160009091909190915060008201518160000160006101000a81548173ffffffffffffffffffffffffffffffffffffffff021916908373ffffffffffffffffffffffffffffffffffffffff160217905550602082015181600101556040820151816002015560608201518160030160006101000a81548173ffffffffffffffffffffffffffffffffffffffff021916908373ffffffffffffffffffffffffffffffffffffffff1602179055506080820151816004015560a08201518160050160006101000a81548160ff02191690831515021790555060c08201518160050160016101000a81548160ff02191690831515021790555060e08201518160060155610100820151816007015561012082015181600801556101408201518160090160006101000a81548173ffffffffffffffffffffffffffffffffffffffff021916908373ffffffffffffffffffffffffffffffffffffffff16021790555061016082015181600a0155505060006001600380549050611da09190613a28565b90508093505050509998505050505050505050565b60025481565b611dc481612e9e565b611e03576040517f08c379a0000000000000000000000000000000000000000000000000000000008152600401611dfa90613833565b60405180910390fd5b600060038281548110611e3f577f4e487b7100000000000000000000000000000000000000000000000000000000600052603260045260246000fd5b90600052602060002090600b020190506000611e5a83610f12565b90503373ffffffffffffffffffffffffffffffffffffffff168173ffffffffffffffffffffffffffffffffffffffff1614611eca576040517f08c379a0000000000000000000000000000000000000000000000000000000008152600401611ec190613793565b60405180910390fd5b600115158260050160019054906101000a900460ff16151514611f22576040517f08c379a0000000000000000000000000000000000000000000000000000000008152600401611f1990613813565b60405180910390fd5b60008260000160009054906101000a900473ffffffffffffffffffffffffffffffffffffffff1690508073ffffffffffffffffffffffffffffffffffffffff1663f242432a8460030160009054906101000a900473ffffffffffffffffffffffffffffffffffffffff1633866001015487600201546040518563ffffffff1660e01b8152600401611fb694939291906134f8565b600060405180830381600087803b158015611fd057600080fd5b505af1158015611fe4573d6000803e3d6000fd5b505050507f35538759d80c1fd7bb450a0d05601db5a99fa8b5d073a07c847a9fd61029b107848360405161201992919061388e565b60405180910390a160008173ffffffffffffffffffffffffffffffffffffffff1663d48e638a85600101546040518263ffffffff1660e01b81526004016120609190613873565b60206040518083038186803b15801561207857600080fd5b505afa15801561208c573d6000803e3d6000fd5b505050506040513d601f19601f820116820180604052508101906120b0919061317b565b9050600061271060015486600801546120c991906139ce565b6120d3919061399d565b905060008560030160009054906101000a900473ffffffffffffffffffffffffffffffffffffffff1673ffffffffffffffffffffffffffffffffffffffff168373ffffffffffffffffffffffffffffffffffffffff161461225a576127108473ffffffffffffffffffffffffffffffffffffffff1663bb3bafd688600101546040518263ffffffff1660e01b815260040161216e9190613873565b60206040518083038186803b15801561218657600080fd5b505afa15801561219a573d6000803e3d6000fd5b505050506040513d601f19601f820116820180604052508101906121be9190613293565b87600801546121cd91906139ce565b6121d7919061399d565b90508273ffffffffffffffffffffffffffffffffffffffff166108fc829081150290604051600060405180830381858888f1935050505015801561221f573d6000803e3d6000fd5b507f54b960faf8b038c33ba9912fdb9ac1e8e0096c5f327d1c89e62b5d9c5357ddb68382604051612251929190613550565b60405180910390a15b60008183886008015461226d9190613a28565b6122779190613a28565b90508660030160009054906101000a900473ffffffffffffffffffffffffffffffffffffffff1673ffffffffffffffffffffffffffffffffffffffff166108fc829081150290604051600060405180830381858888f193505050501580156122e3573d6000803e3d6000fd5b507fdc30cf33a72c513fcddf37a0bee2e04d50e197e511f1e1dc0a0fbcf470d810018760030160009054906101000a900473ffffffffffffffffffffffffffffffffffffffff16828960080154868687898861233f9190613947565b6123499190613947565b60405161235b96959493929190613579565b60405180910390a182600260008282546123759190613947565b9250508190555060008760050160016101000a81548160ff02191690831515021790555060008760050160006101000a81548160ff02191690831515021790555086600389815481106123f1577f4e487b7100000000000000000000000000000000000000000000000000000000600052603260045260246000fd5b90600052602060002090600b02016000820160009054906101000a900473ffffffffffffffffffffffffffffffffffffffff168160000160006101000a81548173ffffffffffffffffffffffffffffffffffffffff021916908373ffffffffffffffffffffffffffffffffffffffff16021790555060018201548160010155600282015481600201556003820160009054906101000a900473ffffffffffffffffffffffffffffffffffffffff168160030160006101000a81548173ffffffffffffffffffffffffffffffffffffffff021916908373ffffffffffffffffffffffffffffffffffffffff160217905550600482015481600401556005820160009054906101000a900460ff168160050160006101000a81548160ff0219169083151502179055506005820160019054906101000a900460ff168160050160016101000a81548160ff0219169083151502179055506006820154816006015560078201548160070155600882015481600801556009820160009054906101000a900473ffffffffffffffffffffffffffffffffffffffff168160090160006101000a81548173ffffffffffffffffffffffffffffffffffffffff021916908373ffffffffffffffffffffffffffffffffffffffff160217905550600a82015481600a01559050505050505050505050565b60003390506000349050600060038481548110612627577f4e487b7100000000000000000000000000000000000000000000000000000000600052603260045260246000fd5b90600052602060002090600b0201604051806101800160405290816000820160009054906101000a900473ffffffffffffffffffffffffffffffffffffffff1673ffffffffffffffffffffffffffffffffffffffff1673ffffffffffffffffffffffffffffffffffffffff16815260200160018201548152602001600282015481526020016003820160009054906101000a900473ffffffffffffffffffffffffffffffffffffffff1673ffffffffffffffffffffffffffffffffffffffff1673ffffffffffffffffffffffffffffffffffffffff168152602001600482015481526020016005820160009054906101000a900460ff161515151581526020016005820160019054906101000a900460ff161515151581526020016006820154815260200160078201548152602001600882015481526020016009820160009054906101000a900473ffffffffffffffffffffffffffffffffffffffff1673ffffffffffffffffffffffffffffffffffffffff1673ffffffffffffffffffffffffffffffffffffffff168152602001600a820154815250509050600115158160a0015115151461280c576040517f08c379a000000000000000000000000000000000000000000000000000000000815260040161280390613853565b60405180910390fd5b60008160800151905080831015612858576040517f08c379a000000000000000000000000000000000000000000000000000000000815260040161284f906136f3565b60405180910390fd5b7f35538759d80c1fd7bb450a0d05601db5a99fa8b5d073a07c847a9fd61029b107858560405161288992919061388e565b60405180910390a16000826000015190508073ffffffffffffffffffffffffffffffffffffffff1663f242432a846060015133866020015187604001516040518563ffffffff1660e01b81526004016128e594939291906134f8565b600060405180830381600087803b1580156128ff57600080fd5b505af1158015612913573d6000803e3d6000fd5b5050505060008173ffffffffffffffffffffffffffffffffffffffff1663d48e638a886040518263ffffffff1660e01b81526004016129529190613873565b60206040518083038186803b15801561296a57600080fd5b505afa15801561297e573d6000803e3d6000fd5b505050506040513d601f19601f820116820180604052508101906129a2919061317b565b90506000612710600154876129b791906139ce565b6129c1919061399d565b90506000856060015173ffffffffffffffffffffffffffffffffffffffff168373ffffffffffffffffffffffffffffffffffffffff1614612b20576127108473ffffffffffffffffffffffffffffffffffffffff1663bb3bafd68b6040518263ffffffff1660e01b8152600401612a389190613873565b60206040518083038186803b158015612a5057600080fd5b505afa158015612a64573d6000803e3d6000fd5b505050506040513d601f19601f82011682018060405250810190612a889190613293565b88612a9391906139ce565b612a9d919061399d565b90508273ffffffffffffffffffffffffffffffffffffffff166108fc829081150290604051600060405180830381858888f19350505050158015612ae5573d6000803e3d6000fd5b507f54b960faf8b038c33ba9912fdb9ac1e8e0096c5f327d1c89e62b5d9c5357ddb68382604051612b17929190613550565b60405180910390a15b6000818389612b2f9190613a28565b612b399190613a28565b9050866060015173ffffffffffffffffffffffffffffffffffffffff166108fc829081150290604051600060405180830381858888f19350505050158015612b85573d6000803e3d6000fd5b507fdc30cf33a72c513fcddf37a0bee2e04d50e197e511f1e1dc0a0fbcf470d810018760600151828a86866127106001548f612bc191906139ce565b612bcb919061399d565b87612bd69190613947565b604051612be896959493929190613579565b60405180910390a1600115158760c0015115151415612ca657600087610120015114612ca55786610140015173ffffffffffffffffffffffffffffffffffffffff166108fc8861012001519081150290604051600060405180830381858888f19350505050158015612c5e573d6000803e3d6000fd5b507f972fd66eadedfb87beff023a37f4d8c6a91fdd147fa0d3c036e0c6c5a0cdc7958a886101400151896101200151604051612c9c939291906138b7565b60405180910390a15b5b8260026000828254612cb89190613947565b9250508190555060008760c001901515908115158152505060008760a00190151590811515815250508660038b81548110612d1c577f4e487b7100000000000000000000000000000000000000000000000000000000600052603260045260246000fd5b90600052602060002090600b020160008201518160000160006101000a81548173ffffffffffffffffffffffffffffffffffffffff021916908373ffffffffffffffffffffffffffffffffffffffff160217905550602082015181600101556040820151816002015560608201518160030160006101000a81548173ffffffffffffffffffffffffffffffffffffffff021916908373ffffffffffffffffffffffffffffffffffffffff1602179055506080820151816004015560a08201518160050160006101000a81548160ff02191690831515021790555060c08201518160050160016101000a81548160ff02191690831515021790555060e08201518160060155610100820151816007015561012082015181600801556101408201518160090160006101000a81548173ffffffffffffffffffffffffffffffffffffffff021916908373ffffffffffffffffffffffffffffffffffffffff16021790555061016082015181600a015590505050505050505050505050565b60015481565b6000600280811115612ed9577f4e487b7100000000000000000000000000000000000000000000000000000000600052602160045260246000fd5b612ee28361133b565b6002811115612f1a577f4e487b7100000000000000000000000000000000000000000000000000000000600052602160045260246000fd5b149050919050565b612f2a6130cb565b73ffffffffffffffffffffffffffffffffffffffff16612f48611a66565b73ffffffffffffffffffffffffffffffffffffffff1614612f9e576040517f08c379a0000000000000000000000000000000000000000000000000000000008152600401612f95906137f3565b60405180910390fd5b600073ffffffffffffffffffffffffffffffffffffffff168173ffffffffffffffffffffffffffffffffffffffff16141561300e576040517f08c379a000000000000000000000000000000000000000000000000000000000815260040161300590613753565b60405180910390fd5b8073ffffffffffffffffffffffffffffffffffffffff1660008054906101000a900473ffffffffffffffffffffffffffffffffffffffff1673ffffffffffffffffffffffffffffffffffffffff167f8be0079c531659141344cd1fd0a4f28419497f9722a3daafe3b4186f6b6457e060405160405180910390a3806000806101000a81548173ffffffffffffffffffffffffffffffffffffffff021916908373ffffffffffffffffffffffffffffffffffffffff16021790555050565b600033905090565b600081836130e19190613947565b905092915050565b6000813590506130f881613e13565b92915050565b60008151905061310d81613e13565b92915050565b60008135905061312281613e2a565b92915050565b60008135905061313781613e41565b92915050565b60008151905061314c81613e41565b92915050565b60006020828403121561316457600080fd5b6000613172848285016130e9565b91505092915050565b60006020828403121561318d57600080fd5b600061319b848285016130fe565b91505092915050565b60008060008060008060008060006101208a8c0312156131c357600080fd5b60006131d18c828d016130e9565b99505060206131e28c828d01613128565b98505060406131f38c828d01613128565b97505060606132048c828d01613113565b96505060806132158c828d01613113565b95505060a06132268c828d01613128565b94505060c06132378c828d01613128565b93505060e06132488c828d01613128565b92505061010061325a8c828d01613128565b9150509295985092959850929598565b60006020828403121561327c57600080fd5b600061328a84828501613128565b91505092915050565b6000602082840312156132a557600080fd5b60006132b38482850161313d565b91505092915050565b6132c581613ac9565b82525050565b6132d481613a6e565b82525050565b6132e381613a5c565b82525050565b6132f281613a80565b82525050565b61330181613adb565b82525050565b6000613314601383613936565b915061331f82613b9e565b602082019050919050565b6000613337601883613936565b915061334282613bc7565b602082019050919050565b600061335a600b83613936565b915061336582613bf0565b602082019050919050565b600061337d602683613936565b915061338882613c19565b604082019050919050565b60006133a0600d83613936565b91506133ab82613c68565b602082019050919050565b60006133c3602583613936565b91506133ce82613c91565b604082019050919050565b60006133e6603783613936565b91506133f182613ce0565b604082019050919050565b6000613409601583613936565b915061341482613d2f565b602082019050919050565b600061342c602083613936565b915061343782613d58565b602082019050919050565b600061344f601283613936565b915061345a82613d81565b602082019050919050565b6000613472601b83613936565b915061347d82613daa565b602082019050919050565b6000613495601683613936565b91506134a082613dd3565b602082019050919050565b60006134b8600083613925565b91506134c382613dfc565b600082019050919050565b6134d781613abf565b82525050565b60006020820190506134f260008301846132da565b92915050565b600060a08201905061350d60008301876132bc565b61351a60208301866132da565b61352760408301856134ce565b61353460608301846134ce565b8181036080830152613545816134ab565b905095945050505050565b600060408201905061356560008301856132bc565b61357260208301846134ce565b9392505050565b600060c08201905061358e60008301896132bc565b61359b60208301886134ce565b6135a860408301876134ce565b6135b560608301866134ce565b6135c260808301856134ce565b6135cf60a08301846134ce565b979650505050505050565b60006040820190506135ef60008301856132da565b6135fc60208301846134ce565b9392505050565b600061018082019050613619600083018f6132da565b613626602083018e6134ce565b613633604083018d6134ce565b613640606083018c6132cb565b61364d608083018b6134ce565b61365a60a083018a6132e9565b61366760c08301896132e9565b61367460e08301886134ce565b6136826101008301876134ce565b6136906101208301866134ce565b61369e6101408301856132cb565b6136ac6101608301846134ce565b9d9c50505050505050505050505050565b60006020820190506136d260008301846132e9565b92915050565b60006020820190506136ed60008301846132f8565b92915050565b6000602082019050818103600083015261370c81613307565b9050919050565b6000602082019050818103600083015261372c8161332a565b9050919050565b6000602082019050818103600083015261374c8161334d565b9050919050565b6000602082019050818103600083015261376c81613370565b9050919050565b6000602082019050818103600083015261378c81613393565b9050919050565b600060208201905081810360008301526137ac816133b6565b9050919050565b600060208201905081810360008301526137cc816133d9565b9050919050565b600060208201905081810360008301526137ec816133fc565b9050919050565b6000602082019050818103600083015261380c8161341f565b9050919050565b6000602082019050818103600083015261382c81613442565b9050919050565b6000602082019050818103600083015261384c81613465565b9050919050565b6000602082019050818103600083015261386c81613488565b9050919050565b600060208201905061388860008301846134ce565b92915050565b60006040820190506138a360008301856134ce565b6138b060208301846132da565b9392505050565b60006060820190506138cc60008301866134ce565b6138d960208301856132bc565b6138e660408301846134ce565b949350505050565b600060608201905061390360008301866134ce565b61391060208301856132da565b61391d60408301846134ce565b949350505050565b600082825260208201905092915050565b600082825260208201905092915050565b600061395282613abf565b915061395d83613abf565b9250827fffffffffffffffffffffffffffffffffffffffffffffffffffffffffffffffff0382111561399257613991613b11565b5b828201905092915050565b60006139a882613abf565b91506139b383613abf565b9250826139c3576139c2613b40565b5b828204905092915050565b60006139d982613abf565b91506139e483613abf565b9250817fffffffffffffffffffffffffffffffffffffffffffffffffffffffffffffffff0483118215151615613a1d57613a1c613b11565b5b828202905092915050565b6000613a3382613abf565b9150613a3e83613abf565b925082821015613a5157613a50613b11565b5b828203905092915050565b6000613a6782613a9f565b9050919050565b6000613a7982613a9f565b9050919050565b60008115159050919050565b6000819050613a9a82613dff565b919050565b600073ffffffffffffffffffffffffffffffffffffffff82169050919050565b6000819050919050565b6000613ad482613aed565b9050919050565b6000613ae682613a8c565b9050919050565b6000613af882613aff565b9050919050565b6000613b0a82613a9f565b9050919050565b7f4e487b7100000000000000000000000000000000000000000000000000000000600052601160045260246000fd5b7f4e487b7100000000000000000000000000000000000000000000000000000000600052601260045260246000fd5b7f4e487b7100000000000000000000000000000000000000000000000000000000600052602160045260246000fd5b7f5072696365206973206e6f7420656e6f75676800000000000000000000000000600082015250565b7f41756374696f6e206e6f742066696e6973686564207965740000000000000000600082015250565b7f42696420746f6f206c6f77000000000000000000000000000000000000000000600082015250565b7f4f776e61626c653a206e6577206f776e657220697320746865207a65726f206160008201527f6464726573730000000000000000000000000000000000000000000000000000602082015250565b7f42696473206578697374696e6700000000000000000000000000000000000000600082015250565b7f596f7520617265206e6f74207468652077696e6e6572206f662074686520617560008201527f6374696f6e000000000000000000000000000000000000000000000000000000602082015250565b7f596f752061726520747279696e6720746f2073616c65206d6f7265206e66747360008201527f207468617420746865206f6e657320796f752068617665000000000000000000602082015250565b7f596f7520617265206e6f7420746865206f776e65720000000000000000000000600082015250565b7f4f776e61626c653a2063616c6c6572206973206e6f7420746865206f776e6572600082015250565b7f4e4654206e6f7420696e2061756374696f6e0000000000000000000000000000600082015250565b7f5468652061756374696f6e206973207374696c6c206163746976650000000000600082015250565b7f4e4654206e6f7420696e206469726563742073616c6500000000000000000000600082015250565b50565b60038110613e1057613e0f613b6f565b5b50565b613e1c81613a5c565b8114613e2757600080fd5b50565b613e3381613a80565b8114613e3e57600080fd5b50565b613e4a81613abf565b8114613e5557600080fd5b5056fea2646970667358221220a1f0a741c5f9f11de7b75ca0f4c7dc94bbe05a63f0b15343dfd0e7a629e1a01e64736f6c63430008040033",
  "immutableReferences": {},
  "source": "// SPDX-License-Identifier: UNLICENSED\npragma solidity ^0.8.4;\n\nimport \"@openzeppelin/contracts/token/ERC1155/ERC1155.sol\";\nimport \"@openzeppelin/contracts/access/Ownable.sol\";\nimport \"./Base1155.sol\";\nimport \"@openzeppelin/contracts/utils/math/SafeMath.sol\";\n\ncontract Engine is Ownable {\n    using SafeMath for uint256;\n\n    event AuctionCreated(uint256 _index, address _creator, address _asset);\n    event AuctionBid(uint256 _index, address _bidder, uint256 amount);\n    event Claim(uint256 auctionIndex, address claimer);\n    event ReturnBidFunds(uint256 _index, address _bidder, uint256 amount);\n\n    event Royalties(address receiver, uint256 amount);\n    event PaymentToOwner(\n        address receiver,\n        uint256 amount,\n        uint256 paidByCustomer,\n        uint256 commission,\n        uint256 royalties,\n        uint256 safetyCheckValue\n    );   \n\n    uint256 public commission = 0; // this is the commission that will charge the marketplace by default.\n    uint256 public accumulatedCommission = 0;\n\n    enum Status {pending, active, finished}   \n    struct Offer {\n        address assetAddress; // address of the token\n        uint256 tokenId; // the tokenId returned when calling \"createItem\"\n        uint256 amount;\n        address payable creator; // who creates the offer\n        uint256 price; // price of each token\n        bool isOnSale; // is on sale or not\n        bool isAuction; // is this offer is for an auction\n        uint256 startTime;\n        uint256 duration;\n        uint256 currentBidAmount;\n        address payable currentBidOwner;\n        uint256 bidCount;\n    }\n    Offer[] public offers;\n\n    function createOffer(\n        address _assetAddress, // address of the token\n        uint256 _tokenId, // tokenId\n        uint256 _amount,\n        bool _isDirectSale, // true if can be bought on a direct sale\n        bool _isAuction, // true if can be bought in an auction\n        uint256 _price, // price that if paid in a direct sale, transfers the NFT\n        uint256 _startPrice, // minimum price on the auction\n        uint256 _startTime, // time when the auction will start. Check the format with frontend\n        uint256 _duration // duration in seconds of the auction\n    ) public returns (uint256) {\n        Base1155 asset = Base1155(_assetAddress);\n         require(\n            asset.balanceOf(msg.sender, _tokenId) >= _amount,\n            \"You are trying to sale more nfts that the ones you have\"\n        );\n        \n        Offer memory offer =\n            Offer({\n                assetAddress: _assetAddress,\n                tokenId: _tokenId,\n                amount: _amount,\n                creator: payable(msg.sender),\n                price: _price,\n                isOnSale: _isDirectSale,\n                isAuction: _isAuction,\n                startTime: _startTime,\n                duration: _duration,\n                currentBidAmount: _startPrice,\n                currentBidOwner: payable(address(0)),\n                bidCount: 0\n        });\n        offers.push(offer);\n        uint256 index = offers.length - 1;\n        return index;\n    }\n\n    function getOffersCount() public view returns (uint256) {\n        return offers.length;\n    }\n\n    function ahora() public view returns (uint256) {\n        return block.timestamp;\n    }\n\n    function getEndDate(uint256 _offerId) public view returns (uint256){\n        Offer memory offer = offers[_offerId];\n        return offer.startTime + offer.duration;\n    }\n\n    function removeFromAuction(uint256 _offerId) public {\n        Offer memory offer = offers[_offerId];\n        require(msg.sender == offer.creator, \"You are not the owner\");\n        require(offer.bidCount == 0, \"Bids existing\");\n        offer.isAuction = false;\n        offers[_offerId] = offer;\n    }\n\n    function removeFromSale(uint256 _offerId) public {\n        Offer memory offer = offers[_offerId];\n        require(msg.sender == offer.creator, \"You are not the owner\");\n        offer.isOnSale = false;\n        offers[_offerId] = offer;\n    }\n\n    // Changes the default commission. Only the owner of the marketplace can do that. In basic points\n    function setCommission(uint256 _commission) public onlyOwner {\n        commission = _commission;\n    }\n\n    function buy(uint256 _offerId) external payable {\n        address buyer = msg.sender;\n        uint256 paidPrice = msg.value;\n\n        Offer memory offer = offers[_offerId];\n        require(offer.isOnSale == true, \"NFT not in direct sale\");\n        uint256 price = offer.price;\n        require(paidPrice >= price, \"Price is not enough\");\n\n        emit Claim(_offerId, buyer);\n        Base1155 asset = Base1155(offer.assetAddress);\n        asset.safeTransferFrom(\n            offer.creator,\n            msg.sender,\n            offer.tokenId,\n            offer.amount,\n            \"\"\n        );\n\n        // now, pay the amount - commission - royalties to the auction creator\n        address payable creatorNFT = payable(asset.getCreator(_offerId));\n\n        uint256 commissionToPay = (paidPrice * commission) / 10000;\n        uint256 royaltiesToPay = 0;\n        if (creatorNFT != offer.creator) {\n            // It is a resale. Transfer royalties\n            royaltiesToPay = (paidPrice * asset.getRoyalties(_offerId)) / 10000;\n            creatorNFT.transfer(royaltiesToPay);\n            emit Royalties(creatorNFT, royaltiesToPay);\n        }\n        uint256 amountToPay = paidPrice - commissionToPay - royaltiesToPay;\n\n        offer.creator.transfer(amountToPay);\n        emit PaymentToOwner(\n            offer.creator,\n            amountToPay,\n            paidPrice,\n            commissionToPay,\n            royaltiesToPay,\n            amountToPay + ((paidPrice * commission) / 10000)\n        );\n\n        // is there is an auction open, we have to give back the last bid amount to the last bidder\n        if (offer.isAuction == true) {\n            if (offer.currentBidAmount != 0) {\n                // return funds to the previuos bidder\n                offer.currentBidOwner.transfer(offer.currentBidAmount);\n                emit ReturnBidFunds(\n                    _offerId,\n                    offer.currentBidOwner,\n                    offer.currentBidAmount\n                );\n            }\n        }\n\n        accumulatedCommission += commissionToPay;\n\n        offer.isAuction = false;\n        offer.isOnSale = false;\n        offers[_offerId] = offer;\n    }\n\n    // At the end of the call, the amount is saved on the marketplace wallet and the previous bid amount is returned to old bidder\n    // except in the case of the first bid, as could exists a minimum price set by the creator as first bid.\n    function bid(uint256 _offerId) public payable {\n        Offer storage offer = offers[_offerId];\n        require(offer.creator != address(0));\n      //  require(isActive(_offerId));\n        require(msg.value > offer.currentBidAmount, \"Bid too low\");\n        // we got a better bid. Return funds to the previous best bidder\n        // and register the sender as `currentBidOwner`\n\n        // this check is for not transferring back funds on the first bid, as the fist bid is the minimum price set by the auction creator\n        if (\n            offer.currentBidAmount != 0 &&\n            offer.currentBidOwner != offer.creator\n        ) {\n            // return funds to the previuos bidder\n            offer.currentBidOwner.transfer(offer.currentBidAmount);\n            emit ReturnBidFunds(\n                _offerId,\n                offer.currentBidOwner,\n                offer.currentBidAmount\n            );\n        }\n        // register new bidder\n        offer.currentBidAmount = msg.value;\n        offer.currentBidOwner = payable(msg.sender);\n        offer.bidCount = offer.bidCount.add(1);\n\n        emit AuctionBid(_offerId, msg.sender, msg.value);\n    }\n   \n\n    function isActive(uint256 _offerId) public view returns (bool) {\n        return getStatus(_offerId) == Status.active;\n    }\n\n    function isFinished(uint256 _offerId) public view returns (bool) {\n        return getStatus(_offerId) == Status.finished;\n    }\n\n    function getStatus(uint256 _offerId) public view returns (Status) {\n        Offer storage offer = offers[_offerId];\n        if (block.timestamp < offer.startTime) {\n            return Status.pending;\n        } else if (block.timestamp < offer.startTime.add(offer.duration)) {\n            return Status.active;\n        } else {\n            return Status.finished;\n        }\n    }\n\n    function endDate(uint256 _offerId) public view returns (uint256) {\n        Offer storage offer = offers[_offerId];\n        return offer.startTime.add(offer.duration);\n    }\n\n    function getCurrentBidOwner(uint256 _offerId)\n        public\n        view\n        returns (address)\n    {\n        return offers[_offerId].currentBidOwner;\n    }\n\n    function getCurrentBidAmount(uint256 _offerId)\n        public\n        view\n        returns (uint256)\n    {\n        return offers[_offerId].currentBidAmount;\n    }\n\n    function getBidCount(uint256 _offerId) public view returns (uint256) {\n        return offers[_offerId].bidCount;\n    }\n\n    function getWinner(uint256 _offerId) public view returns (address) {\n        require(isFinished(_offerId), \"Auction not finished yet\");\n        return offers[_offerId].currentBidOwner;\n    }\n\n    function claimAsset(uint256 _offerId) public {\n        require(isFinished(_offerId), \"The auction is still active\");\n        Offer storage offer = offers[_offerId];\n\n        address winner = getWinner(_offerId);\n        require(winner == msg.sender, \"You are not the winner of the auction\");\n\n        // the token could be sold in direct sale or the owner cancelled the auction\n        require(offer.isAuction == true, \"NFT not in auction\");\n\n        Base1155 asset = Base1155(offer.assetAddress);\n        asset.safeTransferFrom(\n            offer.creator,\n            msg.sender,\n            offer.tokenId,\n            offer.amount,\n            \"\"\n        );\n\n        emit Claim(_offerId, winner);\n\n        // now, pay the amount - commission - royalties to the auction creator\n        address payable creatorNFT = payable(asset.getCreator(offer.tokenId));\n        uint256 commissionToPay =\n            (offer.currentBidAmount * commission) / 10000;\n        uint256 royaltiesToPay = 0;\n        if (creatorNFT != offer.creator) {\n            // It is a resale. Transfer royalties\n            royaltiesToPay =\n                (offer.currentBidAmount *\n                    asset.getRoyalties(offer.tokenId)) /\n                10000;\n            creatorNFT.transfer(royaltiesToPay);\n            emit Royalties(creatorNFT, royaltiesToPay);\n        }\n        uint256 amountToPay =\n            offer.currentBidAmount - commissionToPay - royaltiesToPay;\n\n        offer.creator.transfer(amountToPay);\n        emit PaymentToOwner(\n            offer.creator,\n            amountToPay,\n            offer.currentBidAmount,\n            commissionToPay,\n            royaltiesToPay,\n            amountToPay + commissionToPay + royaltiesToPay\n        );\n\n        accumulatedCommission += commissionToPay;\n\n        offer.isAuction = false;\n        offer.isOnSale = false;\n        offers[_offerId] = offer;\n    }\n\n    function extractBalance() public onlyOwner {\n        address payable me = payable(msg.sender);\n        me.transfer(accumulatedCommission);\n        accumulatedCommission = 0;\n    }\n}\n",
  "sourcePath": "/home/linux/ether/base/ERC1155/contracts/engine.sol",
  "compiler": {
    "name": "solc",
    "version": "0.8.4+commit.c7e474f2.Emscripten.clang"
  },
  "schemaVersion": "3.3.4",
  "updatedAt": "2021-05-10T11:30:34.983Z",
  "devdoc": {
    "kind": "dev",
    "methods": {
      "owner()": {
        "details": "Returns the address of the current owner."
      },
      "renounceOwnership()": {
        "details": "Leaves the contract without owner. It will not be possible to call `onlyOwner` functions anymore. Can only be called by the current owner. NOTE: Renouncing ownership will leave the contract without an owner, thereby removing any functionality that is only available to the owner."
      },
      "transferOwnership(address)": {
        "details": "Transfers ownership of the contract to a new account (`newOwner`). Can only be called by the current owner."
      }
    },
    "version": 1
  },
  "userdoc": {
    "kind": "user",
    "methods": {},
    "version": 1
  }
}