{
  "contractName": "Engine",
  "abi": [
    {
      "anonymous": false,
      "inputs": [
        {
          "indexed": false,
          "internalType": "uint256",
          "name": "_index",
          "type": "uint256"
        },
        {
          "indexed": false,
          "internalType": "address",
          "name": "_bidder",
          "type": "address"
        },
        {
          "indexed": false,
          "internalType": "uint256",
          "name": "_price",
          "type": "uint256"
        },
        {
          "indexed": false,
          "internalType": "uint256",
          "name": "_numCopies",
          "type": "uint256"
        },
        {
          "indexed": false,
          "internalType": "uint256",
          "name": "_tokenId",
          "type": "uint256"
        }
      ],
      "name": "AuctionBid",
      "type": "event"
    },
    {
      "anonymous": false,
      "inputs": [
        {
          "indexed": false,
          "internalType": "uint256",
          "name": "auctionIndex",
          "type": "uint256"
        },
        {
          "indexed": false,
          "internalType": "address",
          "name": "claimer",
          "type": "address"
        }
      ],
      "name": "Claim",
      "type": "event"
    },
    {
      "anonymous": false,
      "inputs": [
        {
          "indexed": false,
          "internalType": "uint256",
          "name": "_index",
          "type": "uint256"
        },
        {
          "indexed": false,
          "internalType": "uint256",
          "name": "_tokenId",
          "type": "uint256"
        },
        {
          "indexed": false,
          "internalType": "uint256",
          "name": "numCopies",
          "type": "uint256"
        },
        {
          "indexed": false,
          "internalType": "uint256",
          "name": "amount",
          "type": "uint256"
        },
        {
          "indexed": false,
          "internalType": "bool",
          "name": "isSale",
          "type": "bool"
        }
      ],
      "name": "OfferCreated",
      "type": "event"
    },
    {
      "anonymous": false,
      "inputs": [
        {
          "indexed": true,
          "internalType": "address",
          "name": "previousOwner",
          "type": "address"
        },
        {
          "indexed": true,
          "internalType": "address",
          "name": "newOwner",
          "type": "address"
        }
      ],
      "name": "OwnershipTransferred",
      "type": "event"
    },
    {
      "anonymous": false,
      "inputs": [
        {
          "indexed": false,
          "internalType": "address",
          "name": "receiver",
          "type": "address"
        },
        {
          "indexed": false,
          "internalType": "uint256",
          "name": "amount",
          "type": "uint256"
        },
        {
          "indexed": false,
          "internalType": "uint256",
          "name": "commission",
          "type": "uint256"
        },
        {
          "indexed": false,
          "internalType": "uint256",
          "name": "royalties",
          "type": "uint256"
        },
        {
          "indexed": false,
          "internalType": "uint256",
          "name": "safetyCheckValue",
          "type": "uint256"
        }
      ],
      "name": "PaymentToOwner",
      "type": "event"
    },
    {
      "inputs": [],
      "name": "accumulatedCommission",
      "outputs": [
        {
          "internalType": "uint256",
          "name": "",
          "type": "uint256"
        }
      ],
      "stateMutability": "view",
      "type": "function",
      "constant": true
    },
    {
      "inputs": [
        {
          "internalType": "uint256",
          "name": "",
          "type": "uint256"
        }
      ],
      "name": "auctions",
      "outputs": [
        {
          "internalType": "address",
          "name": "tokenAddress",
          "type": "address"
        },
        {
          "internalType": "uint256",
          "name": "tokenId",
          "type": "uint256"
        },
        {
          "internalType": "uint256",
          "name": "currentBidAmount",
          "type": "uint256"
        },
        {
          "internalType": "address payable",
          "name": "currentBidOwner",
          "type": "address"
        },
        {
          "internalType": "uint256",
          "name": "bidCount",
          "type": "uint256"
        },
        {
          "internalType": "uint256",
          "name": "offerId",
          "type": "uint256"
        },
        {
          "internalType": "uint256",
          "name": "numCopies",
          "type": "uint256"
        },
        {
          "internalType": "bool",
          "name": "active",
          "type": "bool"
        },
        {
          "internalType": "uint256",
          "name": "startTime",
          "type": "uint256"
        },
        {
          "internalType": "uint256",
          "name": "duration",
          "type": "uint256"
        }
      ],
      "stateMutability": "view",
      "type": "function",
      "constant": true
    },
    {
      "inputs": [],
      "name": "commission",
      "outputs": [
        {
          "internalType": "uint256",
          "name": "",
          "type": "uint256"
        }
      ],
      "stateMutability": "view",
      "type": "function",
      "constant": true
    },
    {
      "inputs": [
        {
          "internalType": "uint256",
          "name": "",
          "type": "uint256"
        }
      ],
      "name": "offers",
      "outputs": [
        {
          "internalType": "address",
          "name": "tokenAddress",
          "type": "address"
        },
        {
          "internalType": "uint256",
          "name": "tokenId",
          "type": "uint256"
        },
        {
          "internalType": "uint256",
          "name": "amount",
          "type": "uint256"
        },
        {
          "internalType": "address payable",
          "name": "creator",
          "type": "address"
        },
        {
          "internalType": "uint256",
          "name": "price",
          "type": "uint256"
        },
        {
          "internalType": "bool",
          "name": "isOnSale",
          "type": "bool"
        },
        {
          "internalType": "bool",
          "name": "isAuction",
          "type": "bool"
        },
        {
          "internalType": "uint256",
          "name": "startTime",
          "type": "uint256"
        },
        {
          "internalType": "uint256",
          "name": "duration",
          "type": "uint256"
        },
        {
          "internalType": "uint256",
          "name": "minimumBidAmount",
          "type": "uint256"
        },
        {
          "internalType": "uint256",
          "name": "availableCopies",
          "type": "uint256"
        },
        {
          "internalType": "bool",
          "name": "hasBids",
          "type": "bool"
        }
      ],
      "stateMutability": "view",
      "type": "function",
      "constant": true
    },
    {
      "inputs": [],
      "name": "owner",
      "outputs": [
        {
          "internalType": "address",
          "name": "",
          "type": "address"
        }
      ],
      "stateMutability": "view",
      "type": "function",
      "constant": true
    },
    {
      "inputs": [],
      "name": "renounceOwnership",
      "outputs": [],
      "stateMutability": "nonpayable",
      "type": "function"
    },
    {
      "inputs": [],
      "name": "totalSales",
      "outputs": [
        {
          "internalType": "uint256",
          "name": "",
          "type": "uint256"
        }
      ],
      "stateMutability": "view",
      "type": "function",
      "constant": true
    },
    {
      "inputs": [
        {
          "internalType": "address",
          "name": "newOwner",
          "type": "address"
        }
      ],
      "name": "transferOwnership",
      "outputs": [],
      "stateMutability": "nonpayable",
      "type": "function"
    },
    {
      "inputs": [
        {
          "internalType": "uint256",
          "name": "_offerId",
          "type": "uint256"
        },
        {
          "internalType": "uint256",
          "name": "_numCopies",
          "type": "uint256"
        }
      ],
      "name": "createAuctionAndBid",
      "outputs": [
        {
          "internalType": "uint256",
          "name": "",
          "type": "uint256"
        }
      ],
      "stateMutability": "payable",
      "type": "function",
      "payable": true
    },
    {
      "inputs": [
        {
          "internalType": "uint256",
          "name": "_auctionId",
          "type": "uint256"
        },
        {
          "internalType": "uint256",
          "name": "_numCopies",
          "type": "uint256"
        }
      ],
      "name": "bid",
      "outputs": [],
      "stateMutability": "payable",
      "type": "function",
      "payable": true
    },
    {
      "inputs": [
        {
          "internalType": "uint256",
          "name": "_auctionId",
          "type": "uint256"
        }
      ],
      "name": "closeAuction",
      "outputs": [],
      "stateMutability": "nonpayable",
      "type": "function"
    },
    {
      "inputs": [
        {
          "internalType": "address",
          "name": "_tokenAddress",
          "type": "address"
        },
        {
          "internalType": "uint256",
          "name": "_tokenId",
          "type": "uint256"
        },
        {
          "internalType": "uint256",
          "name": "_amount",
          "type": "uint256"
        },
        {
          "internalType": "bool",
          "name": "_isDirectSale",
          "type": "bool"
        },
        {
          "internalType": "bool",
          "name": "_isAuction",
          "type": "bool"
        },
        {
          "internalType": "uint256",
          "name": "_price",
          "type": "uint256"
        },
        {
          "internalType": "uint256",
          "name": "_startPrice",
          "type": "uint256"
        },
        {
          "internalType": "uint256",
          "name": "_startTime",
          "type": "uint256"
        },
        {
          "internalType": "uint256",
          "name": "_duration",
          "type": "uint256"
        }
      ],
      "name": "createOffer",
      "outputs": [
        {
          "internalType": "uint256",
          "name": "",
          "type": "uint256"
        }
      ],
      "stateMutability": "nonpayable",
      "type": "function"
    },
    {
      "inputs": [
        {
          "internalType": "uint256",
          "name": "_offerId",
          "type": "uint256"
        }
      ],
      "name": "hasBids",
      "outputs": [
        {
          "internalType": "bool",
          "name": "",
          "type": "bool"
        }
      ],
      "stateMutability": "view",
      "type": "function",
      "constant": true
    },
    {
      "inputs": [],
      "name": "ahora",
      "outputs": [
        {
          "internalType": "uint256",
          "name": "",
          "type": "uint256"
        }
      ],
      "stateMutability": "view",
      "type": "function",
      "constant": true
    },
    {
      "inputs": [
        {
          "internalType": "uint256",
          "name": "_offerId",
          "type": "uint256"
        },
        {
          "internalType": "bool",
          "name": "_sale",
          "type": "bool"
        },
        {
          "internalType": "bool",
          "name": "_auction",
          "type": "bool"
        }
      ],
      "name": "removeFromAuctionOrSale",
      "outputs": [],
      "stateMutability": "nonpayable",
      "type": "function"
    },
    {
      "inputs": [
        {
          "internalType": "uint256",
          "name": "_commission",
          "type": "uint256"
        }
      ],
      "name": "setCommission",
      "outputs": [],
      "stateMutability": "nonpayable",
      "type": "function"
    },
    {
      "inputs": [
        {
          "internalType": "uint256",
          "name": "_offerId",
          "type": "uint256"
        },
        {
          "internalType": "uint256",
          "name": "_amount",
          "type": "uint256"
        }
      ],
      "name": "buy",
      "outputs": [],
      "stateMutability": "payable",
      "type": "function",
      "payable": true
    },
    {
      "inputs": [
        {
          "internalType": "uint256",
          "name": "_auctionId",
          "type": "uint256"
        }
      ],
      "name": "isActive",
      "outputs": [
        {
          "internalType": "bool",
          "name": "",
          "type": "bool"
        }
      ],
      "stateMutability": "view",
      "type": "function",
      "constant": true
    },
    {
      "inputs": [
        {
          "internalType": "uint256",
          "name": "_auctionId",
          "type": "uint256"
        }
      ],
      "name": "isFinished",
      "outputs": [
        {
          "internalType": "bool",
          "name": "",
          "type": "bool"
        }
      ],
      "stateMutability": "view",
      "type": "function",
      "constant": true
    },
    {
      "inputs": [
        {
          "internalType": "uint256",
          "name": "_auctionId",
          "type": "uint256"
        }
      ],
      "name": "getStatus",
      "outputs": [
        {
          "internalType": "enum Engine.Status",
          "name": "",
          "type": "uint8"
        }
      ],
      "stateMutability": "view",
      "type": "function",
      "constant": true
    },
    {
      "inputs": [
        {
          "internalType": "uint256",
          "name": "_auctionId",
          "type": "uint256"
        }
      ],
      "name": "endDate",
      "outputs": [
        {
          "internalType": "uint256",
          "name": "",
          "type": "uint256"
        }
      ],
      "stateMutability": "view",
      "type": "function",
      "constant": true
    },
    {
      "inputs": [
        {
          "internalType": "uint256",
          "name": "_auctionId",
          "type": "uint256"
        }
      ],
      "name": "getCurrentBidOwner",
      "outputs": [
        {
          "internalType": "address",
          "name": "",
          "type": "address"
        }
      ],
      "stateMutability": "view",
      "type": "function",
      "constant": true
    },
    {
      "inputs": [
        {
          "internalType": "uint256",
          "name": "_auctionId",
          "type": "uint256"
        }
      ],
      "name": "getCurrentBidAmount",
      "outputs": [
        {
          "internalType": "uint256",
          "name": "",
          "type": "uint256"
        }
      ],
      "stateMutability": "view",
      "type": "function",
      "constant": true
    },
    {
      "inputs": [
        {
          "internalType": "uint256",
          "name": "_auctionId",
          "type": "uint256"
        }
      ],
      "name": "getBidCount",
      "outputs": [
        {
          "internalType": "uint256",
          "name": "",
          "type": "uint256"
        }
      ],
      "stateMutability": "view",
      "type": "function",
      "constant": true
    },
    {
      "inputs": [
        {
          "internalType": "uint256",
          "name": "_auctionId",
          "type": "uint256"
        }
      ],
      "name": "getWinner",
      "outputs": [
        {
          "internalType": "address",
          "name": "",
          "type": "address"
        }
      ],
      "stateMutability": "view",
      "type": "function",
      "constant": true
    },
    {
      "inputs": [],
      "name": "extractBalance",
      "outputs": [],
      "stateMutability": "nonpayable",
      "type": "function"
    }
  ],
  "bytecode": "0x60806040526000600255600060035560006004553480156200002057600080fd5b50600062000033620000de60201b60201c565b9050806000806101000a81548173ffffffffffffffffffffffffffffffffffffffff021916908373ffffffffffffffffffffffffffffffffffffffff1602179055508073ffffffffffffffffffffffffffffffffffffffff16600073ffffffffffffffffffffffffffffffffffffffff167f8be0079c531659141344cd1fd0a4f28419497f9722a3daafe3b4186f6b6457e060405160405180910390a35060018081905550620000e6565b600033905090565b61590680620000f66000396000f3fe6080604052600436106101815760003560e01c8063744d3411116100d1578063ae6936731161008a578063e148919111610064578063e1489191146105b9578063e8ba6509146105e4578063f2fde38b14610621578063fb7bd9041461064a57610181565b8063ae69367314610542578063b670571b1461056d578063d6febde81461059d57610181565b8063744d3411146103db57806382afd23b1461041857806386b46073146104555780638a72ea6a146104925780638da5cb5b146104da5780639f49be9c1461050557610181565b8063571a26a01161013e5780636605ff66116101185780636605ff66146103455780636975846a146103705780636af83b24146103ad578063715018a6146103c457610181565b8063571a26a0146102a6578063598647f8146102ec5780635c622a0e1461030857610181565b8063236ed8f3146101865780632b866759146101af57806332b1207a146101da578063355e6b43146102035780634129b2c91461022c5780634cac5b4b14610269575b600080fd5b34801561019257600080fd5b506101ad60048036038101906101a8919061454e565b610687565b005b3480156101bb57600080fd5b506101c461070f565b6040516101d19190615090565b60405180910390f35b3480156101e657600080fd5b5061020160048036038101906101fc91906145a0565b610717565b005b34801561020f57600080fd5b5061022a6004803603810190610225919061454e565b610b1a565b005b34801561023857600080fd5b50610253600480360381019061024e919061454e565b610be5565b6040516102609190614a4b565b60405180910390f35b34801561027557600080fd5b50610290600480360381019061028b919061454e565b610ca2565b60405161029d9190615090565b60405180910390f35b3480156102b257600080fd5b506102cd60048036038101906102c8919061454e565b610d12565b6040516102e39a99989796959493929190614c9e565b60405180910390f35b610306600480360381019061030191906145ef565b610dc3565b005b34801561031457600080fd5b5061032f600480360381019061032a919061454e565b6116ab565b60405161033c9190614d55565b60405180910390f35b34801561035157600080fd5b5061035a611745565b6040516103679190615090565b60405180910390f35b34801561037c57600080fd5b506103976004803603810190610392919061454e565b61174b565b6040516103a49190615090565b60405180910390f35b3480156103b957600080fd5b506103c26117a0565b005b3480156103d057600080fd5b506103d9611930565b005b3480156103e757600080fd5b5061040260048036038101906103fd919061454e565b611a6a565b60405161040f9190615090565b60405180910390f35b34801561042457600080fd5b5061043f600480360381019061043a919061454e565b611abf565b60405161044c9190614d3a565b60405180910390f35b34801561046157600080fd5b5061047c6004803603810190610477919061454e565b611b44565b6040516104899190614a4b565b60405180910390f35b34801561049e57600080fd5b506104b960048036038101906104b4919061454e565b611bb9565b6040516104d19c9b9a99989796959493929190614be4565b60405180910390f35b3480156104e657600080fd5b506104ef611c90565b6040516104fc9190614a4b565b60405180910390f35b34801561051157600080fd5b5061052c6004803603810190610527919061445f565b611cb9565b6040516105399190615090565b60405180910390f35b34801561054e57600080fd5b50610557611fe2565b6040516105649190615090565b60405180910390f35b610587600480360381019061058291906145ef565b611fe8565b6040516105949190615090565b60405180910390f35b6105b760048036038101906105b291906145ef565b6126d6565b005b3480156105c557600080fd5b506105ce61318f565b6040516105db9190615090565b60405180910390f35b3480156105f057600080fd5b5061060b6004803603810190610606919061454e565b613195565b6040516106189190614d3a565b60405180910390f35b34801561062d57600080fd5b506106486004803603810190610643919061440d565b613219565b005b34801561065657600080fd5b50610671600480360381019061066c919061454e565b6133c2565b60405161067e9190614d3a565b60405180910390f35b61068f61356c565b73ffffffffffffffffffffffffffffffffffffffff166106ad611c90565b73ffffffffffffffffffffffffffffffffffffffff1614610703576040517f08c379a00000000000000000000000000000000000000000000000000000000081526004016106fa90614f10565b60405180910390fd5b61070c81613574565b50565b600042905090565b600060058481548110610753577f4e487b7100000000000000000000000000000000000000000000000000000000600052603260045260246000fd5b90600052602060002090600b0201604051806101800160405290816000820160009054906101000a900473ffffffffffffffffffffffffffffffffffffffff1673ffffffffffffffffffffffffffffffffffffffff1673ffffffffffffffffffffffffffffffffffffffff16815260200160018201548152602001600282015481526020016003820160009054906101000a900473ffffffffffffffffffffffffffffffffffffffff1673ffffffffffffffffffffffffffffffffffffffff1673ffffffffffffffffffffffffffffffffffffffff168152602001600482015481526020016005820160009054906101000a900460ff161515151581526020016005820160019054906101000a900460ff1615151515815260200160068201548152602001600782015481526020016008820154815260200160098201548152602001600a820160009054906101000a900460ff1615151515815250509050806060015173ffffffffffffffffffffffffffffffffffffffff163373ffffffffffffffffffffffffffffffffffffffff1614610924576040517f08c379a000000000000000000000000000000000000000000000000000000000815260040161091b90614e50565b60405180910390fd5b60001515816101600151151514610970576040517f08c379a000000000000000000000000000000000000000000000000000000000815260040161096790614df0565b60405180910390fd5b818160c0019015159081151581525050828160a001901515908115158152505080600585815481106109cb577f4e487b7100000000000000000000000000000000000000000000000000000000600052603260045260246000fd5b90600052602060002090600b020160008201518160000160006101000a81548173ffffffffffffffffffffffffffffffffffffffff021916908373ffffffffffffffffffffffffffffffffffffffff160217905550602082015181600101556040820151816002015560608201518160030160006101000a81548173ffffffffffffffffffffffffffffffffffffffff021916908373ffffffffffffffffffffffffffffffffffffffff1602179055506080820151816004015560a08201518160050160006101000a81548160ff02191690831515021790555060c08201518160050160016101000a81548160ff02191690831515021790555060e0820151816006015561010082015181600701556101208201518160080155610140820151816009015561016082015181600a0160006101000a81548160ff02191690831515021790555090505050505050565b610b2261356c565b73ffffffffffffffffffffffffffffffffffffffff16610b40611c90565b73ffffffffffffffffffffffffffffffffffffffff1614610b96576040517f08c379a0000000000000000000000000000000000000000000000000000000008152600401610b8d90614f10565b60405180910390fd5b611388811115610bdb576040517f08c379a0000000000000000000000000000000000000000000000000000000008152600401610bd290614fb0565b60405180910390fd5b8060028190555050565b6000610bf082613195565b610c2f576040517f08c379a0000000000000000000000000000000000000000000000000000000008152600401610c2690614d90565b60405180910390fd5b60068281548110610c69577f4e487b7100000000000000000000000000000000000000000000000000000000600052603260045260246000fd5b90600052602060002090600a020160030160009054906101000a900473ffffffffffffffffffffffffffffffffffffffff169050919050565b60008060068381548110610cdf577f4e487b7100000000000000000000000000000000000000000000000000000000600052603260045260246000fd5b90600052602060002090600a02019050610d0a8160090154826008015461426190919063ffffffff16565b915050919050565b60068181548110610d2257600080fd5b90600052602060002090600a02016000915090508060000160009054906101000a900473ffffffffffffffffffffffffffffffffffffffff16908060010154908060020154908060030160009054906101000a900473ffffffffffffffffffffffffffffffffffffffff16908060040154908060050154908060060154908060070160009054906101000a900460ff1690806008015490806009015490508a565b600060068381548110610dff577f4e487b7100000000000000000000000000000000000000000000000000000000600052603260045260246000fd5b90600052602060002090600a0201604051806101400160405290816000820160009054906101000a900473ffffffffffffffffffffffffffffffffffffffff1673ffffffffffffffffffffffffffffffffffffffff1673ffffffffffffffffffffffffffffffffffffffff16815260200160018201548152602001600282015481526020016003820160009054906101000a900473ffffffffffffffffffffffffffffffffffffffff1673ffffffffffffffffffffffffffffffffffffffff1673ffffffffffffffffffffffffffffffffffffffff1681526020016004820154815260200160058201548152602001600682015481526020016007820160009054906101000a900460ff16151515158152602001600882015481526020016009820154815250509050600060058260a0015181548110610f68577f4e487b7100000000000000000000000000000000000000000000000000000000600052603260045260246000fd5b90600052602060002090600b0201604051806101800160405290816000820160009054906101000a900473ffffffffffffffffffffffffffffffffffffffff1673ffffffffffffffffffffffffffffffffffffffff1673ffffffffffffffffffffffffffffffffffffffff16815260200160018201548152602001600282015481526020016003820160009054906101000a900473ffffffffffffffffffffffffffffffffffffffff1673ffffffffffffffffffffffffffffffffffffffff1673ffffffffffffffffffffffffffffffffffffffff168152602001600482015481526020016005820160009054906101000a900460ff161515151581526020016005820160019054906101000a900460ff1615151515815260200160068201548152602001600782015481526020016008820154815260200160098201548152602001600a820160009054906101000a900460ff16151515158152505090508060c0015161110b576040517f08c379a000000000000000000000000000000000000000000000000000000000815260040161110290614f90565b60405180910390fd5b8160e0015161114f576040517f08c379a000000000000000000000000000000000000000000000000000000000815260040161114690614eb0565b60405180910390fd5b61115884611abf565b611197576040517f08c379a000000000000000000000000000000000000000000000000000000000815260040161118e90614e90565b60405180910390fd5b600073ffffffffffffffffffffffffffffffffffffffff16816060015173ffffffffffffffffffffffffffffffffffffffff1614156111d557600080fd5b8160400151341161121b576040517f08c379a000000000000000000000000000000000000000000000000000000000815260040161121290614ed0565b60405180910390fd5b6112338382610120015161427790919063ffffffff16565b341015611275576040517f08c379a000000000000000000000000000000000000000000000000000000000815260040161126c90614dd0565b60405180910390fd5b8160c001518310156112bc576040517f08c379a00000000000000000000000000000000000000000000000000000000081526004016112b390614ef0565b60405180910390fd5b60006112ec846112de8560c0015185610140015161426190919063ffffffff16565b61428d90919063ffffffff16565b101561132d576040517f08c379a000000000000000000000000000000000000000000000000000000000815260040161132490614f70565b60405180910390fd5b611336826142a3565b611364836113568460c0015184610140015161426190919063ffffffff16565b61428d90919063ffffffff16565b816101400181815250508060058360a00151815481106113ad577f4e487b7100000000000000000000000000000000000000000000000000000000600052603260045260246000fd5b90600052602060002090600b020160008201518160000160006101000a81548173ffffffffffffffffffffffffffffffffffffffff021916908373ffffffffffffffffffffffffffffffffffffffff160217905550602082015181600101556040820151816002015560608201518160030160006101000a81548173ffffffffffffffffffffffffffffffffffffffff021916908373ffffffffffffffffffffffffffffffffffffffff1602179055506080820151816004015560a08201518160050160006101000a81548160ff02191690831515021790555060c08201518160050160016101000a81548160ff02191690831515021790555060e0820151816006015561010082015181600701556101208201518160080155610140820151816009015561016082015181600a0160006101000a81548160ff0219169083151502179055509050503482604001818152505033826060019073ffffffffffffffffffffffffffffffffffffffff16908173ffffffffffffffffffffffffffffffffffffffff16815250506115506001836080015161426190919063ffffffff16565b826080018181525050828260c0018181525050816006858154811061159e577f4e487b7100000000000000000000000000000000000000000000000000000000600052603260045260246000fd5b90600052602060002090600a020160008201518160000160006101000a81548173ffffffffffffffffffffffffffffffffffffffff021916908373ffffffffffffffffffffffffffffffffffffffff160217905550602082015181600101556040820151816002015560608201518160030160006101000a81548173ffffffffffffffffffffffffffffffffffffffff021916908373ffffffffffffffffffffffffffffffffffffffff1602179055506080820151816004015560a0820151816005015560c0820151816006015560e08201518160070160006101000a81548160ff0219169083151502179055506101008201518160080155610120820151816009015590505050505050565b600080600683815481106116e8577f4e487b7100000000000000000000000000000000000000000000000000000000600052603260045260246000fd5b90600052602060002090600a02019050806008015442101561170e576000915050611740565b6117298160090154826008015461426190919063ffffffff16565b42101561173a576001915050611740565b60029150505b919050565b60045481565b600060068281548110611787577f4e487b7100000000000000000000000000000000000000000000000000000000600052603260045260246000fd5b90600052602060002090600a0201600201549050919050565b6117a861356c565b73ffffffffffffffffffffffffffffffffffffffff166117c6611c90565b73ffffffffffffffffffffffffffffffffffffffff161461181c576040517f08c379a000000000000000000000000000000000000000000000000000000000815260040161181390614f10565b60405180910390fd5b60026001541415611862576040517f08c379a000000000000000000000000000000000000000000000000000000000815260040161185990615070565b60405180910390fd5b6002600181905550600033905060008173ffffffffffffffffffffffffffffffffffffffff1660035460405161189790614a36565b60006040518083038185875af1925050503d80600081146118d4576040519150601f19603f3d011682016040523d82523d6000602084013e6118d9565b606091505b505090508061191d576040517f08c379a000000000000000000000000000000000000000000000000000000000815260040161191490615010565b60405180910390fd5b6000600381905550505060018081905550565b61193861356c565b73ffffffffffffffffffffffffffffffffffffffff16611956611c90565b73ffffffffffffffffffffffffffffffffffffffff16146119ac576040517f08c379a00000000000000000000000000000000000000000000000000000000081526004016119a390614f10565b60405180910390fd5b600073ffffffffffffffffffffffffffffffffffffffff1660008054906101000a900473ffffffffffffffffffffffffffffffffffffffff1673ffffffffffffffffffffffffffffffffffffffff167f8be0079c531659141344cd1fd0a4f28419497f9722a3daafe3b4186f6b6457e060405160405180910390a360008060006101000a81548173ffffffffffffffffffffffffffffffffffffffff021916908373ffffffffffffffffffffffffffffffffffffffff160217905550565b600060068281548110611aa6577f4e487b7100000000000000000000000000000000000000000000000000000000600052603260045260246000fd5b90600052602060002090600a0201600401549050919050565b600060016002811115611afb577f4e487b7100000000000000000000000000000000000000000000000000000000600052602160045260246000fd5b611b04836116ab565b6002811115611b3c577f4e487b7100000000000000000000000000000000000000000000000000000000600052602160045260246000fd5b149050919050565b600060068281548110611b80577f4e487b7100000000000000000000000000000000000000000000000000000000600052603260045260246000fd5b90600052602060002090600a020160030160009054906101000a900473ffffffffffffffffffffffffffffffffffffffff169050919050565b60058181548110611bc957600080fd5b90600052602060002090600b02016000915090508060000160009054906101000a900473ffffffffffffffffffffffffffffffffffffffff16908060010154908060020154908060030160009054906101000a900473ffffffffffffffffffffffffffffffffffffffff16908060040154908060050160009054906101000a900460ff16908060050160019054906101000a900460ff169080600601549080600701549080600801549080600901549080600a0160009054906101000a900460ff1690508c565b60008060009054906101000a900473ffffffffffffffffffffffffffffffffffffffff16905090565b6000808a9050888173ffffffffffffffffffffffffffffffffffffffff1662fdd58e338d6040518363ffffffff1660e01b8152600401611cfa929190614bbb565b60206040518083038186803b158015611d1257600080fd5b505afa158015611d26573d6000803e3d6000fd5b505050506040513d601f19601f82011682018060405250810190611d4a9190614577565b1015611d8b576040517f08c379a0000000000000000000000000000000000000000000000000000000008152600401611d8290614e30565b60405180910390fd5b60006040518061018001604052808d73ffffffffffffffffffffffffffffffffffffffff1681526020018c81526020018b81526020013373ffffffffffffffffffffffffffffffffffffffff1681526020018881526020018a1515815260200189151581526020018681526020018581526020018781526020018b815260200160001515815250905060058190806001815401808255809150506001900390600052602060002090600b020160009091909190915060008201518160000160006101000a81548173ffffffffffffffffffffffffffffffffffffffff021916908373ffffffffffffffffffffffffffffffffffffffff160217905550602082015181600101556040820151816002015560608201518160030160006101000a81548173ffffffffffffffffffffffffffffffffffffffff021916908373ffffffffffffffffffffffffffffffffffffffff1602179055506080820151816004015560a08201518160050160006101000a81548160ff02191690831515021790555060c08201518160050160016101000a81548160ff02191690831515021790555060e0820151816006015561010082015181600701556101208201518160080155610140820151816009015561016082015181600a0160006101000a81548160ff021916908315150217905550505060006001600580549050611f8e91906152b1565b90507f6b50976958b23a24954946172a9b29752902cddba5118b7a0ba435712a5e0899818d8d8b8e604051611fc7959493929190615150565b60405180910390a18093505050509998505050505050505050565b60035481565b60008060058481548110612025577f4e487b7100000000000000000000000000000000000000000000000000000000600052603260045260246000fd5b90600052602060002090600b0201604051806101800160405290816000820160009054906101000a900473ffffffffffffffffffffffffffffffffffffffff1673ffffffffffffffffffffffffffffffffffffffff1673ffffffffffffffffffffffffffffffffffffffff16815260200160018201548152602001600282015481526020016003820160009054906101000a900473ffffffffffffffffffffffffffffffffffffffff1673ffffffffffffffffffffffffffffffffffffffff1673ffffffffffffffffffffffffffffffffffffffff168152602001600482015481526020016005820160009054906101000a900460ff161515151581526020016005820160019054906101000a900460ff1615151515815260200160068201548152602001600782015481526020016008820154815260200160098201548152602001600a820160009054906101000a900460ff1615151515815250509050600115158160c001511515146121cf576040517f08c379a00000000000000000000000000000000000000000000000000000000081526004016121c690614fd0565b60405180910390fd5b6000151581610160015115151461221b576040517f08c379a000000000000000000000000000000000000000000000000000000000815260040161221290614e10565b60405180910390fd5b600073ffffffffffffffffffffffffffffffffffffffff16816060015173ffffffffffffffffffffffffffffffffffffffff16141561225957600080fd5b8281610140015110156122a1576040517f08c379a000000000000000000000000000000000000000000000000000000000815260040161229890614ff0565b60405180910390fd5b6122b98382610120015161427790919063ffffffff16565b3410156122fb576040517f08c379a00000000000000000000000000000000000000000000000000000000081526004016122f290614d70565b60405180910390fd5b6000604051806101400160405280836000015173ffffffffffffffffffffffffffffffffffffffff168152602001836020015181526020013481526020013373ffffffffffffffffffffffffffffffffffffffff16815260200160018152602001868152602001858152602001600115158152602001428152602001836101000151815250905060068190806001815401808255809150506001900390600052602060002090600a020160009091909190915060008201518160000160006101000a81548173ffffffffffffffffffffffffffffffffffffffff021916908373ffffffffffffffffffffffffffffffffffffffff160217905550602082015181600101556040820151816002015560608201518160030160006101000a81548173ffffffffffffffffffffffffffffffffffffffff021916908373ffffffffffffffffffffffffffffffffffffffff1602179055506080820151816004015560a0820151816005015560c0820151816006015560e08201518160070160006101000a81548160ff021916908315150217905550610100820151816008015561012082015181600901555050600060016006805490506124ba91906152b1565b905060001515836101600151151514156124e1576001836101600190151590811515815250505b6124f98584610140015161428d90919063ffffffff16565b83610140018181525050826005878154811061253e577f4e487b7100000000000000000000000000000000000000000000000000000000600052603260045260246000fd5b90600052602060002090600b020160008201518160000160006101000a81548173ffffffffffffffffffffffffffffffffffffffff021916908373ffffffffffffffffffffffffffffffffffffffff160217905550602082015181600101556040820151816002015560608201518160030160006101000a81548173ffffffffffffffffffffffffffffffffffffffff021916908373ffffffffffffffffffffffffffffffffffffffff1602179055506080820151816004015560a08201518160050160006101000a81548160ff02191690831515021790555060c08201518160050160016101000a81548160ff02191690831515021790555060e0820151816006015561010082015181600701556101208201518160080155610140820151816009015561016082015181600a0160006101000a81548160ff0219169083151502179055509050507f0a34b25ad011b9762df5c16a0fa7dd1ed6d0d8d3d4bcbec2f4885cdc50bf514d8133348887602001516040516126c29594939291906150fd565b60405180910390a180935050505092915050565b6002600154141561271c576040517f08c379a000000000000000000000000000000000000000000000000000000000815260040161271390615070565b60405180910390fd5b60026001819055506000339050600034905060006005858154811061276a577f4e487b7100000000000000000000000000000000000000000000000000000000600052603260045260246000fd5b90600052602060002090600b0201604051806101800160405290816000820160009054906101000a900473ffffffffffffffffffffffffffffffffffffffff1673ffffffffffffffffffffffffffffffffffffffff1673ffffffffffffffffffffffffffffffffffffffff16815260200160018201548152602001600282015481526020016003820160009054906101000a900473ffffffffffffffffffffffffffffffffffffffff1673ffffffffffffffffffffffffffffffffffffffff1673ffffffffffffffffffffffffffffffffffffffff168152602001600482015481526020016005820160009054906101000a900460ff161515151581526020016005820160019054906101000a900460ff1615151515815260200160068201548152602001600782015481526020016008820154815260200160098201548152602001600a820160009054906101000a900460ff1615151515815250509050600115158160a00151151514612914576040517f08c379a000000000000000000000000000000000000000000000000000000000815260040161290b90614f50565b60405180910390fd5b83816101400151101561295c576040517f08c379a000000000000000000000000000000000000000000000000000000000815260040161295390614ff0565b60405180910390fd5b600081608001519050612978858261427790919063ffffffff16565b8310156129ba576040517f08c379a00000000000000000000000000000000000000000000000000000000081526004016129b190614d70565b60405180910390fd5b600082600001519050858173ffffffffffffffffffffffffffffffffffffffff1662fdd58e856060015186602001516040518363ffffffff1660e01b8152600401612a06929190614b3f565b60206040518083038186803b158015612a1e57600080fd5b505afa158015612a32573d6000803e3d6000fd5b505050506040513d601f19601f82011682018060405250810190612a569190614577565b1015612a97576040517f08c379a0000000000000000000000000000000000000000000000000000000008152600401612a8e90615030565b60405180910390fd5b8073ffffffffffffffffffffffffffffffffffffffff1663e985e9c58460600151306040518363ffffffff1660e01b8152600401612ad6929190614a66565b60206040518083038186803b158015612aee57600080fd5b505afa158015612b02573d6000803e3d6000fd5b505050506040513d601f19601f82011682018060405250810190612b269190614525565b612b65576040517f08c379a0000000000000000000000000000000000000000000000000000000008152600401612b5c90615050565b60405180910390fd5b7f35538759d80c1fd7bb450a0d05601db5a99fa8b5d073a07c847a9fd61029b1078786604051612b969291906150ab565b60405180910390a18073ffffffffffffffffffffffffffffffffffffffff1663f242432a84606001513386602001518a6040518563ffffffff1660e01b8152600401612be59493929190614ae7565b600060405180830381600087803b158015612bff57600080fd5b505af1158015612c13573d6000803e3d6000fd5b5050505060008173ffffffffffffffffffffffffffffffffffffffff1663d48e638a85602001516040518263ffffffff1660e01b8152600401612c569190615090565b60206040518083038186803b158015612c6e57600080fd5b505afa158015612c82573d6000803e3d6000fd5b505050506040513d601f19601f82011682018060405250810190612ca69190614436565b9050600061271060025487612cbb9190615257565b612cc59190615226565b90506000856060015173ffffffffffffffffffffffffffffffffffffffff168373ffffffffffffffffffffffffffffffffffffffff1614612e55576127108473ffffffffffffffffffffffffffffffffffffffff1663bb3bafd688602001516040518263ffffffff1660e01b8152600401612d409190615090565b60206040518083038186803b158015612d5857600080fd5b505afa158015612d6c573d6000803e3d6000fd5b505050506040513d601f19601f82011682018060405250810190612d909190614577565b88612d9b9190615257565b612da59190615226565b905060008373ffffffffffffffffffffffffffffffffffffffff1682604051612dcd90614a36565b60006040518083038185875af1925050503d8060008114612e0a576040519150601f19603f3d011682016040523d82523d6000602084013e612e0f565b606091505b5050905080612e53576040517f08c379a0000000000000000000000000000000000000000000000000000000008152600401612e4a90615010565b60405180910390fd5b505b6000818389612e6491906152b1565b612e6e91906152b1565b90506000876060015173ffffffffffffffffffffffffffffffffffffffff1682604051612e9a90614a36565b60006040518083038185875af1925050503d8060008114612ed7576040519150601f19603f3d011682016040523d82523d6000602084013e612edc565b606091505b5050905080612f20576040517f08c379a0000000000000000000000000000000000000000000000000000000008152600401612f1790615010565b60405180910390fd5b7f9a37aa02cc986a4a0c2d22af3dcdb9db27c178f7feed43e7037c783b55ed91ba8860600151838686612f56878f60025461435b565b604051612f67959493929190614b68565b60405180910390a18360036000828254612f8191906151d0565b92505081905550612f9d8960045461426190919063ffffffff16565b600481905550612fbb8b89610140015161428d90919063ffffffff16565b8861014001818152505060008861014001511415612ff65760008860c001901515908115158152505060008860a00190151590811515815250505b8760058d81548110613031577f4e487b7100000000000000000000000000000000000000000000000000000000600052603260045260246000fd5b90600052602060002090600b020160008201518160000160006101000a81548173ffffffffffffffffffffffffffffffffffffffff021916908373ffffffffffffffffffffffffffffffffffffffff160217905550602082015181600101556040820151816002015560608201518160030160006101000a81548173ffffffffffffffffffffffffffffffffffffffff021916908373ffffffffffffffffffffffffffffffffffffffff1602179055506080820151816004015560a08201518160050160006101000a81548160ff02191690831515021790555060c08201518160050160016101000a81548160ff02191690831515021790555060e0820151816006015561010082015181600701556101208201518160080155610140820151816009015561016082015181600a0160006101000a81548160ff02191690831515021790555090505050505050505050505050600180819055505050565b60025481565b60006002808111156131d0577f4e487b7100000000000000000000000000000000000000000000000000000000600052602160045260246000fd5b6131d9836116ab565b6002811115613211577f4e487b7100000000000000000000000000000000000000000000000000000000600052602160045260246000fd5b149050919050565b61322161356c565b73ffffffffffffffffffffffffffffffffffffffff1661323f611c90565b73ffffffffffffffffffffffffffffffffffffffff1614613295576040517f08c379a000000000000000000000000000000000000000000000000000000000815260040161328c90614f10565b60405180910390fd5b600073ffffffffffffffffffffffffffffffffffffffff168173ffffffffffffffffffffffffffffffffffffffff161415613305576040517f08c379a00000000000000000000000000000000000000000000000000000000081526004016132fc90614db0565b60405180910390fd5b8073ffffffffffffffffffffffffffffffffffffffff1660008054906101000a900473ffffffffffffffffffffffffffffffffffffffff1673ffffffffffffffffffffffffffffffffffffffff167f8be0079c531659141344cd1fd0a4f28419497f9722a3daafe3b4186f6b6457e060405160405180910390a3806000806101000a81548173ffffffffffffffffffffffffffffffffffffffff021916908373ffffffffffffffffffffffffffffffffffffffff16021790555050565b600080600583815481106133ff577f4e487b7100000000000000000000000000000000000000000000000000000000600052603260045260246000fd5b90600052602060002090600b0201604051806101800160405290816000820160009054906101000a900473ffffffffffffffffffffffffffffffffffffffff1673ffffffffffffffffffffffffffffffffffffffff1673ffffffffffffffffffffffffffffffffffffffff16815260200160018201548152602001600282015481526020016003820160009054906101000a900473ffffffffffffffffffffffffffffffffffffffff1673ffffffffffffffffffffffffffffffffffffffff1673ffffffffffffffffffffffffffffffffffffffff168152602001600482015481526020016005820160009054906101000a900460ff161515151581526020016005820160019054906101000a900460ff1615151515815260200160068201548152602001600782015481526020016008820154815260200160098201548152602001600a820160009054906101000a900460ff1615151515815250509050806101600151915050919050565b600033905090565b6000600682815481106135b0577f4e487b7100000000000000000000000000000000000000000000000000000000600052603260045260246000fd5b90600052602060002090600a0201604051806101400160405290816000820160009054906101000a900473ffffffffffffffffffffffffffffffffffffffff1673ffffffffffffffffffffffffffffffffffffffff1673ffffffffffffffffffffffffffffffffffffffff16815260200160018201548152602001600282015481526020016003820160009054906101000a900473ffffffffffffffffffffffffffffffffffffffff1673ffffffffffffffffffffffffffffffffffffffff1673ffffffffffffffffffffffffffffffffffffffff1681526020016004820154815260200160058201548152602001600682015481526020016007820160009054906101000a900460ff16151515158152602001600882015481526020016009820154815250509050600060058260a0015181548110613719577f4e487b7100000000000000000000000000000000000000000000000000000000600052603260045260246000fd5b90600052602060002090600b0201604051806101800160405290816000820160009054906101000a900473ffffffffffffffffffffffffffffffffffffffff1673ffffffffffffffffffffffffffffffffffffffff1673ffffffffffffffffffffffffffffffffffffffff16815260200160018201548152602001600282015481526020016003820160009054906101000a900473ffffffffffffffffffffffffffffffffffffffff1673ffffffffffffffffffffffffffffffffffffffff1673ffffffffffffffffffffffffffffffffffffffff168152602001600482015481526020016005820160009054906101000a900460ff161515151581526020016005820160019054906101000a900460ff1615151515815260200160068201548152602001600782015481526020016008820154815260200160098201548152602001600a820160009054906101000a900460ff1615151515815250509050600115158260e001511515146138c3576040517f08c379a00000000000000000000000000000000000000000000000000000000081526004016138ba90614e70565b60405180910390fd5b6138cc83613195565b61390b576040517f08c379a000000000000000000000000000000000000000000000000000000000815260040161390290614f30565b60405180910390fd5b600115158160c00151151514613956576040517f08c379a000000000000000000000000000000000000000000000000000000000815260040161394d90614eb0565b60405180910390fd5b60008160000151905081604001518173ffffffffffffffffffffffffffffffffffffffff1662fdd58e846060015185602001516040518363ffffffff1660e01b81526004016139a6929190614b3f565b60206040518083038186803b1580156139be57600080fd5b505afa1580156139d2573d6000803e3d6000fd5b505050506040513d601f19601f820116820180604052508101906139f69190614577565b1015613a37576040517f08c379a0000000000000000000000000000000000000000000000000000000008152600401613a2e90615030565b60405180910390fd5b8073ffffffffffffffffffffffffffffffffffffffff1663e985e9c58360600151306040518363ffffffff1660e01b8152600401613a76929190614a66565b60206040518083038186803b158015613a8e57600080fd5b505afa158015613aa2573d6000803e3d6000fd5b505050506040513d601f19601f82011682018060405250810190613ac69190614525565b613b05576040517f08c379a0000000000000000000000000000000000000000000000000000000008152600401613afc90615050565b60405180910390fd5b7f35538759d80c1fd7bb450a0d05601db5a99fa8b5d073a07c847a9fd61029b1078360a001518460600151604051613b3e9291906150d4565b60405180910390a18073ffffffffffffffffffffffffffffffffffffffff1663f242432a8360600151856060015185602001518760c001516040518563ffffffff1660e01b8152600401613b959493929190614a8f565b600060405180830381600087803b158015613baf57600080fd5b505af1158015613bc3573d6000803e3d6000fd5b5050505060008173ffffffffffffffffffffffffffffffffffffffff1663d48e638a84602001516040518263ffffffff1660e01b8152600401613c069190615090565b60206040518083038186803b158015613c1e57600080fd5b505afa158015613c32573d6000803e3d6000fd5b505050506040513d601f19601f82011682018060405250810190613c569190614436565b905060006127106002548660400151613c6f9190615257565b613c799190615226565b90506000846060015173ffffffffffffffffffffffffffffffffffffffff168373ffffffffffffffffffffffffffffffffffffffff1614613e0d576127108473ffffffffffffffffffffffffffffffffffffffff1663bb3bafd687602001516040518263ffffffff1660e01b8152600401613cf49190615090565b60206040518083038186803b158015613d0c57600080fd5b505afa158015613d20573d6000803e3d6000fd5b505050506040513d601f19601f82011682018060405250810190613d449190614577565b8760400151613d539190615257565b613d5d9190615226565b905060008373ffffffffffffffffffffffffffffffffffffffff1682604051613d8590614a36565b60006040518083038185875af1925050503d8060008114613dc2576040519150601f19603f3d011682016040523d82523d6000602084013e613dc7565b606091505b5050905080613e0b576040517f08c379a0000000000000000000000000000000000000000000000000000000008152600401613e0290615010565b60405180910390fd5b505b600081838860400151613e2091906152b1565b613e2a91906152b1565b90506000866060015173ffffffffffffffffffffffffffffffffffffffff1682604051613e5690614a36565b60006040518083038185875af1925050503d8060008114613e93576040519150601f19603f3d011682016040523d82523d6000602084013e613e98565b606091505b5050905080613edc576040517f08c379a0000000000000000000000000000000000000000000000000000000008152600401613ed390615010565b60405180910390fd5b7f9a37aa02cc986a4a0c2d22af3dcdb9db27c178f7feed43e7037c783b55ed91ba8760600151838686613f16878e6040015160025461435b565b604051613f27959493929190614b68565b60405180910390a1613f448460035461426190919063ffffffff16565b600381905550613f63886040015160045461426190919063ffffffff16565b60048190555060008860e00190151590811515815250508760068a81548110613fb5577f4e487b7100000000000000000000000000000000000000000000000000000000600052603260045260246000fd5b90600052602060002090600a020160008201518160000160006101000a81548173ffffffffffffffffffffffffffffffffffffffff021916908373ffffffffffffffffffffffffffffffffffffffff160217905550602082015181600101556040820151816002015560608201518160030160006101000a81548173ffffffffffffffffffffffffffffffffffffffff021916908373ffffffffffffffffffffffffffffffffffffffff1602179055506080820151816004015560a0820151816005015560c0820151816006015560e08201518160070160006101000a81548160ff021916908315150217905550610100820151816008015561012082015181600901559050506000876101600190151590811515815250508660058960a001518154811061410d577f4e487b7100000000000000000000000000000000000000000000000000000000600052603260045260246000fd5b90600052602060002090600b020160008201518160000160006101000a81548173ffffffffffffffffffffffffffffffffffffffff021916908373ffffffffffffffffffffffffffffffffffffffff160217905550602082015181600101556040820151816002015560608201518160030160006101000a81548173ffffffffffffffffffffffffffffffffffffffff021916908373ffffffffffffffffffffffffffffffffffffffff1602179055506080820151816004015560a08201518160050160006101000a81548160ff02191690831515021790555060c08201518160050160016101000a81548160ff02191690831515021790555060e0820151816006015561010082015181600701556101208201518160080155610140820151816009015561016082015181600a0160006101000a81548160ff021916908315150217905550905050505050505050505050565b6000818361426f91906151d0565b905092915050565b600081836142859190615257565b905092915050565b6000818361429b91906152b1565b905092915050565b6000816060015173ffffffffffffffffffffffffffffffffffffffff1682604001516040516142d190614a36565b60006040518083038185875af1925050503d806000811461430e576040519150601f19603f3d011682016040523d82523d6000602084013e614313565b606091505b5050905080614357576040517f08c379a000000000000000000000000000000000000000000000000000000000815260040161434e90615010565b60405180910390fd5b5050565b600080612710838561436d9190615257565b6143779190615226565b8561438291906151d0565b9050809150509392505050565b60008135905061439e8161588b565b92915050565b6000815190506143b38161588b565b92915050565b6000813590506143c8816158a2565b92915050565b6000815190506143dd816158a2565b92915050565b6000813590506143f2816158b9565b92915050565b600081519050614407816158b9565b92915050565b60006020828403121561441f57600080fd5b600061442d8482850161438f565b91505092915050565b60006020828403121561444857600080fd5b6000614456848285016143a4565b91505092915050565b60008060008060008060008060006101208a8c03121561447e57600080fd5b600061448c8c828d0161438f565b995050602061449d8c828d016143e3565b98505060406144ae8c828d016143e3565b97505060606144bf8c828d016143b9565b96505060806144d08c828d016143b9565b95505060a06144e18c828d016143e3565b94505060c06144f28c828d016143e3565b93505060e06145038c828d016143e3565b9250506101006145158c828d016143e3565b9150509295985092959850929598565b60006020828403121561453757600080fd5b6000614545848285016143ce565b91505092915050565b60006020828403121561456057600080fd5b600061456e848285016143e3565b91505092915050565b60006020828403121561458957600080fd5b6000614597848285016143f8565b91505092915050565b6000806000606084860312156145b557600080fd5b60006145c3868287016143e3565b93505060206145d4868287016143b9565b92505060406145e5868287016143b9565b9150509250925092565b6000806040838503121561460257600080fd5b6000614610858286016143e3565b9250506020614621858286016143e3565b9150509250929050565b61463481615352565b82525050565b614643816152f7565b82525050565b614652816152e5565b82525050565b61466181615309565b82525050565b61467081615364565b82525050565b60006146836013836151bf565b915061468e82615427565b602082019050919050565b60006146a66018836151bf565b91506146b182615450565b602082019050919050565b60006146c96026836151bf565b91506146d482615479565b604082019050919050565b60006146ec6007836151bf565b91506146f7826154c8565b602082019050919050565b600061470f600d836151bf565b915061471a826154f1565b602082019050919050565b60006147326012836151bf565b915061473d8261551a565b602082019050919050565b60006147556037836151bf565b915061476082615543565b604082019050919050565b60006147786015836151bf565b915061478382615592565b602082019050919050565b600061479b6012836151bf565b91506147a6826155bb565b602082019050919050565b60006147be6011836151bf565b91506147c9826155e4565b602082019050919050565b60006147e16015836151bf565b91506147ec8261560d565b602082019050919050565b60006148046010836151bf565b915061480f82615636565b602082019050919050565b60006148276007836151bf565b91506148328261565f565b602082019050919050565b600061484a6020836151bf565b915061485582615688565b602082019050919050565b600061486d601b836151bf565b9150614878826156b1565b602082019050919050565b60006148906016836151bf565b915061489b826156da565b602082019050919050565b60006148b36007836151bf565b91506148be82615703565b602082019050919050565b60006148d66016836151bf565b91506148e18261572c565b602082019050919050565b60006148f96013836151bf565b915061490482615755565b602082019050919050565b600061491c600e836151bf565b91506149278261577e565b602082019050919050565b600061493f601b836151bf565b915061494a826157a7565b602082019050919050565b60006149626000836151a3565b915061496d826157d0565b600082019050919050565b60006149856000836151b4565b9150614990826157d0565b600082019050919050565b60006149a86010836151bf565b91506149b3826157d3565b602082019050919050565b60006149cb6020836151bf565b91506149d6826157fc565b602082019050919050565b60006149ee6010836151bf565b91506149f982615825565b602082019050919050565b6000614a11601f836151bf565b9150614a1c8261584e565b602082019050919050565b614a3081615348565b82525050565b6000614a4182614978565b9150819050919050565b6000602082019050614a606000830184614649565b92915050565b6000604082019050614a7b600083018561462b565b614a886020830184614649565b9392505050565b600060a082019050614aa4600083018761462b565b614ab1602083018661462b565b614abe6040830185614a27565b614acb6060830184614a27565b8181036080830152614adc81614955565b905095945050505050565b600060a082019050614afc600083018761462b565b614b096020830186614649565b614b166040830185614a27565b614b236060830184614a27565b8181036080830152614b3481614955565b905095945050505050565b6000604082019050614b54600083018561462b565b614b616020830184614a27565b9392505050565b600060a082019050614b7d600083018861462b565b614b8a6020830187614a27565b614b976040830186614a27565b614ba46060830185614a27565b614bb16080830184614a27565b9695505050505050565b6000604082019050614bd06000830185614649565b614bdd6020830184614a27565b9392505050565b600061018082019050614bfa600083018f614649565b614c07602083018e614a27565b614c14604083018d614a27565b614c21606083018c61463a565b614c2e608083018b614a27565b614c3b60a083018a614658565b614c4860c0830189614658565b614c5560e0830188614a27565b614c63610100830187614a27565b614c71610120830186614a27565b614c7f610140830185614a27565b614c8d610160830184614658565b9d9c50505050505050505050505050565b600061014082019050614cb4600083018d614649565b614cc1602083018c614a27565b614cce604083018b614a27565b614cdb606083018a61463a565b614ce86080830189614a27565b614cf560a0830188614a27565b614d0260c0830187614a27565b614d0f60e0830186614658565b614d1d610100830185614a27565b614d2b610120830184614a27565b9b9a5050505050505050505050565b6000602082019050614d4f6000830184614658565b92915050565b6000602082019050614d6a6000830184614667565b92915050565b60006020820190508181036000830152614d8981614676565b9050919050565b60006020820190508181036000830152614da981614699565b9050919050565b60006020820190508181036000830152614dc9816146bc565b9050919050565b60006020820190508181036000830152614de9816146df565b9050919050565b60006020820190508181036000830152614e0981614702565b9050919050565b60006020820190508181036000830152614e2981614725565b9050919050565b60006020820190508181036000830152614e4981614748565b9050919050565b60006020820190508181036000830152614e698161476b565b9050919050565b60006020820190508181036000830152614e898161478e565b9050919050565b60006020820190508181036000830152614ea9816147b1565b9050919050565b60006020820190508181036000830152614ec9816147d4565b9050919050565b60006020820190508181036000830152614ee9816147f7565b9050919050565b60006020820190508181036000830152614f098161481a565b9050919050565b60006020820190508181036000830152614f298161483d565b9050919050565b60006020820190508181036000830152614f4981614860565b9050919050565b60006020820190508181036000830152614f6981614883565b9050919050565b60006020820190508181036000830152614f89816148a6565b9050919050565b60006020820190508181036000830152614fa9816148c9565b9050919050565b60006020820190508181036000830152614fc9816148ec565b9050919050565b60006020820190508181036000830152614fe98161490f565b9050919050565b6000602082019050818103600083015261500981614932565b9050919050565b600060208201905081810360008301526150298161499b565b9050919050565b60006020820190508181036000830152615049816149be565b9050919050565b60006020820190508181036000830152615069816149e1565b9050919050565b6000602082019050818103600083015261508981614a04565b9050919050565b60006020820190506150a56000830184614a27565b92915050565b60006040820190506150c06000830185614a27565b6150cd6020830184614649565b9392505050565b60006040820190506150e96000830185614a27565b6150f6602083018461462b565b9392505050565b600060a0820190506151126000830188614a27565b61511f6020830187614649565b61512c6040830186614a27565b6151396060830185614a27565b6151466080830184614a27565b9695505050505050565b600060a0820190506151656000830188614a27565b6151726020830187614a27565b61517f6040830186614a27565b61518c6060830185614a27565b6151996080830184614658565b9695505050505050565b600082825260208201905092915050565b600081905092915050565b600082825260208201905092915050565b60006151db82615348565b91506151e683615348565b9250827fffffffffffffffffffffffffffffffffffffffffffffffffffffffffffffffff0382111561521b5761521a61539a565b5b828201905092915050565b600061523182615348565b915061523c83615348565b92508261524c5761524b6153c9565b5b828204905092915050565b600061526282615348565b915061526d83615348565b9250817fffffffffffffffffffffffffffffffffffffffffffffffffffffffffffffffff04831182151516156152a6576152a561539a565b5b828202905092915050565b60006152bc82615348565b91506152c783615348565b9250828210156152da576152d961539a565b5b828203905092915050565b60006152f082615328565b9050919050565b600061530282615328565b9050919050565b60008115159050919050565b600081905061532382615877565b919050565b600073ffffffffffffffffffffffffffffffffffffffff82169050919050565b6000819050919050565b600061535d82615376565b9050919050565b600061536f82615315565b9050919050565b600061538182615388565b9050919050565b600061539382615328565b9050919050565b7f4e487b7100000000000000000000000000000000000000000000000000000000600052601160045260246000fd5b7f4e487b7100000000000000000000000000000000000000000000000000000000600052601260045260246000fd5b7f4e487b7100000000000000000000000000000000000000000000000000000000600052602160045260246000fd5b7f5072696365206973206e6f7420656e6f75676800000000000000000000000000600082015250565b7f41756374696f6e206e6f742066696e6973686564207965740000000000000000600082015250565b7f4f776e61626c653a206e6577206f776e657220697320746865207a65726f206160008201527f6464726573730000000000000000000000000000000000000000000000000000602082015250565b7f5072696365203100000000000000000000000000000000000000000000000000600082015250565b7f42696473206578697374696e6700000000000000000000000000000000000000600082015250565b7f6e6f74206163746976652061756374696f6e0000000000000000000000000000600082015250565b7f596f752061726520747279696e6720746f2073616c65206d6f7265206e66747360008201527f207468617420746865206f6e657320796f752068617665000000000000000000602082015250565b7f596f7520617265206e6f7420746865206f776e65720000000000000000000000600082015250565b7f41756374696f6e206e6f74206163746976650000000000000000000000000000600082015250565b7f41756374696f6e2068617320656e646564000000000000000000000000000000600082015250565b7f41756374696f6e206973206e6f74206163746976650000000000000000000000600082015250565b7f5072696365206e6f7420656e6f75676800000000000000000000000000000000600082015250565b7f4572726f72203100000000000000000000000000000000000000000000000000600082015250565b7f4f776e61626c653a2063616c6c6572206973206e6f7420746865206f776e6572600082015250565b7f5468652061756374696f6e206973207374696c6c206163746976650000000000600082015250565b7f4e4654206e6f7420696e206469726563742073616c6500000000000000000000600082015250565b7f4572726f72203200000000000000000000000000000000000000000000000000600082015250565b7f41756374696f6e206973206e6f7420656e61626c656400000000000000000000600082015250565b7f436f6d6d697373696f6e20746f6f206869676800000000000000000000000000600082015250565b7f4e6f7420696e2061756374696f6e000000000000000000000000000000000000600082015250565b7f4e6f7420656e6f75676820636f7069657320617661696c61626c650000000000600082015250565b50565b7f5472616e73666572206661696c65642e00000000000000000000000000000000600082015250565b7f4f776e657220646964206e6f74206861766520656e6f75676820746f6b656e73600082015250565b7f4e4654206e6f7420617070726f76656400000000000000000000000000000000600082015250565b7f5265656e7472616e637947756172643a207265656e7472616e742063616c6c00600082015250565b60038110615888576158876153f8565b5b50565b615894816152e5565b811461589f57600080fd5b50565b6158ab81615309565b81146158b657600080fd5b50565b6158c281615348565b81146158cd57600080fd5b5056fea26469706673582212205f348e6de305bf851b77e2a460125ea7cdc7d2c11cd355f52fd36077ea3a65bd64736f6c63430008040033",
  "immutableReferences": {},
  "source": "// SPDX-License-Identifier: UNLICENSED\npragma solidity ^0.8.4;\n\nimport \"@openzeppelin/contracts/token/ERC1155/ERC1155.sol\";\nimport \"@openzeppelin/contracts/access/Ownable.sol\";\nimport \"./Base1155.sol\";\nimport \"@openzeppelin/contracts/utils/math/SafeMath.sol\";\nimport \"@openzeppelin/contracts/security/ReentrancyGuard.sol\";\n\ncontract Engine is Ownable, ReentrancyGuard {\n    using SafeMath for uint256;\n\n    event OfferCreated(uint256 _index, uint256 _tokenId, uint256 numCopies, uint256 amount, bool isSale);\n    event AuctionBid(uint256 _index, address _bidder, uint256 _price, uint256 _numCopies, uint256 _tokenId);\n    event Claim(uint256 auctionIndex, address claimer);\n  //  event ReturnBidFunds(uint256 _index, address _bidder, uint256 amount);\n\n //   event Royalties(address receiver, uint256 amount);\n    event PaymentToOwner(\n        address receiver,\n        uint256 amount,\n        uint256 commission,\n        uint256 royalties,\n        uint256 safetyCheckValue\n    );\n\n    uint256 public commission = 0; // this is the commission that will charge the marketplace by default.\n    uint256 public accumulatedCommission = 0;\n\n    uint256 public totalSales = 0;\n\n    enum Status {\n        pending,\n        active,\n        finished\n    }\n    struct Offer {\n        address tokenAddress; // address of the token\n        uint256 tokenId; // the tokenId returned when calling \"createItem\"\n        uint256 amount; // amount of tokens on sale on this offer\n        address payable creator; // who creates the offer\n        uint256 price; // price of each token\n        bool isOnSale; // is on sale or not\n        bool isAuction; // is this offer is for an auction\n        uint256 startTime; // when the auction starts\n        uint256 duration; // duration in seconds of the auction\n        uint256 minimumBidAmount;\n        uint256 availableCopies;\n        bool hasBids;\n    }\n    Offer[] public offers;\n\n    struct Auction {\n        address tokenAddress; // address of the token\n        uint256 tokenId; // the tokenId returned when calling \"createItem\"\n        uint256 currentBidAmount; // current amount paid by the best bidder\n        address payable currentBidOwner; // address of the best bidder\n        uint256 bidCount; // counter of the bids of the auction\n        uint256 offerId;\n        uint256 numCopies;\n        bool active;\n        uint256 startTime; // when the auction starts\n        uint256 duration; // duration in seconds of the auction\n    }\n    Auction[] public auctions;\n\n    function createAuctionAndBid(uint256 _offerId, uint256 _numCopies)\n        public\n        payable\n        returns (uint256)\n    {\n        Offer memory offer = offers[_offerId];\n        require(offer.isAuction == true, \"Not in auction\");\n        //   require(isActive(_offerId), \"Auction has ended\");\n        require(offer.hasBids == false, \"not active auction\");\n        require(offer.creator != address(0));\n        require(\n            offer.availableCopies >= _numCopies,\n            \"Not enough copies available\"\n        );\n        require(\n            msg.value >= offer.minimumBidAmount.mul(_numCopies),\n            \"Price is not enough\"\n        );\n\n        Auction memory auction = Auction({\n            tokenAddress: offer.tokenAddress,\n            tokenId: offer.tokenId,\n            numCopies: _numCopies,\n            currentBidOwner: payable(msg.sender),\n            currentBidAmount: msg.value,\n            bidCount: 1,\n            offerId: _offerId,\n            active: true,\n            startTime: block.timestamp,\n            duration: offer.duration\n        });\n\n        auctions.push(auction);\n        uint256 auctionId = auctions.length - 1;\n\n        // Update offer with new available amount\n        if (offer.hasBids == false) offer.hasBids = true;\n        offer.availableCopies = offer.availableCopies.sub(_numCopies);\n        offers[_offerId] = offer;\n\n        emit AuctionBid(auctionId, msg.sender, msg.value, _numCopies, offer.tokenId);\n        return auctionId;\n    }\n\n    function bid(uint256 _auctionId, uint256 _numCopies) public payable {\n        Auction memory auction = auctions[_auctionId];\n        Offer memory offer = offers[auction.offerId];\n        require(offer.isAuction, \"Auction is not enabled\");\n        require(auction.active, \"Auction is not active\");\n        require(isActive(_auctionId), \"Auction has ended\");\n        require(offer.creator != address(0));\n        require(msg.value > auction.currentBidAmount, \"Price not enough\");\n        require(\n            msg.value >= offer.minimumBidAmount.mul(_numCopies),\n            \"Price 1\" \n        );\n        require(_numCopies >= auction.numCopies, \"Error 1\");\n        require(\n            offer.availableCopies.add(auction.numCopies).sub(_numCopies) >= 0,\n            \"Error 2\"\n        );\n\n        // return funds to the previuos bidder\n        returnFundsToPreviousOwner(auction);\n\n        offer.availableCopies = offer\n            .availableCopies\n            .add(auction.numCopies)\n            .sub(_numCopies);\n        offers[auction.offerId] = offer;\n\n        auction.currentBidAmount = msg.value;\n        auction.currentBidOwner = payable(msg.sender);\n        auction.bidCount = auction.bidCount.add(1);\n        auction.numCopies = _numCopies;\n        auctions[_auctionId] = auction;\n    }\n\n    function closeAuctionAndTransfer(uint256 _auctionId) internal {\n        Auction memory auction = auctions[_auctionId];\n        Offer memory offer = offers[auction.offerId];\n\n        require(auction.active == true, \"Auction not active\");\n        require(isFinished(_auctionId), \"The auction is still active\");\n        require(offer.isAuction == true, \"Auction is not active\");\n\n        Base1155 asset = Base1155(offer.tokenAddress);\n\n        require(\n            asset.balanceOf(offer.creator, offer.tokenId) >= offer.amount,\n            \"Owner did not have enough tokens\"\n        );\n        require(\n            asset.isApprovedForAll(offer.creator, address(this)),\n            \"NFT not approved\"\n        );\n\n        emit Claim(auction.offerId, auction.currentBidOwner);\n\n        asset.safeTransferFrom(\n            offer.creator,\n            auction.currentBidOwner,\n            offer.tokenId,\n            auction.numCopies,\n            \"\"\n        );\n\n        // now, pay the amount - commission - royalties to the auction creator\n        address payable creatorNFT = payable(\n            // getCreator(offer.assetAddress, _offerId)\n            asset.getCreator(offer.tokenId)\n        );\n\n        uint256 commissionToPay = (auction.currentBidAmount * commission) /\n            10000;\n        uint256 royaltiesToPay = 0;\n        if (creatorNFT != offer.creator) {\n            // It is a resale. Transfer royalties\n            royaltiesToPay =\n                (auction.currentBidAmount * asset.getRoyalties(offer.tokenId)) /\n                10000;\n            (bool success, ) = creatorNFT.call{value: royaltiesToPay}(\"\");\n            require(success, \"Transfer failed.\");\n\n           // emit Royalties(creatorNFT, royaltiesToPay);\n        }\n        uint256 amountToPay = auction.currentBidAmount -\n            commissionToPay -\n            royaltiesToPay;\n\n        (bool success2, ) = offer.creator.call{value: amountToPay}(\"\");\n        require(success2, \"Transfer failed.\");\n        emit PaymentToOwner(\n            offer.creator,\n            amountToPay,\n            commissionToPay,\n            royaltiesToPay,\n            calcSafetyCheckValue(\n                amountToPay,\n                auction.currentBidAmount,\n                commission\n            )\n        );\n\n        accumulatedCommission = accumulatedCommission.add(commissionToPay);\n        totalSales = totalSales.add(auction.currentBidAmount);\n\n        auction.active = false;\n        auctions[_auctionId] = auction;\n\n        offer.hasBids = false;\n        offers[auction.offerId] = offer;\n    }\n\n    function closeAuction(uint256 _auctionId) public onlyOwner {\n        closeAuctionAndTransfer(_auctionId);\n    }\n\n    // Creates an offer that could be direct sale and/or auction for a certain amount of a token\n    function createOffer(\n        address _tokenAddress,\n        uint256 _tokenId, // tokenId\n        uint256 _amount, // amount of tokens on sale\n        bool _isDirectSale, // true if can be bought on a direct sale\n        bool _isAuction, // true if can be bought in an auction\n        uint256 _price, // price that if paid in a direct sale, transfers the NFT\n        uint256 _startPrice, // minimum price on the auction\n        uint256 _startTime, // time when the auction will start. Check the format with frontend\n        uint256 _duration // duration in seconds of the auction\n    ) public returns (uint256) {\n        Base1155 asset = Base1155(_tokenAddress);\n        require(\n            asset.balanceOf(msg.sender, _tokenId) >= _amount,\n            \"You are trying to sale more nfts that the ones you have\"\n        );\n\n        Offer memory offer = Offer({\n            tokenAddress: _tokenAddress,\n            tokenId: _tokenId,\n            amount: _amount,\n            creator: payable(msg.sender),\n            price: _price,\n            isOnSale: _isDirectSale,\n            isAuction: _isAuction,\n            startTime: _startTime,\n            duration: _duration,\n            minimumBidAmount: _startPrice,\n            hasBids: false,\n            availableCopies: _amount // at the beginning all the copies are available, as nothing has been sold\n        });\n        offers.push(offer);\n        uint256 index = offers.length - 1;\n\n        emit OfferCreated(index, _tokenId, _amount, _price, _isDirectSale);\n        return index;\n    }\n\n    function hasBids(uint256 _offerId) public view returns (bool) {\n        Offer memory offer = offers[_offerId];\n        return offer.hasBids;\n    }\n\n    function ahora() public view returns (uint256) {\n        return block.timestamp;\n    }\n\n    function removeFromAuctionOrSale(\n        uint256 _offerId,\n        bool _sale,\n        bool _auction\n    ) public {\n        Offer memory offer = offers[_offerId];\n        require(msg.sender == offer.creator, \"You are not the owner\");\n        require(offer.hasBids == false, \"Bids existing\");\n        offer.isAuction = _auction;\n        offer.isOnSale = _sale;\n        offers[_offerId] = offer;\n    }\n\n    // Changes the default commission. Only the owner of the marketplace can do that. In basic points\n    function setCommission(uint256 _commission) public onlyOwner {\n        require(_commission <= 5000, \"Commission too high\");\n        commission = _commission;\n    }\n\n    function calcSafetyCheckValue(\n        uint256 _amountToPay,\n        uint256 _paidPrice,\n        uint256 _commission\n    ) internal pure returns (uint256) {\n        uint256 result = _amountToPay + ((_paidPrice * _commission) / 10000);\n        return result;\n    }\n\n    function buy(uint256 _offerId, uint256 _amount)\n        external\n        payable\n        nonReentrant\n    {\n        address buyer = msg.sender;\n        uint256 paidPrice = msg.value;\n\n        Offer memory offer = offers[_offerId];\n        require(offer.isOnSale == true, \"NFT not in direct sale\");\n        require(\n            offer.availableCopies >= _amount,\n            \"Not enough copies available\"\n        );\n        uint256 price = offer.price;\n        require(paidPrice >= price.mul(_amount), \"Price is not enough\");\n\n        Base1155 asset = Base1155(offer.tokenAddress);\n        require(\n            asset.balanceOf(offer.creator, offer.tokenId) >= _amount,\n            \"Owner did not have enough tokens\"\n        );\n        require(\n            asset.isApprovedForAll(offer.creator, address(this)),\n            \"NFT not approved\"\n        );\n\n        emit Claim(_offerId, buyer);\n\n        asset.safeTransferFrom(\n            offer.creator,\n            msg.sender,\n            offer.tokenId,\n            _amount,\n            \"\"\n        );\n\n        // now, pay the amount - commission - royalties to the auction creator\n        address payable creatorNFT = payable(\n            // getCreator(offer.assetAddress, _offerId)\n            asset.getCreator(offer.tokenId)\n        );\n\n        uint256 commissionToPay = (paidPrice * commission) / 10000;\n        uint256 royaltiesToPay = 0;\n        if (creatorNFT != offer.creator) {\n            // It is a resale. Transfer royalties\n            royaltiesToPay =\n                (paidPrice * asset.getRoyalties(offer.tokenId)) / /*getRoyalties(offer.assetAddress, _offerId)*/\n                10000;\n            (bool success, ) = creatorNFT.call{value: royaltiesToPay}(\"\");\n            require(success, \"Transfer failed.\");\n\n        //    emit Royalties(creatorNFT, royaltiesToPay);\n        }\n        uint256 amountToPay = paidPrice - commissionToPay - royaltiesToPay;\n\n        (bool success2, ) = offer.creator.call{value: amountToPay}(\"\");\n        require(success2, \"Transfer failed.\");\n        emit PaymentToOwner(\n            offer.creator,\n            amountToPay,\n            commissionToPay,\n            royaltiesToPay,\n            calcSafetyCheckValue(amountToPay, paidPrice, commission)\n        );\n\n        accumulatedCommission += commissionToPay;\n        totalSales = totalSales.add(paidPrice);\n\n        offer.availableCopies = offer.availableCopies.sub(_amount);\n\n        if (offer.availableCopies == 0) {\n            offer.isAuction = false;\n            offer.isOnSale = false;\n        }\n\n        offers[_offerId] = offer;\n    }\n\n    function isActive(uint256 _auctionId) public view returns (bool) {\n        return getStatus(_auctionId) == Status.active;\n    }\n\n    function isFinished(uint256 _auctionId) public view returns (bool) {\n        return getStatus(_auctionId) == Status.finished;\n    }\n\n    function getStatus(uint256 _auctionId) public view returns (Status) {\n        Auction storage auction = auctions[_auctionId];\n        if (block.timestamp < auction.startTime) {\n            return Status.pending;\n        } else if (block.timestamp < auction.startTime.add(auction.duration)) {\n            return Status.active;\n        } else {\n            return Status.finished;\n        }\n    }\n\n    function endDate(uint256 _auctionId) public view returns (uint256) {\n        Auction storage auction = auctions[_auctionId];\n        return auction.startTime.add(auction.duration);\n    }\n\n    function getCurrentBidOwner(uint256 _auctionId)\n        public\n        view\n        returns (address)\n    {\n        return auctions[_auctionId].currentBidOwner;\n    }\n\n    function getCurrentBidAmount(uint256 _auctionId)\n        public\n        view\n        returns (uint256)\n    {\n        return auctions[_auctionId].currentBidAmount;\n    }\n\n    function getBidCount(uint256 _auctionId) public view returns (uint256) {\n        return auctions[_auctionId].bidCount;\n    }\n\n    function getWinner(uint256 _auctionId) public view returns (address) {\n        require(isFinished(_auctionId), \"Auction not finished yet\");\n        return auctions[_auctionId].currentBidOwner;\n    }\n\n    /* The contract owner should call this method to cancel an auction on an offer\n    This will cancel the auction. If the auction has bids, it\n    will return the bidded amount to the bidder before closing the auction\n */\n   /* function forceAuctionEnding(uint256 _auctionId)\n        public\n        onlyOwner\n        nonReentrant\n    {\n        require(!isFinished(_auctionId), \"Auction is finished\");\n        Auction memory auction = auctions[_auctionId];\n        Offer storage offer = offers[auction.offerId];\n        if (\n            auction.currentBidAmount != 0 &&\n            auction.currentBidOwner != address(0)\n        ) {\n            // return funds to the previuos bidder, if there is a previous bid\n            returnFundsToPreviousOwner(auction);\n        }\n\n        auction.active = false;\n        auctions[_auctionId] = auction;\n\n        offer.hasBids = false;\n        offer.availableCopies = offer.availableCopies.add(auction.numCopies);\n        offers[auction.offerId] = offer;\n    }*/\n\n    function returnFundsToPreviousOwner(Auction memory _auction) internal {\n        (bool success, ) = _auction.currentBidOwner.call{\n            value: _auction.currentBidAmount\n        }(\"\");\n        require(success, \"Transfer failed.\");\n    /*   emit ReturnBidFunds(\n            _auction.offerId,\n            _auction.currentBidOwner,\n            _auction.currentBidAmount\n        );*/\n    }\n\n    function extractBalance() public onlyOwner nonReentrant {\n        address payable me = payable(msg.sender);\n        (bool success, ) = me.call{value: accumulatedCommission}(\"\");\n        require(success, \"Transfer failed.\");\n        accumulatedCommission = 0;\n    }\n}\n",
  "sourcePath": "/home/linux/ether/XSigma1155/contracts/engine.sol",
  "compiler": {
    "name": "solc",
    "version": "0.8.4+commit.c7e474f2.Emscripten.clang"
  },
  "schemaVersion": "3.3.4",
  "updatedAt": "2021-09-28T22:21:56.851Z",
  "networkType": "ethereum",
  "devdoc": {
    "kind": "dev",
    "methods": {
      "owner()": {
        "details": "Returns the address of the current owner."
      },
      "renounceOwnership()": {
        "details": "Leaves the contract without owner. It will not be possible to call `onlyOwner` functions anymore. Can only be called by the current owner. NOTE: Renouncing ownership will leave the contract without an owner, thereby removing any functionality that is only available to the owner."
      },
      "transferOwnership(address)": {
        "details": "Transfers ownership of the contract to a new account (`newOwner`). Can only be called by the current owner."
      }
    },
    "version": 1
  },
  "userdoc": {
    "kind": "user",
    "methods": {},
    "version": 1
  }
}