{
  "contractName": "Engine",
  "abi": [
    {
      "anonymous": false,
      "inputs": [
        {
          "indexed": false,
          "internalType": "uint256",
          "name": "_index",
          "type": "uint256"
        },
        {
          "indexed": false,
          "internalType": "address",
          "name": "_bidder",
          "type": "address"
        },
        {
          "indexed": false,
          "internalType": "uint256",
          "name": "amount",
          "type": "uint256"
        }
      ],
      "name": "AuctionBid",
      "type": "event"
    },
    {
      "anonymous": false,
      "inputs": [
        {
          "indexed": false,
          "internalType": "uint256",
          "name": "auctionIndex",
          "type": "uint256"
        },
        {
          "indexed": false,
          "internalType": "address",
          "name": "claimer",
          "type": "address"
        }
      ],
      "name": "Claim",
      "type": "event"
    },
    {
      "anonymous": false,
      "inputs": [
        {
          "indexed": false,
          "internalType": "uint256",
          "name": "_index",
          "type": "uint256"
        },
        {
          "indexed": false,
          "internalType": "address",
          "name": "_creator",
          "type": "address"
        },
        {
          "indexed": false,
          "internalType": "uint256",
          "name": "_tokenId",
          "type": "uint256"
        }
      ],
      "name": "OfferCreated",
      "type": "event"
    },
    {
      "anonymous": false,
      "inputs": [
        {
          "indexed": true,
          "internalType": "address",
          "name": "previousOwner",
          "type": "address"
        },
        {
          "indexed": true,
          "internalType": "address",
          "name": "newOwner",
          "type": "address"
        }
      ],
      "name": "OwnershipTransferred",
      "type": "event"
    },
    {
      "anonymous": false,
      "inputs": [
        {
          "indexed": false,
          "internalType": "address",
          "name": "receiver",
          "type": "address"
        },
        {
          "indexed": false,
          "internalType": "uint256",
          "name": "amount",
          "type": "uint256"
        },
        {
          "indexed": false,
          "internalType": "uint256",
          "name": "commission",
          "type": "uint256"
        },
        {
          "indexed": false,
          "internalType": "uint256",
          "name": "royalties",
          "type": "uint256"
        },
        {
          "indexed": false,
          "internalType": "uint256",
          "name": "safetyCheckValue",
          "type": "uint256"
        }
      ],
      "name": "PaymentToOwner",
      "type": "event"
    },
    {
      "anonymous": false,
      "inputs": [
        {
          "indexed": false,
          "internalType": "uint256",
          "name": "_index",
          "type": "uint256"
        },
        {
          "indexed": false,
          "internalType": "address",
          "name": "_bidder",
          "type": "address"
        },
        {
          "indexed": false,
          "internalType": "uint256",
          "name": "amount",
          "type": "uint256"
        }
      ],
      "name": "ReturnBidFunds",
      "type": "event"
    },
    {
      "anonymous": false,
      "inputs": [
        {
          "indexed": false,
          "internalType": "address",
          "name": "receiver",
          "type": "address"
        },
        {
          "indexed": false,
          "internalType": "uint256",
          "name": "amount",
          "type": "uint256"
        }
      ],
      "name": "Royalties",
      "type": "event"
    },
    {
      "inputs": [],
      "name": "accumulatedCommission",
      "outputs": [
        {
          "internalType": "uint256",
          "name": "",
          "type": "uint256"
        }
      ],
      "stateMutability": "view",
      "type": "function",
      "constant": true
    },
    {
      "inputs": [
        {
          "internalType": "uint256",
          "name": "",
          "type": "uint256"
        }
      ],
      "name": "auctions",
      "outputs": [
        {
          "internalType": "address",
          "name": "tokenAddress",
          "type": "address"
        },
        {
          "internalType": "uint256",
          "name": "tokenId",
          "type": "uint256"
        },
        {
          "internalType": "uint256",
          "name": "currentBidAmount",
          "type": "uint256"
        },
        {
          "internalType": "address payable",
          "name": "currentBidOwner",
          "type": "address"
        },
        {
          "internalType": "uint256",
          "name": "bidCount",
          "type": "uint256"
        },
        {
          "internalType": "uint256",
          "name": "offerId",
          "type": "uint256"
        },
        {
          "internalType": "uint256",
          "name": "numCopies",
          "type": "uint256"
        },
        {
          "internalType": "bool",
          "name": "active",
          "type": "bool"
        },
        {
          "internalType": "uint256",
          "name": "startTime",
          "type": "uint256"
        },
        {
          "internalType": "uint256",
          "name": "duration",
          "type": "uint256"
        }
      ],
      "stateMutability": "view",
      "type": "function",
      "constant": true
    },
    {
      "inputs": [],
      "name": "commission",
      "outputs": [
        {
          "internalType": "uint256",
          "name": "",
          "type": "uint256"
        }
      ],
      "stateMutability": "view",
      "type": "function",
      "constant": true
    },
    {
      "inputs": [
        {
          "internalType": "uint256",
          "name": "",
          "type": "uint256"
        }
      ],
      "name": "offers",
      "outputs": [
        {
          "internalType": "address",
          "name": "tokenAddress",
          "type": "address"
        },
        {
          "internalType": "uint256",
          "name": "tokenId",
          "type": "uint256"
        },
        {
          "internalType": "uint256",
          "name": "amount",
          "type": "uint256"
        },
        {
          "internalType": "address payable",
          "name": "creator",
          "type": "address"
        },
        {
          "internalType": "uint256",
          "name": "price",
          "type": "uint256"
        },
        {
          "internalType": "bool",
          "name": "isOnSale",
          "type": "bool"
        },
        {
          "internalType": "bool",
          "name": "isAuction",
          "type": "bool"
        },
        {
          "internalType": "uint256",
          "name": "startTime",
          "type": "uint256"
        },
        {
          "internalType": "uint256",
          "name": "duration",
          "type": "uint256"
        },
        {
          "internalType": "uint256",
          "name": "minimumBidAmount",
          "type": "uint256"
        },
        {
          "internalType": "uint256",
          "name": "availableCopies",
          "type": "uint256"
        },
        {
          "internalType": "bool",
          "name": "hasBids",
          "type": "bool"
        }
      ],
      "stateMutability": "view",
      "type": "function",
      "constant": true
    },
    {
      "inputs": [],
      "name": "owner",
      "outputs": [
        {
          "internalType": "address",
          "name": "",
          "type": "address"
        }
      ],
      "stateMutability": "view",
      "type": "function",
      "constant": true
    },
    {
      "inputs": [],
      "name": "renounceOwnership",
      "outputs": [],
      "stateMutability": "nonpayable",
      "type": "function"
    },
    {
      "inputs": [],
      "name": "totalSales",
      "outputs": [
        {
          "internalType": "uint256",
          "name": "",
          "type": "uint256"
        }
      ],
      "stateMutability": "view",
      "type": "function",
      "constant": true
    },
    {
      "inputs": [
        {
          "internalType": "address",
          "name": "newOwner",
          "type": "address"
        }
      ],
      "name": "transferOwnership",
      "outputs": [],
      "stateMutability": "nonpayable",
      "type": "function"
    },
    {
      "inputs": [
        {
          "internalType": "uint256",
          "name": "_offerId",
          "type": "uint256"
        },
        {
          "internalType": "uint256",
          "name": "_numCopies",
          "type": "uint256"
        }
      ],
      "name": "createAuctionAndBid",
      "outputs": [
        {
          "internalType": "uint256",
          "name": "",
          "type": "uint256"
        }
      ],
      "stateMutability": "payable",
      "type": "function",
      "payable": true
    },
    {
      "inputs": [
        {
          "internalType": "uint256",
          "name": "_auctionId",
          "type": "uint256"
        },
        {
          "internalType": "uint256",
          "name": "_numCopies",
          "type": "uint256"
        }
      ],
      "name": "bid",
      "outputs": [],
      "stateMutability": "payable",
      "type": "function",
      "payable": true
    },
    {
      "inputs": [
        {
          "internalType": "uint256",
          "name": "_auctionId",
          "type": "uint256"
        }
      ],
      "name": "closeAuction",
      "outputs": [],
      "stateMutability": "nonpayable",
      "type": "function"
    },
    {
      "inputs": [
        {
          "internalType": "address",
          "name": "_tokenAddress",
          "type": "address"
        },
        {
          "internalType": "uint256",
          "name": "_tokenId",
          "type": "uint256"
        },
        {
          "internalType": "uint256",
          "name": "_amount",
          "type": "uint256"
        },
        {
          "internalType": "bool",
          "name": "_isDirectSale",
          "type": "bool"
        },
        {
          "internalType": "bool",
          "name": "_isAuction",
          "type": "bool"
        },
        {
          "internalType": "uint256",
          "name": "_price",
          "type": "uint256"
        },
        {
          "internalType": "uint256",
          "name": "_startPrice",
          "type": "uint256"
        },
        {
          "internalType": "uint256",
          "name": "_startTime",
          "type": "uint256"
        },
        {
          "internalType": "uint256",
          "name": "_duration",
          "type": "uint256"
        }
      ],
      "name": "createOffer",
      "outputs": [
        {
          "internalType": "uint256",
          "name": "",
          "type": "uint256"
        }
      ],
      "stateMutability": "nonpayable",
      "type": "function"
    },
    {
      "inputs": [
        {
          "internalType": "uint256",
          "name": "_offerId",
          "type": "uint256"
        }
      ],
      "name": "hasBids",
      "outputs": [
        {
          "internalType": "bool",
          "name": "",
          "type": "bool"
        }
      ],
      "stateMutability": "view",
      "type": "function",
      "constant": true
    },
    {
      "inputs": [],
      "name": "ahora",
      "outputs": [
        {
          "internalType": "uint256",
          "name": "",
          "type": "uint256"
        }
      ],
      "stateMutability": "view",
      "type": "function",
      "constant": true
    },
    {
      "inputs": [
        {
          "internalType": "uint256",
          "name": "_offerId",
          "type": "uint256"
        },
        {
          "internalType": "bool",
          "name": "_sale",
          "type": "bool"
        },
        {
          "internalType": "bool",
          "name": "_auction",
          "type": "bool"
        }
      ],
      "name": "removeFromAuctionOrSale",
      "outputs": [],
      "stateMutability": "nonpayable",
      "type": "function"
    },
    {
      "inputs": [
        {
          "internalType": "uint256",
          "name": "_commission",
          "type": "uint256"
        }
      ],
      "name": "setCommission",
      "outputs": [],
      "stateMutability": "nonpayable",
      "type": "function"
    },
    {
      "inputs": [
        {
          "internalType": "uint256",
          "name": "_offerId",
          "type": "uint256"
        },
        {
          "internalType": "uint256",
          "name": "_amount",
          "type": "uint256"
        }
      ],
      "name": "buy",
      "outputs": [],
      "stateMutability": "payable",
      "type": "function",
      "payable": true
    },
    {
      "inputs": [
        {
          "internalType": "uint256",
          "name": "_auctionId",
          "type": "uint256"
        }
      ],
      "name": "isActive",
      "outputs": [
        {
          "internalType": "bool",
          "name": "",
          "type": "bool"
        }
      ],
      "stateMutability": "view",
      "type": "function",
      "constant": true
    },
    {
      "inputs": [
        {
          "internalType": "uint256",
          "name": "_auctionId",
          "type": "uint256"
        }
      ],
      "name": "isFinished",
      "outputs": [
        {
          "internalType": "bool",
          "name": "",
          "type": "bool"
        }
      ],
      "stateMutability": "view",
      "type": "function",
      "constant": true
    },
    {
      "inputs": [
        {
          "internalType": "uint256",
          "name": "_auctionId",
          "type": "uint256"
        }
      ],
      "name": "getStatus",
      "outputs": [
        {
          "internalType": "enum Engine.Status",
          "name": "",
          "type": "uint8"
        }
      ],
      "stateMutability": "view",
      "type": "function",
      "constant": true
    },
    {
      "inputs": [
        {
          "internalType": "uint256",
          "name": "_auctionId",
          "type": "uint256"
        }
      ],
      "name": "endDate",
      "outputs": [
        {
          "internalType": "uint256",
          "name": "",
          "type": "uint256"
        }
      ],
      "stateMutability": "view",
      "type": "function",
      "constant": true
    },
    {
      "inputs": [
        {
          "internalType": "uint256",
          "name": "_auctionId",
          "type": "uint256"
        }
      ],
      "name": "getCurrentBidOwner",
      "outputs": [
        {
          "internalType": "address",
          "name": "",
          "type": "address"
        }
      ],
      "stateMutability": "view",
      "type": "function",
      "constant": true
    },
    {
      "inputs": [
        {
          "internalType": "uint256",
          "name": "_auctionId",
          "type": "uint256"
        }
      ],
      "name": "getCurrentBidAmount",
      "outputs": [
        {
          "internalType": "uint256",
          "name": "",
          "type": "uint256"
        }
      ],
      "stateMutability": "view",
      "type": "function",
      "constant": true
    },
    {
      "inputs": [
        {
          "internalType": "uint256",
          "name": "_auctionId",
          "type": "uint256"
        }
      ],
      "name": "getBidCount",
      "outputs": [
        {
          "internalType": "uint256",
          "name": "",
          "type": "uint256"
        }
      ],
      "stateMutability": "view",
      "type": "function",
      "constant": true
    },
    {
      "inputs": [
        {
          "internalType": "uint256",
          "name": "_auctionId",
          "type": "uint256"
        }
      ],
      "name": "getWinner",
      "outputs": [
        {
          "internalType": "address",
          "name": "",
          "type": "address"
        }
      ],
      "stateMutability": "view",
      "type": "function",
      "constant": true
    },
    {
      "inputs": [
        {
          "internalType": "uint256",
          "name": "_auctionId",
          "type": "uint256"
        }
      ],
      "name": "forceAuctionEnding",
      "outputs": [],
      "stateMutability": "nonpayable",
      "type": "function"
    },
    {
      "inputs": [],
      "name": "extractBalance",
      "outputs": [],
      "stateMutability": "nonpayable",
      "type": "function"
    }
  ],
  "bytecode": "0x60806040526000600255600060035560006004553480156200002057600080fd5b50600062000033620000de60201b60201c565b9050806000806101000a81548173ffffffffffffffffffffffffffffffffffffffff021916908373ffffffffffffffffffffffffffffffffffffffff1602179055508073ffffffffffffffffffffffffffffffffffffffff16600073ffffffffffffffffffffffffffffffffffffffff167f8be0079c531659141344cd1fd0a4f28419497f9722a3daafe3b4186f6b6457e060405160405180910390a35060018081905550620000e6565b600033905090565b615ffa80620000f66000396000f3fe60806040526004361061019c5760003560e01c8063744d3411116100ec578063b670571b1161008a578063e148919111610064578063e1489191146105fd578063e8ba650914610628578063f2fde38b14610665578063fb7bd9041461068e5761019c565b8063b670571b14610588578063b7a256fc146105b8578063d6febde8146105e15761019c565b80638a72ea6a116100c65780638a72ea6a146104ad5780638da5cb5b146104f55780639f49be9c14610520578063ae6936731461055d5761019c565b8063744d3411146103f657806382afd23b1461043357806386b46073146104705761019c565b8063571a26a0116101595780636605ff66116101335780636605ff66146103605780636975846a1461038b5780636af83b24146103c8578063715018a6146103df5761019c565b8063571a26a0146102c1578063598647f8146103075780635c622a0e146103235761019c565b8063236ed8f3146101a15780632b866759146101ca57806332b1207a146101f5578063355e6b431461021e5780634129b2c9146102475780634cac5b4b14610284575b600080fd5b3480156101ad57600080fd5b506101c860048036038101906101c39190614ce6565b6106cb565b005b3480156101d657600080fd5b506101df610753565b6040516101ec91906157e5565b60405180910390f35b34801561020157600080fd5b5061021c60048036038101906102179190614d38565b61075b565b005b34801561022a57600080fd5b5061024560048036038101906102409190614ce6565b610b5e565b005b34801561025357600080fd5b5061026e60048036038101906102699190614ce6565b610c29565b60405161027b91906151c0565b60405180910390f35b34801561029057600080fd5b506102ab60048036038101906102a69190614ce6565b610ce6565b6040516102b891906157e5565b60405180910390f35b3480156102cd57600080fd5b506102e860048036038101906102e39190614ce6565b610d56565b6040516102fe9a99989796959493929190615413565b60405180910390f35b610321600480360381019061031c9190614d87565b610e07565b005b34801561032f57600080fd5b5061034a60048036038101906103459190614ce6565b6116ef565b60405161035791906154ca565b60405180910390f35b34801561036c57600080fd5b50610375611789565b60405161038291906157e5565b60405180910390f35b34801561039757600080fd5b506103b260048036038101906103ad9190614ce6565b61178f565b6040516103bf91906157e5565b60405180910390f35b3480156103d457600080fd5b506103dd6117e4565b005b3480156103eb57600080fd5b506103f4611974565b005b34801561040257600080fd5b5061041d60048036038101906104189190614ce6565b611aae565b60405161042a91906157e5565b60405180910390f35b34801561043f57600080fd5b5061045a60048036038101906104559190614ce6565b611b03565b60405161046791906154af565b60405180910390f35b34801561047c57600080fd5b5061049760048036038101906104929190614ce6565b611b88565b6040516104a491906151c0565b60405180910390f35b3480156104b957600080fd5b506104d460048036038101906104cf9190614ce6565b611bfd565b6040516104ec9c9b9a99989796959493929190615359565b60405180910390f35b34801561050157600080fd5b5061050a611cd4565b60405161051791906151c0565b60405180910390f35b34801561052c57600080fd5b5061054760048036038101906105429190614bf7565b611cfd565b60405161055491906157e5565b60405180910390f35b34801561056957600080fd5b50610572612022565b60405161057f91906157e5565b60405180910390f35b6105a2600480360381019061059d9190614d87565b612028565b6040516105af91906157e5565b60405180910390f35b3480156105c457600080fd5b506105df60048036038101906105da9190614ce6565b61270e565b005b6105fb60048036038101906105f69190614d87565b612db5565b005b34801561060957600080fd5b506106126138a7565b60405161061f91906157e5565b60405180910390f35b34801561063457600080fd5b5061064f600480360381019061064a9190614ce6565b6138ad565b60405161065c91906154af565b60405180910390f35b34801561067157600080fd5b5061068c60048036038101906106879190614ba5565b613931565b005b34801561069a57600080fd5b506106b560048036038101906106b09190614ce6565b613ada565b6040516106c291906154af565b60405180910390f35b6106d3613c84565b73ffffffffffffffffffffffffffffffffffffffff166106f1611cd4565b73ffffffffffffffffffffffffffffffffffffffff1614610747576040517f08c379a000000000000000000000000000000000000000000000000000000000815260040161073e90615665565b60405180910390fd5b61075081613c8c565b50565b600042905090565b600060058481548110610797577f4e487b7100000000000000000000000000000000000000000000000000000000600052603260045260246000fd5b90600052602060002090600b0201604051806101800160405290816000820160009054906101000a900473ffffffffffffffffffffffffffffffffffffffff1673ffffffffffffffffffffffffffffffffffffffff1673ffffffffffffffffffffffffffffffffffffffff16815260200160018201548152602001600282015481526020016003820160009054906101000a900473ffffffffffffffffffffffffffffffffffffffff1673ffffffffffffffffffffffffffffffffffffffff1673ffffffffffffffffffffffffffffffffffffffff168152602001600482015481526020016005820160009054906101000a900460ff161515151581526020016005820160019054906101000a900460ff1615151515815260200160068201548152602001600782015481526020016008820154815260200160098201548152602001600a820160009054906101000a900460ff1615151515815250509050806060015173ffffffffffffffffffffffffffffffffffffffff163373ffffffffffffffffffffffffffffffffffffffff1614610968576040517f08c379a000000000000000000000000000000000000000000000000000000000815260040161095f906155c5565b60405180910390fd5b600015158161016001511515146109b4576040517f08c379a00000000000000000000000000000000000000000000000000000000081526004016109ab90615565565b60405180910390fd5b818160c0019015159081151581525050828160a00190151590811515815250508060058581548110610a0f577f4e487b7100000000000000000000000000000000000000000000000000000000600052603260045260246000fd5b90600052602060002090600b020160008201518160000160006101000a81548173ffffffffffffffffffffffffffffffffffffffff021916908373ffffffffffffffffffffffffffffffffffffffff160217905550602082015181600101556040820151816002015560608201518160030160006101000a81548173ffffffffffffffffffffffffffffffffffffffff021916908373ffffffffffffffffffffffffffffffffffffffff1602179055506080820151816004015560a08201518160050160006101000a81548160ff02191690831515021790555060c08201518160050160016101000a81548160ff02191690831515021790555060e0820151816006015561010082015181600701556101208201518160080155610140820151816009015561016082015181600a0160006101000a81548160ff02191690831515021790555090505050505050565b610b66613c84565b73ffffffffffffffffffffffffffffffffffffffff16610b84611cd4565b73ffffffffffffffffffffffffffffffffffffffff1614610bda576040517f08c379a0000000000000000000000000000000000000000000000000000000008152600401610bd190615665565b60405180910390fd5b611388811115610c1f576040517f08c379a0000000000000000000000000000000000000000000000000000000008152600401610c1690615705565b60405180910390fd5b8060028190555050565b6000610c34826138ad565b610c73576040517f08c379a0000000000000000000000000000000000000000000000000000000008152600401610c6a90615505565b60405180910390fd5b60068281548110610cad577f4e487b7100000000000000000000000000000000000000000000000000000000600052603260045260246000fd5b90600052602060002090600a020160030160009054906101000a900473ffffffffffffffffffffffffffffffffffffffff169050919050565b60008060068381548110610d23577f4e487b7100000000000000000000000000000000000000000000000000000000600052603260045260246000fd5b90600052602060002090600a02019050610d4e816009015482600801546149b290919063ffffffff16565b915050919050565b60068181548110610d6657600080fd5b90600052602060002090600a02016000915090508060000160009054906101000a900473ffffffffffffffffffffffffffffffffffffffff16908060010154908060020154908060030160009054906101000a900473ffffffffffffffffffffffffffffffffffffffff16908060040154908060050154908060060154908060070160009054906101000a900460ff1690806008015490806009015490508a565b600060068381548110610e43577f4e487b7100000000000000000000000000000000000000000000000000000000600052603260045260246000fd5b90600052602060002090600a0201604051806101400160405290816000820160009054906101000a900473ffffffffffffffffffffffffffffffffffffffff1673ffffffffffffffffffffffffffffffffffffffff1673ffffffffffffffffffffffffffffffffffffffff16815260200160018201548152602001600282015481526020016003820160009054906101000a900473ffffffffffffffffffffffffffffffffffffffff1673ffffffffffffffffffffffffffffffffffffffff1673ffffffffffffffffffffffffffffffffffffffff1681526020016004820154815260200160058201548152602001600682015481526020016007820160009054906101000a900460ff16151515158152602001600882015481526020016009820154815250509050600060058260a0015181548110610fac577f4e487b7100000000000000000000000000000000000000000000000000000000600052603260045260246000fd5b90600052602060002090600b0201604051806101800160405290816000820160009054906101000a900473ffffffffffffffffffffffffffffffffffffffff1673ffffffffffffffffffffffffffffffffffffffff1673ffffffffffffffffffffffffffffffffffffffff16815260200160018201548152602001600282015481526020016003820160009054906101000a900473ffffffffffffffffffffffffffffffffffffffff1673ffffffffffffffffffffffffffffffffffffffff1673ffffffffffffffffffffffffffffffffffffffff168152602001600482015481526020016005820160009054906101000a900460ff161515151581526020016005820160019054906101000a900460ff1615151515815260200160068201548152602001600782015481526020016008820154815260200160098201548152602001600a820160009054906101000a900460ff16151515158152505090508060c0015161114f576040517f08c379a0000000000000000000000000000000000000000000000000000000008152600401611146906156e5565b60405180910390fd5b8160e00151611193576040517f08c379a000000000000000000000000000000000000000000000000000000000815260040161118a90615625565b60405180910390fd5b61119c84611b03565b6111db576040517f08c379a00000000000000000000000000000000000000000000000000000000081526004016111d290615605565b60405180910390fd5b600073ffffffffffffffffffffffffffffffffffffffff16816060015173ffffffffffffffffffffffffffffffffffffffff16141561121957600080fd5b8160400151341161125f576040517f08c379a0000000000000000000000000000000000000000000000000000000008152600401611256906154e5565b60405180910390fd5b611277838261012001516149c890919063ffffffff16565b3410156112b9576040517f08c379a00000000000000000000000000000000000000000000000000000000081526004016112b0906154e5565b60405180910390fd5b8160c00151831015611300576040517f08c379a00000000000000000000000000000000000000000000000000000000081526004016112f790615645565b60405180910390fd5b6000611330846113228560c001518561014001516149b290919063ffffffff16565b6149de90919063ffffffff16565b1015611371576040517f08c379a0000000000000000000000000000000000000000000000000000000008152600401611368906156c5565b60405180910390fd5b61137a826149f4565b6113a88361139a8460c001518461014001516149b290919063ffffffff16565b6149de90919063ffffffff16565b816101400181815250508060058360a00151815481106113f1577f4e487b7100000000000000000000000000000000000000000000000000000000600052603260045260246000fd5b90600052602060002090600b020160008201518160000160006101000a81548173ffffffffffffffffffffffffffffffffffffffff021916908373ffffffffffffffffffffffffffffffffffffffff160217905550602082015181600101556040820151816002015560608201518160030160006101000a81548173ffffffffffffffffffffffffffffffffffffffff021916908373ffffffffffffffffffffffffffffffffffffffff1602179055506080820151816004015560a08201518160050160006101000a81548160ff02191690831515021790555060c08201518160050160016101000a81548160ff02191690831515021790555060e0820151816006015561010082015181600701556101208201518160080155610140820151816009015561016082015181600a0160006101000a81548160ff0219169083151502179055509050503482604001818152505033826060019073ffffffffffffffffffffffffffffffffffffffff16908173ffffffffffffffffffffffffffffffffffffffff1681525050611594600183608001516149b290919063ffffffff16565b826080018181525050828260c001818152505081600685815481106115e2577f4e487b7100000000000000000000000000000000000000000000000000000000600052603260045260246000fd5b90600052602060002090600a020160008201518160000160006101000a81548173ffffffffffffffffffffffffffffffffffffffff021916908373ffffffffffffffffffffffffffffffffffffffff160217905550602082015181600101556040820151816002015560608201518160030160006101000a81548173ffffffffffffffffffffffffffffffffffffffff021916908373ffffffffffffffffffffffffffffffffffffffff1602179055506080820151816004015560a0820151816005015560c0820151816006015560e08201518160070160006101000a81548160ff0219169083151502179055506101008201518160080155610120820151816009015590505050505050565b6000806006838154811061172c577f4e487b7100000000000000000000000000000000000000000000000000000000600052603260045260246000fd5b90600052602060002090600a020190508060080154421015611752576000915050611784565b61176d816009015482600801546149b290919063ffffffff16565b42101561177e576001915050611784565b60029150505b919050565b60045481565b6000600682815481106117cb577f4e487b7100000000000000000000000000000000000000000000000000000000600052603260045260246000fd5b90600052602060002090600a0201600201549050919050565b6117ec613c84565b73ffffffffffffffffffffffffffffffffffffffff1661180a611cd4565b73ffffffffffffffffffffffffffffffffffffffff1614611860576040517f08c379a000000000000000000000000000000000000000000000000000000000815260040161185790615665565b60405180910390fd5b600260015414156118a6576040517f08c379a000000000000000000000000000000000000000000000000000000000815260040161189d906157c5565b60405180910390fd5b6002600181905550600033905060008173ffffffffffffffffffffffffffffffffffffffff166003546040516118db906151ab565b60006040518083038185875af1925050503d8060008114611918576040519150601f19603f3d011682016040523d82523d6000602084013e61191d565b606091505b5050905080611961576040517f08c379a000000000000000000000000000000000000000000000000000000000815260040161195890615765565b60405180910390fd5b6000600381905550505060018081905550565b61197c613c84565b73ffffffffffffffffffffffffffffffffffffffff1661199a611cd4565b73ffffffffffffffffffffffffffffffffffffffff16146119f0576040517f08c379a00000000000000000000000000000000000000000000000000000000081526004016119e790615665565b60405180910390fd5b600073ffffffffffffffffffffffffffffffffffffffff1660008054906101000a900473ffffffffffffffffffffffffffffffffffffffff1673ffffffffffffffffffffffffffffffffffffffff167f8be0079c531659141344cd1fd0a4f28419497f9722a3daafe3b4186f6b6457e060405160405180910390a360008060006101000a81548173ffffffffffffffffffffffffffffffffffffffff021916908373ffffffffffffffffffffffffffffffffffffffff160217905550565b600060068281548110611aea577f4e487b7100000000000000000000000000000000000000000000000000000000600052603260045260246000fd5b90600052602060002090600a0201600401549050919050565b600060016002811115611b3f577f4e487b7100000000000000000000000000000000000000000000000000000000600052602160045260246000fd5b611b48836116ef565b6002811115611b80577f4e487b7100000000000000000000000000000000000000000000000000000000600052602160045260246000fd5b149050919050565b600060068281548110611bc4577f4e487b7100000000000000000000000000000000000000000000000000000000600052603260045260246000fd5b90600052602060002090600a020160030160009054906101000a900473ffffffffffffffffffffffffffffffffffffffff169050919050565b60058181548110611c0d57600080fd5b90600052602060002090600b02016000915090508060000160009054906101000a900473ffffffffffffffffffffffffffffffffffffffff16908060010154908060020154908060030160009054906101000a900473ffffffffffffffffffffffffffffffffffffffff16908060040154908060050160009054906101000a900460ff16908060050160019054906101000a900460ff169080600601549080600701549080600801549080600901549080600a0160009054906101000a900460ff1690508c565b60008060009054906101000a900473ffffffffffffffffffffffffffffffffffffffff16905090565b6000808a9050888173ffffffffffffffffffffffffffffffffffffffff1662fdd58e338d6040518363ffffffff1660e01b8152600401611d3e929190615330565b60206040518083038186803b158015611d5657600080fd5b505afa158015611d6a573d6000803e3d6000fd5b505050506040513d601f19601f82011682018060405250810190611d8e9190614d0f565b1015611dcf576040517f08c379a0000000000000000000000000000000000000000000000000000000008152600401611dc6906155a5565b60405180910390fd5b60006040518061018001604052808d73ffffffffffffffffffffffffffffffffffffffff1681526020018c81526020018b81526020013373ffffffffffffffffffffffffffffffffffffffff1681526020018881526020018a1515815260200189151581526020018681526020018581526020018781526020018b815260200160001515815250905060058190806001815401808255809150506001900390600052602060002090600b020160009091909190915060008201518160000160006101000a81548173ffffffffffffffffffffffffffffffffffffffff021916908373ffffffffffffffffffffffffffffffffffffffff160217905550602082015181600101556040820151816002015560608201518160030160006101000a81548173ffffffffffffffffffffffffffffffffffffffff021916908373ffffffffffffffffffffffffffffffffffffffff1602179055506080820151816004015560a08201518160050160006101000a81548160ff02191690831515021790555060c08201518160050160016101000a81548160ff02191690831515021790555060e0820151816006015561010082015181600701556101208201518160080155610140820151816009015561016082015181600a0160006101000a81548160ff021916908315150217905550505060006001600580549050611fd291906159ce565b90507fb61c892d3af89c520a4214d8f8dc61896cdb6fd28991a0a836288fe73028a18c81338e60405161200793929190615889565b60405180910390a18093505050509998505050505050505050565b60035481565b60008060058481548110612065577f4e487b7100000000000000000000000000000000000000000000000000000000600052603260045260246000fd5b90600052602060002090600b0201604051806101800160405290816000820160009054906101000a900473ffffffffffffffffffffffffffffffffffffffff1673ffffffffffffffffffffffffffffffffffffffff1673ffffffffffffffffffffffffffffffffffffffff16815260200160018201548152602001600282015481526020016003820160009054906101000a900473ffffffffffffffffffffffffffffffffffffffff1673ffffffffffffffffffffffffffffffffffffffff1673ffffffffffffffffffffffffffffffffffffffff168152602001600482015481526020016005820160009054906101000a900460ff161515151581526020016005820160019054906101000a900460ff1615151515815260200160068201548152602001600782015481526020016008820154815260200160098201548152602001600a820160009054906101000a900460ff1615151515815250509050600115158160c0015115151461220f576040517f08c379a000000000000000000000000000000000000000000000000000000000815260040161220690615725565b60405180910390fd5b6000151581610160015115151461225b576040517f08c379a000000000000000000000000000000000000000000000000000000000815260040161225290615585565b60405180910390fd5b600073ffffffffffffffffffffffffffffffffffffffff16816060015173ffffffffffffffffffffffffffffffffffffffff16141561229957600080fd5b8281610140015110156122e1576040517f08c379a00000000000000000000000000000000000000000000000000000000081526004016122d890615745565b60405180910390fd5b6122f9838261012001516149c890919063ffffffff16565b34101561233b576040517f08c379a0000000000000000000000000000000000000000000000000000000008152600401612332906154e5565b60405180910390fd5b6000604051806101400160405280836000015173ffffffffffffffffffffffffffffffffffffffff168152602001836020015181526020013481526020013373ffffffffffffffffffffffffffffffffffffffff16815260200160018152602001868152602001858152602001600115158152602001428152602001836101000151815250905060068190806001815401808255809150506001900390600052602060002090600a020160009091909190915060008201518160000160006101000a81548173ffffffffffffffffffffffffffffffffffffffff021916908373ffffffffffffffffffffffffffffffffffffffff160217905550602082015181600101556040820151816002015560608201518160030160006101000a81548173ffffffffffffffffffffffffffffffffffffffff021916908373ffffffffffffffffffffffffffffffffffffffff1602179055506080820151816004015560a0820151816005015560c0820151816006015560e08201518160070160006101000a81548160ff021916908315150217905550610100820151816008015561012082015181600901555050600060016006805490506124fa91906159ce565b90506000151583610160015115151415612521576001836101600190151590811515815250505b612539858461014001516149de90919063ffffffff16565b83610140018181525050826005878154811061257e577f4e487b7100000000000000000000000000000000000000000000000000000000600052603260045260246000fd5b90600052602060002090600b020160008201518160000160006101000a81548173ffffffffffffffffffffffffffffffffffffffff021916908373ffffffffffffffffffffffffffffffffffffffff160217905550602082015181600101556040820151816002015560608201518160030160006101000a81548173ffffffffffffffffffffffffffffffffffffffff021916908373ffffffffffffffffffffffffffffffffffffffff1602179055506080820151816004015560a08201518160050160006101000a81548160ff02191690831515021790555060c08201518160050160016101000a81548160ff02191690831515021790555060e0820151816006015561010082015181600701556101208201518160080155610140820151816009015561016082015181600a0160006101000a81548160ff0219169083151502179055509050507fb8d756f2d1da4663767eb4d559780ace84f2f65a421a60ddcb47e8b2e5d2fd268133346040516126fa93929190615889565b60405180910390a180935050505092915050565b612716613c84565b73ffffffffffffffffffffffffffffffffffffffff16612734611cd4565b73ffffffffffffffffffffffffffffffffffffffff161461278a576040517f08c379a000000000000000000000000000000000000000000000000000000000815260040161278190615665565b60405180910390fd5b600260015414156127d0576040517f08c379a00000000000000000000000000000000000000000000000000000000081526004016127c7906157c5565b60405180910390fd5b60026001819055506127e1816138ad565b15612821576040517f08c379a000000000000000000000000000000000000000000000000000000000815260040161281890615525565b60405180910390fd5b60006006828154811061285d577f4e487b7100000000000000000000000000000000000000000000000000000000600052603260045260246000fd5b90600052602060002090600a0201604051806101400160405290816000820160009054906101000a900473ffffffffffffffffffffffffffffffffffffffff1673ffffffffffffffffffffffffffffffffffffffff1673ffffffffffffffffffffffffffffffffffffffff16815260200160018201548152602001600282015481526020016003820160009054906101000a900473ffffffffffffffffffffffffffffffffffffffff1673ffffffffffffffffffffffffffffffffffffffff1673ffffffffffffffffffffffffffffffffffffffff1681526020016004820154815260200160058201548152602001600682015481526020016007820160009054906101000a900460ff16151515158152602001600882015481526020016009820154815250509050600060058260a00151815481106129c6577f4e487b7100000000000000000000000000000000000000000000000000000000600052603260045260246000fd5b90600052602060002090600b020190506000826040015114158015612a1c5750600073ffffffffffffffffffffffffffffffffffffffff16826060015173ffffffffffffffffffffffffffffffffffffffff1614155b15612a2b57612a2a826149f4565b5b60008260e00190151590811515815250508160068481548110612a77577f4e487b7100000000000000000000000000000000000000000000000000000000600052603260045260246000fd5b90600052602060002090600a020160008201518160000160006101000a81548173ffffffffffffffffffffffffffffffffffffffff021916908373ffffffffffffffffffffffffffffffffffffffff160217905550602082015181600101556040820151816002015560608201518160030160006101000a81548173ffffffffffffffffffffffffffffffffffffffff021916908373ffffffffffffffffffffffffffffffffffffffff1602179055506080820151816004015560a0820151816005015560c0820151816006015560e08201518160070160006101000a81548160ff02191690831515021790555061010082015181600801556101208201518160090155905050600081600a0160006101000a81548160ff021916908315150217905550612bb68260c0015182600901546149b290919063ffffffff16565b81600901819055508060058360a0015181548110612bfd577f4e487b7100000000000000000000000000000000000000000000000000000000600052603260045260246000fd5b90600052602060002090600b02016000820160009054906101000a900473ffffffffffffffffffffffffffffffffffffffff168160000160006101000a81548173ffffffffffffffffffffffffffffffffffffffff021916908373ffffffffffffffffffffffffffffffffffffffff16021790555060018201548160010155600282015481600201556003820160009054906101000a900473ffffffffffffffffffffffffffffffffffffffff168160030160006101000a81548173ffffffffffffffffffffffffffffffffffffffff021916908373ffffffffffffffffffffffffffffffffffffffff160217905550600482015481600401556005820160009054906101000a900460ff168160050160006101000a81548160ff0219169083151502179055506005820160019054906101000a900460ff168160050160016101000a81548160ff02191690831515021790555060068201548160060155600782015481600701556008820154816008015560098201548160090155600a820160009054906101000a900460ff1681600a0160006101000a81548160ff02191690831515021790555090505050506001808190555050565b60026001541415612dfb576040517f08c379a0000000000000000000000000000000000000000000000000000000008152600401612df2906157c5565b60405180910390fd5b600260018190555060003390506000349050600060058581548110612e49577f4e487b7100000000000000000000000000000000000000000000000000000000600052603260045260246000fd5b90600052602060002090600b0201604051806101800160405290816000820160009054906101000a900473ffffffffffffffffffffffffffffffffffffffff1673ffffffffffffffffffffffffffffffffffffffff1673ffffffffffffffffffffffffffffffffffffffff16815260200160018201548152602001600282015481526020016003820160009054906101000a900473ffffffffffffffffffffffffffffffffffffffff1673ffffffffffffffffffffffffffffffffffffffff1673ffffffffffffffffffffffffffffffffffffffff168152602001600482015481526020016005820160009054906101000a900460ff161515151581526020016005820160019054906101000a900460ff1615151515815260200160068201548152602001600782015481526020016008820154815260200160098201548152602001600a820160009054906101000a900460ff1615151515815250509050600115158160a00151151514612ff3576040517f08c379a0000000000000000000000000000000000000000000000000000000008152600401612fea906156a5565b60405180910390fd5b83816101400151101561303b576040517f08c379a000000000000000000000000000000000000000000000000000000000815260040161303290615745565b60405180910390fd5b60008160800151905061305785826149c890919063ffffffff16565b831015613099576040517f08c379a0000000000000000000000000000000000000000000000000000000008152600401613090906154e5565b60405180910390fd5b600082600001519050858173ffffffffffffffffffffffffffffffffffffffff1662fdd58e856060015186602001516040518363ffffffff1660e01b81526004016130e59291906152b4565b60206040518083038186803b1580156130fd57600080fd5b505afa158015613111573d6000803e3d6000fd5b505050506040513d601f19601f820116820180604052508101906131359190614d0f565b1015613176576040517f08c379a000000000000000000000000000000000000000000000000000000000815260040161316d90615785565b60405180910390fd5b8073ffffffffffffffffffffffffffffffffffffffff1663e985e9c58460600151306040518363ffffffff1660e01b81526004016131b59291906151db565b60206040518083038186803b1580156131cd57600080fd5b505afa1580156131e1573d6000803e3d6000fd5b505050506040513d601f19601f820116820180604052508101906132059190614cbd565b613244576040517f08c379a000000000000000000000000000000000000000000000000000000000815260040161323b906157a5565b60405180910390fd5b7f35538759d80c1fd7bb450a0d05601db5a99fa8b5d073a07c847a9fd61029b1078786604051613275929190615800565b60405180910390a18073ffffffffffffffffffffffffffffffffffffffff1663f242432a84606001513386602001518a6040518563ffffffff1660e01b81526004016132c4949392919061525c565b600060405180830381600087803b1580156132de57600080fd5b505af11580156132f2573d6000803e3d6000fd5b5050505060008173ffffffffffffffffffffffffffffffffffffffff1663d48e638a85602001516040518263ffffffff1660e01b815260040161333591906157e5565b60206040518083038186803b15801561334d57600080fd5b505afa158015613361573d6000803e3d6000fd5b505050506040513d601f19601f820116820180604052508101906133859190614bce565b905060006127106002548761339a9190615974565b6133a49190615943565b90506000856060015173ffffffffffffffffffffffffffffffffffffffff168373ffffffffffffffffffffffffffffffffffffffff161461356d576127108473ffffffffffffffffffffffffffffffffffffffff1663bb3bafd688602001516040518263ffffffff1660e01b815260040161341f91906157e5565b60206040518083038186803b15801561343757600080fd5b505afa15801561344b573d6000803e3d6000fd5b505050506040513d601f19601f8201168201806040525081019061346f9190614d0f565b8861347a9190615974565b6134849190615943565b905060008373ffffffffffffffffffffffffffffffffffffffff16826040516134ac906151ab565b60006040518083038185875af1925050503d80600081146134e9576040519150601f19603f3d011682016040523d82523d6000602084013e6134ee565b606091505b5050905080613532576040517f08c379a000000000000000000000000000000000000000000000000000000000815260040161352990615765565b60405180910390fd5b7f54b960faf8b038c33ba9912fdb9ac1e8e0096c5f327d1c89e62b5d9c5357ddb684836040516135639291906152b4565b60405180910390a1505b600081838961357c91906159ce565b61358691906159ce565b90506000876060015173ffffffffffffffffffffffffffffffffffffffff16826040516135b2906151ab565b60006040518083038185875af1925050503d80600081146135ef576040519150601f19603f3d011682016040523d82523d6000602084013e6135f4565b606091505b5050905080613638576040517f08c379a000000000000000000000000000000000000000000000000000000000815260040161362f90615765565b60405180910390fd5b7f9a37aa02cc986a4a0c2d22af3dcdb9db27c178f7feed43e7037c783b55ed91ba886060015183868661366e878f600254614af3565b60405161367f9594939291906152dd565b60405180910390a1836003600082825461369991906158ed565b925050819055506136b5896004546149b290919063ffffffff16565b6004819055506136d38b8961014001516149de90919063ffffffff16565b886101400181815250506000886101400151141561370e5760008860c001901515908115158152505060008860a00190151590811515815250505b8760058d81548110613749577f4e487b7100000000000000000000000000000000000000000000000000000000600052603260045260246000fd5b90600052602060002090600b020160008201518160000160006101000a81548173ffffffffffffffffffffffffffffffffffffffff021916908373ffffffffffffffffffffffffffffffffffffffff160217905550602082015181600101556040820151816002015560608201518160030160006101000a81548173ffffffffffffffffffffffffffffffffffffffff021916908373ffffffffffffffffffffffffffffffffffffffff1602179055506080820151816004015560a08201518160050160006101000a81548160ff02191690831515021790555060c08201518160050160016101000a81548160ff02191690831515021790555060e0820151816006015561010082015181600701556101208201518160080155610140820151816009015561016082015181600a0160006101000a81548160ff02191690831515021790555090505050505050505050505050600180819055505050565b60025481565b60006002808111156138e8577f4e487b7100000000000000000000000000000000000000000000000000000000600052602160045260246000fd5b6138f1836116ef565b6002811115613929577f4e487b7100000000000000000000000000000000000000000000000000000000600052602160045260246000fd5b149050919050565b613939613c84565b73ffffffffffffffffffffffffffffffffffffffff16613957611cd4565b73ffffffffffffffffffffffffffffffffffffffff16146139ad576040517f08c379a00000000000000000000000000000000000000000000000000000000081526004016139a490615665565b60405180910390fd5b600073ffffffffffffffffffffffffffffffffffffffff168173ffffffffffffffffffffffffffffffffffffffff161415613a1d576040517f08c379a0000000000000000000000000000000000000000000000000000000008152600401613a1490615545565b60405180910390fd5b8073ffffffffffffffffffffffffffffffffffffffff1660008054906101000a900473ffffffffffffffffffffffffffffffffffffffff1673ffffffffffffffffffffffffffffffffffffffff167f8be0079c531659141344cd1fd0a4f28419497f9722a3daafe3b4186f6b6457e060405160405180910390a3806000806101000a81548173ffffffffffffffffffffffffffffffffffffffff021916908373ffffffffffffffffffffffffffffffffffffffff16021790555050565b60008060058381548110613b17577f4e487b7100000000000000000000000000000000000000000000000000000000600052603260045260246000fd5b90600052602060002090600b0201604051806101800160405290816000820160009054906101000a900473ffffffffffffffffffffffffffffffffffffffff1673ffffffffffffffffffffffffffffffffffffffff1673ffffffffffffffffffffffffffffffffffffffff16815260200160018201548152602001600282015481526020016003820160009054906101000a900473ffffffffffffffffffffffffffffffffffffffff1673ffffffffffffffffffffffffffffffffffffffff1673ffffffffffffffffffffffffffffffffffffffff168152602001600482015481526020016005820160009054906101000a900460ff161515151581526020016005820160019054906101000a900460ff1615151515815260200160068201548152602001600782015481526020016008820154815260200160098201548152602001600a820160009054906101000a900460ff1615151515815250509050806101600151915050919050565b600033905090565b600060068281548110613cc8577f4e487b7100000000000000000000000000000000000000000000000000000000600052603260045260246000fd5b90600052602060002090600a0201604051806101400160405290816000820160009054906101000a900473ffffffffffffffffffffffffffffffffffffffff1673ffffffffffffffffffffffffffffffffffffffff1673ffffffffffffffffffffffffffffffffffffffff16815260200160018201548152602001600282015481526020016003820160009054906101000a900473ffffffffffffffffffffffffffffffffffffffff1673ffffffffffffffffffffffffffffffffffffffff1673ffffffffffffffffffffffffffffffffffffffff1681526020016004820154815260200160058201548152602001600682015481526020016007820160009054906101000a900460ff16151515158152602001600882015481526020016009820154815250509050600060058260a0015181548110613e31577f4e487b7100000000000000000000000000000000000000000000000000000000600052603260045260246000fd5b90600052602060002090600b0201604051806101800160405290816000820160009054906101000a900473ffffffffffffffffffffffffffffffffffffffff1673ffffffffffffffffffffffffffffffffffffffff1673ffffffffffffffffffffffffffffffffffffffff16815260200160018201548152602001600282015481526020016003820160009054906101000a900473ffffffffffffffffffffffffffffffffffffffff1673ffffffffffffffffffffffffffffffffffffffff1673ffffffffffffffffffffffffffffffffffffffff168152602001600482015481526020016005820160009054906101000a900460ff161515151581526020016005820160019054906101000a900460ff1615151515815260200160068201548152602001600782015481526020016008820154815260200160098201548152602001600a820160009054906101000a900460ff1615151515815250509050600115158260e00151151514613fdb576040517f08c379a0000000000000000000000000000000000000000000000000000000008152600401613fd2906155e5565b60405180910390fd5b613fe4836138ad565b614023576040517f08c379a000000000000000000000000000000000000000000000000000000000815260040161401a90615685565b60405180910390fd5b600115158160c0015115151461406e576040517f08c379a000000000000000000000000000000000000000000000000000000000815260040161406590615625565b60405180910390fd5b60008160000151905081604001518173ffffffffffffffffffffffffffffffffffffffff1662fdd58e846060015185602001516040518363ffffffff1660e01b81526004016140be9291906152b4565b60206040518083038186803b1580156140d657600080fd5b505afa1580156140ea573d6000803e3d6000fd5b505050506040513d601f19601f8201168201806040525081019061410e9190614d0f565b101561414f576040517f08c379a000000000000000000000000000000000000000000000000000000000815260040161414690615785565b60405180910390fd5b8073ffffffffffffffffffffffffffffffffffffffff1663e985e9c58360600151306040518363ffffffff1660e01b815260040161418e9291906151db565b60206040518083038186803b1580156141a657600080fd5b505afa1580156141ba573d6000803e3d6000fd5b505050506040513d601f19601f820116820180604052508101906141de9190614cbd565b61421d576040517f08c379a0000000000000000000000000000000000000000000000000000000008152600401614214906157a5565b60405180910390fd5b7f35538759d80c1fd7bb450a0d05601db5a99fa8b5d073a07c847a9fd61029b1078360a001518460600151604051614256929190615829565b60405180910390a18073ffffffffffffffffffffffffffffffffffffffff1663f242432a8360600151856060015185602001518760c001516040518563ffffffff1660e01b81526004016142ad9493929190615204565b600060405180830381600087803b1580156142c757600080fd5b505af11580156142db573d6000803e3d6000fd5b5050505060008173ffffffffffffffffffffffffffffffffffffffff1663d48e638a84602001516040518263ffffffff1660e01b815260040161431e91906157e5565b60206040518083038186803b15801561433657600080fd5b505afa15801561434a573d6000803e3d6000fd5b505050506040513d601f19601f8201168201806040525081019061436e9190614bce565b9050600061271060025486604001516143879190615974565b6143919190615943565b90506000846060015173ffffffffffffffffffffffffffffffffffffffff168373ffffffffffffffffffffffffffffffffffffffff161461455e576127108473ffffffffffffffffffffffffffffffffffffffff1663bb3bafd687602001516040518263ffffffff1660e01b815260040161440c91906157e5565b60206040518083038186803b15801561442457600080fd5b505afa158015614438573d6000803e3d6000fd5b505050506040513d601f19601f8201168201806040525081019061445c9190614d0f565b876040015161446b9190615974565b6144759190615943565b905060008373ffffffffffffffffffffffffffffffffffffffff168260405161449d906151ab565b60006040518083038185875af1925050503d80600081146144da576040519150601f19603f3d011682016040523d82523d6000602084013e6144df565b606091505b5050905080614523576040517f08c379a000000000000000000000000000000000000000000000000000000000815260040161451a90615765565b60405180910390fd5b7f54b960faf8b038c33ba9912fdb9ac1e8e0096c5f327d1c89e62b5d9c5357ddb684836040516145549291906152b4565b60405180910390a1505b60008183886040015161457191906159ce565b61457b91906159ce565b90506000866060015173ffffffffffffffffffffffffffffffffffffffff16826040516145a7906151ab565b60006040518083038185875af1925050503d80600081146145e4576040519150601f19603f3d011682016040523d82523d6000602084013e6145e9565b606091505b505090508061462d576040517f08c379a000000000000000000000000000000000000000000000000000000000815260040161462490615765565b60405180910390fd5b7f9a37aa02cc986a4a0c2d22af3dcdb9db27c178f7feed43e7037c783b55ed91ba8760600151838686614667878e60400151600254614af3565b6040516146789594939291906152dd565b60405180910390a1614695846003546149b290919063ffffffff16565b6003819055506146b488604001516004546149b290919063ffffffff16565b60048190555060008860e00190151590811515815250508760068a81548110614706577f4e487b7100000000000000000000000000000000000000000000000000000000600052603260045260246000fd5b90600052602060002090600a020160008201518160000160006101000a81548173ffffffffffffffffffffffffffffffffffffffff021916908373ffffffffffffffffffffffffffffffffffffffff160217905550602082015181600101556040820151816002015560608201518160030160006101000a81548173ffffffffffffffffffffffffffffffffffffffff021916908373ffffffffffffffffffffffffffffffffffffffff1602179055506080820151816004015560a0820151816005015560c0820151816006015560e08201518160070160006101000a81548160ff021916908315150217905550610100820151816008015561012082015181600901559050506000876101600190151590811515815250508660058960a001518154811061485e577f4e487b7100000000000000000000000000000000000000000000000000000000600052603260045260246000fd5b90600052602060002090600b020160008201518160000160006101000a81548173ffffffffffffffffffffffffffffffffffffffff021916908373ffffffffffffffffffffffffffffffffffffffff160217905550602082015181600101556040820151816002015560608201518160030160006101000a81548173ffffffffffffffffffffffffffffffffffffffff021916908373ffffffffffffffffffffffffffffffffffffffff1602179055506080820151816004015560a08201518160050160006101000a81548160ff02191690831515021790555060c08201518160050160016101000a81548160ff02191690831515021790555060e0820151816006015561010082015181600701556101208201518160080155610140820151816009015561016082015181600a0160006101000a81548160ff021916908315150217905550905050505050505050505050565b600081836149c091906158ed565b905092915050565b600081836149d69190615974565b905092915050565b600081836149ec91906159ce565b905092915050565b6000816060015173ffffffffffffffffffffffffffffffffffffffff168260400151604051614a22906151ab565b60006040518083038185875af1925050503d8060008114614a5f576040519150601f19603f3d011682016040523d82523d6000602084013e614a64565b606091505b5050905080614aa8576040517f08c379a0000000000000000000000000000000000000000000000000000000008152600401614a9f90615765565b60405180910390fd5b7f972fd66eadedfb87beff023a37f4d8c6a91fdd147fa0d3c036e0c6c5a0cdc7958260a0015183606001518460400151604051614ae793929190615852565b60405180910390a15050565b6000806127108385614b059190615974565b614b0f9190615943565b85614b1a91906158ed565b9050809150509392505050565b600081359050614b3681615f7f565b92915050565b600081519050614b4b81615f7f565b92915050565b600081359050614b6081615f96565b92915050565b600081519050614b7581615f96565b92915050565b600081359050614b8a81615fad565b92915050565b600081519050614b9f81615fad565b92915050565b600060208284031215614bb757600080fd5b6000614bc584828501614b27565b91505092915050565b600060208284031215614be057600080fd5b6000614bee84828501614b3c565b91505092915050565b60008060008060008060008060006101208a8c031215614c1657600080fd5b6000614c248c828d01614b27565b9950506020614c358c828d01614b7b565b9850506040614c468c828d01614b7b565b9750506060614c578c828d01614b51565b9650506080614c688c828d01614b51565b95505060a0614c798c828d01614b7b565b94505060c0614c8a8c828d01614b7b565b93505060e0614c9b8c828d01614b7b565b925050610100614cad8c828d01614b7b565b9150509295985092959850929598565b600060208284031215614ccf57600080fd5b6000614cdd84828501614b66565b91505092915050565b600060208284031215614cf857600080fd5b6000614d0684828501614b7b565b91505092915050565b600060208284031215614d2157600080fd5b6000614d2f84828501614b90565b91505092915050565b600080600060608486031215614d4d57600080fd5b6000614d5b86828701614b7b565b9350506020614d6c86828701614b51565b9250506040614d7d86828701614b51565b9150509250925092565b60008060408385031215614d9a57600080fd5b6000614da885828601614b7b565b9250506020614db985828601614b7b565b9150509250929050565b614dcc81615a6f565b82525050565b614ddb81615a14565b82525050565b614dea81615a02565b82525050565b614df981615a26565b82525050565b614e0881615a81565b82525050565b6000614e1b6013836158dc565b9150614e2682615b44565b602082019050919050565b6000614e3e6018836158dc565b9150614e4982615b6d565b602082019050919050565b6000614e616013836158dc565b9150614e6c82615b96565b602082019050919050565b6000614e846026836158dc565b9150614e8f82615bbf565b604082019050919050565b6000614ea7600d836158dc565b9150614eb282615c0e565b602082019050919050565b6000614eca6012836158dc565b9150614ed582615c37565b602082019050919050565b6000614eed6037836158dc565b9150614ef882615c60565b604082019050919050565b6000614f106015836158dc565b9150614f1b82615caf565b602082019050919050565b6000614f336012836158dc565b9150614f3e82615cd8565b602082019050919050565b6000614f566011836158dc565b9150614f6182615d01565b602082019050919050565b6000614f796015836158dc565b9150614f8482615d2a565b602082019050919050565b6000614f9c6007836158dc565b9150614fa782615d53565b602082019050919050565b6000614fbf6020836158dc565b9150614fca82615d7c565b602082019050919050565b6000614fe2601b836158dc565b9150614fed82615da5565b602082019050919050565b60006150056016836158dc565b915061501082615dce565b602082019050919050565b60006150286007836158dc565b915061503382615df7565b602082019050919050565b600061504b6016836158dc565b915061505682615e20565b602082019050919050565b600061506e6013836158dc565b915061507982615e49565b602082019050919050565b6000615091600e836158dc565b915061509c82615e72565b602082019050919050565b60006150b4601b836158dc565b91506150bf82615e9b565b602082019050919050565b60006150d76000836158c0565b91506150e282615ec4565b600082019050919050565b60006150fa6000836158d1565b915061510582615ec4565b600082019050919050565b600061511d6010836158dc565b915061512882615ec7565b602082019050919050565b60006151406020836158dc565b915061514b82615ef0565b602082019050919050565b60006151636010836158dc565b915061516e82615f19565b602082019050919050565b6000615186601f836158dc565b915061519182615f42565b602082019050919050565b6151a581615a65565b82525050565b60006151b6826150ed565b9150819050919050565b60006020820190506151d56000830184614de1565b92915050565b60006040820190506151f06000830185614dc3565b6151fd6020830184614de1565b9392505050565b600060a0820190506152196000830187614dc3565b6152266020830186614dc3565b615233604083018561519c565b615240606083018461519c565b8181036080830152615251816150ca565b905095945050505050565b600060a0820190506152716000830187614dc3565b61527e6020830186614de1565b61528b604083018561519c565b615298606083018461519c565b81810360808301526152a9816150ca565b905095945050505050565b60006040820190506152c96000830185614dc3565b6152d6602083018461519c565b9392505050565b600060a0820190506152f26000830188614dc3565b6152ff602083018761519c565b61530c604083018661519c565b615319606083018561519c565b615326608083018461519c565b9695505050505050565b60006040820190506153456000830185614de1565b615352602083018461519c565b9392505050565b60006101808201905061536f600083018f614de1565b61537c602083018e61519c565b615389604083018d61519c565b615396606083018c614dd2565b6153a3608083018b61519c565b6153b060a083018a614df0565b6153bd60c0830189614df0565b6153ca60e083018861519c565b6153d861010083018761519c565b6153e661012083018661519c565b6153f461014083018561519c565b615402610160830184614df0565b9d9c50505050505050505050505050565b600061014082019050615429600083018d614de1565b615436602083018c61519c565b615443604083018b61519c565b615450606083018a614dd2565b61545d608083018961519c565b61546a60a083018861519c565b61547760c083018761519c565b61548460e0830186614df0565b61549261010083018561519c565b6154a061012083018461519c565b9b9a5050505050505050505050565b60006020820190506154c46000830184614df0565b92915050565b60006020820190506154df6000830184614dff565b92915050565b600060208201905081810360008301526154fe81614e0e565b9050919050565b6000602082019050818103600083015261551e81614e31565b9050919050565b6000602082019050818103600083015261553e81614e54565b9050919050565b6000602082019050818103600083015261555e81614e77565b9050919050565b6000602082019050818103600083015261557e81614e9a565b9050919050565b6000602082019050818103600083015261559e81614ebd565b9050919050565b600060208201905081810360008301526155be81614ee0565b9050919050565b600060208201905081810360008301526155de81614f03565b9050919050565b600060208201905081810360008301526155fe81614f26565b9050919050565b6000602082019050818103600083015261561e81614f49565b9050919050565b6000602082019050818103600083015261563e81614f6c565b9050919050565b6000602082019050818103600083015261565e81614f8f565b9050919050565b6000602082019050818103600083015261567e81614fb2565b9050919050565b6000602082019050818103600083015261569e81614fd5565b9050919050565b600060208201905081810360008301526156be81614ff8565b9050919050565b600060208201905081810360008301526156de8161501b565b9050919050565b600060208201905081810360008301526156fe8161503e565b9050919050565b6000602082019050818103600083015261571e81615061565b9050919050565b6000602082019050818103600083015261573e81615084565b9050919050565b6000602082019050818103600083015261575e816150a7565b9050919050565b6000602082019050818103600083015261577e81615110565b9050919050565b6000602082019050818103600083015261579e81615133565b9050919050565b600060208201905081810360008301526157be81615156565b9050919050565b600060208201905081810360008301526157de81615179565b9050919050565b60006020820190506157fa600083018461519c565b92915050565b6000604082019050615815600083018561519c565b6158226020830184614de1565b9392505050565b600060408201905061583e600083018561519c565b61584b6020830184614dc3565b9392505050565b6000606082019050615867600083018661519c565b6158746020830185614dc3565b615881604083018461519c565b949350505050565b600060608201905061589e600083018661519c565b6158ab6020830185614de1565b6158b8604083018461519c565b949350505050565b600082825260208201905092915050565b600081905092915050565b600082825260208201905092915050565b60006158f882615a65565b915061590383615a65565b9250827fffffffffffffffffffffffffffffffffffffffffffffffffffffffffffffffff0382111561593857615937615ab7565b5b828201905092915050565b600061594e82615a65565b915061595983615a65565b92508261596957615968615ae6565b5b828204905092915050565b600061597f82615a65565b915061598a83615a65565b9250817fffffffffffffffffffffffffffffffffffffffffffffffffffffffffffffffff04831182151516156159c3576159c2615ab7565b5b828202905092915050565b60006159d982615a65565b91506159e483615a65565b9250828210156159f7576159f6615ab7565b5b828203905092915050565b6000615a0d82615a45565b9050919050565b6000615a1f82615a45565b9050919050565b60008115159050919050565b6000819050615a4082615f6b565b919050565b600073ffffffffffffffffffffffffffffffffffffffff82169050919050565b6000819050919050565b6000615a7a82615a93565b9050919050565b6000615a8c82615a32565b9050919050565b6000615a9e82615aa5565b9050919050565b6000615ab082615a45565b9050919050565b7f4e487b7100000000000000000000000000000000000000000000000000000000600052601160045260246000fd5b7f4e487b7100000000000000000000000000000000000000000000000000000000600052601260045260246000fd5b7f4e487b7100000000000000000000000000000000000000000000000000000000600052602160045260246000fd5b7f5072696365206973206e6f7420656e6f75676800000000000000000000000000600082015250565b7f41756374696f6e206e6f742066696e6973686564207965740000000000000000600082015250565b7f41756374696f6e2069732066696e697368656400000000000000000000000000600082015250565b7f4f776e61626c653a206e6577206f776e657220697320746865207a65726f206160008201527f6464726573730000000000000000000000000000000000000000000000000000602082015250565b7f42696473206578697374696e6700000000000000000000000000000000000000600082015250565b7f6e6f74206163746976652061756374696f6e0000000000000000000000000000600082015250565b7f596f752061726520747279696e6720746f2073616c65206d6f7265206e66747360008201527f207468617420746865206f6e657320796f752068617665000000000000000000602082015250565b7f596f7520617265206e6f7420746865206f776e65720000000000000000000000600082015250565b7f41756374696f6e206e6f74206163746976650000000000000000000000000000600082015250565b7f41756374696f6e2068617320656e646564000000000000000000000000000000600082015250565b7f41756374696f6e206973206e6f74206163746976650000000000000000000000600082015250565b7f4572726f72203100000000000000000000000000000000000000000000000000600082015250565b7f4f776e61626c653a2063616c6c6572206973206e6f7420746865206f776e6572600082015250565b7f5468652061756374696f6e206973207374696c6c206163746976650000000000600082015250565b7f4e4654206e6f7420696e206469726563742073616c6500000000000000000000600082015250565b7f4572726f72203200000000000000000000000000000000000000000000000000600082015250565b7f41756374696f6e206973206e6f7420656e61626c656400000000000000000000600082015250565b7f436f6d6d697373696f6e20746f6f206869676800000000000000000000000000600082015250565b7f4e6f7420696e2061756374696f6e000000000000000000000000000000000000600082015250565b7f4e6f7420656e6f75676820636f7069657320617661696c61626c650000000000600082015250565b50565b7f5472616e73666572206661696c65642e00000000000000000000000000000000600082015250565b7f4f776e657220646964206e6f74206861766520656e6f75676820746f6b656e73600082015250565b7f4e4654206e6f7420617070726f76656400000000000000000000000000000000600082015250565b7f5265656e7472616e637947756172643a207265656e7472616e742063616c6c00600082015250565b60038110615f7c57615f7b615b15565b5b50565b615f8881615a02565b8114615f9357600080fd5b50565b615f9f81615a26565b8114615faa57600080fd5b50565b615fb681615a65565b8114615fc157600080fd5b5056fea2646970667358221220e0fcedb53ff7b5885176bc97b37dbb983c190130a8aa3194785d0955eab25a6464736f6c63430008040033",
  "immutableReferences": {},
  "source": "// SPDX-License-Identifier: UNLICENSED\npragma solidity ^0.8.4;\n\nimport \"@openzeppelin/contracts/token/ERC1155/ERC1155.sol\";\nimport \"@openzeppelin/contracts/access/Ownable.sol\";\nimport \"./Base1155.sol\";\nimport \"@openzeppelin/contracts/utils/math/SafeMath.sol\";\nimport \"@openzeppelin/contracts/security/ReentrancyGuard.sol\";\n\ncontract Engine is Ownable, ReentrancyGuard {\n    using SafeMath for uint256;\n\n    event OfferCreated(uint256 _index, address _creator, uint256 _tokenId);\n    event AuctionBid(uint256 _index, address _bidder, uint256 amount);\n    event Claim(uint256 auctionIndex, address claimer);\n    event ReturnBidFunds(uint256 _index, address _bidder, uint256 amount);\n\n    event Royalties(address receiver, uint256 amount);\n    event PaymentToOwner(\n        address receiver,\n        uint256 amount,\n        uint256 commission,\n        uint256 royalties,\n        uint256 safetyCheckValue\n    );\n\n    uint256 public commission = 0; // this is the commission that will charge the marketplace by default.\n    uint256 public accumulatedCommission = 0;\n\n    uint256 public totalSales = 0;\n\n    enum Status {\n        pending,\n        active,\n        finished\n    }\n    struct Offer {\n        address tokenAddress; // address of the token\n        uint256 tokenId; // the tokenId returned when calling \"createItem\"\n        uint256 amount; // amount of tokens on sale on this offer\n        address payable creator; // who creates the offer\n        uint256 price; // price of each token\n        bool isOnSale; // is on sale or not\n        bool isAuction; // is this offer is for an auction\n        uint256 startTime; // when the auction starts\n        uint256 duration; // duration in seconds of the auction\n        uint256 minimumBidAmount;\n        uint256 availableCopies;\n        bool hasBids;\n    }\n    Offer[] public offers;\n\n    struct Auction {\n        address tokenAddress; // address of the token\n        uint256 tokenId; // the tokenId returned when calling \"createItem\"\n        uint256 currentBidAmount; // current amount paid by the best bidder\n        address payable currentBidOwner; // address of the best bidder\n        uint256 bidCount; // counter of the bids of the auction\n        uint256 offerId;\n        uint256 numCopies;\n        bool active;\n        uint256 startTime; // when the auction starts\n        uint256 duration; // duration in seconds of the auction\n    }\n    Auction[] public auctions;\n\n    function createAuctionAndBid(uint256 _offerId, uint256 _numCopies)\n        public\n        payable\n        returns (uint256)\n    {\n        Offer memory offer = offers[_offerId];\n        require(offer.isAuction == true, \"Not in auction\");\n        //   require(isActive(_offerId), \"Auction has ended\");\n        require(offer.hasBids == false, \"not active auction\");\n        require(offer.creator != address(0));\n        require(\n            offer.availableCopies >= _numCopies,\n            \"Not enough copies available\"\n        );\n        require(\n            msg.value >= offer.minimumBidAmount.mul(_numCopies),\n            \"Price is not enough\"\n        );\n\n        Auction memory auction = Auction({\n            tokenAddress: offer.tokenAddress,\n            tokenId: offer.tokenId,\n            numCopies: _numCopies,\n            currentBidOwner: payable(msg.sender),\n            currentBidAmount: msg.value,\n            bidCount: 1,\n            offerId: _offerId,\n            active: true,\n            startTime: block.timestamp,\n            duration: offer.duration\n        });\n\n        auctions.push(auction);\n        uint256 auctionId = auctions.length - 1;\n\n        // Update offer with new available amount\n        if (offer.hasBids == false) offer.hasBids = true;\n        offer.availableCopies = offer.availableCopies.sub(_numCopies);\n        offers[_offerId] = offer;\n\n        emit AuctionBid(auctionId, msg.sender, msg.value);\n        return auctionId;\n    }\n\n    function bid(uint256 _auctionId, uint256 _numCopies) public payable {\n        Auction memory auction = auctions[_auctionId];\n        Offer memory offer = offers[auction.offerId];\n        require(offer.isAuction, \"Auction is not enabled\");\n        require(auction.active, \"Auction is not active\");\n        require(isActive(_auctionId), \"Auction has ended\");\n        require(offer.creator != address(0));\n        require(msg.value > auction.currentBidAmount, \"Price is not enough\");\n        require(\n            msg.value >= offer.minimumBidAmount.mul(_numCopies),\n            \"Price is not enough\"\n        );\n        require(_numCopies >= auction.numCopies, \"Error 1\");\n        require(\n            offer.availableCopies.add(auction.numCopies).sub(_numCopies) >= 0,\n            \"Error 2\"\n        );\n\n        // return funds to the previuos bidder\n        returnFundsToPreviousOwner(auction);\n\n        offer.availableCopies = offer\n            .availableCopies\n            .add(auction.numCopies)\n            .sub(_numCopies);\n        offers[auction.offerId] = offer;\n\n        auction.currentBidAmount = msg.value;\n        auction.currentBidOwner = payable(msg.sender);\n        auction.bidCount = auction.bidCount.add(1);\n        auction.numCopies = _numCopies;\n        auctions[_auctionId] = auction;\n    }\n\n    function closeAuctionAndTransfer(uint256 _auctionId) internal {\n        Auction memory auction = auctions[_auctionId];\n        Offer memory offer = offers[auction.offerId];\n\n        require(auction.active == true, \"Auction not active\");\n        require(isFinished(_auctionId), \"The auction is still active\");\n        require(offer.isAuction == true, \"Auction is not active\");\n\n        Base1155 asset = Base1155(offer.tokenAddress);\n\n        require(\n            asset.balanceOf(offer.creator, offer.tokenId) >= offer.amount,\n            \"Owner did not have enough tokens\"\n        );\n        require(\n            asset.isApprovedForAll(offer.creator, address(this)),\n            \"NFT not approved\"\n        );\n\n        emit Claim(auction.offerId, auction.currentBidOwner);\n\n        asset.safeTransferFrom(\n            offer.creator,\n            auction.currentBidOwner,\n            offer.tokenId,\n            auction.numCopies,\n            \"\"\n        );\n\n        // now, pay the amount - commission - royalties to the auction creator\n        address payable creatorNFT = payable(\n            // getCreator(offer.assetAddress, _offerId)\n            asset.getCreator(offer.tokenId)\n        );\n\n        uint256 commissionToPay = (auction.currentBidAmount * commission) /\n            10000;\n        uint256 royaltiesToPay = 0;\n        if (creatorNFT != offer.creator) {\n            // It is a resale. Transfer royalties\n            royaltiesToPay =\n                (auction.currentBidAmount * asset.getRoyalties(offer.tokenId)) /\n                10000;\n            (bool success, ) = creatorNFT.call{value: royaltiesToPay}(\"\");\n            require(success, \"Transfer failed.\");\n\n            emit Royalties(creatorNFT, royaltiesToPay);\n        }\n        uint256 amountToPay = auction.currentBidAmount -\n            commissionToPay -\n            royaltiesToPay;\n\n        (bool success2, ) = offer.creator.call{value: amountToPay}(\"\");\n        require(success2, \"Transfer failed.\");\n        emit PaymentToOwner(\n            offer.creator,\n            amountToPay,\n            commissionToPay,\n            royaltiesToPay,\n            calcSafetyCheckValue(\n                amountToPay,\n                auction.currentBidAmount,\n                commission\n            )\n        );\n\n        accumulatedCommission = accumulatedCommission.add(commissionToPay);\n        totalSales = totalSales.add(auction.currentBidAmount);\n\n        auction.active = false;\n        auctions[_auctionId] = auction;\n\n        offer.hasBids = false;\n        offers[auction.offerId] = offer;\n    }\n\n    function closeAuction(uint256 _auctionId) public onlyOwner {\n        closeAuctionAndTransfer(_auctionId);\n    }\n\n    // Creates an offer that could be direct sale and/or auction for a certain amount of a token\n    function createOffer(\n        address _tokenAddress,\n        uint256 _tokenId, // tokenId\n        uint256 _amount, // amount of tokens on sale\n        bool _isDirectSale, // true if can be bought on a direct sale\n        bool _isAuction, // true if can be bought in an auction\n        uint256 _price, // price that if paid in a direct sale, transfers the NFT\n        uint256 _startPrice, // minimum price on the auction\n        uint256 _startTime, // time when the auction will start. Check the format with frontend\n        uint256 _duration // duration in seconds of the auction\n    ) public returns (uint256) {\n        Base1155 asset = Base1155(_tokenAddress);\n        require(\n            asset.balanceOf(msg.sender, _tokenId) >= _amount,\n            \"You are trying to sale more nfts that the ones you have\"\n        );\n\n        Offer memory offer = Offer({\n            tokenAddress: _tokenAddress,\n            tokenId: _tokenId,\n            amount: _amount,\n            creator: payable(msg.sender),\n            price: _price,\n            isOnSale: _isDirectSale,\n            isAuction: _isAuction,\n            startTime: _startTime,\n            duration: _duration,\n            minimumBidAmount: _startPrice,\n            hasBids: false,\n            availableCopies: _amount // at the beginning all the copies are available, as nothing has been sold\n        });\n        offers.push(offer);\n        uint256 index = offers.length - 1;\n\n        emit OfferCreated(index, msg.sender, _tokenId);\n        return index;\n    }\n\n    function hasBids(uint256 _offerId) public view returns (bool) {\n        Offer memory offer = offers[_offerId];\n        return offer.hasBids;\n    }\n\n    function ahora() public view returns (uint256) {\n        return block.timestamp;\n    }\n\n    function removeFromAuctionOrSale(\n        uint256 _offerId,\n        bool _sale,\n        bool _auction\n    ) public {\n        Offer memory offer = offers[_offerId];\n        require(msg.sender == offer.creator, \"You are not the owner\");\n        require(offer.hasBids == false, \"Bids existing\");\n        offer.isAuction = _auction;\n        offer.isOnSale = _sale;\n        offers[_offerId] = offer;\n    }\n\n    // Changes the default commission. Only the owner of the marketplace can do that. In basic points\n    function setCommission(uint256 _commission) public onlyOwner {\n        require(_commission <= 5000, \"Commission too high\");\n        commission = _commission;\n    }\n\n    function calcSafetyCheckValue(\n        uint256 _amountToPay,\n        uint256 _paidPrice,\n        uint256 _commission\n    ) internal pure returns (uint256) {\n        uint256 result = _amountToPay + ((_paidPrice * _commission) / 10000);\n        return result;\n    }\n\n    function buy(uint256 _offerId, uint256 _amount)\n        external\n        payable\n        nonReentrant\n    {\n        address buyer = msg.sender;\n        uint256 paidPrice = msg.value;\n\n        Offer memory offer = offers[_offerId];\n        require(offer.isOnSale == true, \"NFT not in direct sale\");\n        require(\n            offer.availableCopies >= _amount,\n            \"Not enough copies available\"\n        );\n        uint256 price = offer.price;\n        require(paidPrice >= price.mul(_amount), \"Price is not enough\");\n\n        Base1155 asset = Base1155(offer.tokenAddress);\n        require(\n            asset.balanceOf(offer.creator, offer.tokenId) >= _amount,\n            \"Owner did not have enough tokens\"\n        );\n        require(\n            asset.isApprovedForAll(offer.creator, address(this)),\n            \"NFT not approved\"\n        );\n\n        emit Claim(_offerId, buyer);\n\n        asset.safeTransferFrom(\n            offer.creator,\n            msg.sender,\n            offer.tokenId,\n            _amount,\n            \"\"\n        );\n\n        // now, pay the amount - commission - royalties to the auction creator\n        address payable creatorNFT = payable(\n            // getCreator(offer.assetAddress, _offerId)\n            asset.getCreator(offer.tokenId)\n        );\n\n        uint256 commissionToPay = (paidPrice * commission) / 10000;\n        uint256 royaltiesToPay = 0;\n        if (creatorNFT != offer.creator) {\n            // It is a resale. Transfer royalties\n            royaltiesToPay =\n                (paidPrice * asset.getRoyalties(offer.tokenId)) / /*getRoyalties(offer.assetAddress, _offerId)*/\n                10000;\n            (bool success, ) = creatorNFT.call{value: royaltiesToPay}(\"\");\n            require(success, \"Transfer failed.\");\n\n            emit Royalties(creatorNFT, royaltiesToPay);\n        }\n        uint256 amountToPay = paidPrice - commissionToPay - royaltiesToPay;\n\n        (bool success2, ) = offer.creator.call{value: amountToPay}(\"\");\n        require(success2, \"Transfer failed.\");\n        emit PaymentToOwner(\n            offer.creator,\n            amountToPay,\n            commissionToPay,\n            royaltiesToPay,\n            calcSafetyCheckValue(amountToPay, paidPrice, commission)\n        );\n\n        accumulatedCommission += commissionToPay;\n        totalSales = totalSales.add(paidPrice);\n\n        offer.availableCopies = offer.availableCopies.sub(_amount);\n\n        if (offer.availableCopies == 0) {\n            offer.isAuction = false;\n            offer.isOnSale = false;\n        }\n\n        offers[_offerId] = offer;\n    }\n\n    function isActive(uint256 _auctionId) public view returns (bool) {\n        return getStatus(_auctionId) == Status.active;\n    }\n\n    function isFinished(uint256 _auctionId) public view returns (bool) {\n        return getStatus(_auctionId) == Status.finished;\n    }\n\n    function getStatus(uint256 _auctionId) public view returns (Status) {\n        Auction storage auction = auctions[_auctionId];\n        if (block.timestamp < auction.startTime) {\n            return Status.pending;\n        } else if (block.timestamp < auction.startTime.add(auction.duration)) {\n            return Status.active;\n        } else {\n            return Status.finished;\n        }\n    }\n\n    function endDate(uint256 _auctionId) public view returns (uint256) {\n        Auction storage auction = auctions[_auctionId];\n        return auction.startTime.add(auction.duration);\n    }\n\n    function getCurrentBidOwner(uint256 _auctionId)\n        public\n        view\n        returns (address)\n    {\n        return auctions[_auctionId].currentBidOwner;\n    }\n\n    function getCurrentBidAmount(uint256 _auctionId)\n        public\n        view\n        returns (uint256)\n    {\n        return auctions[_auctionId].currentBidAmount;\n    }\n\n    function getBidCount(uint256 _auctionId) public view returns (uint256) {\n        return auctions[_auctionId].bidCount;\n    }\n\n    function getWinner(uint256 _auctionId) public view returns (address) {\n        require(isFinished(_auctionId), \"Auction not finished yet\");\n        return auctions[_auctionId].currentBidOwner;\n    }\n\n    /* The contract owner should call this method to cancel an auction on an offer\n    This will cancel the auction. If the auction has bids, it\n    will return the bidded amount to the bidder before closing the auction\n */\n    function forceAuctionEnding(uint256 _auctionId)\n        public\n        onlyOwner\n        nonReentrant\n    {\n        require(!isFinished(_auctionId), \"Auction is finished\");\n        Auction memory auction = auctions[_auctionId];\n        Offer storage offer = offers[auction.offerId];\n        if (\n            auction.currentBidAmount != 0 &&\n            auction.currentBidOwner != address(0)\n        ) {\n            // return funds to the previuos bidder, if there is a previous bid\n            returnFundsToPreviousOwner(auction);\n        }\n\n        auction.active = false;\n        auctions[_auctionId] = auction;\n\n        offer.hasBids = false;\n        offer.availableCopies = offer.availableCopies.add(auction.numCopies);\n        offers[auction.offerId] = offer;\n    }\n\n    function returnFundsToPreviousOwner(Auction memory _auction) internal {\n        (bool success, ) = _auction.currentBidOwner.call{\n            value: _auction.currentBidAmount\n        }(\"\");\n        require(success, \"Transfer failed.\");\n        emit ReturnBidFunds(\n            _auction.offerId,\n            _auction.currentBidOwner,\n            _auction.currentBidAmount\n        );\n    }\n\n    function extractBalance() public onlyOwner nonReentrant {\n        address payable me = payable(msg.sender);\n        (bool success, ) = me.call{value: accumulatedCommission}(\"\");\n        require(success, \"Transfer failed.\");\n        accumulatedCommission = 0;\n    }\n}\n",
  "sourcePath": "/home/linux/ether/XSigma1155/contracts/engine.sol",
  "compiler": {
    "name": "solc",
    "version": "0.8.4+commit.c7e474f2.Emscripten.clang"
  },
  "schemaVersion": "3.3.4",
  "updatedAt": "2021-09-03T11:20:43.961Z",
  "networkType": "ethereum",
  "devdoc": {
    "kind": "dev",
    "methods": {
      "owner()": {
        "details": "Returns the address of the current owner."
      },
      "renounceOwnership()": {
        "details": "Leaves the contract without owner. It will not be possible to call `onlyOwner` functions anymore. Can only be called by the current owner. NOTE: Renouncing ownership will leave the contract without an owner, thereby removing any functionality that is only available to the owner."
      },
      "transferOwnership(address)": {
        "details": "Transfers ownership of the contract to a new account (`newOwner`). Can only be called by the current owner."
      }
    },
    "version": 1
  },
  "userdoc": {
    "kind": "user",
    "methods": {},
    "version": 1
  }
}