{
  "contractName": "Engine",
  "abi": [
    {
      "anonymous": false,
      "inputs": [
        {
          "indexed": false,
          "internalType": "uint256",
          "name": "_index",
          "type": "uint256"
        },
        {
          "indexed": false,
          "internalType": "address",
          "name": "_bidder",
          "type": "address"
        },
        {
          "indexed": false,
          "internalType": "uint256",
          "name": "_price",
          "type": "uint256"
        },
        {
          "indexed": false,
          "internalType": "uint256",
          "name": "_numCopies",
          "type": "uint256"
        },
        {
          "indexed": false,
          "internalType": "uint256",
          "name": "_tokenId",
          "type": "uint256"
        }
      ],
      "name": "AuctionBid",
      "type": "event"
    },
    {
      "anonymous": false,
      "inputs": [
        {
          "indexed": false,
          "internalType": "uint256",
          "name": "auctionIndex",
          "type": "uint256"
        },
        {
          "indexed": false,
          "internalType": "address",
          "name": "claimer",
          "type": "address"
        }
      ],
      "name": "Claim",
      "type": "event"
    },
    {
      "anonymous": false,
      "inputs": [
        {
          "indexed": false,
          "internalType": "uint256",
          "name": "_index",
          "type": "uint256"
        },
        {
          "indexed": false,
          "internalType": "uint256",
          "name": "_tokenId",
          "type": "uint256"
        },
        {
          "indexed": false,
          "internalType": "uint256",
          "name": "numCopies",
          "type": "uint256"
        },
        {
          "indexed": false,
          "internalType": "uint256",
          "name": "amount",
          "type": "uint256"
        },
        {
          "indexed": false,
          "internalType": "bool",
          "name": "isSale",
          "type": "bool"
        }
      ],
      "name": "OfferCreated",
      "type": "event"
    },
    {
      "anonymous": false,
      "inputs": [
        {
          "indexed": true,
          "internalType": "address",
          "name": "previousOwner",
          "type": "address"
        },
        {
          "indexed": true,
          "internalType": "address",
          "name": "newOwner",
          "type": "address"
        }
      ],
      "name": "OwnershipTransferred",
      "type": "event"
    },
    {
      "anonymous": false,
      "inputs": [
        {
          "indexed": false,
          "internalType": "address",
          "name": "receiver",
          "type": "address"
        },
        {
          "indexed": false,
          "internalType": "uint256",
          "name": "amount",
          "type": "uint256"
        },
        {
          "indexed": false,
          "internalType": "uint256",
          "name": "commission",
          "type": "uint256"
        },
        {
          "indexed": false,
          "internalType": "uint256",
          "name": "royalties",
          "type": "uint256"
        },
        {
          "indexed": false,
          "internalType": "uint256",
          "name": "safetyCheckValue",
          "type": "uint256"
        }
      ],
      "name": "PaymentToOwner",
      "type": "event"
    },
    {
      "inputs": [],
      "name": "accumulatedCommission",
      "outputs": [
        {
          "internalType": "uint256",
          "name": "",
          "type": "uint256"
        }
      ],
      "stateMutability": "view",
      "type": "function",
      "constant": true
    },
    {
      "inputs": [
        {
          "internalType": "uint256",
          "name": "",
          "type": "uint256"
        }
      ],
      "name": "auctions",
      "outputs": [
        {
          "internalType": "address",
          "name": "tokenAddress",
          "type": "address"
        },
        {
          "internalType": "uint256",
          "name": "tokenId",
          "type": "uint256"
        },
        {
          "internalType": "uint256",
          "name": "currentBidAmount",
          "type": "uint256"
        },
        {
          "internalType": "address payable",
          "name": "currentBidOwner",
          "type": "address"
        },
        {
          "internalType": "uint256",
          "name": "bidCount",
          "type": "uint256"
        },
        {
          "internalType": "uint256",
          "name": "offerId",
          "type": "uint256"
        },
        {
          "internalType": "uint256",
          "name": "numCopies",
          "type": "uint256"
        },
        {
          "internalType": "bool",
          "name": "active",
          "type": "bool"
        },
        {
          "internalType": "uint256",
          "name": "startTime",
          "type": "uint256"
        },
        {
          "internalType": "uint256",
          "name": "duration",
          "type": "uint256"
        }
      ],
      "stateMutability": "view",
      "type": "function",
      "constant": true
    },
    {
      "inputs": [],
      "name": "commission",
      "outputs": [
        {
          "internalType": "uint256",
          "name": "",
          "type": "uint256"
        }
      ],
      "stateMutability": "view",
      "type": "function",
      "constant": true
    },
    {
      "inputs": [
        {
          "internalType": "uint256",
          "name": "",
          "type": "uint256"
        }
      ],
      "name": "offers",
      "outputs": [
        {
          "internalType": "address",
          "name": "tokenAddress",
          "type": "address"
        },
        {
          "internalType": "uint256",
          "name": "tokenId",
          "type": "uint256"
        },
        {
          "internalType": "uint256",
          "name": "amount",
          "type": "uint256"
        },
        {
          "internalType": "address payable",
          "name": "creator",
          "type": "address"
        },
        {
          "internalType": "uint256",
          "name": "price",
          "type": "uint256"
        },
        {
          "internalType": "bool",
          "name": "isOnSale",
          "type": "bool"
        },
        {
          "internalType": "bool",
          "name": "isAuction",
          "type": "bool"
        },
        {
          "internalType": "uint256",
          "name": "startTime",
          "type": "uint256"
        },
        {
          "internalType": "uint256",
          "name": "duration",
          "type": "uint256"
        },
        {
          "internalType": "uint256",
          "name": "minimumBidAmount",
          "type": "uint256"
        },
        {
          "internalType": "uint256",
          "name": "availableCopies",
          "type": "uint256"
        },
        {
          "internalType": "bool",
          "name": "hasBids",
          "type": "bool"
        }
      ],
      "stateMutability": "view",
      "type": "function",
      "constant": true
    },
    {
      "inputs": [],
      "name": "owner",
      "outputs": [
        {
          "internalType": "address",
          "name": "",
          "type": "address"
        }
      ],
      "stateMutability": "view",
      "type": "function",
      "constant": true
    },
    {
      "inputs": [],
      "name": "renounceOwnership",
      "outputs": [],
      "stateMutability": "nonpayable",
      "type": "function"
    },
    {
      "inputs": [],
      "name": "totalSales",
      "outputs": [
        {
          "internalType": "uint256",
          "name": "",
          "type": "uint256"
        }
      ],
      "stateMutability": "view",
      "type": "function",
      "constant": true
    },
    {
      "inputs": [
        {
          "internalType": "address",
          "name": "newOwner",
          "type": "address"
        }
      ],
      "name": "transferOwnership",
      "outputs": [],
      "stateMutability": "nonpayable",
      "type": "function"
    },
    {
      "inputs": [
        {
          "internalType": "uint256",
          "name": "_offerId",
          "type": "uint256"
        },
        {
          "internalType": "uint256",
          "name": "_numCopies",
          "type": "uint256"
        }
      ],
      "name": "createAuctionAndBid",
      "outputs": [
        {
          "internalType": "uint256",
          "name": "",
          "type": "uint256"
        }
      ],
      "stateMutability": "payable",
      "type": "function",
      "payable": true
    },
    {
      "inputs": [
        {
          "internalType": "uint256",
          "name": "_auctionId",
          "type": "uint256"
        },
        {
          "internalType": "uint256",
          "name": "_numCopies",
          "type": "uint256"
        }
      ],
      "name": "bid",
      "outputs": [],
      "stateMutability": "payable",
      "type": "function",
      "payable": true
    },
    {
      "inputs": [
        {
          "internalType": "uint256",
          "name": "_auctionId",
          "type": "uint256"
        }
      ],
      "name": "closeAuction",
      "outputs": [],
      "stateMutability": "nonpayable",
      "type": "function"
    },
    {
      "inputs": [
        {
          "internalType": "address",
          "name": "_tokenAddress",
          "type": "address"
        },
        {
          "internalType": "uint256",
          "name": "_tokenId",
          "type": "uint256"
        },
        {
          "internalType": "uint256",
          "name": "_amount",
          "type": "uint256"
        },
        {
          "internalType": "bool",
          "name": "_isDirectSale",
          "type": "bool"
        },
        {
          "internalType": "bool",
          "name": "_isAuction",
          "type": "bool"
        },
        {
          "internalType": "uint256",
          "name": "_price",
          "type": "uint256"
        },
        {
          "internalType": "uint256",
          "name": "_startPrice",
          "type": "uint256"
        },
        {
          "internalType": "uint256",
          "name": "_startTime",
          "type": "uint256"
        },
        {
          "internalType": "uint256",
          "name": "_duration",
          "type": "uint256"
        }
      ],
      "name": "createOffer",
      "outputs": [
        {
          "internalType": "uint256",
          "name": "",
          "type": "uint256"
        }
      ],
      "stateMutability": "nonpayable",
      "type": "function"
    },
    {
      "inputs": [
        {
          "internalType": "uint256",
          "name": "_offerId",
          "type": "uint256"
        }
      ],
      "name": "hasBids",
      "outputs": [
        {
          "internalType": "bool",
          "name": "",
          "type": "bool"
        }
      ],
      "stateMutability": "view",
      "type": "function",
      "constant": true
    },
    {
      "inputs": [],
      "name": "ahora",
      "outputs": [
        {
          "internalType": "uint256",
          "name": "",
          "type": "uint256"
        }
      ],
      "stateMutability": "view",
      "type": "function",
      "constant": true
    },
    {
      "inputs": [
        {
          "internalType": "uint256",
          "name": "_offerId",
          "type": "uint256"
        },
        {
          "internalType": "bool",
          "name": "_sale",
          "type": "bool"
        },
        {
          "internalType": "bool",
          "name": "_auction",
          "type": "bool"
        }
      ],
      "name": "removeFromAuctionOrSale",
      "outputs": [],
      "stateMutability": "nonpayable",
      "type": "function"
    },
    {
      "inputs": [
        {
          "internalType": "uint256",
          "name": "_commission",
          "type": "uint256"
        }
      ],
      "name": "setCommission",
      "outputs": [],
      "stateMutability": "nonpayable",
      "type": "function"
    },
    {
      "inputs": [
        {
          "internalType": "uint256",
          "name": "_offerId",
          "type": "uint256"
        },
        {
          "internalType": "uint256",
          "name": "_amount",
          "type": "uint256"
        }
      ],
      "name": "buy",
      "outputs": [],
      "stateMutability": "payable",
      "type": "function",
      "payable": true
    },
    {
      "inputs": [
        {
          "internalType": "uint256",
          "name": "_auctionId",
          "type": "uint256"
        }
      ],
      "name": "isActive",
      "outputs": [
        {
          "internalType": "bool",
          "name": "",
          "type": "bool"
        }
      ],
      "stateMutability": "view",
      "type": "function",
      "constant": true
    },
    {
      "inputs": [
        {
          "internalType": "uint256",
          "name": "_auctionId",
          "type": "uint256"
        }
      ],
      "name": "isFinished",
      "outputs": [
        {
          "internalType": "bool",
          "name": "",
          "type": "bool"
        }
      ],
      "stateMutability": "view",
      "type": "function",
      "constant": true
    },
    {
      "inputs": [
        {
          "internalType": "uint256",
          "name": "_auctionId",
          "type": "uint256"
        }
      ],
      "name": "getStatus",
      "outputs": [
        {
          "internalType": "enum Engine.Status",
          "name": "",
          "type": "uint8"
        }
      ],
      "stateMutability": "view",
      "type": "function",
      "constant": true
    },
    {
      "inputs": [
        {
          "internalType": "uint256",
          "name": "_auctionId",
          "type": "uint256"
        }
      ],
      "name": "endDate",
      "outputs": [
        {
          "internalType": "uint256",
          "name": "",
          "type": "uint256"
        }
      ],
      "stateMutability": "view",
      "type": "function",
      "constant": true
    },
    {
      "inputs": [
        {
          "internalType": "uint256",
          "name": "_auctionId",
          "type": "uint256"
        }
      ],
      "name": "getCurrentBidOwner",
      "outputs": [
        {
          "internalType": "address",
          "name": "",
          "type": "address"
        }
      ],
      "stateMutability": "view",
      "type": "function",
      "constant": true
    },
    {
      "inputs": [
        {
          "internalType": "uint256",
          "name": "_auctionId",
          "type": "uint256"
        }
      ],
      "name": "getCurrentBidAmount",
      "outputs": [
        {
          "internalType": "uint256",
          "name": "",
          "type": "uint256"
        }
      ],
      "stateMutability": "view",
      "type": "function",
      "constant": true
    },
    {
      "inputs": [
        {
          "internalType": "uint256",
          "name": "_auctionId",
          "type": "uint256"
        }
      ],
      "name": "getBidCount",
      "outputs": [
        {
          "internalType": "uint256",
          "name": "",
          "type": "uint256"
        }
      ],
      "stateMutability": "view",
      "type": "function",
      "constant": true
    },
    {
      "inputs": [
        {
          "internalType": "uint256",
          "name": "_auctionId",
          "type": "uint256"
        }
      ],
      "name": "getWinner",
      "outputs": [
        {
          "internalType": "address",
          "name": "",
          "type": "address"
        }
      ],
      "stateMutability": "view",
      "type": "function",
      "constant": true
    },
    {
      "inputs": [
        {
          "internalType": "uint256",
          "name": "_auctionId",
          "type": "uint256"
        }
      ],
      "name": "forceAuctionEnding",
      "outputs": [],
      "stateMutability": "nonpayable",
      "type": "function"
    },
    {
      "inputs": [],
      "name": "extractBalance",
      "outputs": [],
      "stateMutability": "nonpayable",
      "type": "function"
    }
  ],
  "bytecode": "0x60806040526000600255600060035560006004553480156200002057600080fd5b50600062000033620000de60201b60201c565b9050806000806101000a81548173ffffffffffffffffffffffffffffffffffffffff021916908373ffffffffffffffffffffffffffffffffffffffff1602179055508073ffffffffffffffffffffffffffffffffffffffff16600073ffffffffffffffffffffffffffffffffffffffff167f8be0079c531659141344cd1fd0a4f28419497f9722a3daafe3b4186f6b6457e060405160405180910390a35060018081905550620000e6565b600033905090565b615f8580620000f66000396000f3fe60806040526004361061019c5760003560e01c8063744d3411116100ec578063b670571b1161008a578063e148919111610064578063e1489191146105fd578063e8ba650914610628578063f2fde38b14610665578063fb7bd9041461068e5761019c565b8063b670571b14610588578063b7a256fc146105b8578063d6febde8146105e15761019c565b80638a72ea6a116100c65780638a72ea6a146104ad5780638da5cb5b146104f55780639f49be9c14610520578063ae6936731461055d5761019c565b8063744d3411146103f657806382afd23b1461043357806386b46073146104705761019c565b8063571a26a0116101595780636605ff66116101335780636605ff66146103605780636975846a1461038b5780636af83b24146103c8578063715018a6146103df5761019c565b8063571a26a0146102c1578063598647f8146103075780635c622a0e146103235761019c565b8063236ed8f3146101a15780632b866759146101ca57806332b1207a146101f5578063355e6b431461021e5780634129b2c9146102475780634cac5b4b14610284575b600080fd5b3480156101ad57600080fd5b506101c860048036038101906101c39190614c39565b6106cb565b005b3480156101d657600080fd5b506101df610753565b6040516101ec9190615738565b60405180910390f35b34801561020157600080fd5b5061021c60048036038101906102179190614c8b565b61075b565b005b34801561022a57600080fd5b5061024560048036038101906102409190614c39565b610b5e565b005b34801561025357600080fd5b5061026e60048036038101906102699190614c39565b610c29565b60405161027b9190615113565b60405180910390f35b34801561029057600080fd5b506102ab60048036038101906102a69190614c39565b610ce6565b6040516102b89190615738565b60405180910390f35b3480156102cd57600080fd5b506102e860048036038101906102e39190614c39565b610d56565b6040516102fe9a99989796959493929190615366565b60405180910390f35b610321600480360381019061031c9190614cda565b610e07565b005b34801561032f57600080fd5b5061034a60048036038101906103459190614c39565b6116ef565b604051610357919061541d565b60405180910390f35b34801561036c57600080fd5b50610375611789565b6040516103829190615738565b60405180910390f35b34801561039757600080fd5b506103b260048036038101906103ad9190614c39565b61178f565b6040516103bf9190615738565b60405180910390f35b3480156103d457600080fd5b506103dd6117e4565b005b3480156103eb57600080fd5b506103f4611974565b005b34801561040257600080fd5b5061041d60048036038101906104189190614c39565b611aae565b60405161042a9190615738565b60405180910390f35b34801561043f57600080fd5b5061045a60048036038101906104559190614c39565b611b03565b6040516104679190615402565b60405180910390f35b34801561047c57600080fd5b5061049760048036038101906104929190614c39565b611b88565b6040516104a49190615113565b60405180910390f35b3480156104b957600080fd5b506104d460048036038101906104cf9190614c39565b611bfd565b6040516104ec9c9b9a999897969594939291906152ac565b60405180910390f35b34801561050157600080fd5b5061050a611cd4565b6040516105179190615113565b60405180910390f35b34801561052c57600080fd5b5061054760048036038101906105429190614b4a565b611cfd565b6040516105549190615738565b60405180910390f35b34801561056957600080fd5b50610572612026565b60405161057f9190615738565b60405180910390f35b6105a2600480360381019061059d9190614cda565b61202c565b6040516105af9190615738565b60405180910390f35b3480156105c457600080fd5b506105df60048036038101906105da9190614c39565b61271a565b005b6105fb60048036038101906105f69190614cda565b612dc1565b005b34801561060957600080fd5b5061061261387a565b60405161061f9190615738565b60405180910390f35b34801561063457600080fd5b5061064f600480360381019061064a9190614c39565b613880565b60405161065c9190615402565b60405180910390f35b34801561067157600080fd5b5061068c60048036038101906106879190614af8565b613904565b005b34801561069a57600080fd5b506106b560048036038101906106b09190614c39565b613aad565b6040516106c29190615402565b60405180910390f35b6106d3613c57565b73ffffffffffffffffffffffffffffffffffffffff166106f1611cd4565b73ffffffffffffffffffffffffffffffffffffffff1614610747576040517f08c379a000000000000000000000000000000000000000000000000000000000815260040161073e906155b8565b60405180910390fd5b61075081613c5f565b50565b600042905090565b600060058481548110610797577f4e487b7100000000000000000000000000000000000000000000000000000000600052603260045260246000fd5b90600052602060002090600b0201604051806101800160405290816000820160009054906101000a900473ffffffffffffffffffffffffffffffffffffffff1673ffffffffffffffffffffffffffffffffffffffff1673ffffffffffffffffffffffffffffffffffffffff16815260200160018201548152602001600282015481526020016003820160009054906101000a900473ffffffffffffffffffffffffffffffffffffffff1673ffffffffffffffffffffffffffffffffffffffff1673ffffffffffffffffffffffffffffffffffffffff168152602001600482015481526020016005820160009054906101000a900460ff161515151581526020016005820160019054906101000a900460ff1615151515815260200160068201548152602001600782015481526020016008820154815260200160098201548152602001600a820160009054906101000a900460ff1615151515815250509050806060015173ffffffffffffffffffffffffffffffffffffffff163373ffffffffffffffffffffffffffffffffffffffff1614610968576040517f08c379a000000000000000000000000000000000000000000000000000000000815260040161095f90615518565b60405180910390fd5b600015158161016001511515146109b4576040517f08c379a00000000000000000000000000000000000000000000000000000000081526004016109ab906154b8565b60405180910390fd5b818160c0019015159081151581525050828160a00190151590811515815250508060058581548110610a0f577f4e487b7100000000000000000000000000000000000000000000000000000000600052603260045260246000fd5b90600052602060002090600b020160008201518160000160006101000a81548173ffffffffffffffffffffffffffffffffffffffff021916908373ffffffffffffffffffffffffffffffffffffffff160217905550602082015181600101556040820151816002015560608201518160030160006101000a81548173ffffffffffffffffffffffffffffffffffffffff021916908373ffffffffffffffffffffffffffffffffffffffff1602179055506080820151816004015560a08201518160050160006101000a81548160ff02191690831515021790555060c08201518160050160016101000a81548160ff02191690831515021790555060e0820151816006015561010082015181600701556101208201518160080155610140820151816009015561016082015181600a0160006101000a81548160ff02191690831515021790555090505050505050565b610b66613c57565b73ffffffffffffffffffffffffffffffffffffffff16610b84611cd4565b73ffffffffffffffffffffffffffffffffffffffff1614610bda576040517f08c379a0000000000000000000000000000000000000000000000000000000008152600401610bd1906155b8565b60405180910390fd5b611388811115610c1f576040517f08c379a0000000000000000000000000000000000000000000000000000000008152600401610c1690615658565b60405180910390fd5b8060028190555050565b6000610c3482613880565b610c73576040517f08c379a0000000000000000000000000000000000000000000000000000000008152600401610c6a90615458565b60405180910390fd5b60068281548110610cad577f4e487b7100000000000000000000000000000000000000000000000000000000600052603260045260246000fd5b90600052602060002090600a020160030160009054906101000a900473ffffffffffffffffffffffffffffffffffffffff169050919050565b60008060068381548110610d23577f4e487b7100000000000000000000000000000000000000000000000000000000600052603260045260246000fd5b90600052602060002090600a02019050610d4e8160090154826008015461494c90919063ffffffff16565b915050919050565b60068181548110610d6657600080fd5b90600052602060002090600a02016000915090508060000160009054906101000a900473ffffffffffffffffffffffffffffffffffffffff16908060010154908060020154908060030160009054906101000a900473ffffffffffffffffffffffffffffffffffffffff16908060040154908060050154908060060154908060070160009054906101000a900460ff1690806008015490806009015490508a565b600060068381548110610e43577f4e487b7100000000000000000000000000000000000000000000000000000000600052603260045260246000fd5b90600052602060002090600a0201604051806101400160405290816000820160009054906101000a900473ffffffffffffffffffffffffffffffffffffffff1673ffffffffffffffffffffffffffffffffffffffff1673ffffffffffffffffffffffffffffffffffffffff16815260200160018201548152602001600282015481526020016003820160009054906101000a900473ffffffffffffffffffffffffffffffffffffffff1673ffffffffffffffffffffffffffffffffffffffff1673ffffffffffffffffffffffffffffffffffffffff1681526020016004820154815260200160058201548152602001600682015481526020016007820160009054906101000a900460ff16151515158152602001600882015481526020016009820154815250509050600060058260a0015181548110610fac577f4e487b7100000000000000000000000000000000000000000000000000000000600052603260045260246000fd5b90600052602060002090600b0201604051806101800160405290816000820160009054906101000a900473ffffffffffffffffffffffffffffffffffffffff1673ffffffffffffffffffffffffffffffffffffffff1673ffffffffffffffffffffffffffffffffffffffff16815260200160018201548152602001600282015481526020016003820160009054906101000a900473ffffffffffffffffffffffffffffffffffffffff1673ffffffffffffffffffffffffffffffffffffffff1673ffffffffffffffffffffffffffffffffffffffff168152602001600482015481526020016005820160009054906101000a900460ff161515151581526020016005820160019054906101000a900460ff1615151515815260200160068201548152602001600782015481526020016008820154815260200160098201548152602001600a820160009054906101000a900460ff16151515158152505090508060c0015161114f576040517f08c379a000000000000000000000000000000000000000000000000000000000815260040161114690615638565b60405180910390fd5b8160e00151611193576040517f08c379a000000000000000000000000000000000000000000000000000000000815260040161118a90615578565b60405180910390fd5b61119c84611b03565b6111db576040517f08c379a00000000000000000000000000000000000000000000000000000000081526004016111d290615558565b60405180910390fd5b600073ffffffffffffffffffffffffffffffffffffffff16816060015173ffffffffffffffffffffffffffffffffffffffff16141561121957600080fd5b8160400151341161125f576040517f08c379a000000000000000000000000000000000000000000000000000000000815260040161125690615438565b60405180910390fd5b6112778382610120015161496290919063ffffffff16565b3410156112b9576040517f08c379a00000000000000000000000000000000000000000000000000000000081526004016112b090615438565b60405180910390fd5b8160c00151831015611300576040517f08c379a00000000000000000000000000000000000000000000000000000000081526004016112f790615598565b60405180910390fd5b6000611330846113228560c0015185610140015161494c90919063ffffffff16565b61497890919063ffffffff16565b1015611371576040517f08c379a000000000000000000000000000000000000000000000000000000000815260040161136890615618565b60405180910390fd5b61137a8261498e565b6113a88361139a8460c0015184610140015161494c90919063ffffffff16565b61497890919063ffffffff16565b816101400181815250508060058360a00151815481106113f1577f4e487b7100000000000000000000000000000000000000000000000000000000600052603260045260246000fd5b90600052602060002090600b020160008201518160000160006101000a81548173ffffffffffffffffffffffffffffffffffffffff021916908373ffffffffffffffffffffffffffffffffffffffff160217905550602082015181600101556040820151816002015560608201518160030160006101000a81548173ffffffffffffffffffffffffffffffffffffffff021916908373ffffffffffffffffffffffffffffffffffffffff1602179055506080820151816004015560a08201518160050160006101000a81548160ff02191690831515021790555060c08201518160050160016101000a81548160ff02191690831515021790555060e0820151816006015561010082015181600701556101208201518160080155610140820151816009015561016082015181600a0160006101000a81548160ff0219169083151502179055509050503482604001818152505033826060019073ffffffffffffffffffffffffffffffffffffffff16908173ffffffffffffffffffffffffffffffffffffffff16815250506115946001836080015161494c90919063ffffffff16565b826080018181525050828260c001818152505081600685815481106115e2577f4e487b7100000000000000000000000000000000000000000000000000000000600052603260045260246000fd5b90600052602060002090600a020160008201518160000160006101000a81548173ffffffffffffffffffffffffffffffffffffffff021916908373ffffffffffffffffffffffffffffffffffffffff160217905550602082015181600101556040820151816002015560608201518160030160006101000a81548173ffffffffffffffffffffffffffffffffffffffff021916908373ffffffffffffffffffffffffffffffffffffffff1602179055506080820151816004015560a0820151816005015560c0820151816006015560e08201518160070160006101000a81548160ff0219169083151502179055506101008201518160080155610120820151816009015590505050505050565b6000806006838154811061172c577f4e487b7100000000000000000000000000000000000000000000000000000000600052603260045260246000fd5b90600052602060002090600a020190508060080154421015611752576000915050611784565b61176d8160090154826008015461494c90919063ffffffff16565b42101561177e576001915050611784565b60029150505b919050565b60045481565b6000600682815481106117cb577f4e487b7100000000000000000000000000000000000000000000000000000000600052603260045260246000fd5b90600052602060002090600a0201600201549050919050565b6117ec613c57565b73ffffffffffffffffffffffffffffffffffffffff1661180a611cd4565b73ffffffffffffffffffffffffffffffffffffffff1614611860576040517f08c379a0000000000000000000000000000000000000000000000000000000008152600401611857906155b8565b60405180910390fd5b600260015414156118a6576040517f08c379a000000000000000000000000000000000000000000000000000000000815260040161189d90615718565b60405180910390fd5b6002600181905550600033905060008173ffffffffffffffffffffffffffffffffffffffff166003546040516118db906150fe565b60006040518083038185875af1925050503d8060008114611918576040519150601f19603f3d011682016040523d82523d6000602084013e61191d565b606091505b5050905080611961576040517f08c379a0000000000000000000000000000000000000000000000000000000008152600401611958906156b8565b60405180910390fd5b6000600381905550505060018081905550565b61197c613c57565b73ffffffffffffffffffffffffffffffffffffffff1661199a611cd4565b73ffffffffffffffffffffffffffffffffffffffff16146119f0576040517f08c379a00000000000000000000000000000000000000000000000000000000081526004016119e7906155b8565b60405180910390fd5b600073ffffffffffffffffffffffffffffffffffffffff1660008054906101000a900473ffffffffffffffffffffffffffffffffffffffff1673ffffffffffffffffffffffffffffffffffffffff167f8be0079c531659141344cd1fd0a4f28419497f9722a3daafe3b4186f6b6457e060405160405180910390a360008060006101000a81548173ffffffffffffffffffffffffffffffffffffffff021916908373ffffffffffffffffffffffffffffffffffffffff160217905550565b600060068281548110611aea577f4e487b7100000000000000000000000000000000000000000000000000000000600052603260045260246000fd5b90600052602060002090600a0201600401549050919050565b600060016002811115611b3f577f4e487b7100000000000000000000000000000000000000000000000000000000600052602160045260246000fd5b611b48836116ef565b6002811115611b80577f4e487b7100000000000000000000000000000000000000000000000000000000600052602160045260246000fd5b149050919050565b600060068281548110611bc4577f4e487b7100000000000000000000000000000000000000000000000000000000600052603260045260246000fd5b90600052602060002090600a020160030160009054906101000a900473ffffffffffffffffffffffffffffffffffffffff169050919050565b60058181548110611c0d57600080fd5b90600052602060002090600b02016000915090508060000160009054906101000a900473ffffffffffffffffffffffffffffffffffffffff16908060010154908060020154908060030160009054906101000a900473ffffffffffffffffffffffffffffffffffffffff16908060040154908060050160009054906101000a900460ff16908060050160019054906101000a900460ff169080600601549080600701549080600801549080600901549080600a0160009054906101000a900460ff1690508c565b60008060009054906101000a900473ffffffffffffffffffffffffffffffffffffffff16905090565b6000808a9050888173ffffffffffffffffffffffffffffffffffffffff1662fdd58e338d6040518363ffffffff1660e01b8152600401611d3e929190615283565b60206040518083038186803b158015611d5657600080fd5b505afa158015611d6a573d6000803e3d6000fd5b505050506040513d601f19601f82011682018060405250810190611d8e9190614c62565b1015611dcf576040517f08c379a0000000000000000000000000000000000000000000000000000000008152600401611dc6906154f8565b60405180910390fd5b60006040518061018001604052808d73ffffffffffffffffffffffffffffffffffffffff1681526020018c81526020018b81526020013373ffffffffffffffffffffffffffffffffffffffff1681526020018881526020018a1515815260200189151581526020018681526020018581526020018781526020018b815260200160001515815250905060058190806001815401808255809150506001900390600052602060002090600b020160009091909190915060008201518160000160006101000a81548173ffffffffffffffffffffffffffffffffffffffff021916908373ffffffffffffffffffffffffffffffffffffffff160217905550602082015181600101556040820151816002015560608201518160030160006101000a81548173ffffffffffffffffffffffffffffffffffffffff021916908373ffffffffffffffffffffffffffffffffffffffff1602179055506080820151816004015560a08201518160050160006101000a81548160ff02191690831515021790555060c08201518160050160016101000a81548160ff02191690831515021790555060e0820151816006015561010082015181600701556101208201518160080155610140820151816009015561016082015181600a0160006101000a81548160ff021916908315150217905550505060006001600580549050611fd29190615959565b90507f6b50976958b23a24954946172a9b29752902cddba5118b7a0ba435712a5e0899818d8d8b8e60405161200b9594939291906157f8565b60405180910390a18093505050509998505050505050505050565b60035481565b60008060058481548110612069577f4e487b7100000000000000000000000000000000000000000000000000000000600052603260045260246000fd5b90600052602060002090600b0201604051806101800160405290816000820160009054906101000a900473ffffffffffffffffffffffffffffffffffffffff1673ffffffffffffffffffffffffffffffffffffffff1673ffffffffffffffffffffffffffffffffffffffff16815260200160018201548152602001600282015481526020016003820160009054906101000a900473ffffffffffffffffffffffffffffffffffffffff1673ffffffffffffffffffffffffffffffffffffffff1673ffffffffffffffffffffffffffffffffffffffff168152602001600482015481526020016005820160009054906101000a900460ff161515151581526020016005820160019054906101000a900460ff1615151515815260200160068201548152602001600782015481526020016008820154815260200160098201548152602001600a820160009054906101000a900460ff1615151515815250509050600115158160c00151151514612213576040517f08c379a000000000000000000000000000000000000000000000000000000000815260040161220a90615678565b60405180910390fd5b6000151581610160015115151461225f576040517f08c379a0000000000000000000000000000000000000000000000000000000008152600401612256906154d8565b60405180910390fd5b600073ffffffffffffffffffffffffffffffffffffffff16816060015173ffffffffffffffffffffffffffffffffffffffff16141561229d57600080fd5b8281610140015110156122e5576040517f08c379a00000000000000000000000000000000000000000000000000000000081526004016122dc90615698565b60405180910390fd5b6122fd8382610120015161496290919063ffffffff16565b34101561233f576040517f08c379a000000000000000000000000000000000000000000000000000000000815260040161233690615438565b60405180910390fd5b6000604051806101400160405280836000015173ffffffffffffffffffffffffffffffffffffffff168152602001836020015181526020013481526020013373ffffffffffffffffffffffffffffffffffffffff16815260200160018152602001868152602001858152602001600115158152602001428152602001836101000151815250905060068190806001815401808255809150506001900390600052602060002090600a020160009091909190915060008201518160000160006101000a81548173ffffffffffffffffffffffffffffffffffffffff021916908373ffffffffffffffffffffffffffffffffffffffff160217905550602082015181600101556040820151816002015560608201518160030160006101000a81548173ffffffffffffffffffffffffffffffffffffffff021916908373ffffffffffffffffffffffffffffffffffffffff1602179055506080820151816004015560a0820151816005015560c0820151816006015560e08201518160070160006101000a81548160ff021916908315150217905550610100820151816008015561012082015181600901555050600060016006805490506124fe9190615959565b90506000151583610160015115151415612525576001836101600190151590811515815250505b61253d8584610140015161497890919063ffffffff16565b836101400181815250508260058781548110612582577f4e487b7100000000000000000000000000000000000000000000000000000000600052603260045260246000fd5b90600052602060002090600b020160008201518160000160006101000a81548173ffffffffffffffffffffffffffffffffffffffff021916908373ffffffffffffffffffffffffffffffffffffffff160217905550602082015181600101556040820151816002015560608201518160030160006101000a81548173ffffffffffffffffffffffffffffffffffffffff021916908373ffffffffffffffffffffffffffffffffffffffff1602179055506080820151816004015560a08201518160050160006101000a81548160ff02191690831515021790555060c08201518160050160016101000a81548160ff02191690831515021790555060e0820151816006015561010082015181600701556101208201518160080155610140820151816009015561016082015181600a0160006101000a81548160ff0219169083151502179055509050507f0a34b25ad011b9762df5c16a0fa7dd1ed6d0d8d3d4bcbec2f4885cdc50bf514d8133348887602001516040516127069594939291906157a5565b60405180910390a180935050505092915050565b612722613c57565b73ffffffffffffffffffffffffffffffffffffffff16612740611cd4565b73ffffffffffffffffffffffffffffffffffffffff1614612796576040517f08c379a000000000000000000000000000000000000000000000000000000000815260040161278d906155b8565b60405180910390fd5b600260015414156127dc576040517f08c379a00000000000000000000000000000000000000000000000000000000081526004016127d390615718565b60405180910390fd5b60026001819055506127ed81613880565b1561282d576040517f08c379a000000000000000000000000000000000000000000000000000000000815260040161282490615478565b60405180910390fd5b600060068281548110612869577f4e487b7100000000000000000000000000000000000000000000000000000000600052603260045260246000fd5b90600052602060002090600a0201604051806101400160405290816000820160009054906101000a900473ffffffffffffffffffffffffffffffffffffffff1673ffffffffffffffffffffffffffffffffffffffff1673ffffffffffffffffffffffffffffffffffffffff16815260200160018201548152602001600282015481526020016003820160009054906101000a900473ffffffffffffffffffffffffffffffffffffffff1673ffffffffffffffffffffffffffffffffffffffff1673ffffffffffffffffffffffffffffffffffffffff1681526020016004820154815260200160058201548152602001600682015481526020016007820160009054906101000a900460ff16151515158152602001600882015481526020016009820154815250509050600060058260a00151815481106129d2577f4e487b7100000000000000000000000000000000000000000000000000000000600052603260045260246000fd5b90600052602060002090600b020190506000826040015114158015612a285750600073ffffffffffffffffffffffffffffffffffffffff16826060015173ffffffffffffffffffffffffffffffffffffffff1614155b15612a3757612a368261498e565b5b60008260e00190151590811515815250508160068481548110612a83577f4e487b7100000000000000000000000000000000000000000000000000000000600052603260045260246000fd5b90600052602060002090600a020160008201518160000160006101000a81548173ffffffffffffffffffffffffffffffffffffffff021916908373ffffffffffffffffffffffffffffffffffffffff160217905550602082015181600101556040820151816002015560608201518160030160006101000a81548173ffffffffffffffffffffffffffffffffffffffff021916908373ffffffffffffffffffffffffffffffffffffffff1602179055506080820151816004015560a0820151816005015560c0820151816006015560e08201518160070160006101000a81548160ff02191690831515021790555061010082015181600801556101208201518160090155905050600081600a0160006101000a81548160ff021916908315150217905550612bc28260c00151826009015461494c90919063ffffffff16565b81600901819055508060058360a0015181548110612c09577f4e487b7100000000000000000000000000000000000000000000000000000000600052603260045260246000fd5b90600052602060002090600b02016000820160009054906101000a900473ffffffffffffffffffffffffffffffffffffffff168160000160006101000a81548173ffffffffffffffffffffffffffffffffffffffff021916908373ffffffffffffffffffffffffffffffffffffffff16021790555060018201548160010155600282015481600201556003820160009054906101000a900473ffffffffffffffffffffffffffffffffffffffff168160030160006101000a81548173ffffffffffffffffffffffffffffffffffffffff021916908373ffffffffffffffffffffffffffffffffffffffff160217905550600482015481600401556005820160009054906101000a900460ff168160050160006101000a81548160ff0219169083151502179055506005820160019054906101000a900460ff168160050160016101000a81548160ff02191690831515021790555060068201548160060155600782015481600701556008820154816008015560098201548160090155600a820160009054906101000a900460ff1681600a0160006101000a81548160ff02191690831515021790555090505050506001808190555050565b60026001541415612e07576040517f08c379a0000000000000000000000000000000000000000000000000000000008152600401612dfe90615718565b60405180910390fd5b600260018190555060003390506000349050600060058581548110612e55577f4e487b7100000000000000000000000000000000000000000000000000000000600052603260045260246000fd5b90600052602060002090600b0201604051806101800160405290816000820160009054906101000a900473ffffffffffffffffffffffffffffffffffffffff1673ffffffffffffffffffffffffffffffffffffffff1673ffffffffffffffffffffffffffffffffffffffff16815260200160018201548152602001600282015481526020016003820160009054906101000a900473ffffffffffffffffffffffffffffffffffffffff1673ffffffffffffffffffffffffffffffffffffffff1673ffffffffffffffffffffffffffffffffffffffff168152602001600482015481526020016005820160009054906101000a900460ff161515151581526020016005820160019054906101000a900460ff1615151515815260200160068201548152602001600782015481526020016008820154815260200160098201548152602001600a820160009054906101000a900460ff1615151515815250509050600115158160a00151151514612fff576040517f08c379a0000000000000000000000000000000000000000000000000000000008152600401612ff6906155f8565b60405180910390fd5b838161014001511015613047576040517f08c379a000000000000000000000000000000000000000000000000000000000815260040161303e90615698565b60405180910390fd5b600081608001519050613063858261496290919063ffffffff16565b8310156130a5576040517f08c379a000000000000000000000000000000000000000000000000000000000815260040161309c90615438565b60405180910390fd5b600082600001519050858173ffffffffffffffffffffffffffffffffffffffff1662fdd58e856060015186602001516040518363ffffffff1660e01b81526004016130f1929190615207565b60206040518083038186803b15801561310957600080fd5b505afa15801561311d573d6000803e3d6000fd5b505050506040513d601f19601f820116820180604052508101906131419190614c62565b1015613182576040517f08c379a0000000000000000000000000000000000000000000000000000000008152600401613179906156d8565b60405180910390fd5b8073ffffffffffffffffffffffffffffffffffffffff1663e985e9c58460600151306040518363ffffffff1660e01b81526004016131c192919061512e565b60206040518083038186803b1580156131d957600080fd5b505afa1580156131ed573d6000803e3d6000fd5b505050506040513d601f19601f820116820180604052508101906132119190614c10565b613250576040517f08c379a0000000000000000000000000000000000000000000000000000000008152600401613247906156f8565b60405180910390fd5b7f35538759d80c1fd7bb450a0d05601db5a99fa8b5d073a07c847a9fd61029b1078786604051613281929190615753565b60405180910390a18073ffffffffffffffffffffffffffffffffffffffff1663f242432a84606001513386602001518a6040518563ffffffff1660e01b81526004016132d094939291906151af565b600060405180830381600087803b1580156132ea57600080fd5b505af11580156132fe573d6000803e3d6000fd5b5050505060008173ffffffffffffffffffffffffffffffffffffffff1663d48e638a85602001516040518263ffffffff1660e01b81526004016133419190615738565b60206040518083038186803b15801561335957600080fd5b505afa15801561336d573d6000803e3d6000fd5b505050506040513d601f19601f820116820180604052508101906133919190614b21565b90506000612710600254876133a691906158ff565b6133b091906158ce565b90506000856060015173ffffffffffffffffffffffffffffffffffffffff168373ffffffffffffffffffffffffffffffffffffffff1614613540576127108473ffffffffffffffffffffffffffffffffffffffff1663bb3bafd688602001516040518263ffffffff1660e01b815260040161342b9190615738565b60206040518083038186803b15801561344357600080fd5b505afa158015613457573d6000803e3d6000fd5b505050506040513d601f19601f8201168201806040525081019061347b9190614c62565b8861348691906158ff565b61349091906158ce565b905060008373ffffffffffffffffffffffffffffffffffffffff16826040516134b8906150fe565b60006040518083038185875af1925050503d80600081146134f5576040519150601f19603f3d011682016040523d82523d6000602084013e6134fa565b606091505b505090508061353e576040517f08c379a0000000000000000000000000000000000000000000000000000000008152600401613535906156b8565b60405180910390fd5b505b600081838961354f9190615959565b6135599190615959565b90506000876060015173ffffffffffffffffffffffffffffffffffffffff1682604051613585906150fe565b60006040518083038185875af1925050503d80600081146135c2576040519150601f19603f3d011682016040523d82523d6000602084013e6135c7565b606091505b505090508061360b576040517f08c379a0000000000000000000000000000000000000000000000000000000008152600401613602906156b8565b60405180910390fd5b7f9a37aa02cc986a4a0c2d22af3dcdb9db27c178f7feed43e7037c783b55ed91ba8860600151838686613641878f600254614a46565b604051613652959493929190615230565b60405180910390a1836003600082825461366c9190615878565b925050819055506136888960045461494c90919063ffffffff16565b6004819055506136a68b89610140015161497890919063ffffffff16565b88610140018181525050600088610140015114156136e15760008860c001901515908115158152505060008860a00190151590811515815250505b8760058d8154811061371c577f4e487b7100000000000000000000000000000000000000000000000000000000600052603260045260246000fd5b90600052602060002090600b020160008201518160000160006101000a81548173ffffffffffffffffffffffffffffffffffffffff021916908373ffffffffffffffffffffffffffffffffffffffff160217905550602082015181600101556040820151816002015560608201518160030160006101000a81548173ffffffffffffffffffffffffffffffffffffffff021916908373ffffffffffffffffffffffffffffffffffffffff1602179055506080820151816004015560a08201518160050160006101000a81548160ff02191690831515021790555060c08201518160050160016101000a81548160ff02191690831515021790555060e0820151816006015561010082015181600701556101208201518160080155610140820151816009015561016082015181600a0160006101000a81548160ff02191690831515021790555090505050505050505050505050600180819055505050565b60025481565b60006002808111156138bb577f4e487b7100000000000000000000000000000000000000000000000000000000600052602160045260246000fd5b6138c4836116ef565b60028111156138fc577f4e487b7100000000000000000000000000000000000000000000000000000000600052602160045260246000fd5b149050919050565b61390c613c57565b73ffffffffffffffffffffffffffffffffffffffff1661392a611cd4565b73ffffffffffffffffffffffffffffffffffffffff1614613980576040517f08c379a0000000000000000000000000000000000000000000000000000000008152600401613977906155b8565b60405180910390fd5b600073ffffffffffffffffffffffffffffffffffffffff168173ffffffffffffffffffffffffffffffffffffffff1614156139f0576040517f08c379a00000000000000000000000000000000000000000000000000000000081526004016139e790615498565b60405180910390fd5b8073ffffffffffffffffffffffffffffffffffffffff1660008054906101000a900473ffffffffffffffffffffffffffffffffffffffff1673ffffffffffffffffffffffffffffffffffffffff167f8be0079c531659141344cd1fd0a4f28419497f9722a3daafe3b4186f6b6457e060405160405180910390a3806000806101000a81548173ffffffffffffffffffffffffffffffffffffffff021916908373ffffffffffffffffffffffffffffffffffffffff16021790555050565b60008060058381548110613aea577f4e487b7100000000000000000000000000000000000000000000000000000000600052603260045260246000fd5b90600052602060002090600b0201604051806101800160405290816000820160009054906101000a900473ffffffffffffffffffffffffffffffffffffffff1673ffffffffffffffffffffffffffffffffffffffff1673ffffffffffffffffffffffffffffffffffffffff16815260200160018201548152602001600282015481526020016003820160009054906101000a900473ffffffffffffffffffffffffffffffffffffffff1673ffffffffffffffffffffffffffffffffffffffff1673ffffffffffffffffffffffffffffffffffffffff168152602001600482015481526020016005820160009054906101000a900460ff161515151581526020016005820160019054906101000a900460ff1615151515815260200160068201548152602001600782015481526020016008820154815260200160098201548152602001600a820160009054906101000a900460ff1615151515815250509050806101600151915050919050565b600033905090565b600060068281548110613c9b577f4e487b7100000000000000000000000000000000000000000000000000000000600052603260045260246000fd5b90600052602060002090600a0201604051806101400160405290816000820160009054906101000a900473ffffffffffffffffffffffffffffffffffffffff1673ffffffffffffffffffffffffffffffffffffffff1673ffffffffffffffffffffffffffffffffffffffff16815260200160018201548152602001600282015481526020016003820160009054906101000a900473ffffffffffffffffffffffffffffffffffffffff1673ffffffffffffffffffffffffffffffffffffffff1673ffffffffffffffffffffffffffffffffffffffff1681526020016004820154815260200160058201548152602001600682015481526020016007820160009054906101000a900460ff16151515158152602001600882015481526020016009820154815250509050600060058260a0015181548110613e04577f4e487b7100000000000000000000000000000000000000000000000000000000600052603260045260246000fd5b90600052602060002090600b0201604051806101800160405290816000820160009054906101000a900473ffffffffffffffffffffffffffffffffffffffff1673ffffffffffffffffffffffffffffffffffffffff1673ffffffffffffffffffffffffffffffffffffffff16815260200160018201548152602001600282015481526020016003820160009054906101000a900473ffffffffffffffffffffffffffffffffffffffff1673ffffffffffffffffffffffffffffffffffffffff1673ffffffffffffffffffffffffffffffffffffffff168152602001600482015481526020016005820160009054906101000a900460ff161515151581526020016005820160019054906101000a900460ff1615151515815260200160068201548152602001600782015481526020016008820154815260200160098201548152602001600a820160009054906101000a900460ff1615151515815250509050600115158260e00151151514613fae576040517f08c379a0000000000000000000000000000000000000000000000000000000008152600401613fa590615538565b60405180910390fd5b613fb783613880565b613ff6576040517f08c379a0000000000000000000000000000000000000000000000000000000008152600401613fed906155d8565b60405180910390fd5b600115158160c00151151514614041576040517f08c379a000000000000000000000000000000000000000000000000000000000815260040161403890615578565b60405180910390fd5b60008160000151905081604001518173ffffffffffffffffffffffffffffffffffffffff1662fdd58e846060015185602001516040518363ffffffff1660e01b8152600401614091929190615207565b60206040518083038186803b1580156140a957600080fd5b505afa1580156140bd573d6000803e3d6000fd5b505050506040513d601f19601f820116820180604052508101906140e19190614c62565b1015614122576040517f08c379a0000000000000000000000000000000000000000000000000000000008152600401614119906156d8565b60405180910390fd5b8073ffffffffffffffffffffffffffffffffffffffff1663e985e9c58360600151306040518363ffffffff1660e01b815260040161416192919061512e565b60206040518083038186803b15801561417957600080fd5b505afa15801561418d573d6000803e3d6000fd5b505050506040513d601f19601f820116820180604052508101906141b19190614c10565b6141f0576040517f08c379a00000000000000000000000000000000000000000000000000000000081526004016141e7906156f8565b60405180910390fd5b7f35538759d80c1fd7bb450a0d05601db5a99fa8b5d073a07c847a9fd61029b1078360a00151846060015160405161422992919061577c565b60405180910390a18073ffffffffffffffffffffffffffffffffffffffff1663f242432a8360600151856060015185602001518760c001516040518563ffffffff1660e01b81526004016142809493929190615157565b600060405180830381600087803b15801561429a57600080fd5b505af11580156142ae573d6000803e3d6000fd5b5050505060008173ffffffffffffffffffffffffffffffffffffffff1663d48e638a84602001516040518263ffffffff1660e01b81526004016142f19190615738565b60206040518083038186803b15801561430957600080fd5b505afa15801561431d573d6000803e3d6000fd5b505050506040513d601f19601f820116820180604052508101906143419190614b21565b90506000612710600254866040015161435a91906158ff565b61436491906158ce565b90506000846060015173ffffffffffffffffffffffffffffffffffffffff168373ffffffffffffffffffffffffffffffffffffffff16146144f8576127108473ffffffffffffffffffffffffffffffffffffffff1663bb3bafd687602001516040518263ffffffff1660e01b81526004016143df9190615738565b60206040518083038186803b1580156143f757600080fd5b505afa15801561440b573d6000803e3d6000fd5b505050506040513d601f19601f8201168201806040525081019061442f9190614c62565b876040015161443e91906158ff565b61444891906158ce565b905060008373ffffffffffffffffffffffffffffffffffffffff1682604051614470906150fe565b60006040518083038185875af1925050503d80600081146144ad576040519150601f19603f3d011682016040523d82523d6000602084013e6144b2565b606091505b50509050806144f6576040517f08c379a00000000000000000000000000000000000000000000000000000000081526004016144ed906156b8565b60405180910390fd5b505b60008183886040015161450b9190615959565b6145159190615959565b90506000866060015173ffffffffffffffffffffffffffffffffffffffff1682604051614541906150fe565b60006040518083038185875af1925050503d806000811461457e576040519150601f19603f3d011682016040523d82523d6000602084013e614583565b606091505b50509050806145c7576040517f08c379a00000000000000000000000000000000000000000000000000000000081526004016145be906156b8565b60405180910390fd5b7f9a37aa02cc986a4a0c2d22af3dcdb9db27c178f7feed43e7037c783b55ed91ba8760600151838686614601878e60400151600254614a46565b604051614612959493929190615230565b60405180910390a161462f8460035461494c90919063ffffffff16565b60038190555061464e886040015160045461494c90919063ffffffff16565b60048190555060008860e00190151590811515815250508760068a815481106146a0577f4e487b7100000000000000000000000000000000000000000000000000000000600052603260045260246000fd5b90600052602060002090600a020160008201518160000160006101000a81548173ffffffffffffffffffffffffffffffffffffffff021916908373ffffffffffffffffffffffffffffffffffffffff160217905550602082015181600101556040820151816002015560608201518160030160006101000a81548173ffffffffffffffffffffffffffffffffffffffff021916908373ffffffffffffffffffffffffffffffffffffffff1602179055506080820151816004015560a0820151816005015560c0820151816006015560e08201518160070160006101000a81548160ff021916908315150217905550610100820151816008015561012082015181600901559050506000876101600190151590811515815250508660058960a00151815481106147f8577f4e487b7100000000000000000000000000000000000000000000000000000000600052603260045260246000fd5b90600052602060002090600b020160008201518160000160006101000a81548173ffffffffffffffffffffffffffffffffffffffff021916908373ffffffffffffffffffffffffffffffffffffffff160217905550602082015181600101556040820151816002015560608201518160030160006101000a81548173ffffffffffffffffffffffffffffffffffffffff021916908373ffffffffffffffffffffffffffffffffffffffff1602179055506080820151816004015560a08201518160050160006101000a81548160ff02191690831515021790555060c08201518160050160016101000a81548160ff02191690831515021790555060e0820151816006015561010082015181600701556101208201518160080155610140820151816009015561016082015181600a0160006101000a81548160ff021916908315150217905550905050505050505050505050565b6000818361495a9190615878565b905092915050565b6000818361497091906158ff565b905092915050565b600081836149869190615959565b905092915050565b6000816060015173ffffffffffffffffffffffffffffffffffffffff1682604001516040516149bc906150fe565b60006040518083038185875af1925050503d80600081146149f9576040519150601f19603f3d011682016040523d82523d6000602084013e6149fe565b606091505b5050905080614a42576040517f08c379a0000000000000000000000000000000000000000000000000000000008152600401614a39906156b8565b60405180910390fd5b5050565b6000806127108385614a5891906158ff565b614a6291906158ce565b85614a6d9190615878565b9050809150509392505050565b600081359050614a8981615f0a565b92915050565b600081519050614a9e81615f0a565b92915050565b600081359050614ab381615f21565b92915050565b600081519050614ac881615f21565b92915050565b600081359050614add81615f38565b92915050565b600081519050614af281615f38565b92915050565b600060208284031215614b0a57600080fd5b6000614b1884828501614a7a565b91505092915050565b600060208284031215614b3357600080fd5b6000614b4184828501614a8f565b91505092915050565b60008060008060008060008060006101208a8c031215614b6957600080fd5b6000614b778c828d01614a7a565b9950506020614b888c828d01614ace565b9850506040614b998c828d01614ace565b9750506060614baa8c828d01614aa4565b9650506080614bbb8c828d01614aa4565b95505060a0614bcc8c828d01614ace565b94505060c0614bdd8c828d01614ace565b93505060e0614bee8c828d01614ace565b925050610100614c008c828d01614ace565b9150509295985092959850929598565b600060208284031215614c2257600080fd5b6000614c3084828501614ab9565b91505092915050565b600060208284031215614c4b57600080fd5b6000614c5984828501614ace565b91505092915050565b600060208284031215614c7457600080fd5b6000614c8284828501614ae3565b91505092915050565b600080600060608486031215614ca057600080fd5b6000614cae86828701614ace565b9350506020614cbf86828701614aa4565b9250506040614cd086828701614aa4565b9150509250925092565b60008060408385031215614ced57600080fd5b6000614cfb85828601614ace565b9250506020614d0c85828601614ace565b9150509250929050565b614d1f816159fa565b82525050565b614d2e8161599f565b82525050565b614d3d8161598d565b82525050565b614d4c816159b1565b82525050565b614d5b81615a0c565b82525050565b6000614d6e601383615867565b9150614d7982615acf565b602082019050919050565b6000614d91601883615867565b9150614d9c82615af8565b602082019050919050565b6000614db4601383615867565b9150614dbf82615b21565b602082019050919050565b6000614dd7602683615867565b9150614de282615b4a565b604082019050919050565b6000614dfa600d83615867565b9150614e0582615b99565b602082019050919050565b6000614e1d601283615867565b9150614e2882615bc2565b602082019050919050565b6000614e40603783615867565b9150614e4b82615beb565b604082019050919050565b6000614e63601583615867565b9150614e6e82615c3a565b602082019050919050565b6000614e86601283615867565b9150614e9182615c63565b602082019050919050565b6000614ea9601183615867565b9150614eb482615c8c565b602082019050919050565b6000614ecc601583615867565b9150614ed782615cb5565b602082019050919050565b6000614eef600783615867565b9150614efa82615cde565b602082019050919050565b6000614f12602083615867565b9150614f1d82615d07565b602082019050919050565b6000614f35601b83615867565b9150614f4082615d30565b602082019050919050565b6000614f58601683615867565b9150614f6382615d59565b602082019050919050565b6000614f7b600783615867565b9150614f8682615d82565b602082019050919050565b6000614f9e601683615867565b9150614fa982615dab565b602082019050919050565b6000614fc1601383615867565b9150614fcc82615dd4565b602082019050919050565b6000614fe4600e83615867565b9150614fef82615dfd565b602082019050919050565b6000615007601b83615867565b915061501282615e26565b602082019050919050565b600061502a60008361584b565b915061503582615e4f565b600082019050919050565b600061504d60008361585c565b915061505882615e4f565b600082019050919050565b6000615070601083615867565b915061507b82615e52565b602082019050919050565b6000615093602083615867565b915061509e82615e7b565b602082019050919050565b60006150b6601083615867565b91506150c182615ea4565b602082019050919050565b60006150d9601f83615867565b91506150e482615ecd565b602082019050919050565b6150f8816159f0565b82525050565b600061510982615040565b9150819050919050565b60006020820190506151286000830184614d34565b92915050565b60006040820190506151436000830185614d16565b6151506020830184614d34565b9392505050565b600060a08201905061516c6000830187614d16565b6151796020830186614d16565b61518660408301856150ef565b61519360608301846150ef565b81810360808301526151a48161501d565b905095945050505050565b600060a0820190506151c46000830187614d16565b6151d16020830186614d34565b6151de60408301856150ef565b6151eb60608301846150ef565b81810360808301526151fc8161501d565b905095945050505050565b600060408201905061521c6000830185614d16565b61522960208301846150ef565b9392505050565b600060a0820190506152456000830188614d16565b61525260208301876150ef565b61525f60408301866150ef565b61526c60608301856150ef565b61527960808301846150ef565b9695505050505050565b60006040820190506152986000830185614d34565b6152a560208301846150ef565b9392505050565b6000610180820190506152c2600083018f614d34565b6152cf602083018e6150ef565b6152dc604083018d6150ef565b6152e9606083018c614d25565b6152f6608083018b6150ef565b61530360a083018a614d43565b61531060c0830189614d43565b61531d60e08301886150ef565b61532b6101008301876150ef565b6153396101208301866150ef565b6153476101408301856150ef565b615355610160830184614d43565b9d9c50505050505050505050505050565b60006101408201905061537c600083018d614d34565b615389602083018c6150ef565b615396604083018b6150ef565b6153a3606083018a614d25565b6153b060808301896150ef565b6153bd60a08301886150ef565b6153ca60c08301876150ef565b6153d760e0830186614d43565b6153e56101008301856150ef565b6153f36101208301846150ef565b9b9a5050505050505050505050565b60006020820190506154176000830184614d43565b92915050565b60006020820190506154326000830184614d52565b92915050565b6000602082019050818103600083015261545181614d61565b9050919050565b6000602082019050818103600083015261547181614d84565b9050919050565b6000602082019050818103600083015261549181614da7565b9050919050565b600060208201905081810360008301526154b181614dca565b9050919050565b600060208201905081810360008301526154d181614ded565b9050919050565b600060208201905081810360008301526154f181614e10565b9050919050565b6000602082019050818103600083015261551181614e33565b9050919050565b6000602082019050818103600083015261553181614e56565b9050919050565b6000602082019050818103600083015261555181614e79565b9050919050565b6000602082019050818103600083015261557181614e9c565b9050919050565b6000602082019050818103600083015261559181614ebf565b9050919050565b600060208201905081810360008301526155b181614ee2565b9050919050565b600060208201905081810360008301526155d181614f05565b9050919050565b600060208201905081810360008301526155f181614f28565b9050919050565b6000602082019050818103600083015261561181614f4b565b9050919050565b6000602082019050818103600083015261563181614f6e565b9050919050565b6000602082019050818103600083015261565181614f91565b9050919050565b6000602082019050818103600083015261567181614fb4565b9050919050565b6000602082019050818103600083015261569181614fd7565b9050919050565b600060208201905081810360008301526156b181614ffa565b9050919050565b600060208201905081810360008301526156d181615063565b9050919050565b600060208201905081810360008301526156f181615086565b9050919050565b60006020820190508181036000830152615711816150a9565b9050919050565b60006020820190508181036000830152615731816150cc565b9050919050565b600060208201905061574d60008301846150ef565b92915050565b600060408201905061576860008301856150ef565b6157756020830184614d34565b9392505050565b600060408201905061579160008301856150ef565b61579e6020830184614d16565b9392505050565b600060a0820190506157ba60008301886150ef565b6157c76020830187614d34565b6157d460408301866150ef565b6157e160608301856150ef565b6157ee60808301846150ef565b9695505050505050565b600060a08201905061580d60008301886150ef565b61581a60208301876150ef565b61582760408301866150ef565b61583460608301856150ef565b6158416080830184614d43565b9695505050505050565b600082825260208201905092915050565b600081905092915050565b600082825260208201905092915050565b6000615883826159f0565b915061588e836159f0565b9250827fffffffffffffffffffffffffffffffffffffffffffffffffffffffffffffffff038211156158c3576158c2615a42565b5b828201905092915050565b60006158d9826159f0565b91506158e4836159f0565b9250826158f4576158f3615a71565b5b828204905092915050565b600061590a826159f0565b9150615915836159f0565b9250817fffffffffffffffffffffffffffffffffffffffffffffffffffffffffffffffff048311821515161561594e5761594d615a42565b5b828202905092915050565b6000615964826159f0565b915061596f836159f0565b92508282101561598257615981615a42565b5b828203905092915050565b6000615998826159d0565b9050919050565b60006159aa826159d0565b9050919050565b60008115159050919050565b60008190506159cb82615ef6565b919050565b600073ffffffffffffffffffffffffffffffffffffffff82169050919050565b6000819050919050565b6000615a0582615a1e565b9050919050565b6000615a17826159bd565b9050919050565b6000615a2982615a30565b9050919050565b6000615a3b826159d0565b9050919050565b7f4e487b7100000000000000000000000000000000000000000000000000000000600052601160045260246000fd5b7f4e487b7100000000000000000000000000000000000000000000000000000000600052601260045260246000fd5b7f4e487b7100000000000000000000000000000000000000000000000000000000600052602160045260246000fd5b7f5072696365206973206e6f7420656e6f75676800000000000000000000000000600082015250565b7f41756374696f6e206e6f742066696e6973686564207965740000000000000000600082015250565b7f41756374696f6e2069732066696e697368656400000000000000000000000000600082015250565b7f4f776e61626c653a206e6577206f776e657220697320746865207a65726f206160008201527f6464726573730000000000000000000000000000000000000000000000000000602082015250565b7f42696473206578697374696e6700000000000000000000000000000000000000600082015250565b7f6e6f74206163746976652061756374696f6e0000000000000000000000000000600082015250565b7f596f752061726520747279696e6720746f2073616c65206d6f7265206e66747360008201527f207468617420746865206f6e657320796f752068617665000000000000000000602082015250565b7f596f7520617265206e6f7420746865206f776e65720000000000000000000000600082015250565b7f41756374696f6e206e6f74206163746976650000000000000000000000000000600082015250565b7f41756374696f6e2068617320656e646564000000000000000000000000000000600082015250565b7f41756374696f6e206973206e6f74206163746976650000000000000000000000600082015250565b7f4572726f72203100000000000000000000000000000000000000000000000000600082015250565b7f4f776e61626c653a2063616c6c6572206973206e6f7420746865206f776e6572600082015250565b7f5468652061756374696f6e206973207374696c6c206163746976650000000000600082015250565b7f4e4654206e6f7420696e206469726563742073616c6500000000000000000000600082015250565b7f4572726f72203200000000000000000000000000000000000000000000000000600082015250565b7f41756374696f6e206973206e6f7420656e61626c656400000000000000000000600082015250565b7f436f6d6d697373696f6e20746f6f206869676800000000000000000000000000600082015250565b7f4e6f7420696e2061756374696f6e000000000000000000000000000000000000600082015250565b7f4e6f7420656e6f75676820636f7069657320617661696c61626c650000000000600082015250565b50565b7f5472616e73666572206661696c65642e00000000000000000000000000000000600082015250565b7f4f776e657220646964206e6f74206861766520656e6f75676820746f6b656e73600082015250565b7f4e4654206e6f7420617070726f76656400000000000000000000000000000000600082015250565b7f5265656e7472616e637947756172643a207265656e7472616e742063616c6c00600082015250565b60038110615f0757615f06615aa0565b5b50565b615f138161598d565b8114615f1e57600080fd5b50565b615f2a816159b1565b8114615f3557600080fd5b50565b615f41816159f0565b8114615f4c57600080fd5b5056fea264697066735822122025498074a5cc341ccfd1d110c998c437115e95a508f1dc0d7d46f25de92a8f4a64736f6c63430008040033",
  "immutableReferences": {},
  "source": "// SPDX-License-Identifier: UNLICENSED\npragma solidity ^0.8.4;\n\nimport \"@openzeppelin/contracts/token/ERC1155/ERC1155.sol\";\nimport \"@openzeppelin/contracts/access/Ownable.sol\";\nimport \"./Base1155.sol\";\nimport \"@openzeppelin/contracts/utils/math/SafeMath.sol\";\nimport \"@openzeppelin/contracts/security/ReentrancyGuard.sol\";\n\ncontract Engine is Ownable, ReentrancyGuard {\n    using SafeMath for uint256;\n\n    event OfferCreated(uint256 _index, uint256 _tokenId, uint256 numCopies, uint256 amount, bool isSale);\n    event AuctionBid(uint256 _index, address _bidder, uint256 _price, uint256 _numCopies, uint256 _tokenId);\n    event Claim(uint256 auctionIndex, address claimer);\n //   event ReturnBidFunds(uint256 _index, address _bidder, uint256 amount);\n\n //   event Royalties(address receiver, uint256 amount);\n    event PaymentToOwner(\n        address receiver,\n        uint256 amount,\n        uint256 commission,\n        uint256 royalties,\n        uint256 safetyCheckValue\n    );\n\n    uint256 public commission = 0; // this is the commission that will charge the marketplace by default.\n    uint256 public accumulatedCommission = 0;\n\n    uint256 public totalSales = 0;\n\n    enum Status {\n        pending,\n        active,\n        finished\n    }\n    struct Offer {\n        address tokenAddress; // address of the token\n        uint256 tokenId; // the tokenId returned when calling \"createItem\"\n        uint256 amount; // amount of tokens on sale on this offer\n        address payable creator; // who creates the offer\n        uint256 price; // price of each token\n        bool isOnSale; // is on sale or not\n        bool isAuction; // is this offer is for an auction\n        uint256 startTime; // when the auction starts\n        uint256 duration; // duration in seconds of the auction\n        uint256 minimumBidAmount;\n        uint256 availableCopies;\n        bool hasBids;\n    }\n    Offer[] public offers;\n\n    struct Auction {\n        address tokenAddress; // address of the token\n        uint256 tokenId; // the tokenId returned when calling \"createItem\"\n        uint256 currentBidAmount; // current amount paid by the best bidder\n        address payable currentBidOwner; // address of the best bidder\n        uint256 bidCount; // counter of the bids of the auction\n        uint256 offerId;\n        uint256 numCopies;\n        bool active;\n        uint256 startTime; // when the auction starts\n        uint256 duration; // duration in seconds of the auction\n    }\n    Auction[] public auctions;\n\n    function createAuctionAndBid(uint256 _offerId, uint256 _numCopies)\n        public\n        payable\n        returns (uint256)\n    {\n        Offer memory offer = offers[_offerId];\n        require(offer.isAuction == true, \"Not in auction\");\n        //   require(isActive(_offerId), \"Auction has ended\");\n        require(offer.hasBids == false, \"not active auction\");\n        require(offer.creator != address(0));\n        require(\n            offer.availableCopies >= _numCopies,\n            \"Not enough copies available\"\n        );\n        require(\n            msg.value >= offer.minimumBidAmount.mul(_numCopies),\n            \"Price is not enough\"\n        );\n\n        Auction memory auction = Auction({\n            tokenAddress: offer.tokenAddress,\n            tokenId: offer.tokenId,\n            numCopies: _numCopies,\n            currentBidOwner: payable(msg.sender),\n            currentBidAmount: msg.value,\n            bidCount: 1,\n            offerId: _offerId,\n            active: true,\n            startTime: block.timestamp,\n            duration: offer.duration\n        });\n\n        auctions.push(auction);\n        uint256 auctionId = auctions.length - 1;\n\n        // Update offer with new available amount\n        if (offer.hasBids == false) offer.hasBids = true;\n        offer.availableCopies = offer.availableCopies.sub(_numCopies);\n        offers[_offerId] = offer;\n\n        emit AuctionBid(auctionId, msg.sender, msg.value, _numCopies, offer.tokenId);\n        return auctionId;\n    }\n\n    function bid(uint256 _auctionId, uint256 _numCopies) public payable {\n        Auction memory auction = auctions[_auctionId];\n        Offer memory offer = offers[auction.offerId];\n        require(offer.isAuction, \"Auction is not enabled\");\n        require(auction.active, \"Auction is not active\");\n        require(isActive(_auctionId), \"Auction has ended\");\n        require(offer.creator != address(0));\n        require(msg.value > auction.currentBidAmount, \"Price is not enough\");\n        require(\n            msg.value >= offer.minimumBidAmount.mul(_numCopies),\n            \"Price is not enough\"\n        );\n        require(_numCopies >= auction.numCopies, \"Error 1\");\n        require(\n            offer.availableCopies.add(auction.numCopies).sub(_numCopies) >= 0,\n            \"Error 2\"\n        );\n\n        // return funds to the previuos bidder\n        returnFundsToPreviousOwner(auction);\n\n        offer.availableCopies = offer\n            .availableCopies\n            .add(auction.numCopies)\n            .sub(_numCopies);\n        offers[auction.offerId] = offer;\n\n        auction.currentBidAmount = msg.value;\n        auction.currentBidOwner = payable(msg.sender);\n        auction.bidCount = auction.bidCount.add(1);\n        auction.numCopies = _numCopies;\n        auctions[_auctionId] = auction;\n    }\n\n    function closeAuctionAndTransfer(uint256 _auctionId) internal {\n        Auction memory auction = auctions[_auctionId];\n        Offer memory offer = offers[auction.offerId];\n\n        require(auction.active == true, \"Auction not active\");\n        require(isFinished(_auctionId), \"The auction is still active\");\n        require(offer.isAuction == true, \"Auction is not active\");\n\n        Base1155 asset = Base1155(offer.tokenAddress);\n\n        require(\n            asset.balanceOf(offer.creator, offer.tokenId) >= offer.amount,\n            \"Owner did not have enough tokens\"\n        );\n        require(\n            asset.isApprovedForAll(offer.creator, address(this)),\n            \"NFT not approved\"\n        );\n\n        emit Claim(auction.offerId, auction.currentBidOwner);\n\n        asset.safeTransferFrom(\n            offer.creator,\n            auction.currentBidOwner,\n            offer.tokenId,\n            auction.numCopies,\n            \"\"\n        );\n\n        // now, pay the amount - commission - royalties to the auction creator\n        address payable creatorNFT = payable(\n            // getCreator(offer.assetAddress, _offerId)\n            asset.getCreator(offer.tokenId)\n        );\n\n        uint256 commissionToPay = (auction.currentBidAmount * commission) /\n            10000;\n        uint256 royaltiesToPay = 0;\n        if (creatorNFT != offer.creator) {\n            // It is a resale. Transfer royalties\n            royaltiesToPay =\n                (auction.currentBidAmount * asset.getRoyalties(offer.tokenId)) /\n                10000;\n            (bool success, ) = creatorNFT.call{value: royaltiesToPay}(\"\");\n            require(success, \"Transfer failed.\");\n\n           // emit Royalties(creatorNFT, royaltiesToPay);\n        }\n        uint256 amountToPay = auction.currentBidAmount -\n            commissionToPay -\n            royaltiesToPay;\n\n        (bool success2, ) = offer.creator.call{value: amountToPay}(\"\");\n        require(success2, \"Transfer failed.\");\n        emit PaymentToOwner(\n            offer.creator,\n            amountToPay,\n            commissionToPay,\n            royaltiesToPay,\n            calcSafetyCheckValue(\n                amountToPay,\n                auction.currentBidAmount,\n                commission\n            )\n        );\n\n        accumulatedCommission = accumulatedCommission.add(commissionToPay);\n        totalSales = totalSales.add(auction.currentBidAmount);\n\n        auction.active = false;\n        auctions[_auctionId] = auction;\n\n        offer.hasBids = false;\n        offers[auction.offerId] = offer;\n    }\n\n    function closeAuction(uint256 _auctionId) public onlyOwner {\n        closeAuctionAndTransfer(_auctionId);\n    }\n\n    // Creates an offer that could be direct sale and/or auction for a certain amount of a token\n    function createOffer(\n        address _tokenAddress,\n        uint256 _tokenId, // tokenId\n        uint256 _amount, // amount of tokens on sale\n        bool _isDirectSale, // true if can be bought on a direct sale\n        bool _isAuction, // true if can be bought in an auction\n        uint256 _price, // price that if paid in a direct sale, transfers the NFT\n        uint256 _startPrice, // minimum price on the auction\n        uint256 _startTime, // time when the auction will start. Check the format with frontend\n        uint256 _duration // duration in seconds of the auction\n    ) public returns (uint256) {\n        Base1155 asset = Base1155(_tokenAddress);\n        require(\n            asset.balanceOf(msg.sender, _tokenId) >= _amount,\n            \"You are trying to sale more nfts that the ones you have\"\n        );\n\n        Offer memory offer = Offer({\n            tokenAddress: _tokenAddress,\n            tokenId: _tokenId,\n            amount: _amount,\n            creator: payable(msg.sender),\n            price: _price,\n            isOnSale: _isDirectSale,\n            isAuction: _isAuction,\n            startTime: _startTime,\n            duration: _duration,\n            minimumBidAmount: _startPrice,\n            hasBids: false,\n            availableCopies: _amount // at the beginning all the copies are available, as nothing has been sold\n        });\n        offers.push(offer);\n        uint256 index = offers.length - 1;\n\n        emit OfferCreated(index, _tokenId, _amount, _price, _isDirectSale);\n        return index;\n    }\n\n    function hasBids(uint256 _offerId) public view returns (bool) {\n        Offer memory offer = offers[_offerId];\n        return offer.hasBids;\n    }\n\n    function ahora() public view returns (uint256) {\n        return block.timestamp;\n    }\n\n    function removeFromAuctionOrSale(\n        uint256 _offerId,\n        bool _sale,\n        bool _auction\n    ) public {\n        Offer memory offer = offers[_offerId];\n        require(msg.sender == offer.creator, \"You are not the owner\");\n        require(offer.hasBids == false, \"Bids existing\");\n        offer.isAuction = _auction;\n        offer.isOnSale = _sale;\n        offers[_offerId] = offer;\n    }\n\n    // Changes the default commission. Only the owner of the marketplace can do that. In basic points\n    function setCommission(uint256 _commission) public onlyOwner {\n        require(_commission <= 5000, \"Commission too high\");\n        commission = _commission;\n    }\n\n    function calcSafetyCheckValue(\n        uint256 _amountToPay,\n        uint256 _paidPrice,\n        uint256 _commission\n    ) internal pure returns (uint256) {\n        uint256 result = _amountToPay + ((_paidPrice * _commission) / 10000);\n        return result;\n    }\n\n    function buy(uint256 _offerId, uint256 _amount)\n        external\n        payable\n        nonReentrant\n    {\n        address buyer = msg.sender;\n        uint256 paidPrice = msg.value;\n\n        Offer memory offer = offers[_offerId];\n        require(offer.isOnSale == true, \"NFT not in direct sale\");\n        require(\n            offer.availableCopies >= _amount,\n            \"Not enough copies available\"\n        );\n        uint256 price = offer.price;\n        require(paidPrice >= price.mul(_amount), \"Price is not enough\");\n\n        Base1155 asset = Base1155(offer.tokenAddress);\n        require(\n            asset.balanceOf(offer.creator, offer.tokenId) >= _amount,\n            \"Owner did not have enough tokens\"\n        );\n        require(\n            asset.isApprovedForAll(offer.creator, address(this)),\n            \"NFT not approved\"\n        );\n\n        emit Claim(_offerId, buyer);\n\n        asset.safeTransferFrom(\n            offer.creator,\n            msg.sender,\n            offer.tokenId,\n            _amount,\n            \"\"\n        );\n\n        // now, pay the amount - commission - royalties to the auction creator\n        address payable creatorNFT = payable(\n            // getCreator(offer.assetAddress, _offerId)\n            asset.getCreator(offer.tokenId)\n        );\n\n        uint256 commissionToPay = (paidPrice * commission) / 10000;\n        uint256 royaltiesToPay = 0;\n        if (creatorNFT != offer.creator) {\n            // It is a resale. Transfer royalties\n            royaltiesToPay =\n                (paidPrice * asset.getRoyalties(offer.tokenId)) / /*getRoyalties(offer.assetAddress, _offerId)*/\n                10000;\n            (bool success, ) = creatorNFT.call{value: royaltiesToPay}(\"\");\n            require(success, \"Transfer failed.\");\n\n        //    emit Royalties(creatorNFT, royaltiesToPay);\n        }\n        uint256 amountToPay = paidPrice - commissionToPay - royaltiesToPay;\n\n        (bool success2, ) = offer.creator.call{value: amountToPay}(\"\");\n        require(success2, \"Transfer failed.\");\n        emit PaymentToOwner(\n            offer.creator,\n            amountToPay,\n            commissionToPay,\n            royaltiesToPay,\n            calcSafetyCheckValue(amountToPay, paidPrice, commission)\n        );\n\n        accumulatedCommission += commissionToPay;\n        totalSales = totalSales.add(paidPrice);\n\n        offer.availableCopies = offer.availableCopies.sub(_amount);\n\n        if (offer.availableCopies == 0) {\n            offer.isAuction = false;\n            offer.isOnSale = false;\n        }\n\n        offers[_offerId] = offer;\n    }\n\n    function isActive(uint256 _auctionId) public view returns (bool) {\n        return getStatus(_auctionId) == Status.active;\n    }\n\n    function isFinished(uint256 _auctionId) public view returns (bool) {\n        return getStatus(_auctionId) == Status.finished;\n    }\n\n    function getStatus(uint256 _auctionId) public view returns (Status) {\n        Auction storage auction = auctions[_auctionId];\n        if (block.timestamp < auction.startTime) {\n            return Status.pending;\n        } else if (block.timestamp < auction.startTime.add(auction.duration)) {\n            return Status.active;\n        } else {\n            return Status.finished;\n        }\n    }\n\n    function endDate(uint256 _auctionId) public view returns (uint256) {\n        Auction storage auction = auctions[_auctionId];\n        return auction.startTime.add(auction.duration);\n    }\n\n    function getCurrentBidOwner(uint256 _auctionId)\n        public\n        view\n        returns (address)\n    {\n        return auctions[_auctionId].currentBidOwner;\n    }\n\n    function getCurrentBidAmount(uint256 _auctionId)\n        public\n        view\n        returns (uint256)\n    {\n        return auctions[_auctionId].currentBidAmount;\n    }\n\n    function getBidCount(uint256 _auctionId) public view returns (uint256) {\n        return auctions[_auctionId].bidCount;\n    }\n\n    function getWinner(uint256 _auctionId) public view returns (address) {\n        require(isFinished(_auctionId), \"Auction not finished yet\");\n        return auctions[_auctionId].currentBidOwner;\n    }\n\n    /* The contract owner should call this method to cancel an auction on an offer\n    This will cancel the auction. If the auction has bids, it\n    will return the bidded amount to the bidder before closing the auction\n */\n    function forceAuctionEnding(uint256 _auctionId)\n        public\n        onlyOwner\n        nonReentrant\n    {\n        require(!isFinished(_auctionId), \"Auction is finished\");\n        Auction memory auction = auctions[_auctionId];\n        Offer storage offer = offers[auction.offerId];\n        if (\n            auction.currentBidAmount != 0 &&\n            auction.currentBidOwner != address(0)\n        ) {\n            // return funds to the previuos bidder, if there is a previous bid\n            returnFundsToPreviousOwner(auction);\n        }\n\n        auction.active = false;\n        auctions[_auctionId] = auction;\n\n        offer.hasBids = false;\n        offer.availableCopies = offer.availableCopies.add(auction.numCopies);\n        offers[auction.offerId] = offer;\n    }\n\n    function returnFundsToPreviousOwner(Auction memory _auction) internal {\n        (bool success, ) = _auction.currentBidOwner.call{\n            value: _auction.currentBidAmount\n        }(\"\");\n        require(success, \"Transfer failed.\");\n     /*   emit ReturnBidFunds(\n            _auction.offerId,\n            _auction.currentBidOwner,\n            _auction.currentBidAmount\n        );*/\n    }\n\n    function extractBalance() public onlyOwner nonReentrant {\n        address payable me = payable(msg.sender);\n        (bool success, ) = me.call{value: accumulatedCommission}(\"\");\n        require(success, \"Transfer failed.\");\n        accumulatedCommission = 0;\n    }\n}\n",
  "sourcePath": "/home/linux/ether/XSigma1155/contracts/engine.sol",
  "compiler": {
    "name": "solc",
    "version": "0.8.4+commit.c7e474f2.Emscripten.clang"
  },
  "schemaVersion": "3.3.4",
  "updatedAt": "2021-09-08T07:44:21.136Z",
  "networkType": "ethereum",
  "devdoc": {
    "kind": "dev",
    "methods": {
      "owner()": {
        "details": "Returns the address of the current owner."
      },
      "renounceOwnership()": {
        "details": "Leaves the contract without owner. It will not be possible to call `onlyOwner` functions anymore. Can only be called by the current owner. NOTE: Renouncing ownership will leave the contract without an owner, thereby removing any functionality that is only available to the owner."
      },
      "transferOwnership(address)": {
        "details": "Transfers ownership of the contract to a new account (`newOwner`). Can only be called by the current owner."
      }
    },
    "version": 1
  },
  "userdoc": {
    "kind": "user",
    "methods": {},
    "version": 1
  }
}