{
  "contractName": "Engine",
  "abi": [
    {
      "anonymous": false,
      "inputs": [
        {
          "indexed": false,
          "internalType": "uint256",
          "name": "_index",
          "type": "uint256"
        },
        {
          "indexed": false,
          "internalType": "address",
          "name": "_bidder",
          "type": "address"
        },
        {
          "indexed": false,
          "internalType": "uint256",
          "name": "amount",
          "type": "uint256"
        }
      ],
      "name": "AuctionBid",
      "type": "event"
    },
    {
      "anonymous": false,
      "inputs": [
        {
          "indexed": false,
          "internalType": "uint256",
          "name": "auctionIndex",
          "type": "uint256"
        },
        {
          "indexed": false,
          "internalType": "address",
          "name": "claimer",
          "type": "address"
        }
      ],
      "name": "Claim",
      "type": "event"
    },
    {
      "anonymous": false,
      "inputs": [
        {
          "indexed": false,
          "internalType": "uint256",
          "name": "_index",
          "type": "uint256"
        },
        {
          "indexed": false,
          "internalType": "address",
          "name": "_creator",
          "type": "address"
        },
        {
          "indexed": false,
          "internalType": "uint256",
          "name": "_tokenId",
          "type": "uint256"
        }
      ],
      "name": "OfferCreated",
      "type": "event"
    },
    {
      "anonymous": false,
      "inputs": [
        {
          "indexed": true,
          "internalType": "address",
          "name": "previousOwner",
          "type": "address"
        },
        {
          "indexed": true,
          "internalType": "address",
          "name": "newOwner",
          "type": "address"
        }
      ],
      "name": "OwnershipTransferred",
      "type": "event"
    },
    {
      "anonymous": false,
      "inputs": [
        {
          "indexed": false,
          "internalType": "address",
          "name": "receiver",
          "type": "address"
        },
        {
          "indexed": false,
          "internalType": "uint256",
          "name": "amount",
          "type": "uint256"
        },
        {
          "indexed": false,
          "internalType": "uint256",
          "name": "commission",
          "type": "uint256"
        },
        {
          "indexed": false,
          "internalType": "uint256",
          "name": "royalties",
          "type": "uint256"
        },
        {
          "indexed": false,
          "internalType": "uint256",
          "name": "safetyCheckValue",
          "type": "uint256"
        }
      ],
      "name": "PaymentToOwner",
      "type": "event"
    },
    {
      "anonymous": false,
      "inputs": [
        {
          "indexed": false,
          "internalType": "uint256",
          "name": "_index",
          "type": "uint256"
        },
        {
          "indexed": false,
          "internalType": "address",
          "name": "_bidder",
          "type": "address"
        },
        {
          "indexed": false,
          "internalType": "uint256",
          "name": "amount",
          "type": "uint256"
        }
      ],
      "name": "ReturnBidFunds",
      "type": "event"
    },
    {
      "anonymous": false,
      "inputs": [
        {
          "indexed": false,
          "internalType": "address",
          "name": "receiver",
          "type": "address"
        },
        {
          "indexed": false,
          "internalType": "uint256",
          "name": "amount",
          "type": "uint256"
        }
      ],
      "name": "Royalties",
      "type": "event"
    },
    {
      "inputs": [],
      "name": "accumulatedCommission",
      "outputs": [
        {
          "internalType": "uint256",
          "name": "",
          "type": "uint256"
        }
      ],
      "stateMutability": "view",
      "type": "function",
      "constant": true
    },
    {
      "inputs": [
        {
          "internalType": "uint256",
          "name": "",
          "type": "uint256"
        }
      ],
      "name": "auctions",
      "outputs": [
        {
          "internalType": "address",
          "name": "tokenAddress",
          "type": "address"
        },
        {
          "internalType": "uint256",
          "name": "tokenId",
          "type": "uint256"
        },
        {
          "internalType": "uint256",
          "name": "currentBidAmount",
          "type": "uint256"
        },
        {
          "internalType": "address payable",
          "name": "currentBidOwner",
          "type": "address"
        },
        {
          "internalType": "uint256",
          "name": "bidCount",
          "type": "uint256"
        },
        {
          "internalType": "uint256",
          "name": "offerId",
          "type": "uint256"
        },
        {
          "internalType": "uint256",
          "name": "numCopies",
          "type": "uint256"
        },
        {
          "internalType": "bool",
          "name": "active",
          "type": "bool"
        }
      ],
      "stateMutability": "view",
      "type": "function",
      "constant": true
    },
    {
      "inputs": [],
      "name": "commission",
      "outputs": [
        {
          "internalType": "uint256",
          "name": "",
          "type": "uint256"
        }
      ],
      "stateMutability": "view",
      "type": "function",
      "constant": true
    },
    {
      "inputs": [
        {
          "internalType": "uint256",
          "name": "",
          "type": "uint256"
        }
      ],
      "name": "offers",
      "outputs": [
        {
          "internalType": "address",
          "name": "tokenAddress",
          "type": "address"
        },
        {
          "internalType": "uint256",
          "name": "tokenId",
          "type": "uint256"
        },
        {
          "internalType": "uint256",
          "name": "amount",
          "type": "uint256"
        },
        {
          "internalType": "address payable",
          "name": "creator",
          "type": "address"
        },
        {
          "internalType": "uint256",
          "name": "price",
          "type": "uint256"
        },
        {
          "internalType": "bool",
          "name": "isOnSale",
          "type": "bool"
        },
        {
          "internalType": "bool",
          "name": "isAuction",
          "type": "bool"
        },
        {
          "internalType": "uint256",
          "name": "startTime",
          "type": "uint256"
        },
        {
          "internalType": "uint256",
          "name": "duration",
          "type": "uint256"
        },
        {
          "internalType": "uint256",
          "name": "minimumBidAmount",
          "type": "uint256"
        },
        {
          "internalType": "uint256",
          "name": "availableCopies",
          "type": "uint256"
        },
        {
          "internalType": "bool",
          "name": "hasBids",
          "type": "bool"
        }
      ],
      "stateMutability": "view",
      "type": "function",
      "constant": true
    },
    {
      "inputs": [],
      "name": "owner",
      "outputs": [
        {
          "internalType": "address",
          "name": "",
          "type": "address"
        }
      ],
      "stateMutability": "view",
      "type": "function",
      "constant": true
    },
    {
      "inputs": [],
      "name": "renounceOwnership",
      "outputs": [],
      "stateMutability": "nonpayable",
      "type": "function"
    },
    {
      "inputs": [],
      "name": "totalSales",
      "outputs": [
        {
          "internalType": "uint256",
          "name": "",
          "type": "uint256"
        }
      ],
      "stateMutability": "view",
      "type": "function",
      "constant": true
    },
    {
      "inputs": [
        {
          "internalType": "address",
          "name": "newOwner",
          "type": "address"
        }
      ],
      "name": "transferOwnership",
      "outputs": [],
      "stateMutability": "nonpayable",
      "type": "function"
    },
    {
      "inputs": [
        {
          "internalType": "uint256",
          "name": "_offerId",
          "type": "uint256"
        },
        {
          "internalType": "uint256",
          "name": "_numCopies",
          "type": "uint256"
        }
      ],
      "name": "createAuctionAndBid",
      "outputs": [
        {
          "internalType": "uint256",
          "name": "",
          "type": "uint256"
        }
      ],
      "stateMutability": "payable",
      "type": "function",
      "payable": true
    },
    {
      "inputs": [
        {
          "internalType": "uint256",
          "name": "_auctionId",
          "type": "uint256"
        }
      ],
      "name": "bid",
      "outputs": [],
      "stateMutability": "payable",
      "type": "function",
      "payable": true
    },
    {
      "inputs": [
        {
          "internalType": "uint256",
          "name": "_auctionId",
          "type": "uint256"
        }
      ],
      "name": "closeAuction",
      "outputs": [],
      "stateMutability": "nonpayable",
      "type": "function"
    },
    {
      "inputs": [
        {
          "internalType": "address",
          "name": "_tokenAddress",
          "type": "address"
        },
        {
          "internalType": "uint256",
          "name": "_tokenId",
          "type": "uint256"
        },
        {
          "internalType": "uint256",
          "name": "_amount",
          "type": "uint256"
        },
        {
          "internalType": "bool",
          "name": "_isDirectSale",
          "type": "bool"
        },
        {
          "internalType": "bool",
          "name": "_isAuction",
          "type": "bool"
        },
        {
          "internalType": "uint256",
          "name": "_price",
          "type": "uint256"
        },
        {
          "internalType": "uint256",
          "name": "_startPrice",
          "type": "uint256"
        },
        {
          "internalType": "uint256",
          "name": "_startTime",
          "type": "uint256"
        },
        {
          "internalType": "uint256",
          "name": "_duration",
          "type": "uint256"
        }
      ],
      "name": "createOffer",
      "outputs": [
        {
          "internalType": "uint256",
          "name": "",
          "type": "uint256"
        }
      ],
      "stateMutability": "nonpayable",
      "type": "function"
    },
    {
      "inputs": [],
      "name": "getOffersCount",
      "outputs": [
        {
          "internalType": "uint256",
          "name": "",
          "type": "uint256"
        }
      ],
      "stateMutability": "view",
      "type": "function",
      "constant": true
    },
    {
      "inputs": [],
      "name": "ahora",
      "outputs": [
        {
          "internalType": "uint256",
          "name": "",
          "type": "uint256"
        }
      ],
      "stateMutability": "view",
      "type": "function",
      "constant": true
    },
    {
      "inputs": [
        {
          "internalType": "uint256",
          "name": "_offerId",
          "type": "uint256"
        }
      ],
      "name": "getEndDate",
      "outputs": [
        {
          "internalType": "uint256",
          "name": "",
          "type": "uint256"
        }
      ],
      "stateMutability": "view",
      "type": "function",
      "constant": true
    },
    {
      "inputs": [
        {
          "internalType": "uint256",
          "name": "_offerId",
          "type": "uint256"
        }
      ],
      "name": "removeFromAuction",
      "outputs": [],
      "stateMutability": "nonpayable",
      "type": "function"
    },
    {
      "inputs": [
        {
          "internalType": "uint256",
          "name": "_offerId",
          "type": "uint256"
        }
      ],
      "name": "removeFromSale",
      "outputs": [],
      "stateMutability": "nonpayable",
      "type": "function"
    },
    {
      "inputs": [
        {
          "internalType": "uint256",
          "name": "_commission",
          "type": "uint256"
        }
      ],
      "name": "setCommission",
      "outputs": [],
      "stateMutability": "nonpayable",
      "type": "function"
    },
    {
      "inputs": [
        {
          "internalType": "uint256",
          "name": "_offerId",
          "type": "uint256"
        },
        {
          "internalType": "uint256",
          "name": "_amount",
          "type": "uint256"
        }
      ],
      "name": "buy",
      "outputs": [],
      "stateMutability": "payable",
      "type": "function",
      "payable": true
    },
    {
      "inputs": [
        {
          "internalType": "uint256",
          "name": "_offerId",
          "type": "uint256"
        }
      ],
      "name": "isActive",
      "outputs": [
        {
          "internalType": "bool",
          "name": "",
          "type": "bool"
        }
      ],
      "stateMutability": "view",
      "type": "function",
      "constant": true
    },
    {
      "inputs": [
        {
          "internalType": "uint256",
          "name": "_offerId",
          "type": "uint256"
        }
      ],
      "name": "isFinished",
      "outputs": [
        {
          "internalType": "bool",
          "name": "",
          "type": "bool"
        }
      ],
      "stateMutability": "view",
      "type": "function",
      "constant": true
    },
    {
      "inputs": [
        {
          "internalType": "uint256",
          "name": "_offerId",
          "type": "uint256"
        }
      ],
      "name": "getStatus",
      "outputs": [
        {
          "internalType": "enum Engine.Status",
          "name": "",
          "type": "uint8"
        }
      ],
      "stateMutability": "view",
      "type": "function",
      "constant": true
    },
    {
      "inputs": [
        {
          "internalType": "uint256",
          "name": "_offerId",
          "type": "uint256"
        }
      ],
      "name": "endDate",
      "outputs": [
        {
          "internalType": "uint256",
          "name": "",
          "type": "uint256"
        }
      ],
      "stateMutability": "view",
      "type": "function",
      "constant": true
    },
    {
      "inputs": [
        {
          "internalType": "uint256",
          "name": "_auctionId",
          "type": "uint256"
        }
      ],
      "name": "getCurrentBidOwner",
      "outputs": [
        {
          "internalType": "address",
          "name": "",
          "type": "address"
        }
      ],
      "stateMutability": "view",
      "type": "function",
      "constant": true
    },
    {
      "inputs": [
        {
          "internalType": "uint256",
          "name": "_auctionId",
          "type": "uint256"
        }
      ],
      "name": "getCurrentBidAmount",
      "outputs": [
        {
          "internalType": "uint256",
          "name": "",
          "type": "uint256"
        }
      ],
      "stateMutability": "view",
      "type": "function",
      "constant": true
    },
    {
      "inputs": [
        {
          "internalType": "uint256",
          "name": "_auctionId",
          "type": "uint256"
        }
      ],
      "name": "getBidCount",
      "outputs": [
        {
          "internalType": "uint256",
          "name": "",
          "type": "uint256"
        }
      ],
      "stateMutability": "view",
      "type": "function",
      "constant": true
    },
    {
      "inputs": [
        {
          "internalType": "uint256",
          "name": "_auctionId",
          "type": "uint256"
        }
      ],
      "name": "getWinner",
      "outputs": [
        {
          "internalType": "address",
          "name": "",
          "type": "address"
        }
      ],
      "stateMutability": "view",
      "type": "function",
      "constant": true
    },
    {
      "inputs": [],
      "name": "extractBalance",
      "outputs": [],
      "stateMutability": "nonpayable",
      "type": "function"
    }
  ],
  "bytecode": "0x60806040526000600255600060035560006004553480156200002057600080fd5b50600062000033620000de60201b60201c565b9050806000806101000a81548173ffffffffffffffffffffffffffffffffffffffff021916908373ffffffffffffffffffffffffffffffffffffffff1602179055508073ffffffffffffffffffffffffffffffffffffffff16600073ffffffffffffffffffffffffffffffffffffffff167f8be0079c531659141344cd1fd0a4f28419497f9722a3daafe3b4186f6b6457e060405160405180910390a35060018081905550620000e6565b600033905090565b61565580620000f66000396000f3fe6080604052600436106101b75760003560e01c80636af83b24116100ec5780639f49be9c1161008a578063d6febde811610064578063d6febde814610662578063e14891911461067e578063e8ba6509146106a9578063f2fde38b146106e6576101b7565b80639f49be9c146105ca578063ae69367314610607578063b670571b14610632576101b7565b806382afd23b116100c657806382afd23b146104dd57806386b460731461051a5780638a72ea6a146105575780638da5cb5b1461059f576101b7565b80636af83b2414610472578063715018a614610489578063744d3411146104a0576101b7565b8063454a2ab3116101595780635c622a0e116101335780635c622a0e146103905780635c6b047a146103cd5780636605ff661461040a5780636975846a14610435576101b7565b8063454a2ab3146102f35780634cac5b4b1461030f578063571a26a01461034c576101b7565b80632b866759116101955780632b866759146102375780632f2e7b7514610262578063355e6b431461028d5780634129b2c9146102b6576101b7565b80631361a3b6146101bc5780632241091b146101e5578063236ed8f31461020e575b600080fd5b3480156101c857600080fd5b506101e360048036038101906101de91906144f2565b61070f565b005b3480156101f157600080fd5b5061020c600480360381019061020791906144f2565b610ab5565b005b34801561021a57600080fd5b50610235600480360381019061023091906144f2565b610ea7565b005b34801561024357600080fd5b5061024c611a0d565b6040516102599190614ebb565b60405180910390f35b34801561026e57600080fd5b50610277611a15565b6040516102849190614ebb565b60405180910390f35b34801561029957600080fd5b506102b460048036038101906102af91906144f2565b611a22565b005b3480156102c257600080fd5b506102dd60048036038101906102d891906144f2565b611aed565b6040516102ea9190614914565b60405180910390f35b61030d600480360381019061030891906144f2565b611bf5565b005b34801561031b57600080fd5b50610336600480360381019061033191906144f2565b6122ca565b6040516103439190614ebb565b60405180910390f35b34801561035857600080fd5b50610373600480360381019061036e91906144f2565b61233a565b604051610387989796959493929190614b67565b60405180910390f35b34801561039c57600080fd5b506103b760048036038101906103b291906144f2565b6123df565b6040516103c49190614c00565b60405180910390f35b3480156103d957600080fd5b506103f460048036038101906103ef91906144f2565b612479565b6040516104019190614ebb565b60405180910390f35b34801561041657600080fd5b5061041f612632565b60405161042c9190614ebb565b60405180910390f35b34801561044157600080fd5b5061045c600480360381019061045791906144f2565b612638565b6040516104699190614ebb565b60405180910390f35b34801561047e57600080fd5b5061048761268d565b005b34801561049557600080fd5b5061049e61281d565b005b3480156104ac57600080fd5b506104c760048036038101906104c291906144f2565b612957565b6040516104d49190614ebb565b60405180910390f35b3480156104e957600080fd5b5061050460048036038101906104ff91906144f2565b6129ac565b6040516105119190614be5565b60405180910390f35b34801561052657600080fd5b50610541600480360381019061053c91906144f2565b612a31565b60405161054e9190614914565b60405180910390f35b34801561056357600080fd5b5061057e600480360381019061057991906144f2565b612aa6565b6040516105969c9b9a99989796959493929190614aad565b60405180910390f35b3480156105ab57600080fd5b506105b4612b7d565b6040516105c19190614914565b60405180910390f35b3480156105d657600080fd5b506105f160048036038101906105ec9190614403565b612ba6565b6040516105fe9190614ebb565b60405180910390f35b34801561061357600080fd5b5061061c612ecb565b6040516106299190614ebb565b60405180910390f35b61064c60048036038101906106479190614544565b612ed1565b6040516106599190614ebb565b60405180910390f35b61067c60048036038101906106779190614544565b61358c565b005b34801561068a57600080fd5b50610693614082565b6040516106a09190614ebb565b60405180910390f35b3480156106b557600080fd5b506106d060048036038101906106cb91906144f2565b614088565b6040516106dd9190614be5565b60405180910390f35b3480156106f257600080fd5b5061070d600480360381019061070891906143b1565b61410c565b005b60006005828154811061074b577f4e487b7100000000000000000000000000000000000000000000000000000000600052603260045260246000fd5b90600052602060002090600b0201604051806101800160405290816000820160009054906101000a900473ffffffffffffffffffffffffffffffffffffffff1673ffffffffffffffffffffffffffffffffffffffff1673ffffffffffffffffffffffffffffffffffffffff16815260200160018201548152602001600282015481526020016003820160009054906101000a900473ffffffffffffffffffffffffffffffffffffffff1673ffffffffffffffffffffffffffffffffffffffff1673ffffffffffffffffffffffffffffffffffffffff168152602001600482015481526020016005820160009054906101000a900460ff161515151581526020016005820160019054906101000a900460ff1615151515815260200160068201548152602001600782015481526020016008820154815260200160098201548152602001600a820160009054906101000a900460ff1615151515815250509050806060015173ffffffffffffffffffffffffffffffffffffffff163373ffffffffffffffffffffffffffffffffffffffff161461091c576040517f08c379a000000000000000000000000000000000000000000000000000000000815260040161091390614cdb565b60405180910390fd5b60008160a00190151590811515815250508060058381548110610968577f4e487b7100000000000000000000000000000000000000000000000000000000600052603260045260246000fd5b90600052602060002090600b020160008201518160000160006101000a81548173ffffffffffffffffffffffffffffffffffffffff021916908373ffffffffffffffffffffffffffffffffffffffff160217905550602082015181600101556040820151816002015560608201518160030160006101000a81548173ffffffffffffffffffffffffffffffffffffffff021916908373ffffffffffffffffffffffffffffffffffffffff1602179055506080820151816004015560a08201518160050160006101000a81548160ff02191690831515021790555060c08201518160050160016101000a81548160ff02191690831515021790555060e0820151816006015561010082015181600701556101208201518160080155610140820151816009015561016082015181600a0160006101000a81548160ff0219169083151502179055509050505050565b600060058281548110610af1577f4e487b7100000000000000000000000000000000000000000000000000000000600052603260045260246000fd5b90600052602060002090600b0201604051806101800160405290816000820160009054906101000a900473ffffffffffffffffffffffffffffffffffffffff1673ffffffffffffffffffffffffffffffffffffffff1673ffffffffffffffffffffffffffffffffffffffff16815260200160018201548152602001600282015481526020016003820160009054906101000a900473ffffffffffffffffffffffffffffffffffffffff1673ffffffffffffffffffffffffffffffffffffffff1673ffffffffffffffffffffffffffffffffffffffff168152602001600482015481526020016005820160009054906101000a900460ff161515151581526020016005820160019054906101000a900460ff1615151515815260200160068201548152602001600782015481526020016008820154815260200160098201548152602001600a820160009054906101000a900460ff1615151515815250509050806060015173ffffffffffffffffffffffffffffffffffffffff163373ffffffffffffffffffffffffffffffffffffffff1614610cc2576040517f08c379a0000000000000000000000000000000000000000000000000000000008152600401610cb990614cdb565b60405180910390fd5b60001515816101600151151514610d0e576040517f08c379a0000000000000000000000000000000000000000000000000000000008152600401610d0590614c9b565b60405180910390fd5b60008160c00190151590811515815250508060058381548110610d5a577f4e487b7100000000000000000000000000000000000000000000000000000000600052603260045260246000fd5b90600052602060002090600b020160008201518160000160006101000a81548173ffffffffffffffffffffffffffffffffffffffff021916908373ffffffffffffffffffffffffffffffffffffffff160217905550602082015181600101556040820151816002015560608201518160030160006101000a81548173ffffffffffffffffffffffffffffffffffffffff021916908373ffffffffffffffffffffffffffffffffffffffff1602179055506080820151816004015560a08201518160050160006101000a81548160ff02191690831515021790555060c08201518160050160016101000a81548160ff02191690831515021790555060e0820151816006015561010082015181600701556101208201518160080155610140820151816009015561016082015181600a0160006101000a81548160ff0219169083151502179055509050505050565b600060068281548110610ee3577f4e487b7100000000000000000000000000000000000000000000000000000000600052603260045260246000fd5b9060005260206000209060080201604051806101000160405290816000820160009054906101000a900473ffffffffffffffffffffffffffffffffffffffff1673ffffffffffffffffffffffffffffffffffffffff1673ffffffffffffffffffffffffffffffffffffffff16815260200160018201548152602001600282015481526020016003820160009054906101000a900473ffffffffffffffffffffffffffffffffffffffff1673ffffffffffffffffffffffffffffffffffffffff1673ffffffffffffffffffffffffffffffffffffffff1681526020016004820154815260200160058201548152602001600682015481526020016007820160009054906101000a900460ff1615151515815250509050600060058260a0015181548110611038577f4e487b7100000000000000000000000000000000000000000000000000000000600052603260045260246000fd5b90600052602060002090600b0201604051806101800160405290816000820160009054906101000a900473ffffffffffffffffffffffffffffffffffffffff1673ffffffffffffffffffffffffffffffffffffffff1673ffffffffffffffffffffffffffffffffffffffff16815260200160018201548152602001600282015481526020016003820160009054906101000a900473ffffffffffffffffffffffffffffffffffffffff1673ffffffffffffffffffffffffffffffffffffffff1673ffffffffffffffffffffffffffffffffffffffff168152602001600482015481526020016005820160009054906101000a900460ff161515151581526020016005820160019054906101000a900460ff1615151515815260200160068201548152602001600782015481526020016008820154815260200160098201548152602001600a820160009054906101000a900460ff1615151515815250509050600115158260e001511515146111e2576040517f08c379a00000000000000000000000000000000000000000000000000000000081526004016111d990614cfb565b60405180910390fd5b6111ef8260a00151614088565b61122e576040517f08c379a000000000000000000000000000000000000000000000000000000000815260040161122590614d9b565b60405180910390fd5b600115158160c00151151514611279576040517f08c379a000000000000000000000000000000000000000000000000000000000815260040161127090614d3b565b60405180910390fd5b60008160000151905081604001518173ffffffffffffffffffffffffffffffffffffffff1662fdd58e846060015185602001516040518363ffffffff1660e01b81526004016112c9929190614a08565b60206040518083038186803b1580156112e157600080fd5b505afa1580156112f5573d6000803e3d6000fd5b505050506040513d601f19601f82011682018060405250810190611319919061451b565b101561135a576040517f08c379a000000000000000000000000000000000000000000000000000000000815260040161135190614e5b565b60405180910390fd5b8073ffffffffffffffffffffffffffffffffffffffff1663e985e9c58360600151306040518363ffffffff1660e01b815260040161139992919061492f565b60206040518083038186803b1580156113b157600080fd5b505afa1580156113c5573d6000803e3d6000fd5b505050506040513d601f19601f820116820180604052508101906113e991906144c9565b611428576040517f08c379a000000000000000000000000000000000000000000000000000000000815260040161141f90614e7b565b60405180910390fd5b7f35538759d80c1fd7bb450a0d05601db5a99fa8b5d073a07c847a9fd61029b1078360a001518460600151604051611461929190614eff565b60405180910390a18073ffffffffffffffffffffffffffffffffffffffff1663f242432a8360600151856060015185602001518760c001516040518563ffffffff1660e01b81526004016114b89493929190614958565b600060405180830381600087803b1580156114d257600080fd5b505af11580156114e6573d6000803e3d6000fd5b5050505060008173ffffffffffffffffffffffffffffffffffffffff1663d48e638a84602001516040518263ffffffff1660e01b81526004016115299190614ebb565b60206040518083038186803b15801561154157600080fd5b505afa158015611555573d6000803e3d6000fd5b505050506040513d601f19601f8201168201806040525081019061157991906143da565b905060006127106002548660400151611592919061504a565b61159c9190615019565b90506000846060015173ffffffffffffffffffffffffffffffffffffffff168373ffffffffffffffffffffffffffffffffffffffff1614611769576127108473ffffffffffffffffffffffffffffffffffffffff1663bb3bafd687602001516040518263ffffffff1660e01b81526004016116179190614ebb565b60206040518083038186803b15801561162f57600080fd5b505afa158015611643573d6000803e3d6000fd5b505050506040513d601f19601f82011682018060405250810190611667919061451b565b8760400151611676919061504a565b6116809190615019565b905060008373ffffffffffffffffffffffffffffffffffffffff16826040516116a8906148ff565b60006040518083038185875af1925050503d80600081146116e5576040519150601f19603f3d011682016040523d82523d6000602084013e6116ea565b606091505b505090508061172e576040517f08c379a000000000000000000000000000000000000000000000000000000000815260040161172590614e3b565b60405180910390fd5b7f54b960faf8b038c33ba9912fdb9ac1e8e0096c5f327d1c89e62b5d9c5357ddb6848360405161175f929190614a08565b60405180910390a1505b60008183886040015161177c91906150a4565b61178691906150a4565b90506000866060015173ffffffffffffffffffffffffffffffffffffffff16826040516117b2906148ff565b60006040518083038185875af1925050503d80600081146117ef576040519150601f19603f3d011682016040523d82523d6000602084013e6117f4565b606091505b5050905080611838576040517f08c379a000000000000000000000000000000000000000000000000000000000815260040161182f90614e3b565b60405180910390fd5b7f9a37aa02cc986a4a0c2d22af3dcdb9db27c178f7feed43e7037c783b55ed91ba8760600151838686611872878e604001516002546142b5565b604051611883959493929190614a31565b60405180910390a16118a0846003546142e990919063ffffffff16565b6003819055506118bf88604001516004546142e990919063ffffffff16565b60048190555060008860e00190151590811515815250508760068a81548110611911577f4e487b7100000000000000000000000000000000000000000000000000000000600052603260045260246000fd5b906000526020600020906008020160008201518160000160006101000a81548173ffffffffffffffffffffffffffffffffffffffff021916908373ffffffffffffffffffffffffffffffffffffffff160217905550602082015181600101556040820151816002015560608201518160030160006101000a81548173ffffffffffffffffffffffffffffffffffffffff021916908373ffffffffffffffffffffffffffffffffffffffff1602179055506080820151816004015560a0820151816005015560c0820151816006015560e08201518160070160006101000a81548160ff021916908315150217905550905050505050505050505050565b600042905090565b6000600580549050905090565b611a2a6142ff565b73ffffffffffffffffffffffffffffffffffffffff16611a48612b7d565b73ffffffffffffffffffffffffffffffffffffffff1614611a9e576040517f08c379a0000000000000000000000000000000000000000000000000000000008152600401611a9590614d5b565b60405180910390fd5b611388811115611ae3576040517f08c379a0000000000000000000000000000000000000000000000000000000008152600401611ada90614dfb565b60405180910390fd5b8060028190555050565b6000611b4360068381548110611b2c577f4e487b7100000000000000000000000000000000000000000000000000000000600052603260045260246000fd5b906000526020600020906008020160050154614088565b611b82576040517f08c379a0000000000000000000000000000000000000000000000000000000008152600401611b7990614c3b565b60405180910390fd5b60068281548110611bbc577f4e487b7100000000000000000000000000000000000000000000000000000000600052603260045260246000fd5b906000526020600020906008020160030160009054906101000a900473ffffffffffffffffffffffffffffffffffffffff169050919050565b600060068281548110611c31577f4e487b7100000000000000000000000000000000000000000000000000000000600052603260045260246000fd5b9060005260206000209060080201604051806101000160405290816000820160009054906101000a900473ffffffffffffffffffffffffffffffffffffffff1673ffffffffffffffffffffffffffffffffffffffff1673ffffffffffffffffffffffffffffffffffffffff16815260200160018201548152602001600282015481526020016003820160009054906101000a900473ffffffffffffffffffffffffffffffffffffffff1673ffffffffffffffffffffffffffffffffffffffff1673ffffffffffffffffffffffffffffffffffffffff1681526020016004820154815260200160058201548152602001600682015481526020016007820160009054906101000a900460ff1615151515815250509050600060058260a0015181548110611d86577f4e487b7100000000000000000000000000000000000000000000000000000000600052603260045260246000fd5b90600052602060002090600b0201604051806101800160405290816000820160009054906101000a900473ffffffffffffffffffffffffffffffffffffffff1673ffffffffffffffffffffffffffffffffffffffff1673ffffffffffffffffffffffffffffffffffffffff16815260200160018201548152602001600282015481526020016003820160009054906101000a900473ffffffffffffffffffffffffffffffffffffffff1673ffffffffffffffffffffffffffffffffffffffff1673ffffffffffffffffffffffffffffffffffffffff168152602001600482015481526020016005820160009054906101000a900460ff161515151581526020016005820160019054906101000a900460ff1615151515815260200160068201548152602001600782015481526020016008820154815260200160098201548152602001600a820160009054906101000a900460ff16151515158152505090508060c00151611f29576040517f08c379a0000000000000000000000000000000000000000000000000000000008152600401611f2090614ddb565b60405180910390fd5b8160e00151611f6d576040517f08c379a0000000000000000000000000000000000000000000000000000000008152600401611f6490614d3b565b60405180910390fd5b611f7a8260a001516129ac565b611fb9576040517f08c379a0000000000000000000000000000000000000000000000000000000008152600401611fb090614d1b565b60405180910390fd5b600073ffffffffffffffffffffffffffffffffffffffff16816060015173ffffffffffffffffffffffffffffffffffffffff161415611ff757600080fd5b816040015134101561203e576040517f08c379a000000000000000000000000000000000000000000000000000000000815260040161203590614c1b565b60405180910390fd5b6000826060015173ffffffffffffffffffffffffffffffffffffffff16836040015160405161206c906148ff565b60006040518083038185875af1925050503d80600081146120a9576040519150601f19603f3d011682016040523d82523d6000602084013e6120ae565b606091505b50509050806120f2576040517f08c379a00000000000000000000000000000000000000000000000000000000081526004016120e990614c5b565b60405180910390fd5b7f972fd66eadedfb87beff023a37f4d8c6a91fdd147fa0d3c036e0c6c5a0cdc795848460600151856040015160405161212d93929190614f28565b60405180910390a13483604001818152505033836060019073ffffffffffffffffffffffffffffffffffffffff16908173ffffffffffffffffffffffffffffffffffffffff168152505061218f600184608001516142e990919063ffffffff16565b83608001818152505082600685815481106121d3577f4e487b7100000000000000000000000000000000000000000000000000000000600052603260045260246000fd5b906000526020600020906008020160008201518160000160006101000a81548173ffffffffffffffffffffffffffffffffffffffff021916908373ffffffffffffffffffffffffffffffffffffffff160217905550602082015181600101556040820151816002015560608201518160030160006101000a81548173ffffffffffffffffffffffffffffffffffffffff021916908373ffffffffffffffffffffffffffffffffffffffff1602179055506080820151816004015560a0820151816005015560c0820151816006015560e08201518160070160006101000a81548160ff02191690831515021790555090505050505050565b60008060058381548110612307577f4e487b7100000000000000000000000000000000000000000000000000000000600052603260045260246000fd5b90600052602060002090600b02019050612332816007015482600601546142e990919063ffffffff16565b915050919050565b6006818154811061234a57600080fd5b90600052602060002090600802016000915090508060000160009054906101000a900473ffffffffffffffffffffffffffffffffffffffff16908060010154908060020154908060030160009054906101000a900473ffffffffffffffffffffffffffffffffffffffff16908060040154908060050154908060060154908060070160009054906101000a900460ff16905088565b6000806005838154811061241c577f4e487b7100000000000000000000000000000000000000000000000000000000600052603260045260246000fd5b90600052602060002090600b020190508060060154421015612442576000915050612474565b61245d816007015482600601546142e990919063ffffffff16565b42101561246e576001915050612474565b60029150505b919050565b600080600583815481106124b6577f4e487b7100000000000000000000000000000000000000000000000000000000600052603260045260246000fd5b90600052602060002090600b0201604051806101800160405290816000820160009054906101000a900473ffffffffffffffffffffffffffffffffffffffff1673ffffffffffffffffffffffffffffffffffffffff1673ffffffffffffffffffffffffffffffffffffffff16815260200160018201548152602001600282015481526020016003820160009054906101000a900473ffffffffffffffffffffffffffffffffffffffff1673ffffffffffffffffffffffffffffffffffffffff1673ffffffffffffffffffffffffffffffffffffffff168152602001600482015481526020016005820160009054906101000a900460ff161515151581526020016005820160019054906101000a900460ff1615151515815260200160068201548152602001600782015481526020016008820154815260200160098201548152602001600a820160009054906101000a900460ff16151515158152505090508061010001518160e0015161262a9190614fc3565b915050919050565b60045481565b600060068281548110612674577f4e487b7100000000000000000000000000000000000000000000000000000000600052603260045260246000fd5b9060005260206000209060080201600201549050919050565b6126956142ff565b73ffffffffffffffffffffffffffffffffffffffff166126b3612b7d565b73ffffffffffffffffffffffffffffffffffffffff1614612709576040517f08c379a000000000000000000000000000000000000000000000000000000000815260040161270090614d5b565b60405180910390fd5b6002600154141561274f576040517f08c379a000000000000000000000000000000000000000000000000000000000815260040161274690614e9b565b60405180910390fd5b6002600181905550600033905060008173ffffffffffffffffffffffffffffffffffffffff16600354604051612784906148ff565b60006040518083038185875af1925050503d80600081146127c1576040519150601f19603f3d011682016040523d82523d6000602084013e6127c6565b606091505b505090508061280a576040517f08c379a000000000000000000000000000000000000000000000000000000000815260040161280190614e3b565b60405180910390fd5b6000600381905550505060018081905550565b6128256142ff565b73ffffffffffffffffffffffffffffffffffffffff16612843612b7d565b73ffffffffffffffffffffffffffffffffffffffff1614612899576040517f08c379a000000000000000000000000000000000000000000000000000000000815260040161289090614d5b565b60405180910390fd5b600073ffffffffffffffffffffffffffffffffffffffff1660008054906101000a900473ffffffffffffffffffffffffffffffffffffffff1673ffffffffffffffffffffffffffffffffffffffff167f8be0079c531659141344cd1fd0a4f28419497f9722a3daafe3b4186f6b6457e060405160405180910390a360008060006101000a81548173ffffffffffffffffffffffffffffffffffffffff021916908373ffffffffffffffffffffffffffffffffffffffff160217905550565b600060068281548110612993577f4e487b7100000000000000000000000000000000000000000000000000000000600052603260045260246000fd5b9060005260206000209060080201600401549050919050565b6000600160028111156129e8577f4e487b7100000000000000000000000000000000000000000000000000000000600052602160045260246000fd5b6129f1836123df565b6002811115612a29577f4e487b7100000000000000000000000000000000000000000000000000000000600052602160045260246000fd5b149050919050565b600060068281548110612a6d577f4e487b7100000000000000000000000000000000000000000000000000000000600052603260045260246000fd5b906000526020600020906008020160030160009054906101000a900473ffffffffffffffffffffffffffffffffffffffff169050919050565b60058181548110612ab657600080fd5b90600052602060002090600b02016000915090508060000160009054906101000a900473ffffffffffffffffffffffffffffffffffffffff16908060010154908060020154908060030160009054906101000a900473ffffffffffffffffffffffffffffffffffffffff16908060040154908060050160009054906101000a900460ff16908060050160019054906101000a900460ff169080600601549080600701549080600801549080600901549080600a0160009054906101000a900460ff1690508c565b60008060009054906101000a900473ffffffffffffffffffffffffffffffffffffffff16905090565b6000808a9050888173ffffffffffffffffffffffffffffffffffffffff1662fdd58e338d6040518363ffffffff1660e01b8152600401612be7929190614a84565b60206040518083038186803b158015612bff57600080fd5b505afa158015612c13573d6000803e3d6000fd5b505050506040513d601f19601f82011682018060405250810190612c37919061451b565b1015612c78576040517f08c379a0000000000000000000000000000000000000000000000000000000008152600401612c6f90614cbb565b60405180910390fd5b60006040518061018001604052808d73ffffffffffffffffffffffffffffffffffffffff1681526020018c81526020018b81526020013373ffffffffffffffffffffffffffffffffffffffff1681526020018881526020018a1515815260200189151581526020018681526020018581526020018781526020018b815260200160001515815250905060058190806001815401808255809150506001900390600052602060002090600b020160009091909190915060008201518160000160006101000a81548173ffffffffffffffffffffffffffffffffffffffff021916908373ffffffffffffffffffffffffffffffffffffffff160217905550602082015181600101556040820151816002015560608201518160030160006101000a81548173ffffffffffffffffffffffffffffffffffffffff021916908373ffffffffffffffffffffffffffffffffffffffff1602179055506080820151816004015560a08201518160050160006101000a81548160ff02191690831515021790555060c08201518160050160016101000a81548160ff02191690831515021790555060e0820151816006015561010082015181600701556101208201518160080155610140820151816009015561016082015181600a0160006101000a81548160ff021916908315150217905550505060006001600580549050612e7b91906150a4565b90507fb61c892d3af89c520a4214d8f8dc61896cdb6fd28991a0a836288fe73028a18c81338e604051612eb093929190614f5f565b60405180910390a18093505050509998505050505050505050565b60035481565b60008060058481548110612f0e577f4e487b7100000000000000000000000000000000000000000000000000000000600052603260045260246000fd5b90600052602060002090600b0201604051806101800160405290816000820160009054906101000a900473ffffffffffffffffffffffffffffffffffffffff1673ffffffffffffffffffffffffffffffffffffffff1673ffffffffffffffffffffffffffffffffffffffff16815260200160018201548152602001600282015481526020016003820160009054906101000a900473ffffffffffffffffffffffffffffffffffffffff1673ffffffffffffffffffffffffffffffffffffffff1673ffffffffffffffffffffffffffffffffffffffff168152602001600482015481526020016005820160009054906101000a900460ff161515151581526020016005820160019054906101000a900460ff1615151515815260200160068201548152602001600782015481526020016008820154815260200160098201548152602001600a820160009054906101000a900460ff1615151515815250509050600115158160c001511515146130b8576040517f08c379a00000000000000000000000000000000000000000000000000000000081526004016130af90614d7b565b60405180910390fd5b6130c1846129ac565b613100576040517f08c379a00000000000000000000000000000000000000000000000000000000081526004016130f790614d1b565b60405180910390fd5b600073ffffffffffffffffffffffffffffffffffffffff16816060015173ffffffffffffffffffffffffffffffffffffffff16141561313e57600080fd5b828161014001511015613186576040517f08c379a000000000000000000000000000000000000000000000000000000000815260040161317d90614e1b565b60405180910390fd5b61319e8382610120015161430790919063ffffffff16565b3410156131e0576040517f08c379a00000000000000000000000000000000000000000000000000000000081526004016131d790614c1b565b60405180910390fd5b6000604051806101000160405280836000015173ffffffffffffffffffffffffffffffffffffffff168152602001836020015181526020013481526020013373ffffffffffffffffffffffffffffffffffffffff16815260200160018152602001868152602001858152602001600115158152509050600681908060018154018082558091505060019003906000526020600020906008020160009091909190915060008201518160000160006101000a81548173ffffffffffffffffffffffffffffffffffffffff021916908373ffffffffffffffffffffffffffffffffffffffff160217905550602082015181600101556040820151816002015560608201518160030160006101000a81548173ffffffffffffffffffffffffffffffffffffffff021916908373ffffffffffffffffffffffffffffffffffffffff1602179055506080820151816004015560a0820151816005015560c0820151816006015560e08201518160070160006101000a81548160ff02191690831515021790555050506000600160068054905061337891906150a4565b9050600015158361016001511515141561339f576001836101600190151590811515815250505b6133b78584610140015161431d90919063ffffffff16565b8361014001818152505082600587815481106133fc577f4e487b7100000000000000000000000000000000000000000000000000000000600052603260045260246000fd5b90600052602060002090600b020160008201518160000160006101000a81548173ffffffffffffffffffffffffffffffffffffffff021916908373ffffffffffffffffffffffffffffffffffffffff160217905550602082015181600101556040820151816002015560608201518160030160006101000a81548173ffffffffffffffffffffffffffffffffffffffff021916908373ffffffffffffffffffffffffffffffffffffffff1602179055506080820151816004015560a08201518160050160006101000a81548160ff02191690831515021790555060c08201518160050160016101000a81548160ff02191690831515021790555060e0820151816006015561010082015181600701556101208201518160080155610140820151816009015561016082015181600a0160006101000a81548160ff0219169083151502179055509050507fb8d756f2d1da4663767eb4d559780ace84f2f65a421a60ddcb47e8b2e5d2fd2681333460405161357893929190614f5f565b60405180910390a180935050505092915050565b600260015414156135d2576040517f08c379a00000000000000000000000000000000000000000000000000000000081526004016135c990614e9b565b60405180910390fd5b600260018190555060003390506000349050600060058581548110613620577f4e487b7100000000000000000000000000000000000000000000000000000000600052603260045260246000fd5b90600052602060002090600b0201604051806101800160405290816000820160009054906101000a900473ffffffffffffffffffffffffffffffffffffffff1673ffffffffffffffffffffffffffffffffffffffff1673ffffffffffffffffffffffffffffffffffffffff16815260200160018201548152602001600282015481526020016003820160009054906101000a900473ffffffffffffffffffffffffffffffffffffffff1673ffffffffffffffffffffffffffffffffffffffff1673ffffffffffffffffffffffffffffffffffffffff168152602001600482015481526020016005820160009054906101000a900460ff161515151581526020016005820160019054906101000a900460ff1615151515815260200160068201548152602001600782015481526020016008820154815260200160098201548152602001600a820160009054906101000a900460ff1615151515815250509050600115158160a001511515146137ca576040517f08c379a00000000000000000000000000000000000000000000000000000000081526004016137c190614dbb565b60405180910390fd5b838161014001511015613812576040517f08c379a000000000000000000000000000000000000000000000000000000000815260040161380990614e1b565b60405180910390fd5b60008160800151905061382e858261430790919063ffffffff16565b831015613870576040517f08c379a000000000000000000000000000000000000000000000000000000000815260040161386790614c1b565b60405180910390fd5b60008260000151905082604001518173ffffffffffffffffffffffffffffffffffffffff1662fdd58e856060015186602001516040518363ffffffff1660e01b81526004016138c0929190614a08565b60206040518083038186803b1580156138d857600080fd5b505afa1580156138ec573d6000803e3d6000fd5b505050506040513d601f19601f82011682018060405250810190613910919061451b565b1015613951576040517f08c379a000000000000000000000000000000000000000000000000000000000815260040161394890614e5b565b60405180910390fd5b8073ffffffffffffffffffffffffffffffffffffffff1663e985e9c58460600151306040518363ffffffff1660e01b815260040161399092919061492f565b60206040518083038186803b1580156139a857600080fd5b505afa1580156139bc573d6000803e3d6000fd5b505050506040513d601f19601f820116820180604052508101906139e091906144c9565b613a1f576040517f08c379a0000000000000000000000000000000000000000000000000000000008152600401613a1690614e7b565b60405180910390fd5b7f35538759d80c1fd7bb450a0d05601db5a99fa8b5d073a07c847a9fd61029b1078786604051613a50929190614ed6565b60405180910390a18073ffffffffffffffffffffffffffffffffffffffff1663f242432a84606001513386602001518a6040518563ffffffff1660e01b8152600401613a9f94939291906149b0565b600060405180830381600087803b158015613ab957600080fd5b505af1158015613acd573d6000803e3d6000fd5b5050505060008173ffffffffffffffffffffffffffffffffffffffff1663d48e638a85602001516040518263ffffffff1660e01b8152600401613b109190614ebb565b60206040518083038186803b158015613b2857600080fd5b505afa158015613b3c573d6000803e3d6000fd5b505050506040513d601f19601f82011682018060405250810190613b6091906143da565b9050600061271060025487613b75919061504a565b613b7f9190615019565b90506000856060015173ffffffffffffffffffffffffffffffffffffffff168373ffffffffffffffffffffffffffffffffffffffff1614613d48576127108473ffffffffffffffffffffffffffffffffffffffff1663bb3bafd688602001516040518263ffffffff1660e01b8152600401613bfa9190614ebb565b60206040518083038186803b158015613c1257600080fd5b505afa158015613c26573d6000803e3d6000fd5b505050506040513d601f19601f82011682018060405250810190613c4a919061451b565b88613c55919061504a565b613c5f9190615019565b905060008373ffffffffffffffffffffffffffffffffffffffff1682604051613c87906148ff565b60006040518083038185875af1925050503d8060008114613cc4576040519150601f19603f3d011682016040523d82523d6000602084013e613cc9565b606091505b5050905080613d0d576040517f08c379a0000000000000000000000000000000000000000000000000000000008152600401613d0490614e3b565b60405180910390fd5b7f54b960faf8b038c33ba9912fdb9ac1e8e0096c5f327d1c89e62b5d9c5357ddb68483604051613d3e929190614a08565b60405180910390a1505b6000818389613d5791906150a4565b613d6191906150a4565b90506000876060015173ffffffffffffffffffffffffffffffffffffffff1682604051613d8d906148ff565b60006040518083038185875af1925050503d8060008114613dca576040519150601f19603f3d011682016040523d82523d6000602084013e613dcf565b606091505b5050905080613e13576040517f08c379a0000000000000000000000000000000000000000000000000000000008152600401613e0a90614e3b565b60405180910390fd5b7f9a37aa02cc986a4a0c2d22af3dcdb9db27c178f7feed43e7037c783b55ed91ba8860600151838686613e49878f6002546142b5565b604051613e5a959493929190614a31565b60405180910390a18360036000828254613e749190614fc3565b92505081905550613e90896004546142e990919063ffffffff16565b600481905550613eae8b89610140015161431d90919063ffffffff16565b8861014001818152505060008861014001511415613ee95760008860c001901515908115158152505060008860a00190151590811515815250505b8760058d81548110613f24577f4e487b7100000000000000000000000000000000000000000000000000000000600052603260045260246000fd5b90600052602060002090600b020160008201518160000160006101000a81548173ffffffffffffffffffffffffffffffffffffffff021916908373ffffffffffffffffffffffffffffffffffffffff160217905550602082015181600101556040820151816002015560608201518160030160006101000a81548173ffffffffffffffffffffffffffffffffffffffff021916908373ffffffffffffffffffffffffffffffffffffffff1602179055506080820151816004015560a08201518160050160006101000a81548160ff02191690831515021790555060c08201518160050160016101000a81548160ff02191690831515021790555060e0820151816006015561010082015181600701556101208201518160080155610140820151816009015561016082015181600a0160006101000a81548160ff02191690831515021790555090505050505050505050505050600180819055505050565b60025481565b60006002808111156140c3577f4e487b7100000000000000000000000000000000000000000000000000000000600052602160045260246000fd5b6140cc836123df565b6002811115614104577f4e487b7100000000000000000000000000000000000000000000000000000000600052602160045260246000fd5b149050919050565b6141146142ff565b73ffffffffffffffffffffffffffffffffffffffff16614132612b7d565b73ffffffffffffffffffffffffffffffffffffffff1614614188576040517f08c379a000000000000000000000000000000000000000000000000000000000815260040161417f90614d5b565b60405180910390fd5b600073ffffffffffffffffffffffffffffffffffffffff168173ffffffffffffffffffffffffffffffffffffffff1614156141f8576040517f08c379a00000000000000000000000000000000000000000000000000000000081526004016141ef90614c7b565b60405180910390fd5b8073ffffffffffffffffffffffffffffffffffffffff1660008054906101000a900473ffffffffffffffffffffffffffffffffffffffff1673ffffffffffffffffffffffffffffffffffffffff167f8be0079c531659141344cd1fd0a4f28419497f9722a3daafe3b4186f6b6457e060405160405180910390a3806000806101000a81548173ffffffffffffffffffffffffffffffffffffffff021916908373ffffffffffffffffffffffffffffffffffffffff16021790555050565b60008061271083856142c7919061504a565b6142d19190615019565b856142dc9190614fc3565b9050809150509392505050565b600081836142f79190614fc3565b905092915050565b600033905090565b60008183614315919061504a565b905092915050565b6000818361432b91906150a4565b905092915050565b600081359050614342816155da565b92915050565b600081519050614357816155da565b92915050565b60008135905061436c816155f1565b92915050565b600081519050614381816155f1565b92915050565b60008135905061439681615608565b92915050565b6000815190506143ab81615608565b92915050565b6000602082840312156143c357600080fd5b60006143d184828501614333565b91505092915050565b6000602082840312156143ec57600080fd5b60006143fa84828501614348565b91505092915050565b60008060008060008060008060006101208a8c03121561442257600080fd5b60006144308c828d01614333565b99505060206144418c828d01614387565b98505060406144528c828d01614387565b97505060606144638c828d0161435d565b96505060806144748c828d0161435d565b95505060a06144858c828d01614387565b94505060c06144968c828d01614387565b93505060e06144a78c828d01614387565b9250506101006144b98c828d01614387565b9150509295985092959850929598565b6000602082840312156144db57600080fd5b60006144e984828501614372565b91505092915050565b60006020828403121561450457600080fd5b600061451284828501614387565b91505092915050565b60006020828403121561452d57600080fd5b600061453b8482850161439c565b91505092915050565b6000806040838503121561455757600080fd5b600061456585828601614387565b925050602061457685828601614387565b9150509250929050565b61458981615145565b82525050565b614598816150ea565b82525050565b6145a7816150d8565b82525050565b6145b6816150fc565b82525050565b6145c581615157565b82525050565b60006145d8601383614fb2565b91506145e38261521a565b602082019050919050565b60006145fb601883614fb2565b915061460682615243565b602082019050919050565b600061461e601783614fb2565b91506146298261526c565b602082019050919050565b6000614641602683614fb2565b915061464c82615295565b604082019050919050565b6000614664600d83614fb2565b915061466f826152e4565b602082019050919050565b6000614687603783614fb2565b91506146928261530d565b604082019050919050565b60006146aa601583614fb2565b91506146b58261535c565b602082019050919050565b60006146cd601283614fb2565b91506146d882615385565b602082019050919050565b60006146f0601183614fb2565b91506146fb826153ae565b602082019050919050565b6000614713601583614fb2565b915061471e826153d7565b602082019050919050565b6000614736602083614fb2565b915061474182615400565b602082019050919050565b6000614759601283614fb2565b915061476482615429565b602082019050919050565b600061477c601b83614fb2565b915061478782615452565b602082019050919050565b600061479f601683614fb2565b91506147aa8261547b565b602082019050919050565b60006147c2601683614fb2565b91506147cd826154a4565b602082019050919050565b60006147e5601383614fb2565b91506147f0826154cd565b602082019050919050565b6000614808601b83614fb2565b9150614813826154f6565b602082019050919050565b600061482b600083614f96565b91506148368261551f565b600082019050919050565b600061484e600083614fa7565b91506148598261551f565b600082019050919050565b6000614871601083614fb2565b915061487c82615522565b602082019050919050565b6000614894602083614fb2565b915061489f8261554b565b602082019050919050565b60006148b7601083614fb2565b91506148c282615574565b602082019050919050565b60006148da601f83614fb2565b91506148e58261559d565b602082019050919050565b6148f98161513b565b82525050565b600061490a82614841565b9150819050919050565b6000602082019050614929600083018461459e565b92915050565b60006040820190506149446000830185614580565b614951602083018461459e565b9392505050565b600060a08201905061496d6000830187614580565b61497a6020830186614580565b61498760408301856148f0565b61499460608301846148f0565b81810360808301526149a58161481e565b905095945050505050565b600060a0820190506149c56000830187614580565b6149d2602083018661459e565b6149df60408301856148f0565b6149ec60608301846148f0565b81810360808301526149fd8161481e565b905095945050505050565b6000604082019050614a1d6000830185614580565b614a2a60208301846148f0565b9392505050565b600060a082019050614a466000830188614580565b614a5360208301876148f0565b614a6060408301866148f0565b614a6d60608301856148f0565b614a7a60808301846148f0565b9695505050505050565b6000604082019050614a99600083018561459e565b614aa660208301846148f0565b9392505050565b600061018082019050614ac3600083018f61459e565b614ad0602083018e6148f0565b614add604083018d6148f0565b614aea606083018c61458f565b614af7608083018b6148f0565b614b0460a083018a6145ad565b614b1160c08301896145ad565b614b1e60e08301886148f0565b614b2c6101008301876148f0565b614b3a6101208301866148f0565b614b486101408301856148f0565b614b566101608301846145ad565b9d9c50505050505050505050505050565b600061010082019050614b7d600083018b61459e565b614b8a602083018a6148f0565b614b9760408301896148f0565b614ba4606083018861458f565b614bb160808301876148f0565b614bbe60a08301866148f0565b614bcb60c08301856148f0565b614bd860e08301846145ad565b9998505050505050505050565b6000602082019050614bfa60008301846145ad565b92915050565b6000602082019050614c1560008301846145bc565b92915050565b60006020820190508181036000830152614c34816145cb565b9050919050565b60006020820190508181036000830152614c54816145ee565b9050919050565b60006020820190508181036000830152614c7481614611565b9050919050565b60006020820190508181036000830152614c9481614634565b9050919050565b60006020820190508181036000830152614cb481614657565b9050919050565b60006020820190508181036000830152614cd48161467a565b9050919050565b60006020820190508181036000830152614cf48161469d565b9050919050565b60006020820190508181036000830152614d14816146c0565b9050919050565b60006020820190508181036000830152614d34816146e3565b9050919050565b60006020820190508181036000830152614d5481614706565b9050919050565b60006020820190508181036000830152614d7481614729565b9050919050565b60006020820190508181036000830152614d948161474c565b9050919050565b60006020820190508181036000830152614db48161476f565b9050919050565b60006020820190508181036000830152614dd481614792565b9050919050565b60006020820190508181036000830152614df4816147b5565b9050919050565b60006020820190508181036000830152614e14816147d8565b9050919050565b60006020820190508181036000830152614e34816147fb565b9050919050565b60006020820190508181036000830152614e5481614864565b9050919050565b60006020820190508181036000830152614e7481614887565b9050919050565b60006020820190508181036000830152614e94816148aa565b9050919050565b60006020820190508181036000830152614eb4816148cd565b9050919050565b6000602082019050614ed060008301846148f0565b92915050565b6000604082019050614eeb60008301856148f0565b614ef8602083018461459e565b9392505050565b6000604082019050614f1460008301856148f0565b614f216020830184614580565b9392505050565b6000606082019050614f3d60008301866148f0565b614f4a6020830185614580565b614f5760408301846148f0565b949350505050565b6000606082019050614f7460008301866148f0565b614f81602083018561459e565b614f8e60408301846148f0565b949350505050565b600082825260208201905092915050565b600081905092915050565b600082825260208201905092915050565b6000614fce8261513b565b9150614fd98361513b565b9250827fffffffffffffffffffffffffffffffffffffffffffffffffffffffffffffffff0382111561500e5761500d61518d565b5b828201905092915050565b60006150248261513b565b915061502f8361513b565b92508261503f5761503e6151bc565b5b828204905092915050565b60006150558261513b565b91506150608361513b565b9250817fffffffffffffffffffffffffffffffffffffffffffffffffffffffffffffffff04831182151516156150995761509861518d565b5b828202905092915050565b60006150af8261513b565b91506150ba8361513b565b9250828210156150cd576150cc61518d565b5b828203905092915050565b60006150e38261511b565b9050919050565b60006150f58261511b565b9050919050565b60008115159050919050565b6000819050615116826155c6565b919050565b600073ffffffffffffffffffffffffffffffffffffffff82169050919050565b6000819050919050565b600061515082615169565b9050919050565b600061516282615108565b9050919050565b60006151748261517b565b9050919050565b60006151868261511b565b9050919050565b7f4e487b7100000000000000000000000000000000000000000000000000000000600052601160045260246000fd5b7f4e487b7100000000000000000000000000000000000000000000000000000000600052601260045260246000fd5b7f4e487b7100000000000000000000000000000000000000000000000000000000600052602160045260246000fd5b7f5072696365206973206e6f7420656e6f75676800000000000000000000000000600082015250565b7f41756374696f6e206e6f742066696e6973686564207965740000000000000000600082015250565b7f5472616e73666572206661696c6564206f6e206269642e000000000000000000600082015250565b7f4f776e61626c653a206e6577206f776e657220697320746865207a65726f206160008201527f6464726573730000000000000000000000000000000000000000000000000000602082015250565b7f42696473206578697374696e6700000000000000000000000000000000000000600082015250565b7f596f752061726520747279696e6720746f2073616c65206d6f7265206e66747360008201527f207468617420746865206f6e657320796f752068617665000000000000000000602082015250565b7f596f7520617265206e6f7420746865206f776e65720000000000000000000000600082015250565b7f41756374696f6e206e6f74206163746976650000000000000000000000000000600082015250565b7f41756374696f6e2068617320656e646564000000000000000000000000000000600082015250565b7f41756374696f6e206973206e6f74206163746976650000000000000000000000600082015250565b7f4f776e61626c653a2063616c6c6572206973206e6f7420746865206f776e6572600082015250565b7f4e4654206e6f7420696e2061756374696f6e0000000000000000000000000000600082015250565b7f5468652061756374696f6e206973207374696c6c206163746976650000000000600082015250565b7f4e4654206e6f7420696e206469726563742073616c6500000000000000000000600082015250565b7f41756374696f6e206973206e6f7420656e61626c656400000000000000000000600082015250565b7f436f6d6d697373696f6e20746f6f206869676800000000000000000000000000600082015250565b7f4e6f7420656e6f75676820636f7069657320617661696c61626c650000000000600082015250565b50565b7f5472616e73666572206661696c65642e00000000000000000000000000000000600082015250565b7f4f776e657220646964206e6f74206861766520656e6f75676820746f6b656e73600082015250565b7f4e4654206e6f7420617070726f76656400000000000000000000000000000000600082015250565b7f5265656e7472616e637947756172643a207265656e7472616e742063616c6c00600082015250565b600381106155d7576155d66151eb565b5b50565b6155e3816150d8565b81146155ee57600080fd5b50565b6155fa816150fc565b811461560557600080fd5b50565b6156118161513b565b811461561c57600080fd5b5056fea2646970667358221220e9513b53501d24eac83a04a8173f8775fc3265fdbebc09cd7856fa0c9f1c15f464736f6c63430008040033",
  "immutableReferences": {},
  "source": "// SPDX-License-Identifier: UNLICENSED\npragma solidity ^0.8.4;\n\nimport \"@openzeppelin/contracts/token/ERC1155/ERC1155.sol\";\nimport \"@openzeppelin/contracts/access/Ownable.sol\";\nimport \"./Base1155.sol\";\nimport \"@openzeppelin/contracts/utils/math/SafeMath.sol\";\nimport \"@openzeppelin/contracts/security/ReentrancyGuard.sol\";\n\ncontract Engine is Ownable, ReentrancyGuard {\n    using SafeMath for uint256;\n\n    event OfferCreated(uint256 _index, address _creator, uint256 _tokenId);\n    event AuctionBid(uint256 _index, address _bidder, uint256 amount);\n    event Claim(uint256 auctionIndex, address claimer);\n    event ReturnBidFunds(uint256 _index, address _bidder, uint256 amount);\n\n    event Royalties(address receiver, uint256 amount);\n    event PaymentToOwner(\n        address receiver,\n        uint256 amount,\n        uint256 commission,\n        uint256 royalties,\n        uint256 safetyCheckValue\n    );\n\n    uint256 public commission = 0; // this is the commission that will charge the marketplace by default.\n    uint256 public accumulatedCommission = 0;\n\n    uint256 public totalSales = 0;\n\n    enum Status {\n        pending,\n        active,\n        finished\n    }\n    struct Offer {\n        address tokenAddress; // address of the token\n        uint256 tokenId; // the tokenId returned when calling \"createItem\"\n        uint256 amount; // amount of tokens on sale on this offer\n        address payable creator; // who creates the offer\n        uint256 price; // price of each token\n        bool isOnSale; // is on sale or not\n        bool isAuction; // is this offer is for an auction\n        uint256 startTime; // when the auction starts\n        uint256 duration; // duration in seconds of the auction\n        uint256 minimumBidAmount;\n        uint256 availableCopies;\n        bool hasBids;\n    }\n    Offer[] public offers;\n\n    struct Auction {\n        address tokenAddress; // address of the token\n        uint256 tokenId; // the tokenId returned when calling \"createItem\"\n        uint256 currentBidAmount; // current amount paid by the best bidder\n        address payable currentBidOwner; // address of the best bidder\n        uint256 bidCount; // counter of the bids of the auction\n        uint256 offerId;\n        uint256 numCopies;\n        bool active;\n    }\n    Auction[] public auctions;\n\n    function createAuctionAndBid(uint256 _offerId, uint256 _numCopies)\n        public\n        payable\n        returns (uint256)\n    {\n        Offer memory offer = offers[_offerId];\n        require(offer.isAuction == true, \"NFT not in auction\");\n        require(isActive(_offerId), \"Auction has ended\");\n        require(offer.creator != address(0));\n        require(\n            offer.availableCopies >= _numCopies,\n            \"Not enough copies available\"\n        );\n        require(\n            msg.value >= offer.minimumBidAmount.mul(_numCopies),\n            \"Price is not enough\"\n        );\n\n        Auction memory auction = Auction({\n            tokenAddress: offer.tokenAddress,\n            tokenId: offer.tokenId,\n            numCopies: _numCopies,\n            currentBidOwner: payable(msg.sender),\n            currentBidAmount: msg.value,\n            bidCount: 1,\n            offerId: _offerId,\n            active: true\n        });\n\n        auctions.push(auction);\n        uint256 auctionId = auctions.length - 1;\n\n        // Update offer with new available amount\n        if (offer.hasBids == false) offer.hasBids = true;\n        offer.availableCopies = offer.availableCopies.sub(_numCopies);\n        offers[_offerId] = offer;\n\n        emit AuctionBid(auctionId, msg.sender, msg.value);\n        return auctionId;\n    }\n\n    function bid(uint256 _auctionId) public payable {\n        Auction memory auction = auctions[_auctionId];\n        Offer memory offer = offers[auction.offerId];\n        require(offer.isAuction, \"Auction is not enabled\");\n        require(auction.active, \"Auction is not active\");\n        require(isActive(auction.offerId), \"Auction has ended\");\n        require(offer.creator != address(0));\n        require(msg.value >= auction.currentBidAmount, \"Price is not enough\");\n\n        // return funds to the previuos bidder\n\n        (bool success, ) = auction.currentBidOwner.call{\n            value: auction.currentBidAmount\n        }(\"\");\n        require(success, \"Transfer failed on bid.\");\n        emit ReturnBidFunds(\n            _auctionId,\n            auction.currentBidOwner,\n            auction.currentBidAmount\n        );\n\n        auction.currentBidAmount = msg.value;\n        auction.currentBidOwner = payable(msg.sender);\n        auction.bidCount = auction.bidCount.add(1);\n        auctions[_auctionId] = auction;\n    }\n\n    function closeAuction(uint256 _auctionId) public {\n        Auction memory auction = auctions[_auctionId];\n        Offer memory offer = offers[auction.offerId];\n\n        require(auction.active == true, \"Auction not active\");\n        require(isFinished(auction.offerId), \"The auction is still active\");\n        require(offer.isAuction == true, \"Auction is not active\");\n\n        Base1155 asset = Base1155(offer.tokenAddress);\n\n        require(\n            asset.balanceOf(offer.creator, offer.tokenId) >= offer.amount,\n            \"Owner did not have enough tokens\"\n        );\n        require(\n            asset.isApprovedForAll(offer.creator, address(this)),\n            \"NFT not approved\"\n        );\n\n        emit Claim(auction.offerId, auction.currentBidOwner);\n\n        asset.safeTransferFrom(\n            offer.creator,\n            auction.currentBidOwner,\n            offer.tokenId,\n            auction.numCopies,\n            \"\"\n        );\n\n        // now, pay the amount - commission - royalties to the auction creator\n        address payable creatorNFT = payable(\n            // getCreator(offer.assetAddress, _offerId)\n            asset.getCreator(offer.tokenId)\n        );\n\n        uint256 commissionToPay = (auction.currentBidAmount * commission) /\n            10000;\n        uint256 royaltiesToPay = 0;\n        if (creatorNFT != offer.creator) {\n            // It is a resale. Transfer royalties\n            royaltiesToPay =\n                (auction.currentBidAmount * asset.getRoyalties(offer.tokenId)) / /*getRoyalties(offer.assetAddress, _offerId)*/\n                10000;\n            (bool success, ) = creatorNFT.call{value: royaltiesToPay}(\"\");\n            require(success, \"Transfer failed.\");\n\n            emit Royalties(creatorNFT, royaltiesToPay);\n        }\n        uint256 amountToPay = auction.currentBidAmount -\n            commissionToPay -\n            royaltiesToPay;\n\n        (bool success2, ) = offer.creator.call{value: amountToPay}(\"\");\n        require(success2, \"Transfer failed.\");\n        emit PaymentToOwner(\n            offer.creator,\n            amountToPay,\n            commissionToPay,\n            royaltiesToPay,\n            calcSafetyCheckValue(\n                amountToPay,\n                auction.currentBidAmount,\n                commission\n            )\n        );\n\n        accumulatedCommission = accumulatedCommission.add(commissionToPay);\n        totalSales = totalSales.add(auction.currentBidAmount);\n\n        auction.active = false;\n        auctions[_auctionId] = auction;\n    }\n\n    // Creates an offer that could be direct sale and/or auction for a certain amount of a token\n    function createOffer(\n        address _tokenAddress,\n        uint256 _tokenId, // tokenId\n        uint256 _amount, // amount of tokens on sale\n        bool _isDirectSale, // true if can be bought on a direct sale\n        bool _isAuction, // true if can be bought in an auction\n        uint256 _price, // price that if paid in a direct sale, transfers the NFT\n        uint256 _startPrice, // minimum price on the auction\n        uint256 _startTime, // time when the auction will start. Check the format with frontend\n        uint256 _duration // duration in seconds of the auction\n    ) public returns (uint256) {\n        Base1155 asset = Base1155(_tokenAddress);\n        require(\n            asset.balanceOf(msg.sender, _tokenId) >= _amount,\n            \"You are trying to sale more nfts that the ones you have\"\n        );\n\n        Offer memory offer = Offer({\n            tokenAddress: _tokenAddress,\n            tokenId: _tokenId,\n            amount: _amount,\n            creator: payable(msg.sender),\n            price: _price,\n            isOnSale: _isDirectSale,\n            isAuction: _isAuction,\n            startTime: _startTime,\n            duration: _duration,\n            minimumBidAmount: _startPrice,\n            hasBids: false,\n            availableCopies: _amount // at the beginning all the copies are available, as nothing has been sold\n        });\n        offers.push(offer);\n        uint256 index = offers.length - 1;\n\n        emit OfferCreated(index, msg.sender, _tokenId);\n        return index;\n    }\n\n    function getOffersCount() public view returns (uint256) {\n        return offers.length;\n    }\n\n    function ahora() public view returns (uint256) {\n        return block.timestamp;\n    }\n\n    function getEndDate(uint256 _offerId) public view returns (uint256) {\n        Offer memory offer = offers[_offerId];\n        return offer.startTime + offer.duration;\n    }\n\n    function removeFromAuction(uint256 _offerId) public {\n        Offer memory offer = offers[_offerId];\n        require(msg.sender == offer.creator, \"You are not the owner\");\n        require(offer.hasBids == false, \"Bids existing\");\n        offer.isAuction = false;\n        offers[_offerId] = offer;\n    }\n\n    function removeFromSale(uint256 _offerId) public {\n        Offer memory offer = offers[_offerId];\n        require(msg.sender == offer.creator, \"You are not the owner\");\n        offer.isOnSale = false;\n        offers[_offerId] = offer;\n    }\n\n    // Changes the default commission. Only the owner of the marketplace can do that. In basic points\n    function setCommission(uint256 _commission) public onlyOwner {\n        require(_commission <= 5000, \"Commission too high\");\n        commission = _commission;\n    }\n\n    function calcSafetyCheckValue(\n        uint256 _amountToPay,\n        uint256 _paidPrice,\n        uint256 _commission\n    ) internal pure returns (uint256) {\n        uint256 result = _amountToPay + ((_paidPrice * _commission) / 10000);\n        return result;\n    }\n\n    function buy(uint256 _offerId, uint256 _amount)\n        external\n        payable\n        nonReentrant\n    {\n        address buyer = msg.sender;\n        uint256 paidPrice = msg.value;\n\n        Offer memory offer = offers[_offerId];\n        require(offer.isOnSale == true, \"NFT not in direct sale\");\n        require(\n            offer.availableCopies >= _amount,\n            \"Not enough copies available\"\n        );\n        uint256 price = offer.price;\n        require(paidPrice >= price.mul(_amount), \"Price is not enough\");        \n\n        Base1155 asset = Base1155(offer.tokenAddress);\n        require(\n            asset.balanceOf(offer.creator, offer.tokenId) >= offer.amount,\n            \"Owner did not have enough tokens\"\n        );\n        require(\n            asset.isApprovedForAll(offer.creator, address(this)),\n            \"NFT not approved\"\n        );\n\n        emit Claim(_offerId, buyer);\n        \n        asset.safeTransferFrom(\n            offer.creator,\n            msg.sender,\n            offer.tokenId,\n            _amount,\n            \"\"\n        );\n\n        // now, pay the amount - commission - royalties to the auction creator\n        address payable creatorNFT = payable(\n            // getCreator(offer.assetAddress, _offerId)\n            asset.getCreator(offer.tokenId)\n        );\n\n        uint256 commissionToPay = (paidPrice * commission) / 10000;\n        uint256 royaltiesToPay = 0;\n        if (creatorNFT != offer.creator) {\n            // It is a resale. Transfer royalties\n            royaltiesToPay =\n                (paidPrice * asset.getRoyalties(offer.tokenId)) / /*getRoyalties(offer.assetAddress, _offerId)*/\n                10000;\n            (bool success, ) = creatorNFT.call{value: royaltiesToPay}(\"\");\n            require(success, \"Transfer failed.\");\n\n            emit Royalties(creatorNFT, royaltiesToPay);\n        }\n        uint256 amountToPay = paidPrice - commissionToPay - royaltiesToPay;\n\n        (bool success2, ) = offer.creator.call{value: amountToPay}(\"\");\n        require(success2, \"Transfer failed.\");\n        emit PaymentToOwner(\n            offer.creator,\n            amountToPay,\n            commissionToPay,\n            royaltiesToPay,\n            calcSafetyCheckValue(amountToPay, paidPrice, commission)\n        );\n\n        accumulatedCommission += commissionToPay;\n        totalSales = totalSales.add(paidPrice);\n\n        // if there are no items left in the offer close the offer. Otherwise subtract 1 to the offer amount of tokens for sale\n        // TODO check auctions\n        /* if (offer.amount == 1) {\n            // is there is an auction open, we have to give back the last bid amount to the last bidder\n            if (offer.isAuction == true) {\n                // this check is for not transferring back funds on the first bid, as the fist bid is the minimum price set by the auction creator\n                // and the bid owner is address(0)\n                if (\n                    offer.currentBidAmount != 0 &&\n                    offer.currentBidOwner != address(0)\n                ) {\n                    // return funds to the previuos bidder\n                    (bool success3, ) = offer.currentBidOwner.call{\n                        value: offer.currentBidAmount\n                    }(\"\");\n                    require(success3, \"Transfer failed.\");\n                    emit ReturnBidFunds(\n                        _offerId,\n                        offer.currentBidOwner,\n                        offer.currentBidAmount\n                    );\n                }\n            }\n\n            offer.isAuction = false;\n            offer.isOnSale = false;\n        }*/\n\n        offer.availableCopies = offer.availableCopies.sub(_amount);\n\n        if (offer.availableCopies == 0) {\n            offer.isAuction = false;\n            offer.isOnSale = false;\n        }\n\n        offers[_offerId] = offer;\n    }\n\n    // At the end of the call, the amount is saved on the marketplace wallet and the previous bid amount is returned to old bidder\n    // except in the case of the first bid, as could exists a minimum price set by the creator as first bid.\n    /* function bid(uint256 _offerId) public payable nonReentrant {\n        Offer storage offer = offers[_offerId];\n        // Fix #5. check auction date.\n        require(isActive(_offerId), \"Auction is not active\");\n        require(offer.creator != address(0));\n        require(offer.isAuction == true, \"Auction is not active\");\n        require(offer.amount > 0, \"Auction did not have copies on sale\");\n        //  require(msg.value > offer.currentBidAmount, \"Bid too low\");\n\n        // require(msg.value > offer.minPrice, \"Bid lower than minimum price\"); // Extra check. Theoretically when creating an offer it sets minprice to\n        // we got a better bid. Return funds to the previous best bidder\n        // and register the sender as `currentBidOwner`\n\n        // this check is for not transferring back funds on the first bid, as the fist bid is the minimum price set by the auction creator\n        /*  if (\n            offer.currentBidAmount != 0 &&\n            offer.currentBidOwner != address(0)\n        ) {\n            // return funds to the previuos bidder\n                    (bool success, ) = offer.currentBidOwner.call{\n                        value: offer.currentBidAmount\n                    }(\"\");\n                    require(success, \"Transfer failed.\");\n            emit ReturnBidFunds(\n                _offerId,\n                offer.currentBidOwner,\n                offer.currentBidAmount\n            );\n        }\n        // register new bidder\n        offer.currentBidAmount = msg.value;\n        offer.currentBidOwner = payable(msg.sender);\n        offer.bidCount = offer.bidCount.add(1);\n\n        emit AuctionBid(_offerId, msg.sender, msg.value);\n    }\n*/\n    function isActive(uint256 _offerId) public view returns (bool) {\n        return getStatus(_offerId) == Status.active;\n    }\n\n    function isFinished(uint256 _offerId) public view returns (bool) {\n        return getStatus(_offerId) == Status.finished;\n    }\n\n    function getStatus(uint256 _offerId) public view returns (Status) {\n        Offer storage offer = offers[_offerId];\n        if (block.timestamp < offer.startTime) {\n            return Status.pending;\n        } else if (block.timestamp < offer.startTime.add(offer.duration)) {\n            return Status.active;\n        } else {\n            return Status.finished;\n        }\n    }\n\n    function endDate(uint256 _offerId) public view returns (uint256) {\n        Offer storage offer = offers[_offerId];\n        return offer.startTime.add(offer.duration);\n    }\n\n    function getCurrentBidOwner(uint256 _auctionId)\n        public\n        view\n        returns (address)\n    {\n        return auctions[_auctionId].currentBidOwner;\n    }\n\n    function getCurrentBidAmount(uint256 _auctionId)\n        public\n        view\n        returns (uint256)\n    {\n        return auctions[_auctionId].currentBidAmount;\n    }\n\n    function getBidCount(uint256 _auctionId) public view returns (uint256) {\n        return auctions[_auctionId].bidCount;\n    }\n\n    function getWinner(uint256 _auctionId) public view returns (address) {\n        require(\n            isFinished(auctions[_auctionId].offerId),\n            \"Auction not finished yet\"\n        );\n        return auctions[_auctionId].currentBidOwner;\n    }\n\n    /*   function claimAsset(uint256 _offerId) public nonReentrant {\n        require(isFinished(_offerId), \"The auction is still active\");\n        Offer storage offer = offers[_offerId];\n\n        address winner = getWinner(_offerId);\n        require(winner == msg.sender, \"You are not the winner of the auction\");\n\n        // the token could be sold in direct sale or the owner cancelled the auction\n        require(offer.isAuction == true, \"NFT not in auction\");\n\n        Base1155 asset = Base1155(offer.tokenAddress);\n\n        // #3, check if the asset owner had removed their approval or the offer creator is not the token owner anymore.\n        require(\n            asset.balanceOf(offer.creator, offer.tokenId) >= offer.amount,\n            \"Owner did not have enough tokens\"\n        );\n        require(\n            asset.isApprovedForAll(offer.creator, address(this)),\n            \"NFT not approved\"\n        );\n\n        asset.safeTransferFrom(\n            offer.creator,\n            msg.sender,\n            offer.tokenId,\n            1, //offer.amount,\n            \"\"\n        );\n\n        emit Claim(_offerId, winner);\n\n        // now, pay the amount - commission - royalties to the auction creator\n        address payable creatorNFT = payable(\n            //getCreator(offer.assetAddress, offer.tokenId)\n            asset.getCreator(offer.tokenId)\n        );\n        uint256 commissionToPay = (offer.currentBidAmount * commission) / 10000;\n        uint256 royaltiesToPay = 0;\n        if (creatorNFT != offer.creator) {\n            // It is a resale. Transfer royalties\n            royaltiesToPay =\n                (offer.currentBidAmount *\n                    asset.getRoyalties(offer.tokenId) ) /\n                10000;\n                (bool success1, ) = creatorNFT.call{\n                    value: royaltiesToPay\n                }(\"\");\n                require(success1, \"Transfer failed.\");\n            emit Royalties(creatorNFT, royaltiesToPay);\n        }\n        uint256 amountToPay = offer.currentBidAmount -\n            commissionToPay -\n            royaltiesToPay;\n\n                (bool success, ) = offer.creator.call{\n                    value: amountToPay\n                }(\"\");\n                require(success, \"Transfer failed.\");\n        emit PaymentToOwner(\n            offer.creator,\n            amountToPay,\n       //     offer.currentBidAmount,\n            commissionToPay,\n            royaltiesToPay,\n            amountToPay + commissionToPay + royaltiesToPay\n        );\n\n        accumulatedCommission += commissionToPay;\n\n        // if there are no items left in the offer close the offer. Otherwise subtract 1 to the offer amount of tokens for sale\n        if (offer.amount == 1) {\n            offer.isAuction = false;\n            offer.isOnSale = false;\n        } else {\n            offer.currentBidOwner = payable(0);\n            offer.currentBidAmount = 0;\n        }\n\n        offer.amount = offer.amount.sub(1);\n        offers[_offerId] = offer;\n    }\n\n    /* The owner should call this method to cancel an auction on an offer\n    This will cancel the auction and let the copy be sold using direct sale. If the auction has bids, it\n    will return the bidded amount to the bidder before closing the auction\n */\n    /*   function forceAuctionEnding(uint256 _offerId) public onlyOwner nonReentrant {\n        Offer storage offer = offers[_offerId];\n        if (offer.amount == 1) {\n            if (\n                offer.currentBidAmount != 0 &&\n                offer.currentBidOwner != address(0)\n            ) {\n                // return funds to the previuos bidder, if there is a previous bid\n                (bool success, ) = offer.currentBidOwner.call{\n                    value: offer.currentBidAmount\n                }(\"\");\n                require(success, \"Transfer failed.\");\n                emit ReturnBidFunds(\n                    _offerId,\n                    offer.currentBidOwner,\n                    offer.currentBidAmount\n                );\n            }\n        } else {\n            offer.currentBidOwner = payable(0);\n            offer.currentBidAmount = 0;\n        }\n\n        offer.isAuction = false;\n\n        offer.amount = offer.amount.add(1);\n        offers[_offerId] = offer;\n    }\n*/\n    function extractBalance() public onlyOwner nonReentrant {\n        address payable me = payable(msg.sender);\n        (bool success, ) = me.call{value: accumulatedCommission}(\"\");\n        require(success, \"Transfer failed.\");\n        accumulatedCommission = 0;\n    }\n}\n",
  "sourcePath": "/home/linux/ether/XSigma1155/contracts/engine.sol",
  "compiler": {
    "name": "solc",
    "version": "0.8.4+commit.c7e474f2.Emscripten.clang"
  },
  "schemaVersion": "3.3.4",
  "updatedAt": "2021-08-12T09:53:59.291Z",
  "networkType": "ethereum",
  "devdoc": {
    "kind": "dev",
    "methods": {
      "owner()": {
        "details": "Returns the address of the current owner."
      },
      "renounceOwnership()": {
        "details": "Leaves the contract without owner. It will not be possible to call `onlyOwner` functions anymore. Can only be called by the current owner. NOTE: Renouncing ownership will leave the contract without an owner, thereby removing any functionality that is only available to the owner."
      },
      "transferOwnership(address)": {
        "details": "Transfers ownership of the contract to a new account (`newOwner`). Can only be called by the current owner."
      }
    },
    "version": 1
  },
  "userdoc": {
    "kind": "user",
    "methods": {},
    "version": 1
  }
}