{
  "contractName": "Engine",
  "abi": [
    {
      "anonymous": false,
      "inputs": [
        {
          "indexed": false,
          "internalType": "uint256",
          "name": "_index",
          "type": "uint256"
        },
        {
          "indexed": false,
          "internalType": "address",
          "name": "_bidder",
          "type": "address"
        },
        {
          "indexed": false,
          "internalType": "uint256",
          "name": "amount",
          "type": "uint256"
        }
      ],
      "name": "AuctionBid",
      "type": "event"
    },
    {
      "anonymous": false,
      "inputs": [
        {
          "indexed": false,
          "internalType": "uint256",
          "name": "auctionIndex",
          "type": "uint256"
        },
        {
          "indexed": false,
          "internalType": "address",
          "name": "claimer",
          "type": "address"
        }
      ],
      "name": "Claim",
      "type": "event"
    },
    {
      "anonymous": false,
      "inputs": [
        {
          "indexed": false,
          "internalType": "uint256",
          "name": "_index",
          "type": "uint256"
        },
        {
          "indexed": false,
          "internalType": "address",
          "name": "_creator",
          "type": "address"
        },
        {
          "indexed": false,
          "internalType": "uint256",
          "name": "_tokenId",
          "type": "uint256"
        }
      ],
      "name": "OfferCreated",
      "type": "event"
    },
    {
      "anonymous": false,
      "inputs": [
        {
          "indexed": true,
          "internalType": "address",
          "name": "previousOwner",
          "type": "address"
        },
        {
          "indexed": true,
          "internalType": "address",
          "name": "newOwner",
          "type": "address"
        }
      ],
      "name": "OwnershipTransferred",
      "type": "event"
    },
    {
      "anonymous": false,
      "inputs": [
        {
          "indexed": false,
          "internalType": "address",
          "name": "receiver",
          "type": "address"
        },
        {
          "indexed": false,
          "internalType": "uint256",
          "name": "amount",
          "type": "uint256"
        },
        {
          "indexed": false,
          "internalType": "uint256",
          "name": "commission",
          "type": "uint256"
        },
        {
          "indexed": false,
          "internalType": "uint256",
          "name": "royalties",
          "type": "uint256"
        },
        {
          "indexed": false,
          "internalType": "uint256",
          "name": "safetyCheckValue",
          "type": "uint256"
        }
      ],
      "name": "PaymentToOwner",
      "type": "event"
    },
    {
      "anonymous": false,
      "inputs": [
        {
          "indexed": false,
          "internalType": "uint256",
          "name": "_index",
          "type": "uint256"
        },
        {
          "indexed": false,
          "internalType": "address",
          "name": "_bidder",
          "type": "address"
        },
        {
          "indexed": false,
          "internalType": "uint256",
          "name": "amount",
          "type": "uint256"
        }
      ],
      "name": "ReturnBidFunds",
      "type": "event"
    },
    {
      "anonymous": false,
      "inputs": [
        {
          "indexed": false,
          "internalType": "address",
          "name": "receiver",
          "type": "address"
        },
        {
          "indexed": false,
          "internalType": "uint256",
          "name": "amount",
          "type": "uint256"
        }
      ],
      "name": "Royalties",
      "type": "event"
    },
    {
      "inputs": [],
      "name": "accumulatedCommission",
      "outputs": [
        {
          "internalType": "uint256",
          "name": "",
          "type": "uint256"
        }
      ],
      "stateMutability": "view",
      "type": "function",
      "constant": true
    },
    {
      "inputs": [
        {
          "internalType": "uint256",
          "name": "",
          "type": "uint256"
        }
      ],
      "name": "auctions",
      "outputs": [
        {
          "internalType": "address",
          "name": "tokenAddress",
          "type": "address"
        },
        {
          "internalType": "uint256",
          "name": "tokenId",
          "type": "uint256"
        },
        {
          "internalType": "uint256",
          "name": "currentBidAmount",
          "type": "uint256"
        },
        {
          "internalType": "address payable",
          "name": "currentBidOwner",
          "type": "address"
        },
        {
          "internalType": "uint256",
          "name": "bidCount",
          "type": "uint256"
        },
        {
          "internalType": "uint256",
          "name": "offerId",
          "type": "uint256"
        },
        {
          "internalType": "uint256",
          "name": "numCopies",
          "type": "uint256"
        },
        {
          "internalType": "bool",
          "name": "active",
          "type": "bool"
        },
        {
          "internalType": "uint256",
          "name": "startTime",
          "type": "uint256"
        },
        {
          "internalType": "uint256",
          "name": "duration",
          "type": "uint256"
        }
      ],
      "stateMutability": "view",
      "type": "function",
      "constant": true
    },
    {
      "inputs": [],
      "name": "commission",
      "outputs": [
        {
          "internalType": "uint256",
          "name": "",
          "type": "uint256"
        }
      ],
      "stateMutability": "view",
      "type": "function",
      "constant": true
    },
    {
      "inputs": [
        {
          "internalType": "uint256",
          "name": "",
          "type": "uint256"
        }
      ],
      "name": "offers",
      "outputs": [
        {
          "internalType": "address",
          "name": "tokenAddress",
          "type": "address"
        },
        {
          "internalType": "uint256",
          "name": "tokenId",
          "type": "uint256"
        },
        {
          "internalType": "uint256",
          "name": "amount",
          "type": "uint256"
        },
        {
          "internalType": "address payable",
          "name": "creator",
          "type": "address"
        },
        {
          "internalType": "uint256",
          "name": "price",
          "type": "uint256"
        },
        {
          "internalType": "bool",
          "name": "isOnSale",
          "type": "bool"
        },
        {
          "internalType": "bool",
          "name": "isAuction",
          "type": "bool"
        },
        {
          "internalType": "uint256",
          "name": "startTime",
          "type": "uint256"
        },
        {
          "internalType": "uint256",
          "name": "duration",
          "type": "uint256"
        },
        {
          "internalType": "uint256",
          "name": "minimumBidAmount",
          "type": "uint256"
        },
        {
          "internalType": "uint256",
          "name": "availableCopies",
          "type": "uint256"
        },
        {
          "internalType": "bool",
          "name": "hasBids",
          "type": "bool"
        }
      ],
      "stateMutability": "view",
      "type": "function",
      "constant": true
    },
    {
      "inputs": [],
      "name": "owner",
      "outputs": [
        {
          "internalType": "address",
          "name": "",
          "type": "address"
        }
      ],
      "stateMutability": "view",
      "type": "function",
      "constant": true
    },
    {
      "inputs": [],
      "name": "renounceOwnership",
      "outputs": [],
      "stateMutability": "nonpayable",
      "type": "function"
    },
    {
      "inputs": [],
      "name": "totalSales",
      "outputs": [
        {
          "internalType": "uint256",
          "name": "",
          "type": "uint256"
        }
      ],
      "stateMutability": "view",
      "type": "function",
      "constant": true
    },
    {
      "inputs": [
        {
          "internalType": "address",
          "name": "newOwner",
          "type": "address"
        }
      ],
      "name": "transferOwnership",
      "outputs": [],
      "stateMutability": "nonpayable",
      "type": "function"
    },
    {
      "inputs": [
        {
          "internalType": "uint256",
          "name": "_offerId",
          "type": "uint256"
        },
        {
          "internalType": "uint256",
          "name": "_numCopies",
          "type": "uint256"
        }
      ],
      "name": "createAuctionAndBid",
      "outputs": [
        {
          "internalType": "uint256",
          "name": "",
          "type": "uint256"
        }
      ],
      "stateMutability": "payable",
      "type": "function",
      "payable": true
    },
    {
      "inputs": [
        {
          "internalType": "uint256",
          "name": "_auctionId",
          "type": "uint256"
        }
      ],
      "name": "bid",
      "outputs": [],
      "stateMutability": "payable",
      "type": "function",
      "payable": true
    },
    {
      "inputs": [
        {
          "internalType": "uint256",
          "name": "_auctionId",
          "type": "uint256"
        }
      ],
      "name": "closeAuction",
      "outputs": [],
      "stateMutability": "nonpayable",
      "type": "function"
    },
    {
      "inputs": [
        {
          "internalType": "address",
          "name": "_tokenAddress",
          "type": "address"
        },
        {
          "internalType": "uint256",
          "name": "_tokenId",
          "type": "uint256"
        },
        {
          "internalType": "uint256",
          "name": "_amount",
          "type": "uint256"
        },
        {
          "internalType": "bool",
          "name": "_isDirectSale",
          "type": "bool"
        },
        {
          "internalType": "bool",
          "name": "_isAuction",
          "type": "bool"
        },
        {
          "internalType": "uint256",
          "name": "_price",
          "type": "uint256"
        },
        {
          "internalType": "uint256",
          "name": "_startPrice",
          "type": "uint256"
        },
        {
          "internalType": "uint256",
          "name": "_startTime",
          "type": "uint256"
        },
        {
          "internalType": "uint256",
          "name": "_duration",
          "type": "uint256"
        }
      ],
      "name": "createOffer",
      "outputs": [
        {
          "internalType": "uint256",
          "name": "",
          "type": "uint256"
        }
      ],
      "stateMutability": "nonpayable",
      "type": "function"
    },
    {
      "inputs": [
        {
          "internalType": "uint256",
          "name": "_offerId",
          "type": "uint256"
        }
      ],
      "name": "hasBids",
      "outputs": [
        {
          "internalType": "bool",
          "name": "",
          "type": "bool"
        }
      ],
      "stateMutability": "view",
      "type": "function",
      "constant": true
    },
    {
      "inputs": [],
      "name": "ahora",
      "outputs": [
        {
          "internalType": "uint256",
          "name": "",
          "type": "uint256"
        }
      ],
      "stateMutability": "view",
      "type": "function",
      "constant": true
    },
    {
      "inputs": [
        {
          "internalType": "uint256",
          "name": "_offerId",
          "type": "uint256"
        },
        {
          "internalType": "bool",
          "name": "_sale",
          "type": "bool"
        },
        {
          "internalType": "bool",
          "name": "_auction",
          "type": "bool"
        }
      ],
      "name": "removeFromAuctionOrSale",
      "outputs": [],
      "stateMutability": "nonpayable",
      "type": "function"
    },
    {
      "inputs": [
        {
          "internalType": "uint256",
          "name": "_commission",
          "type": "uint256"
        }
      ],
      "name": "setCommission",
      "outputs": [],
      "stateMutability": "nonpayable",
      "type": "function"
    },
    {
      "inputs": [
        {
          "internalType": "uint256",
          "name": "_offerId",
          "type": "uint256"
        },
        {
          "internalType": "uint256",
          "name": "_amount",
          "type": "uint256"
        }
      ],
      "name": "buy",
      "outputs": [],
      "stateMutability": "payable",
      "type": "function",
      "payable": true
    },
    {
      "inputs": [
        {
          "internalType": "uint256",
          "name": "_auctionId",
          "type": "uint256"
        }
      ],
      "name": "isActive",
      "outputs": [
        {
          "internalType": "bool",
          "name": "",
          "type": "bool"
        }
      ],
      "stateMutability": "view",
      "type": "function",
      "constant": true
    },
    {
      "inputs": [
        {
          "internalType": "uint256",
          "name": "_auctionId",
          "type": "uint256"
        }
      ],
      "name": "isFinished",
      "outputs": [
        {
          "internalType": "bool",
          "name": "",
          "type": "bool"
        }
      ],
      "stateMutability": "view",
      "type": "function",
      "constant": true
    },
    {
      "inputs": [
        {
          "internalType": "uint256",
          "name": "_auctionId",
          "type": "uint256"
        }
      ],
      "name": "getStatus",
      "outputs": [
        {
          "internalType": "enum Engine.Status",
          "name": "",
          "type": "uint8"
        }
      ],
      "stateMutability": "view",
      "type": "function",
      "constant": true
    },
    {
      "inputs": [
        {
          "internalType": "uint256",
          "name": "_auctionId",
          "type": "uint256"
        }
      ],
      "name": "endDate",
      "outputs": [
        {
          "internalType": "uint256",
          "name": "",
          "type": "uint256"
        }
      ],
      "stateMutability": "view",
      "type": "function",
      "constant": true
    },
    {
      "inputs": [
        {
          "internalType": "uint256",
          "name": "_auctionId",
          "type": "uint256"
        }
      ],
      "name": "getCurrentBidOwner",
      "outputs": [
        {
          "internalType": "address",
          "name": "",
          "type": "address"
        }
      ],
      "stateMutability": "view",
      "type": "function",
      "constant": true
    },
    {
      "inputs": [
        {
          "internalType": "uint256",
          "name": "_auctionId",
          "type": "uint256"
        }
      ],
      "name": "getCurrentBidAmount",
      "outputs": [
        {
          "internalType": "uint256",
          "name": "",
          "type": "uint256"
        }
      ],
      "stateMutability": "view",
      "type": "function",
      "constant": true
    },
    {
      "inputs": [
        {
          "internalType": "uint256",
          "name": "_auctionId",
          "type": "uint256"
        }
      ],
      "name": "getBidCount",
      "outputs": [
        {
          "internalType": "uint256",
          "name": "",
          "type": "uint256"
        }
      ],
      "stateMutability": "view",
      "type": "function",
      "constant": true
    },
    {
      "inputs": [
        {
          "internalType": "uint256",
          "name": "_auctionId",
          "type": "uint256"
        }
      ],
      "name": "getWinner",
      "outputs": [
        {
          "internalType": "address",
          "name": "",
          "type": "address"
        }
      ],
      "stateMutability": "view",
      "type": "function",
      "constant": true
    },
    {
      "inputs": [
        {
          "internalType": "uint256",
          "name": "_auctionId",
          "type": "uint256"
        }
      ],
      "name": "forceAuctionEnding",
      "outputs": [],
      "stateMutability": "nonpayable",
      "type": "function"
    },
    {
      "inputs": [],
      "name": "extractBalance",
      "outputs": [],
      "stateMutability": "nonpayable",
      "type": "function"
    }
  ],
  "bytecode": "0x60806040526000600255600060035560006004553480156200002057600080fd5b50600062000033620000de60201b60201c565b9050806000806101000a81548173ffffffffffffffffffffffffffffffffffffffff021916908373ffffffffffffffffffffffffffffffffffffffff1602179055508073ffffffffffffffffffffffffffffffffffffffff16600073ffffffffffffffffffffffffffffffffffffffff167f8be0079c531659141344cd1fd0a4f28419497f9722a3daafe3b4186f6b6457e060405160405180910390a35060018081905550620000e6565b600033905090565b615cd380620000f66000396000f3fe60806040526004361061019c5760003560e01c8063744d3411116100ec578063b670571b1161008a578063e148919111610064578063e1489191146105fd578063e8ba650914610628578063f2fde38b14610665578063fb7bd9041461068e5761019c565b8063b670571b14610588578063b7a256fc146105b8578063d6febde8146105e15761019c565b80638a72ea6a116100c65780638a72ea6a146104ad5780638da5cb5b146104f55780639f49be9c14610520578063ae6936731461055d5761019c565b8063744d3411146103f657806382afd23b1461043357806386b46073146104705761019c565b80634cac5b4b116101595780636605ff66116101335780636605ff66146103605780636975846a1461038b5780636af83b24146103c8578063715018a6146103df5761019c565b80634cac5b4b146102a0578063571a26a0146102dd5780635c622a0e146103235761019c565b8063236ed8f3146101a15780632b866759146101ca57806332b1207a146101f5578063355e6b431461021e5780634129b2c914610247578063454a2ab314610284575b600080fd5b3480156101ad57600080fd5b506101c860048036038101906101c39190614a97565b6106cb565b005b3480156101d657600080fd5b506101df61146d565b6040516101ec9190615510565b60405180910390f35b34801561020157600080fd5b5061021c60048036038101906102179190614ae9565b611475565b005b34801561022a57600080fd5b5061024560048036038101906102409190614a97565b611878565b005b34801561025357600080fd5b5061026e60048036038101906102699190614a97565b611943565b60405161027b9190614f2b565b60405180910390f35b61029e60048036038101906102999190614a97565b611a00565b005b3480156102ac57600080fd5b506102c760048036038101906102c29190614a97565b6120fa565b6040516102d49190615510565b60405180910390f35b3480156102e957600080fd5b5061030460048036038101906102ff9190614a97565b61216a565b60405161031a9a9998979695949392919061517e565b60405180910390f35b34801561032f57600080fd5b5061034a60048036038101906103459190614a97565b61221b565b6040516103579190615235565b60405180910390f35b34801561036c57600080fd5b506103756122b5565b6040516103829190615510565b60405180910390f35b34801561039757600080fd5b506103b260048036038101906103ad9190614a97565b6122bb565b6040516103bf9190615510565b60405180910390f35b3480156103d457600080fd5b506103dd612310565b005b3480156103eb57600080fd5b506103f46124a0565b005b34801561040257600080fd5b5061041d60048036038101906104189190614a97565b6125da565b60405161042a9190615510565b60405180910390f35b34801561043f57600080fd5b5061045a60048036038101906104559190614a97565b61262f565b604051610467919061521a565b60405180910390f35b34801561047c57600080fd5b5061049760048036038101906104929190614a97565b6126b4565b6040516104a49190614f2b565b60405180910390f35b3480156104b957600080fd5b506104d460048036038101906104cf9190614a97565b612729565b6040516104ec9c9b9a999897969594939291906150c4565b60405180910390f35b34801561050157600080fd5b5061050a612800565b6040516105179190614f2b565b60405180910390f35b34801561052c57600080fd5b50610547600480360381019061054291906149a8565b612829565b6040516105549190615510565b60405180910390f35b34801561056957600080fd5b50610572612b4e565b60405161057f9190615510565b60405180910390f35b6105a2600480360381019061059d9190614b38565b612b54565b6040516105af9190615510565b60405180910390f35b3480156105c457600080fd5b506105df60048036038101906105da9190614a97565b61323a565b005b6105fb60048036038101906105f69190614b38565b61398b565b005b34801561060957600080fd5b5061061261447d565b60405161061f9190615510565b60405180910390f35b34801561063457600080fd5b5061064f600480360381019061064a9190614a97565b614483565b60405161065c919061521a565b60405180910390f35b34801561067157600080fd5b5061068c60048036038101906106879190614956565b614507565b005b34801561069a57600080fd5b506106b560048036038101906106b09190614a97565b6146b0565b6040516106c2919061521a565b60405180910390f35b6106d361485a565b73ffffffffffffffffffffffffffffffffffffffff166106f1612800565b73ffffffffffffffffffffffffffffffffffffffff1614610747576040517f08c379a000000000000000000000000000000000000000000000000000000000815260040161073e906153b0565b60405180910390fd5b600060068281548110610783577f4e487b7100000000000000000000000000000000000000000000000000000000600052603260045260246000fd5b90600052602060002090600a0201604051806101400160405290816000820160009054906101000a900473ffffffffffffffffffffffffffffffffffffffff1673ffffffffffffffffffffffffffffffffffffffff1673ffffffffffffffffffffffffffffffffffffffff16815260200160018201548152602001600282015481526020016003820160009054906101000a900473ffffffffffffffffffffffffffffffffffffffff1673ffffffffffffffffffffffffffffffffffffffff1673ffffffffffffffffffffffffffffffffffffffff1681526020016004820154815260200160058201548152602001600682015481526020016007820160009054906101000a900460ff16151515158152602001600882015481526020016009820154815250509050600060058260a00151815481106108ec577f4e487b7100000000000000000000000000000000000000000000000000000000600052603260045260246000fd5b90600052602060002090600b0201604051806101800160405290816000820160009054906101000a900473ffffffffffffffffffffffffffffffffffffffff1673ffffffffffffffffffffffffffffffffffffffff1673ffffffffffffffffffffffffffffffffffffffff16815260200160018201548152602001600282015481526020016003820160009054906101000a900473ffffffffffffffffffffffffffffffffffffffff1673ffffffffffffffffffffffffffffffffffffffff1673ffffffffffffffffffffffffffffffffffffffff168152602001600482015481526020016005820160009054906101000a900460ff161515151581526020016005820160019054906101000a900460ff1615151515815260200160068201548152602001600782015481526020016008820154815260200160098201548152602001600a820160009054906101000a900460ff1615151515815250509050600115158260e00151151514610a96576040517f08c379a0000000000000000000000000000000000000000000000000000000008152600401610a8d90615350565b60405180910390fd5b610a9f83614483565b610ade576040517f08c379a0000000000000000000000000000000000000000000000000000000008152600401610ad5906153d0565b60405180910390fd5b600115158160c00151151514610b29576040517f08c379a0000000000000000000000000000000000000000000000000000000008152600401610b2090615390565b60405180910390fd5b60008160000151905081604001518173ffffffffffffffffffffffffffffffffffffffff1662fdd58e846060015185602001516040518363ffffffff1660e01b8152600401610b7992919061501f565b60206040518083038186803b158015610b9157600080fd5b505afa158015610ba5573d6000803e3d6000fd5b505050506040513d601f19601f82011682018060405250810190610bc99190614ac0565b1015610c0a576040517f08c379a0000000000000000000000000000000000000000000000000000000008152600401610c01906154b0565b60405180910390fd5b8073ffffffffffffffffffffffffffffffffffffffff1663e985e9c58360600151306040518363ffffffff1660e01b8152600401610c49929190614f46565b60206040518083038186803b158015610c6157600080fd5b505afa158015610c75573d6000803e3d6000fd5b505050506040513d601f19601f82011682018060405250810190610c999190614a6e565b610cd8576040517f08c379a0000000000000000000000000000000000000000000000000000000008152600401610ccf906154d0565b60405180910390fd5b7f35538759d80c1fd7bb450a0d05601db5a99fa8b5d073a07c847a9fd61029b1078360a001518460600151604051610d11929190615554565b60405180910390a18073ffffffffffffffffffffffffffffffffffffffff1663f242432a8360600151856060015185602001518760c001516040518563ffffffff1660e01b8152600401610d689493929190614f6f565b600060405180830381600087803b158015610d8257600080fd5b505af1158015610d96573d6000803e3d6000fd5b5050505060008173ffffffffffffffffffffffffffffffffffffffff1663d48e638a84602001516040518263ffffffff1660e01b8152600401610dd99190615510565b60206040518083038186803b158015610df157600080fd5b505afa158015610e05573d6000803e3d6000fd5b505050506040513d601f19601f82011682018060405250810190610e29919061497f565b905060006127106002548660400151610e42919061569f565b610e4c919061566e565b90506000846060015173ffffffffffffffffffffffffffffffffffffffff168373ffffffffffffffffffffffffffffffffffffffff1614611019576127108473ffffffffffffffffffffffffffffffffffffffff1663bb3bafd687602001516040518263ffffffff1660e01b8152600401610ec79190615510565b60206040518083038186803b158015610edf57600080fd5b505afa158015610ef3573d6000803e3d6000fd5b505050506040513d601f19601f82011682018060405250810190610f179190614ac0565b8760400151610f26919061569f565b610f30919061566e565b905060008373ffffffffffffffffffffffffffffffffffffffff1682604051610f5890614f16565b60006040518083038185875af1925050503d8060008114610f95576040519150601f19603f3d011682016040523d82523d6000602084013e610f9a565b606091505b5050905080610fde576040517f08c379a0000000000000000000000000000000000000000000000000000000008152600401610fd590615490565b60405180910390fd5b7f54b960faf8b038c33ba9912fdb9ac1e8e0096c5f327d1c89e62b5d9c5357ddb6848360405161100f92919061501f565b60405180910390a1505b60008183886040015161102c91906156f9565b61103691906156f9565b90506000866060015173ffffffffffffffffffffffffffffffffffffffff168260405161106290614f16565b60006040518083038185875af1925050503d806000811461109f576040519150601f19603f3d011682016040523d82523d6000602084013e6110a4565b606091505b50509050806110e8576040517f08c379a00000000000000000000000000000000000000000000000000000000081526004016110df90615490565b60405180910390fd5b7f9a37aa02cc986a4a0c2d22af3dcdb9db27c178f7feed43e7037c783b55ed91ba8760600151838686611122878e60400151600254614862565b604051611133959493929190615048565b60405180910390a16111508460035461489690919063ffffffff16565b60038190555061116f886040015160045461489690919063ffffffff16565b60048190555060008860e00190151590811515815250508760068a815481106111c1577f4e487b7100000000000000000000000000000000000000000000000000000000600052603260045260246000fd5b90600052602060002090600a020160008201518160000160006101000a81548173ffffffffffffffffffffffffffffffffffffffff021916908373ffffffffffffffffffffffffffffffffffffffff160217905550602082015181600101556040820151816002015560608201518160030160006101000a81548173ffffffffffffffffffffffffffffffffffffffff021916908373ffffffffffffffffffffffffffffffffffffffff1602179055506080820151816004015560a0820151816005015560c0820151816006015560e08201518160070160006101000a81548160ff021916908315150217905550610100820151816008015561012082015181600901559050506000876101600190151590811515815250508660058960a0015181548110611319577f4e487b7100000000000000000000000000000000000000000000000000000000600052603260045260246000fd5b90600052602060002090600b020160008201518160000160006101000a81548173ffffffffffffffffffffffffffffffffffffffff021916908373ffffffffffffffffffffffffffffffffffffffff160217905550602082015181600101556040820151816002015560608201518160030160006101000a81548173ffffffffffffffffffffffffffffffffffffffff021916908373ffffffffffffffffffffffffffffffffffffffff1602179055506080820151816004015560a08201518160050160006101000a81548160ff02191690831515021790555060c08201518160050160016101000a81548160ff02191690831515021790555060e0820151816006015561010082015181600701556101208201518160080155610140820151816009015561016082015181600a0160006101000a81548160ff021916908315150217905550905050505050505050505050565b600042905090565b6000600584815481106114b1577f4e487b7100000000000000000000000000000000000000000000000000000000600052603260045260246000fd5b90600052602060002090600b0201604051806101800160405290816000820160009054906101000a900473ffffffffffffffffffffffffffffffffffffffff1673ffffffffffffffffffffffffffffffffffffffff1673ffffffffffffffffffffffffffffffffffffffff16815260200160018201548152602001600282015481526020016003820160009054906101000a900473ffffffffffffffffffffffffffffffffffffffff1673ffffffffffffffffffffffffffffffffffffffff1673ffffffffffffffffffffffffffffffffffffffff168152602001600482015481526020016005820160009054906101000a900460ff161515151581526020016005820160019054906101000a900460ff1615151515815260200160068201548152602001600782015481526020016008820154815260200160098201548152602001600a820160009054906101000a900460ff1615151515815250509050806060015173ffffffffffffffffffffffffffffffffffffffff163373ffffffffffffffffffffffffffffffffffffffff1614611682576040517f08c379a000000000000000000000000000000000000000000000000000000000815260040161167990615330565b60405180910390fd5b600015158161016001511515146116ce576040517f08c379a00000000000000000000000000000000000000000000000000000000081526004016116c5906152d0565b60405180910390fd5b818160c0019015159081151581525050828160a00190151590811515815250508060058581548110611729577f4e487b7100000000000000000000000000000000000000000000000000000000600052603260045260246000fd5b90600052602060002090600b020160008201518160000160006101000a81548173ffffffffffffffffffffffffffffffffffffffff021916908373ffffffffffffffffffffffffffffffffffffffff160217905550602082015181600101556040820151816002015560608201518160030160006101000a81548173ffffffffffffffffffffffffffffffffffffffff021916908373ffffffffffffffffffffffffffffffffffffffff1602179055506080820151816004015560a08201518160050160006101000a81548160ff02191690831515021790555060c08201518160050160016101000a81548160ff02191690831515021790555060e0820151816006015561010082015181600701556101208201518160080155610140820151816009015561016082015181600a0160006101000a81548160ff02191690831515021790555090505050505050565b61188061485a565b73ffffffffffffffffffffffffffffffffffffffff1661189e612800565b73ffffffffffffffffffffffffffffffffffffffff16146118f4576040517f08c379a00000000000000000000000000000000000000000000000000000000081526004016118eb906153b0565b60405180910390fd5b611388811115611939576040517f08c379a000000000000000000000000000000000000000000000000000000000815260040161193090615430565b60405180910390fd5b8060028190555050565b600061194e82614483565b61198d576040517f08c379a000000000000000000000000000000000000000000000000000000000815260040161198490615270565b60405180910390fd5b600682815481106119c7577f4e487b7100000000000000000000000000000000000000000000000000000000600052603260045260246000fd5b90600052602060002090600a020160030160009054906101000a900473ffffffffffffffffffffffffffffffffffffffff169050919050565b600060068281548110611a3c577f4e487b7100000000000000000000000000000000000000000000000000000000600052603260045260246000fd5b90600052602060002090600a0201604051806101400160405290816000820160009054906101000a900473ffffffffffffffffffffffffffffffffffffffff1673ffffffffffffffffffffffffffffffffffffffff1673ffffffffffffffffffffffffffffffffffffffff16815260200160018201548152602001600282015481526020016003820160009054906101000a900473ffffffffffffffffffffffffffffffffffffffff1673ffffffffffffffffffffffffffffffffffffffff1673ffffffffffffffffffffffffffffffffffffffff1681526020016004820154815260200160058201548152602001600682015481526020016007820160009054906101000a900460ff16151515158152602001600882015481526020016009820154815250509050600060058260a0015181548110611ba5577f4e487b7100000000000000000000000000000000000000000000000000000000600052603260045260246000fd5b90600052602060002090600b0201604051806101800160405290816000820160009054906101000a900473ffffffffffffffffffffffffffffffffffffffff1673ffffffffffffffffffffffffffffffffffffffff1673ffffffffffffffffffffffffffffffffffffffff16815260200160018201548152602001600282015481526020016003820160009054906101000a900473ffffffffffffffffffffffffffffffffffffffff1673ffffffffffffffffffffffffffffffffffffffff1673ffffffffffffffffffffffffffffffffffffffff168152602001600482015481526020016005820160009054906101000a900460ff161515151581526020016005820160019054906101000a900460ff1615151515815260200160068201548152602001600782015481526020016008820154815260200160098201548152602001600a820160009054906101000a900460ff16151515158152505090508060c00151611d48576040517f08c379a0000000000000000000000000000000000000000000000000000000008152600401611d3f90615410565b60405180910390fd5b8160e00151611d8c576040517f08c379a0000000000000000000000000000000000000000000000000000000008152600401611d8390615390565b60405180910390fd5b611d958361262f565b611dd4576040517f08c379a0000000000000000000000000000000000000000000000000000000008152600401611dcb90615370565b60405180910390fd5b600073ffffffffffffffffffffffffffffffffffffffff16816060015173ffffffffffffffffffffffffffffffffffffffff161415611e1257600080fd5b81604001513411611e58576040517f08c379a0000000000000000000000000000000000000000000000000000000008152600401611e4f90615250565b60405180910390fd5b6000826060015173ffffffffffffffffffffffffffffffffffffffff168360400151604051611e8690614f16565b60006040518083038185875af1925050503d8060008114611ec3576040519150601f19603f3d011682016040523d82523d6000602084013e611ec8565b606091505b5050905080611f0c576040517f08c379a0000000000000000000000000000000000000000000000000000000008152600401611f0390615290565b60405180910390fd5b7f972fd66eadedfb87beff023a37f4d8c6a91fdd147fa0d3c036e0c6c5a0cdc7958484606001518560400151604051611f479392919061557d565b60405180910390a13483604001818152505033836060019073ffffffffffffffffffffffffffffffffffffffff16908173ffffffffffffffffffffffffffffffffffffffff1681525050611fa96001846080015161489690919063ffffffff16565b8360800181815250508260068581548110611fed577f4e487b7100000000000000000000000000000000000000000000000000000000600052603260045260246000fd5b90600052602060002090600a020160008201518160000160006101000a81548173ffffffffffffffffffffffffffffffffffffffff021916908373ffffffffffffffffffffffffffffffffffffffff160217905550602082015181600101556040820151816002015560608201518160030160006101000a81548173ffffffffffffffffffffffffffffffffffffffff021916908373ffffffffffffffffffffffffffffffffffffffff1602179055506080820151816004015560a0820151816005015560c0820151816006015560e08201518160070160006101000a81548160ff0219169083151502179055506101008201518160080155610120820151816009015590505050505050565b60008060068381548110612137577f4e487b7100000000000000000000000000000000000000000000000000000000600052603260045260246000fd5b90600052602060002090600a020190506121628160090154826008015461489690919063ffffffff16565b915050919050565b6006818154811061217a57600080fd5b90600052602060002090600a02016000915090508060000160009054906101000a900473ffffffffffffffffffffffffffffffffffffffff16908060010154908060020154908060030160009054906101000a900473ffffffffffffffffffffffffffffffffffffffff16908060040154908060050154908060060154908060070160009054906101000a900460ff1690806008015490806009015490508a565b60008060068381548110612258577f4e487b7100000000000000000000000000000000000000000000000000000000600052603260045260246000fd5b90600052602060002090600a02019050806008015442101561227e5760009150506122b0565b6122998160090154826008015461489690919063ffffffff16565b4210156122aa5760019150506122b0565b60029150505b919050565b60045481565b6000600682815481106122f7577f4e487b7100000000000000000000000000000000000000000000000000000000600052603260045260246000fd5b90600052602060002090600a0201600201549050919050565b61231861485a565b73ffffffffffffffffffffffffffffffffffffffff16612336612800565b73ffffffffffffffffffffffffffffffffffffffff161461238c576040517f08c379a0000000000000000000000000000000000000000000000000000000008152600401612383906153b0565b60405180910390fd5b600260015414156123d2576040517f08c379a00000000000000000000000000000000000000000000000000000000081526004016123c9906154f0565b60405180910390fd5b6002600181905550600033905060008173ffffffffffffffffffffffffffffffffffffffff1660035460405161240790614f16565b60006040518083038185875af1925050503d8060008114612444576040519150601f19603f3d011682016040523d82523d6000602084013e612449565b606091505b505090508061248d576040517f08c379a000000000000000000000000000000000000000000000000000000000815260040161248490615490565b60405180910390fd5b6000600381905550505060018081905550565b6124a861485a565b73ffffffffffffffffffffffffffffffffffffffff166124c6612800565b73ffffffffffffffffffffffffffffffffffffffff161461251c576040517f08c379a0000000000000000000000000000000000000000000000000000000008152600401612513906153b0565b60405180910390fd5b600073ffffffffffffffffffffffffffffffffffffffff1660008054906101000a900473ffffffffffffffffffffffffffffffffffffffff1673ffffffffffffffffffffffffffffffffffffffff167f8be0079c531659141344cd1fd0a4f28419497f9722a3daafe3b4186f6b6457e060405160405180910390a360008060006101000a81548173ffffffffffffffffffffffffffffffffffffffff021916908373ffffffffffffffffffffffffffffffffffffffff160217905550565b600060068281548110612616577f4e487b7100000000000000000000000000000000000000000000000000000000600052603260045260246000fd5b90600052602060002090600a0201600401549050919050565b60006001600281111561266b577f4e487b7100000000000000000000000000000000000000000000000000000000600052602160045260246000fd5b6126748361221b565b60028111156126ac577f4e487b7100000000000000000000000000000000000000000000000000000000600052602160045260246000fd5b149050919050565b6000600682815481106126f0577f4e487b7100000000000000000000000000000000000000000000000000000000600052603260045260246000fd5b90600052602060002090600a020160030160009054906101000a900473ffffffffffffffffffffffffffffffffffffffff169050919050565b6005818154811061273957600080fd5b90600052602060002090600b02016000915090508060000160009054906101000a900473ffffffffffffffffffffffffffffffffffffffff16908060010154908060020154908060030160009054906101000a900473ffffffffffffffffffffffffffffffffffffffff16908060040154908060050160009054906101000a900460ff16908060050160019054906101000a900460ff169080600601549080600701549080600801549080600901549080600a0160009054906101000a900460ff1690508c565b60008060009054906101000a900473ffffffffffffffffffffffffffffffffffffffff16905090565b6000808a9050888173ffffffffffffffffffffffffffffffffffffffff1662fdd58e338d6040518363ffffffff1660e01b815260040161286a92919061509b565b60206040518083038186803b15801561288257600080fd5b505afa158015612896573d6000803e3d6000fd5b505050506040513d601f19601f820116820180604052508101906128ba9190614ac0565b10156128fb576040517f08c379a00000000000000000000000000000000000000000000000000000000081526004016128f290615310565b60405180910390fd5b60006040518061018001604052808d73ffffffffffffffffffffffffffffffffffffffff1681526020018c81526020018b81526020013373ffffffffffffffffffffffffffffffffffffffff1681526020018881526020018a1515815260200189151581526020018681526020018581526020018781526020018b815260200160001515815250905060058190806001815401808255809150506001900390600052602060002090600b020160009091909190915060008201518160000160006101000a81548173ffffffffffffffffffffffffffffffffffffffff021916908373ffffffffffffffffffffffffffffffffffffffff160217905550602082015181600101556040820151816002015560608201518160030160006101000a81548173ffffffffffffffffffffffffffffffffffffffff021916908373ffffffffffffffffffffffffffffffffffffffff1602179055506080820151816004015560a08201518160050160006101000a81548160ff02191690831515021790555060c08201518160050160016101000a81548160ff02191690831515021790555060e0820151816006015561010082015181600701556101208201518160080155610140820151816009015561016082015181600a0160006101000a81548160ff021916908315150217905550505060006001600580549050612afe91906156f9565b90507fb61c892d3af89c520a4214d8f8dc61896cdb6fd28991a0a836288fe73028a18c81338e604051612b33939291906155b4565b60405180910390a18093505050509998505050505050505050565b60035481565b60008060058481548110612b91577f4e487b7100000000000000000000000000000000000000000000000000000000600052603260045260246000fd5b90600052602060002090600b0201604051806101800160405290816000820160009054906101000a900473ffffffffffffffffffffffffffffffffffffffff1673ffffffffffffffffffffffffffffffffffffffff1673ffffffffffffffffffffffffffffffffffffffff16815260200160018201548152602001600282015481526020016003820160009054906101000a900473ffffffffffffffffffffffffffffffffffffffff1673ffffffffffffffffffffffffffffffffffffffff1673ffffffffffffffffffffffffffffffffffffffff168152602001600482015481526020016005820160009054906101000a900460ff161515151581526020016005820160019054906101000a900460ff1615151515815260200160068201548152602001600782015481526020016008820154815260200160098201548152602001600a820160009054906101000a900460ff1615151515815250509050600115158160c00151151514612d3b576040517f08c379a0000000000000000000000000000000000000000000000000000000008152600401612d3290615450565b60405180910390fd5b60001515816101600151151514612d87576040517f08c379a0000000000000000000000000000000000000000000000000000000008152600401612d7e906152f0565b60405180910390fd5b600073ffffffffffffffffffffffffffffffffffffffff16816060015173ffffffffffffffffffffffffffffffffffffffff161415612dc557600080fd5b828161014001511015612e0d576040517f08c379a0000000000000000000000000000000000000000000000000000000008152600401612e0490615470565b60405180910390fd5b612e25838261012001516148ac90919063ffffffff16565b341015612e67576040517f08c379a0000000000000000000000000000000000000000000000000000000008152600401612e5e90615250565b60405180910390fd5b6000604051806101400160405280836000015173ffffffffffffffffffffffffffffffffffffffff168152602001836020015181526020013481526020013373ffffffffffffffffffffffffffffffffffffffff16815260200160018152602001868152602001858152602001600115158152602001428152602001836101000151815250905060068190806001815401808255809150506001900390600052602060002090600a020160009091909190915060008201518160000160006101000a81548173ffffffffffffffffffffffffffffffffffffffff021916908373ffffffffffffffffffffffffffffffffffffffff160217905550602082015181600101556040820151816002015560608201518160030160006101000a81548173ffffffffffffffffffffffffffffffffffffffff021916908373ffffffffffffffffffffffffffffffffffffffff1602179055506080820151816004015560a0820151816005015560c0820151816006015560e08201518160070160006101000a81548160ff0219169083151502179055506101008201518160080155610120820151816009015550506000600160068054905061302691906156f9565b9050600015158361016001511515141561304d576001836101600190151590811515815250505b613065858461014001516148c290919063ffffffff16565b8361014001818152505082600587815481106130aa577f4e487b7100000000000000000000000000000000000000000000000000000000600052603260045260246000fd5b90600052602060002090600b020160008201518160000160006101000a81548173ffffffffffffffffffffffffffffffffffffffff021916908373ffffffffffffffffffffffffffffffffffffffff160217905550602082015181600101556040820151816002015560608201518160030160006101000a81548173ffffffffffffffffffffffffffffffffffffffff021916908373ffffffffffffffffffffffffffffffffffffffff1602179055506080820151816004015560a08201518160050160006101000a81548160ff02191690831515021790555060c08201518160050160016101000a81548160ff02191690831515021790555060e0820151816006015561010082015181600701556101208201518160080155610140820151816009015561016082015181600a0160006101000a81548160ff0219169083151502179055509050507fb8d756f2d1da4663767eb4d559780ace84f2f65a421a60ddcb47e8b2e5d2fd26813334604051613226939291906155b4565b60405180910390a180935050505092915050565b61324261485a565b73ffffffffffffffffffffffffffffffffffffffff16613260612800565b73ffffffffffffffffffffffffffffffffffffffff16146132b6576040517f08c379a00000000000000000000000000000000000000000000000000000000081526004016132ad906153b0565b60405180910390fd5b600260015414156132fc576040517f08c379a00000000000000000000000000000000000000000000000000000000081526004016132f3906154f0565b60405180910390fd5b6002600181905550600060068281548110613340577f4e487b7100000000000000000000000000000000000000000000000000000000600052603260045260246000fd5b90600052602060002090600a0201604051806101400160405290816000820160009054906101000a900473ffffffffffffffffffffffffffffffffffffffff1673ffffffffffffffffffffffffffffffffffffffff1673ffffffffffffffffffffffffffffffffffffffff16815260200160018201548152602001600282015481526020016003820160009054906101000a900473ffffffffffffffffffffffffffffffffffffffff1673ffffffffffffffffffffffffffffffffffffffff1673ffffffffffffffffffffffffffffffffffffffff1681526020016004820154815260200160058201548152602001600682015481526020016007820160009054906101000a900460ff16151515158152602001600882015481526020016009820154815250509050600060058260a00151815481106134a9577f4e487b7100000000000000000000000000000000000000000000000000000000600052603260045260246000fd5b90600052602060002090600b0201905060008260400151141580156134ff5750600073ffffffffffffffffffffffffffffffffffffffff16826060015173ffffffffffffffffffffffffffffffffffffffff1614155b15613601576000826060015173ffffffffffffffffffffffffffffffffffffffff16836040015160405161353290614f16565b60006040518083038185875af1925050503d806000811461356f576040519150601f19603f3d011682016040523d82523d6000602084013e613574565b606091505b50509050806135b8576040517f08c379a00000000000000000000000000000000000000000000000000000000081526004016135af90615490565b60405180910390fd5b7f972fd66eadedfb87beff023a37f4d8c6a91fdd147fa0d3c036e0c6c5a0cdc7958360a00151846060015185604001516040516135f79392919061557d565b60405180910390a1505b60008260e0019015159081151581525050816006848154811061364d577f4e487b7100000000000000000000000000000000000000000000000000000000600052603260045260246000fd5b90600052602060002090600a020160008201518160000160006101000a81548173ffffffffffffffffffffffffffffffffffffffff021916908373ffffffffffffffffffffffffffffffffffffffff160217905550602082015181600101556040820151816002015560608201518160030160006101000a81548173ffffffffffffffffffffffffffffffffffffffff021916908373ffffffffffffffffffffffffffffffffffffffff1602179055506080820151816004015560a0820151816005015560c0820151816006015560e08201518160070160006101000a81548160ff02191690831515021790555061010082015181600801556101208201518160090155905050600081600a0160006101000a81548160ff02191690831515021790555061378c8260c00151826009015461489690919063ffffffff16565b81600901819055508060058360a00151815481106137d3577f4e487b7100000000000000000000000000000000000000000000000000000000600052603260045260246000fd5b90600052602060002090600b02016000820160009054906101000a900473ffffffffffffffffffffffffffffffffffffffff168160000160006101000a81548173ffffffffffffffffffffffffffffffffffffffff021916908373ffffffffffffffffffffffffffffffffffffffff16021790555060018201548160010155600282015481600201556003820160009054906101000a900473ffffffffffffffffffffffffffffffffffffffff168160030160006101000a81548173ffffffffffffffffffffffffffffffffffffffff021916908373ffffffffffffffffffffffffffffffffffffffff160217905550600482015481600401556005820160009054906101000a900460ff168160050160006101000a81548160ff0219169083151502179055506005820160019054906101000a900460ff168160050160016101000a81548160ff02191690831515021790555060068201548160060155600782015481600701556008820154816008015560098201548160090155600a820160009054906101000a900460ff1681600a0160006101000a81548160ff02191690831515021790555090505050506001808190555050565b600260015414156139d1576040517f08c379a00000000000000000000000000000000000000000000000000000000081526004016139c8906154f0565b60405180910390fd5b600260018190555060003390506000349050600060058581548110613a1f577f4e487b7100000000000000000000000000000000000000000000000000000000600052603260045260246000fd5b90600052602060002090600b0201604051806101800160405290816000820160009054906101000a900473ffffffffffffffffffffffffffffffffffffffff1673ffffffffffffffffffffffffffffffffffffffff1673ffffffffffffffffffffffffffffffffffffffff16815260200160018201548152602001600282015481526020016003820160009054906101000a900473ffffffffffffffffffffffffffffffffffffffff1673ffffffffffffffffffffffffffffffffffffffff1673ffffffffffffffffffffffffffffffffffffffff168152602001600482015481526020016005820160009054906101000a900460ff161515151581526020016005820160019054906101000a900460ff1615151515815260200160068201548152602001600782015481526020016008820154815260200160098201548152602001600a820160009054906101000a900460ff1615151515815250509050600115158160a00151151514613bc9576040517f08c379a0000000000000000000000000000000000000000000000000000000008152600401613bc0906153f0565b60405180910390fd5b838161014001511015613c11576040517f08c379a0000000000000000000000000000000000000000000000000000000008152600401613c0890615470565b60405180910390fd5b600081608001519050613c2d85826148ac90919063ffffffff16565b831015613c6f576040517f08c379a0000000000000000000000000000000000000000000000000000000008152600401613c6690615250565b60405180910390fd5b600082600001519050858173ffffffffffffffffffffffffffffffffffffffff1662fdd58e856060015186602001516040518363ffffffff1660e01b8152600401613cbb92919061501f565b60206040518083038186803b158015613cd357600080fd5b505afa158015613ce7573d6000803e3d6000fd5b505050506040513d601f19601f82011682018060405250810190613d0b9190614ac0565b1015613d4c576040517f08c379a0000000000000000000000000000000000000000000000000000000008152600401613d43906154b0565b60405180910390fd5b8073ffffffffffffffffffffffffffffffffffffffff1663e985e9c58460600151306040518363ffffffff1660e01b8152600401613d8b929190614f46565b60206040518083038186803b158015613da357600080fd5b505afa158015613db7573d6000803e3d6000fd5b505050506040513d601f19601f82011682018060405250810190613ddb9190614a6e565b613e1a576040517f08c379a0000000000000000000000000000000000000000000000000000000008152600401613e11906154d0565b60405180910390fd5b7f35538759d80c1fd7bb450a0d05601db5a99fa8b5d073a07c847a9fd61029b1078786604051613e4b92919061552b565b60405180910390a18073ffffffffffffffffffffffffffffffffffffffff1663f242432a84606001513386602001518a6040518563ffffffff1660e01b8152600401613e9a9493929190614fc7565b600060405180830381600087803b158015613eb457600080fd5b505af1158015613ec8573d6000803e3d6000fd5b5050505060008173ffffffffffffffffffffffffffffffffffffffff1663d48e638a85602001516040518263ffffffff1660e01b8152600401613f0b9190615510565b60206040518083038186803b158015613f2357600080fd5b505afa158015613f37573d6000803e3d6000fd5b505050506040513d601f19601f82011682018060405250810190613f5b919061497f565b9050600061271060025487613f70919061569f565b613f7a919061566e565b90506000856060015173ffffffffffffffffffffffffffffffffffffffff168373ffffffffffffffffffffffffffffffffffffffff1614614143576127108473ffffffffffffffffffffffffffffffffffffffff1663bb3bafd688602001516040518263ffffffff1660e01b8152600401613ff59190615510565b60206040518083038186803b15801561400d57600080fd5b505afa158015614021573d6000803e3d6000fd5b505050506040513d601f19601f820116820180604052508101906140459190614ac0565b88614050919061569f565b61405a919061566e565b905060008373ffffffffffffffffffffffffffffffffffffffff168260405161408290614f16565b60006040518083038185875af1925050503d80600081146140bf576040519150601f19603f3d011682016040523d82523d6000602084013e6140c4565b606091505b5050905080614108576040517f08c379a00000000000000000000000000000000000000000000000000000000081526004016140ff90615490565b60405180910390fd5b7f54b960faf8b038c33ba9912fdb9ac1e8e0096c5f327d1c89e62b5d9c5357ddb6848360405161413992919061501f565b60405180910390a1505b600081838961415291906156f9565b61415c91906156f9565b90506000876060015173ffffffffffffffffffffffffffffffffffffffff168260405161418890614f16565b60006040518083038185875af1925050503d80600081146141c5576040519150601f19603f3d011682016040523d82523d6000602084013e6141ca565b606091505b505090508061420e576040517f08c379a000000000000000000000000000000000000000000000000000000000815260040161420590615490565b60405180910390fd5b7f9a37aa02cc986a4a0c2d22af3dcdb9db27c178f7feed43e7037c783b55ed91ba8860600151838686614244878f600254614862565b604051614255959493929190615048565b60405180910390a1836003600082825461426f9190615618565b9250508190555061428b8960045461489690919063ffffffff16565b6004819055506142a98b8961014001516148c290919063ffffffff16565b88610140018181525050600088610140015114156142e45760008860c001901515908115158152505060008860a00190151590811515815250505b8760058d8154811061431f577f4e487b7100000000000000000000000000000000000000000000000000000000600052603260045260246000fd5b90600052602060002090600b020160008201518160000160006101000a81548173ffffffffffffffffffffffffffffffffffffffff021916908373ffffffffffffffffffffffffffffffffffffffff160217905550602082015181600101556040820151816002015560608201518160030160006101000a81548173ffffffffffffffffffffffffffffffffffffffff021916908373ffffffffffffffffffffffffffffffffffffffff1602179055506080820151816004015560a08201518160050160006101000a81548160ff02191690831515021790555060c08201518160050160016101000a81548160ff02191690831515021790555060e0820151816006015561010082015181600701556101208201518160080155610140820151816009015561016082015181600a0160006101000a81548160ff02191690831515021790555090505050505050505050505050600180819055505050565b60025481565b60006002808111156144be577f4e487b7100000000000000000000000000000000000000000000000000000000600052602160045260246000fd5b6144c78361221b565b60028111156144ff577f4e487b7100000000000000000000000000000000000000000000000000000000600052602160045260246000fd5b149050919050565b61450f61485a565b73ffffffffffffffffffffffffffffffffffffffff1661452d612800565b73ffffffffffffffffffffffffffffffffffffffff1614614583576040517f08c379a000000000000000000000000000000000000000000000000000000000815260040161457a906153b0565b60405180910390fd5b600073ffffffffffffffffffffffffffffffffffffffff168173ffffffffffffffffffffffffffffffffffffffff1614156145f3576040517f08c379a00000000000000000000000000000000000000000000000000000000081526004016145ea906152b0565b60405180910390fd5b8073ffffffffffffffffffffffffffffffffffffffff1660008054906101000a900473ffffffffffffffffffffffffffffffffffffffff1673ffffffffffffffffffffffffffffffffffffffff167f8be0079c531659141344cd1fd0a4f28419497f9722a3daafe3b4186f6b6457e060405160405180910390a3806000806101000a81548173ffffffffffffffffffffffffffffffffffffffff021916908373ffffffffffffffffffffffffffffffffffffffff16021790555050565b600080600583815481106146ed577f4e487b7100000000000000000000000000000000000000000000000000000000600052603260045260246000fd5b90600052602060002090600b0201604051806101800160405290816000820160009054906101000a900473ffffffffffffffffffffffffffffffffffffffff1673ffffffffffffffffffffffffffffffffffffffff1673ffffffffffffffffffffffffffffffffffffffff16815260200160018201548152602001600282015481526020016003820160009054906101000a900473ffffffffffffffffffffffffffffffffffffffff1673ffffffffffffffffffffffffffffffffffffffff1673ffffffffffffffffffffffffffffffffffffffff168152602001600482015481526020016005820160009054906101000a900460ff161515151581526020016005820160019054906101000a900460ff1615151515815260200160068201548152602001600782015481526020016008820154815260200160098201548152602001600a820160009054906101000a900460ff1615151515815250509050806101600151915050919050565b600033905090565b6000806127108385614874919061569f565b61487e919061566e565b856148899190615618565b9050809150509392505050565b600081836148a49190615618565b905092915050565b600081836148ba919061569f565b905092915050565b600081836148d091906156f9565b905092915050565b6000813590506148e781615c58565b92915050565b6000815190506148fc81615c58565b92915050565b60008135905061491181615c6f565b92915050565b60008151905061492681615c6f565b92915050565b60008135905061493b81615c86565b92915050565b60008151905061495081615c86565b92915050565b60006020828403121561496857600080fd5b6000614976848285016148d8565b91505092915050565b60006020828403121561499157600080fd5b600061499f848285016148ed565b91505092915050565b60008060008060008060008060006101208a8c0312156149c757600080fd5b60006149d58c828d016148d8565b99505060206149e68c828d0161492c565b98505060406149f78c828d0161492c565b9750506060614a088c828d01614902565b9650506080614a198c828d01614902565b95505060a0614a2a8c828d0161492c565b94505060c0614a3b8c828d0161492c565b93505060e0614a4c8c828d0161492c565b925050610100614a5e8c828d0161492c565b9150509295985092959850929598565b600060208284031215614a8057600080fd5b6000614a8e84828501614917565b91505092915050565b600060208284031215614aa957600080fd5b6000614ab78482850161492c565b91505092915050565b600060208284031215614ad257600080fd5b6000614ae084828501614941565b91505092915050565b600080600060608486031215614afe57600080fd5b6000614b0c8682870161492c565b9350506020614b1d86828701614902565b9250506040614b2e86828701614902565b9150509250925092565b60008060408385031215614b4b57600080fd5b6000614b598582860161492c565b9250506020614b6a8582860161492c565b9150509250929050565b614b7d8161579a565b82525050565b614b8c8161573f565b82525050565b614b9b8161572d565b82525050565b614baa81615751565b82525050565b614bb9816157ac565b82525050565b6000614bcc601383615607565b9150614bd78261586f565b602082019050919050565b6000614bef601883615607565b9150614bfa82615898565b602082019050919050565b6000614c12601783615607565b9150614c1d826158c1565b602082019050919050565b6000614c35602683615607565b9150614c40826158ea565b604082019050919050565b6000614c58600d83615607565b9150614c6382615939565b602082019050919050565b6000614c7b601283615607565b9150614c8682615962565b602082019050919050565b6000614c9e603783615607565b9150614ca98261598b565b604082019050919050565b6000614cc1601583615607565b9150614ccc826159da565b602082019050919050565b6000614ce4601283615607565b9150614cef82615a03565b602082019050919050565b6000614d07601183615607565b9150614d1282615a2c565b602082019050919050565b6000614d2a601583615607565b9150614d3582615a55565b602082019050919050565b6000614d4d602083615607565b9150614d5882615a7e565b602082019050919050565b6000614d70601b83615607565b9150614d7b82615aa7565b602082019050919050565b6000614d93601683615607565b9150614d9e82615ad0565b602082019050919050565b6000614db6601683615607565b9150614dc182615af9565b602082019050919050565b6000614dd9601383615607565b9150614de482615b22565b602082019050919050565b6000614dfc600e83615607565b9150614e0782615b4b565b602082019050919050565b6000614e1f601b83615607565b9150614e2a82615b74565b602082019050919050565b6000614e426000836155eb565b9150614e4d82615b9d565b600082019050919050565b6000614e656000836155fc565b9150614e7082615b9d565b600082019050919050565b6000614e88601083615607565b9150614e9382615ba0565b602082019050919050565b6000614eab602083615607565b9150614eb682615bc9565b602082019050919050565b6000614ece601083615607565b9150614ed982615bf2565b602082019050919050565b6000614ef1601f83615607565b9150614efc82615c1b565b602082019050919050565b614f1081615790565b82525050565b6000614f2182614e58565b9150819050919050565b6000602082019050614f406000830184614b92565b92915050565b6000604082019050614f5b6000830185614b74565b614f686020830184614b92565b9392505050565b600060a082019050614f846000830187614b74565b614f916020830186614b74565b614f9e6040830185614f07565b614fab6060830184614f07565b8181036080830152614fbc81614e35565b905095945050505050565b600060a082019050614fdc6000830187614b74565b614fe96020830186614b92565b614ff66040830185614f07565b6150036060830184614f07565b818103608083015261501481614e35565b905095945050505050565b60006040820190506150346000830185614b74565b6150416020830184614f07565b9392505050565b600060a08201905061505d6000830188614b74565b61506a6020830187614f07565b6150776040830186614f07565b6150846060830185614f07565b6150916080830184614f07565b9695505050505050565b60006040820190506150b06000830185614b92565b6150bd6020830184614f07565b9392505050565b6000610180820190506150da600083018f614b92565b6150e7602083018e614f07565b6150f4604083018d614f07565b615101606083018c614b83565b61510e608083018b614f07565b61511b60a083018a614ba1565b61512860c0830189614ba1565b61513560e0830188614f07565b615143610100830187614f07565b615151610120830186614f07565b61515f610140830185614f07565b61516d610160830184614ba1565b9d9c50505050505050505050505050565b600061014082019050615194600083018d614b92565b6151a1602083018c614f07565b6151ae604083018b614f07565b6151bb606083018a614b83565b6151c86080830189614f07565b6151d560a0830188614f07565b6151e260c0830187614f07565b6151ef60e0830186614ba1565b6151fd610100830185614f07565b61520b610120830184614f07565b9b9a5050505050505050505050565b600060208201905061522f6000830184614ba1565b92915050565b600060208201905061524a6000830184614bb0565b92915050565b6000602082019050818103600083015261526981614bbf565b9050919050565b6000602082019050818103600083015261528981614be2565b9050919050565b600060208201905081810360008301526152a981614c05565b9050919050565b600060208201905081810360008301526152c981614c28565b9050919050565b600060208201905081810360008301526152e981614c4b565b9050919050565b6000602082019050818103600083015261530981614c6e565b9050919050565b6000602082019050818103600083015261532981614c91565b9050919050565b6000602082019050818103600083015261534981614cb4565b9050919050565b6000602082019050818103600083015261536981614cd7565b9050919050565b6000602082019050818103600083015261538981614cfa565b9050919050565b600060208201905081810360008301526153a981614d1d565b9050919050565b600060208201905081810360008301526153c981614d40565b9050919050565b600060208201905081810360008301526153e981614d63565b9050919050565b6000602082019050818103600083015261540981614d86565b9050919050565b6000602082019050818103600083015261542981614da9565b9050919050565b6000602082019050818103600083015261544981614dcc565b9050919050565b6000602082019050818103600083015261546981614def565b9050919050565b6000602082019050818103600083015261548981614e12565b9050919050565b600060208201905081810360008301526154a981614e7b565b9050919050565b600060208201905081810360008301526154c981614e9e565b9050919050565b600060208201905081810360008301526154e981614ec1565b9050919050565b6000602082019050818103600083015261550981614ee4565b9050919050565b60006020820190506155256000830184614f07565b92915050565b60006040820190506155406000830185614f07565b61554d6020830184614b92565b9392505050565b60006040820190506155696000830185614f07565b6155766020830184614b74565b9392505050565b60006060820190506155926000830186614f07565b61559f6020830185614b74565b6155ac6040830184614f07565b949350505050565b60006060820190506155c96000830186614f07565b6155d66020830185614b92565b6155e36040830184614f07565b949350505050565b600082825260208201905092915050565b600081905092915050565b600082825260208201905092915050565b600061562382615790565b915061562e83615790565b9250827fffffffffffffffffffffffffffffffffffffffffffffffffffffffffffffffff03821115615663576156626157e2565b5b828201905092915050565b600061567982615790565b915061568483615790565b92508261569457615693615811565b5b828204905092915050565b60006156aa82615790565b91506156b583615790565b9250817fffffffffffffffffffffffffffffffffffffffffffffffffffffffffffffffff04831182151516156156ee576156ed6157e2565b5b828202905092915050565b600061570482615790565b915061570f83615790565b925082821015615722576157216157e2565b5b828203905092915050565b600061573882615770565b9050919050565b600061574a82615770565b9050919050565b60008115159050919050565b600081905061576b82615c44565b919050565b600073ffffffffffffffffffffffffffffffffffffffff82169050919050565b6000819050919050565b60006157a5826157be565b9050919050565b60006157b78261575d565b9050919050565b60006157c9826157d0565b9050919050565b60006157db82615770565b9050919050565b7f4e487b7100000000000000000000000000000000000000000000000000000000600052601160045260246000fd5b7f4e487b7100000000000000000000000000000000000000000000000000000000600052601260045260246000fd5b7f4e487b7100000000000000000000000000000000000000000000000000000000600052602160045260246000fd5b7f5072696365206973206e6f7420656e6f75676800000000000000000000000000600082015250565b7f41756374696f6e206e6f742066696e6973686564207965740000000000000000600082015250565b7f5472616e73666572206661696c6564206f6e206269642e000000000000000000600082015250565b7f4f776e61626c653a206e6577206f776e657220697320746865207a65726f206160008201527f6464726573730000000000000000000000000000000000000000000000000000602082015250565b7f42696473206578697374696e6700000000000000000000000000000000000000600082015250565b7f6e6f74206163746976652061756374696f6e0000000000000000000000000000600082015250565b7f596f752061726520747279696e6720746f2073616c65206d6f7265206e66747360008201527f207468617420746865206f6e657320796f752068617665000000000000000000602082015250565b7f596f7520617265206e6f7420746865206f776e65720000000000000000000000600082015250565b7f41756374696f6e206e6f74206163746976650000000000000000000000000000600082015250565b7f41756374696f6e2068617320656e646564000000000000000000000000000000600082015250565b7f41756374696f6e206973206e6f74206163746976650000000000000000000000600082015250565b7f4f776e61626c653a2063616c6c6572206973206e6f7420746865206f776e6572600082015250565b7f5468652061756374696f6e206973207374696c6c206163746976650000000000600082015250565b7f4e4654206e6f7420696e206469726563742073616c6500000000000000000000600082015250565b7f41756374696f6e206973206e6f7420656e61626c656400000000000000000000600082015250565b7f436f6d6d697373696f6e20746f6f206869676800000000000000000000000000600082015250565b7f4e6f7420696e2061756374696f6e000000000000000000000000000000000000600082015250565b7f4e6f7420656e6f75676820636f7069657320617661696c61626c650000000000600082015250565b50565b7f5472616e73666572206661696c65642e00000000000000000000000000000000600082015250565b7f4f776e657220646964206e6f74206861766520656e6f75676820746f6b656e73600082015250565b7f4e4654206e6f7420617070726f76656400000000000000000000000000000000600082015250565b7f5265656e7472616e637947756172643a207265656e7472616e742063616c6c00600082015250565b60038110615c5557615c54615840565b5b50565b615c618161572d565b8114615c6c57600080fd5b50565b615c7881615751565b8114615c8357600080fd5b50565b615c8f81615790565b8114615c9a57600080fd5b5056fea2646970667358221220fa804ad0ca39e11ddcd4818ce01bedb280a08d30b7ebd68b3c6456ad223ce65564736f6c63430008040033",
  "immutableReferences": {},
  "source": "// SPDX-License-Identifier: UNLICENSED\npragma solidity ^0.8.4;\n\nimport \"@openzeppelin/contracts/token/ERC1155/ERC1155.sol\";\nimport \"@openzeppelin/contracts/access/Ownable.sol\";\nimport \"./Base1155.sol\";\nimport \"@openzeppelin/contracts/utils/math/SafeMath.sol\";\nimport \"@openzeppelin/contracts/security/ReentrancyGuard.sol\";\n\ncontract Engine is Ownable, ReentrancyGuard {\n    using SafeMath for uint256;\n\n    event OfferCreated(uint256 _index, address _creator, uint256 _tokenId);\n    event AuctionBid(uint256 _index, address _bidder, uint256 amount);\n    event Claim(uint256 auctionIndex, address claimer);\n    event ReturnBidFunds(uint256 _index, address _bidder, uint256 amount);\n\n    event Royalties(address receiver, uint256 amount);\n    event PaymentToOwner(\n        address receiver,\n        uint256 amount,\n        uint256 commission,\n        uint256 royalties,\n        uint256 safetyCheckValue\n    );\n\n    uint256 public commission = 0; // this is the commission that will charge the marketplace by default.\n    uint256 public accumulatedCommission = 0;\n\n    uint256 public totalSales = 0;\n\n    enum Status {\n        pending,\n        active,\n        finished\n    }\n    struct Offer {\n        address tokenAddress; // address of the token\n        uint256 tokenId; // the tokenId returned when calling \"createItem\"\n        uint256 amount; // amount of tokens on sale on this offer\n        address payable creator; // who creates the offer\n        uint256 price; // price of each token\n        bool isOnSale; // is on sale or not\n        bool isAuction; // is this offer is for an auction\n        uint256 startTime; // when the auction starts\n        uint256 duration; // duration in seconds of the auction\n        uint256 minimumBidAmount;\n        uint256 availableCopies;\n        bool hasBids;\n    }\n    Offer[] public offers;\n\n    struct Auction {\n        address tokenAddress; // address of the token\n        uint256 tokenId; // the tokenId returned when calling \"createItem\"\n        uint256 currentBidAmount; // current amount paid by the best bidder\n        address payable currentBidOwner; // address of the best bidder\n        uint256 bidCount; // counter of the bids of the auction\n        uint256 offerId;\n        uint256 numCopies;\n        bool active;\n        uint256 startTime; // when the auction starts\n        uint256 duration; // duration in seconds of the auction\n    }\n    Auction[] public auctions;\n\n    function createAuctionAndBid(uint256 _offerId, uint256 _numCopies)\n        public\n        payable\n        returns (uint256)\n    {\n        Offer memory offer = offers[_offerId];\n        require(offer.isAuction == true, \"Not in auction\");\n     //   require(isActive(_offerId), \"Auction has ended\");\n        require(offer.hasBids == false, \"not active auction\");\n        require(offer.creator != address(0));\n        require(\n            offer.availableCopies >= _numCopies,\n            \"Not enough copies available\"\n        );\n        require(\n            msg.value >= offer.minimumBidAmount.mul(_numCopies),\n            \"Price is not enough\"\n        );\n\n        Auction memory auction = Auction({\n            tokenAddress: offer.tokenAddress,\n            tokenId: offer.tokenId,\n            numCopies: _numCopies,\n            currentBidOwner: payable(msg.sender),\n            currentBidAmount: msg.value,\n            bidCount: 1,\n            offerId: _offerId,\n            active: true,\n            startTime: block.timestamp,\n            duration: offer.duration\n        });\n\n        auctions.push(auction);\n        uint256 auctionId = auctions.length - 1;\n\n        // Update offer with new available amount\n        if (offer.hasBids == false) offer.hasBids = true;\n        offer.availableCopies = offer.availableCopies.sub(_numCopies);\n        offers[_offerId] = offer;\n\n        emit AuctionBid(auctionId, msg.sender, msg.value);\n        return auctionId;\n    }\n\n    function bid(uint256 _auctionId) public payable {\n        Auction memory auction = auctions[_auctionId];\n        Offer memory offer = offers[auction.offerId];\n        require(offer.isAuction, \"Auction is not enabled\");\n        require(auction.active, \"Auction is not active\");\n        require(isActive(_auctionId), \"Auction has ended\");\n        require(offer.creator != address(0));\n        require(msg.value > auction.currentBidAmount, \"Price is not enough\");\n\n        // return funds to the previuos bidder\n\n        (bool success, ) = auction.currentBidOwner.call{\n            value: auction.currentBidAmount\n        }(\"\");\n        require(success, \"Transfer failed on bid.\");\n        emit ReturnBidFunds(\n            _auctionId,\n            auction.currentBidOwner,\n            auction.currentBidAmount\n        );\n\n        auction.currentBidAmount = msg.value;\n        auction.currentBidOwner = payable(msg.sender);\n        auction.bidCount = auction.bidCount.add(1);\n        auctions[_auctionId] = auction;\n        \n    }\n\n    function closeAuction(uint256 _auctionId) public onlyOwner {\n        Auction memory auction = auctions[_auctionId];\n        Offer memory offer = offers[auction.offerId];\n\n        require(auction.active == true, \"Auction not active\");\n        require(isFinished(_auctionId), \"The auction is still active\");\n        require(offer.isAuction == true, \"Auction is not active\");\n\n        Base1155 asset = Base1155(offer.tokenAddress);\n\n        require(\n            asset.balanceOf(offer.creator, offer.tokenId) >= offer.amount,\n            \"Owner did not have enough tokens\"\n        );\n        require(\n            asset.isApprovedForAll(offer.creator, address(this)),\n            \"NFT not approved\"\n        );\n\n        emit Claim(auction.offerId, auction.currentBidOwner);\n\n        asset.safeTransferFrom(\n            offer.creator,\n            auction.currentBidOwner,\n            offer.tokenId,\n            auction.numCopies,\n            \"\"\n        );\n\n        // now, pay the amount - commission - royalties to the auction creator\n        address payable creatorNFT = payable(\n            // getCreator(offer.assetAddress, _offerId)\n            asset.getCreator(offer.tokenId)\n        );\n\n        uint256 commissionToPay = (auction.currentBidAmount * commission) /\n            10000;\n        uint256 royaltiesToPay = 0;\n        if (creatorNFT != offer.creator) {\n            // It is a resale. Transfer royalties\n            royaltiesToPay =\n                (auction.currentBidAmount * asset.getRoyalties(offer.tokenId)) / \n                10000;\n            (bool success, ) = creatorNFT.call{value: royaltiesToPay}(\"\");\n            require(success, \"Transfer failed.\");\n\n            emit Royalties(creatorNFT, royaltiesToPay);\n        }\n        uint256 amountToPay = auction.currentBidAmount -\n            commissionToPay -\n            royaltiesToPay;\n\n        (bool success2, ) = offer.creator.call{value: amountToPay}(\"\");\n        require(success2, \"Transfer failed.\");\n        emit PaymentToOwner(\n            offer.creator,\n            amountToPay,\n            commissionToPay,\n            royaltiesToPay,\n            calcSafetyCheckValue(\n                amountToPay,\n                auction.currentBidAmount,\n                commission\n            )\n        );\n\n        accumulatedCommission = accumulatedCommission.add(commissionToPay);\n        totalSales = totalSales.add(auction.currentBidAmount);\n\n        auction.active = false;\n        auctions[_auctionId] = auction;\n\n        offer.hasBids = false;\n        offers[auction.offerId] = offer;\n    }\n\n    // Creates an offer that could be direct sale and/or auction for a certain amount of a token\n    function createOffer(\n        address _tokenAddress,\n        uint256 _tokenId, // tokenId\n        uint256 _amount, // amount of tokens on sale\n        bool _isDirectSale, // true if can be bought on a direct sale\n        bool _isAuction, // true if can be bought in an auction\n        uint256 _price, // price that if paid in a direct sale, transfers the NFT\n        uint256 _startPrice, // minimum price on the auction\n        uint256 _startTime, // time when the auction will start. Check the format with frontend\n        uint256 _duration // duration in seconds of the auction\n    ) public returns (uint256) {\n        Base1155 asset = Base1155(_tokenAddress);\n        require(\n            asset.balanceOf(msg.sender, _tokenId) >= _amount,\n            \"You are trying to sale more nfts that the ones you have\"\n        );\n\n        Offer memory offer = Offer({\n            tokenAddress: _tokenAddress,\n            tokenId: _tokenId,\n            amount: _amount,\n            creator: payable(msg.sender),\n            price: _price,\n            isOnSale: _isDirectSale,\n            isAuction: _isAuction,\n            startTime: _startTime,\n            duration: _duration,\n            minimumBidAmount: _startPrice,\n            hasBids: false,\n            availableCopies: _amount // at the beginning all the copies are available, as nothing has been sold\n        });\n        offers.push(offer);\n        uint256 index = offers.length - 1;\n\n        emit OfferCreated(index, msg.sender, _tokenId);\n        return index;\n    }\n\n    function hasBids(uint256 _offerId) public view returns (bool) {\n        Offer memory offer = offers[_offerId];\n        return offer.hasBids;\n    }\n\n  /*  function getOffersCount() public view returns (uint256) {\n        return offers.length;\n    }*/\n\n    function ahora() public view returns (uint256) {\n        return block.timestamp;\n    }\n\n    /*function getEndDate(uint256 _offerId) public view returns (uint256) {\n        Offer memory offer = offers[_offerId];\n        return offer.startTime + offer.duration;\n    }*/\n\n    function removeFromAuctionOrSale(uint256 _offerId, bool _sale, bool _auction) public {\n        Offer memory offer = offers[_offerId];\n        require(msg.sender == offer.creator, \"You are not the owner\");\n        require(offer.hasBids == false, \"Bids existing\");\n        offer.isAuction = _auction;\n        offer.isOnSale = _sale;\n        offers[_offerId] = offer;\n    }\n\n  /*  function removeFromSale(uint256 _offerId) public {\n        Offer memory offer = offers[_offerId];\n        require(msg.sender == offer.creator, \"You are not the owner\");\n        offer.isOnSale = false;\n        offers[_offerId] = offer;\n    }*/\n\n    // Changes the default commission. Only the owner of the marketplace can do that. In basic points\n    function setCommission(uint256 _commission) public onlyOwner {\n        require(_commission <= 5000, \"Commission too high\");\n        commission = _commission;\n    }\n\n    function calcSafetyCheckValue(\n        uint256 _amountToPay,\n        uint256 _paidPrice,\n        uint256 _commission\n    ) internal pure returns (uint256) {\n        uint256 result = _amountToPay + ((_paidPrice * _commission) / 10000);\n        return result;\n    }\n\n    function buy(uint256 _offerId, uint256 _amount)\n        external\n        payable\n        nonReentrant\n    {\n        address buyer = msg.sender;\n        uint256 paidPrice = msg.value;\n\n        Offer memory offer = offers[_offerId];\n        require(offer.isOnSale == true, \"NFT not in direct sale\");\n        require(\n            offer.availableCopies >= _amount,\n            \"Not enough copies available\"\n        );\n        uint256 price = offer.price;\n        require(paidPrice >= price.mul(_amount), \"Price is not enough\");        \n\n        Base1155 asset = Base1155(offer.tokenAddress);\n        require(\n            asset.balanceOf(offer.creator, offer.tokenId) >= _amount,\n            \"Owner did not have enough tokens\"\n        );\n        require(\n            asset.isApprovedForAll(offer.creator, address(this)),\n            \"NFT not approved\"\n        );\n\n        emit Claim(_offerId, buyer);\n        \n        asset.safeTransferFrom(\n            offer.creator,\n            msg.sender,\n            offer.tokenId,\n            _amount,\n            \"\"\n        );\n\n        // now, pay the amount - commission - royalties to the auction creator\n        address payable creatorNFT = payable(\n            // getCreator(offer.assetAddress, _offerId)\n            asset.getCreator(offer.tokenId)\n        );\n\n        uint256 commissionToPay = (paidPrice * commission) / 10000;\n        uint256 royaltiesToPay = 0;\n        if (creatorNFT != offer.creator) {\n            // It is a resale. Transfer royalties\n            royaltiesToPay =\n                (paidPrice * asset.getRoyalties(offer.tokenId)) / /*getRoyalties(offer.assetAddress, _offerId)*/\n                10000;\n            (bool success, ) = creatorNFT.call{value: royaltiesToPay}(\"\");\n            require(success, \"Transfer failed.\");\n\n            emit Royalties(creatorNFT, royaltiesToPay);\n        }\n        uint256 amountToPay = paidPrice - commissionToPay - royaltiesToPay;\n\n        (bool success2, ) = offer.creator.call{value: amountToPay}(\"\");\n        require(success2, \"Transfer failed.\");\n        emit PaymentToOwner(\n            offer.creator,\n            amountToPay,\n            commissionToPay,\n            royaltiesToPay,\n            calcSafetyCheckValue(amountToPay, paidPrice, commission)\n        );\n\n        accumulatedCommission += commissionToPay;\n        totalSales = totalSales.add(paidPrice);        \n\n        offer.availableCopies = offer.availableCopies.sub(_amount);\n\n        if (offer.availableCopies == 0) {\n            offer.isAuction = false;\n            offer.isOnSale = false;\n        }\n\n        offers[_offerId] = offer;\n    }\n  \n    function isActive(uint256 _auctionId) public view returns (bool) {\n        return getStatus(_auctionId) == Status.active;\n    }\n\n    function isFinished(uint256 _auctionId) public view returns (bool) {\n        return getStatus(_auctionId) == Status.finished;\n    }\n\n    function getStatus(uint256 _auctionId) public view returns (Status) {\n        Auction storage auction = auctions[_auctionId];\n        if (block.timestamp < auction.startTime) {\n            return Status.pending;\n        } else if (block.timestamp < auction.startTime.add(auction.duration)) {\n            return Status.active;\n        } else {\n            return Status.finished;\n        }\n    }\n\n    function endDate(uint256 _auctionId) public view returns (uint256) {\n         Auction storage auction = auctions[_auctionId];\n        return auction.startTime.add(auction.duration);\n    }\n\n    function getCurrentBidOwner(uint256 _auctionId)\n        public\n        view\n        returns (address)\n    {\n        return auctions[_auctionId].currentBidOwner;\n    }\n\n    function getCurrentBidAmount(uint256 _auctionId)\n        public\n        view\n        returns (uint256)\n    {\n        return auctions[_auctionId].currentBidAmount;\n    }\n\n    function getBidCount(uint256 _auctionId) public view returns (uint256) {\n        return auctions[_auctionId].bidCount;\n    }\n\n    function getWinner(uint256 _auctionId) public view returns (address) {\n        require(\n            isFinished(_auctionId),\n            \"Auction not finished yet\"\n        );\n        return auctions[_auctionId].currentBidOwner;\n    }\n\n    /* The contract owner should call this method to cancel an auction on an offer\n    This will cancel the auction. If the auction has bids, it\n    will return the bidded amount to the bidder before closing the auction\n */\n       function forceAuctionEnding(uint256 _auctionId) public onlyOwner nonReentrant {\n           Auction memory auction = auctions[_auctionId];\n        Offer storage offer = offers[auction.offerId];\n            if (\n                auction.currentBidAmount != 0 &&\n                auction.currentBidOwner != address(0)\n            ) {\n                // return funds to the previuos bidder, if there is a previous bid\n                (bool success, ) = auction.currentBidOwner.call{\n                    value: auction.currentBidAmount\n                }(\"\");\n                require(success, \"Transfer failed.\");\n                emit ReturnBidFunds(\n                    auction.offerId,\n                    auction.currentBidOwner,\n                    auction.currentBidAmount\n                );\n            }\n        \n        auction.active=false;\n        auctions[_auctionId] = auction;\n\n        offer.hasBids = false;\n        offer.availableCopies = offer.availableCopies.add(auction.numCopies);\n        offers[auction.offerId] = offer;\n    }\n\n    function extractBalance() public onlyOwner nonReentrant {\n        address payable me = payable(msg.sender);\n        (bool success, ) = me.call{value: accumulatedCommission}(\"\");\n        require(success, \"Transfer failed.\");\n        accumulatedCommission = 0;\n    }\n}\n",
  "sourcePath": "/home/linux/ether/XSigma1155/contracts/engine.sol",
  "compiler": {
    "name": "solc",
    "version": "0.8.4+commit.c7e474f2.Emscripten.clang"
  },
  "schemaVersion": "3.3.4",
  "updatedAt": "2021-08-26T17:46:58.978Z",
  "networkType": "ethereum",
  "devdoc": {
    "kind": "dev",
    "methods": {
      "owner()": {
        "details": "Returns the address of the current owner."
      },
      "renounceOwnership()": {
        "details": "Leaves the contract without owner. It will not be possible to call `onlyOwner` functions anymore. Can only be called by the current owner. NOTE: Renouncing ownership will leave the contract without an owner, thereby removing any functionality that is only available to the owner."
      },
      "transferOwnership(address)": {
        "details": "Transfers ownership of the contract to a new account (`newOwner`). Can only be called by the current owner."
      }
    },
    "version": 1
  },
  "userdoc": {
    "kind": "user",
    "methods": {},
    "version": 1
  }
}