{
  "contractName": "Engine",
  "abi": [
    {
      "anonymous": false,
      "inputs": [
        {
          "indexed": false,
          "internalType": "uint256",
          "name": "_index",
          "type": "uint256"
        },
        {
          "indexed": false,
          "internalType": "address",
          "name": "_bidder",
          "type": "address"
        },
        {
          "indexed": false,
          "internalType": "uint256",
          "name": "amount",
          "type": "uint256"
        }
      ],
      "name": "AuctionBid",
      "type": "event"
    },
    {
      "anonymous": false,
      "inputs": [
        {
          "indexed": false,
          "internalType": "uint256",
          "name": "_index",
          "type": "uint256"
        },
        {
          "indexed": false,
          "internalType": "address",
          "name": "_creator",
          "type": "address"
        },
        {
          "indexed": false,
          "internalType": "address",
          "name": "_asset",
          "type": "address"
        }
      ],
      "name": "AuctionCreated",
      "type": "event"
    },
    {
      "anonymous": false,
      "inputs": [
        {
          "indexed": false,
          "internalType": "uint256",
          "name": "auctionIndex",
          "type": "uint256"
        },
        {
          "indexed": false,
          "internalType": "address",
          "name": "claimer",
          "type": "address"
        }
      ],
      "name": "Claim",
      "type": "event"
    },
    {
      "anonymous": false,
      "inputs": [
        {
          "indexed": true,
          "internalType": "address",
          "name": "previousOwner",
          "type": "address"
        },
        {
          "indexed": true,
          "internalType": "address",
          "name": "newOwner",
          "type": "address"
        }
      ],
      "name": "OwnershipTransferred",
      "type": "event"
    },
    {
      "anonymous": false,
      "inputs": [
        {
          "indexed": false,
          "internalType": "address",
          "name": "receiver",
          "type": "address"
        },
        {
          "indexed": false,
          "internalType": "uint256",
          "name": "amount",
          "type": "uint256"
        },
        {
          "indexed": false,
          "internalType": "uint256",
          "name": "paidByCustomer",
          "type": "uint256"
        },
        {
          "indexed": false,
          "internalType": "uint256",
          "name": "commission",
          "type": "uint256"
        },
        {
          "indexed": false,
          "internalType": "uint256",
          "name": "royalties",
          "type": "uint256"
        },
        {
          "indexed": false,
          "internalType": "uint256",
          "name": "safetyCheckValue",
          "type": "uint256"
        }
      ],
      "name": "PaymentToOwner",
      "type": "event"
    },
    {
      "anonymous": false,
      "inputs": [
        {
          "indexed": false,
          "internalType": "uint256",
          "name": "_index",
          "type": "uint256"
        },
        {
          "indexed": false,
          "internalType": "address",
          "name": "_bidder",
          "type": "address"
        },
        {
          "indexed": false,
          "internalType": "uint256",
          "name": "amount",
          "type": "uint256"
        }
      ],
      "name": "ReturnBidFunds",
      "type": "event"
    },
    {
      "anonymous": false,
      "inputs": [
        {
          "indexed": false,
          "internalType": "address",
          "name": "receiver",
          "type": "address"
        },
        {
          "indexed": false,
          "internalType": "uint256",
          "name": "amount",
          "type": "uint256"
        }
      ],
      "name": "Royalties",
      "type": "event"
    },
    {
      "inputs": [],
      "name": "accumulatedCommission",
      "outputs": [
        {
          "internalType": "uint256",
          "name": "",
          "type": "uint256"
        }
      ],
      "stateMutability": "view",
      "type": "function"
    },
    {
      "inputs": [],
      "name": "commission",
      "outputs": [
        {
          "internalType": "uint256",
          "name": "",
          "type": "uint256"
        }
      ],
      "stateMutability": "view",
      "type": "function"
    },
    {
      "inputs": [
        {
          "internalType": "uint256",
          "name": "",
          "type": "uint256"
        }
      ],
      "name": "offers",
      "outputs": [
        {
          "internalType": "address",
          "name": "assetAddress",
          "type": "address"
        },
        {
          "internalType": "uint256",
          "name": "tokenId",
          "type": "uint256"
        },
        {
          "internalType": "uint256",
          "name": "amount",
          "type": "uint256"
        },
        {
          "internalType": "address payable",
          "name": "creator",
          "type": "address"
        },
        {
          "internalType": "uint256",
          "name": "price",
          "type": "uint256"
        },
        {
          "internalType": "bool",
          "name": "isOnSale",
          "type": "bool"
        },
        {
          "internalType": "bool",
          "name": "isAuction",
          "type": "bool"
        },
        {
          "internalType": "uint256",
          "name": "startTime",
          "type": "uint256"
        },
        {
          "internalType": "uint256",
          "name": "duration",
          "type": "uint256"
        },
        {
          "internalType": "uint256",
          "name": "currentBidAmount",
          "type": "uint256"
        },
        {
          "internalType": "address payable",
          "name": "currentBidOwner",
          "type": "address"
        },
        {
          "internalType": "uint256",
          "name": "bidCount",
          "type": "uint256"
        }
      ],
      "stateMutability": "view",
      "type": "function"
    },
    {
      "inputs": [],
      "name": "owner",
      "outputs": [
        {
          "internalType": "address",
          "name": "",
          "type": "address"
        }
      ],
      "stateMutability": "view",
      "type": "function"
    },
    {
      "inputs": [],
      "name": "renounceOwnership",
      "outputs": [],
      "stateMutability": "nonpayable",
      "type": "function"
    },
    {
      "inputs": [
        {
          "internalType": "bytes32",
          "name": "",
          "type": "bytes32"
        }
      ],
      "name": "tokens",
      "outputs": [
        {
          "internalType": "address",
          "name": "tokenAddr",
          "type": "address"
        },
        {
          "internalType": "address",
          "name": "creator",
          "type": "address"
        },
        {
          "internalType": "uint256",
          "name": "royalties",
          "type": "uint256"
        },
        {
          "internalType": "string",
          "name": "lockedContent",
          "type": "string"
        }
      ],
      "stateMutability": "view",
      "type": "function"
    },
    {
      "inputs": [
        {
          "internalType": "address",
          "name": "newOwner",
          "type": "address"
        }
      ],
      "name": "transferOwnership",
      "outputs": [],
      "stateMutability": "nonpayable",
      "type": "function"
    },
    {
      "inputs": [
        {
          "internalType": "address",
          "name": "_tokenAddress",
          "type": "address"
        },
        {
          "internalType": "uint256",
          "name": "_id",
          "type": "uint256"
        }
      ],
      "name": "getCreator",
      "outputs": [
        {
          "internalType": "address",
          "name": "",
          "type": "address"
        }
      ],
      "stateMutability": "view",
      "type": "function"
    },
    {
      "inputs": [
        {
          "internalType": "address",
          "name": "_tokenAddress",
          "type": "address"
        },
        {
          "internalType": "uint256",
          "name": "_id",
          "type": "uint256"
        }
      ],
      "name": "getRoyalties",
      "outputs": [
        {
          "internalType": "uint256",
          "name": "",
          "type": "uint256"
        }
      ],
      "stateMutability": "view",
      "type": "function"
    },
    {
      "inputs": [
        {
          "internalType": "address",
          "name": "_tokenAddr",
          "type": "address"
        },
        {
          "internalType": "uint256",
          "name": "_tokenId",
          "type": "uint256"
        },
        {
          "internalType": "uint256",
          "name": "_royalties",
          "type": "uint256"
        },
        {
          "internalType": "string",
          "name": "_lockedContent",
          "type": "string"
        }
      ],
      "name": "addTokenToMarketplace",
      "outputs": [],
      "stateMutability": "nonpayable",
      "type": "function"
    },
    {
      "inputs": [
        {
          "internalType": "address",
          "name": "_assetAddress",
          "type": "address"
        },
        {
          "internalType": "uint256",
          "name": "_tokenId",
          "type": "uint256"
        },
        {
          "internalType": "uint256",
          "name": "_amount",
          "type": "uint256"
        },
        {
          "internalType": "bool",
          "name": "_isDirectSale",
          "type": "bool"
        },
        {
          "internalType": "bool",
          "name": "_isAuction",
          "type": "bool"
        },
        {
          "internalType": "uint256",
          "name": "_price",
          "type": "uint256"
        },
        {
          "internalType": "uint256",
          "name": "_startPrice",
          "type": "uint256"
        },
        {
          "internalType": "uint256",
          "name": "_startTime",
          "type": "uint256"
        },
        {
          "internalType": "uint256",
          "name": "_duration",
          "type": "uint256"
        }
      ],
      "name": "createOffer",
      "outputs": [
        {
          "internalType": "uint256",
          "name": "",
          "type": "uint256"
        }
      ],
      "stateMutability": "nonpayable",
      "type": "function"
    },
    {
      "inputs": [],
      "name": "getOffersCount",
      "outputs": [
        {
          "internalType": "uint256",
          "name": "",
          "type": "uint256"
        }
      ],
      "stateMutability": "view",
      "type": "function"
    },
    {
      "inputs": [],
      "name": "ahora",
      "outputs": [
        {
          "internalType": "uint256",
          "name": "",
          "type": "uint256"
        }
      ],
      "stateMutability": "view",
      "type": "function"
    },
    {
      "inputs": [
        {
          "internalType": "uint256",
          "name": "_offerId",
          "type": "uint256"
        }
      ],
      "name": "getEndDate",
      "outputs": [
        {
          "internalType": "uint256",
          "name": "",
          "type": "uint256"
        }
      ],
      "stateMutability": "view",
      "type": "function"
    },
    {
      "inputs": [
        {
          "internalType": "uint256",
          "name": "_offerId",
          "type": "uint256"
        }
      ],
      "name": "removeFromAuction",
      "outputs": [],
      "stateMutability": "nonpayable",
      "type": "function"
    },
    {
      "inputs": [
        {
          "internalType": "uint256",
          "name": "_offerId",
          "type": "uint256"
        }
      ],
      "name": "removeFromSale",
      "outputs": [],
      "stateMutability": "nonpayable",
      "type": "function"
    },
    {
      "inputs": [
        {
          "internalType": "uint256",
          "name": "_commission",
          "type": "uint256"
        }
      ],
      "name": "setCommission",
      "outputs": [],
      "stateMutability": "nonpayable",
      "type": "function"
    },
    {
      "inputs": [
        {
          "internalType": "uint256",
          "name": "_offerId",
          "type": "uint256"
        }
      ],
      "name": "buy",
      "outputs": [],
      "stateMutability": "payable",
      "type": "function"
    },
    {
      "inputs": [
        {
          "internalType": "uint256",
          "name": "_offerId",
          "type": "uint256"
        }
      ],
      "name": "bid",
      "outputs": [],
      "stateMutability": "payable",
      "type": "function"
    },
    {
      "inputs": [
        {
          "internalType": "uint256",
          "name": "_offerId",
          "type": "uint256"
        }
      ],
      "name": "isActive",
      "outputs": [
        {
          "internalType": "bool",
          "name": "",
          "type": "bool"
        }
      ],
      "stateMutability": "view",
      "type": "function"
    },
    {
      "inputs": [
        {
          "internalType": "uint256",
          "name": "_offerId",
          "type": "uint256"
        }
      ],
      "name": "isFinished",
      "outputs": [
        {
          "internalType": "bool",
          "name": "",
          "type": "bool"
        }
      ],
      "stateMutability": "view",
      "type": "function"
    },
    {
      "inputs": [
        {
          "internalType": "uint256",
          "name": "_offerId",
          "type": "uint256"
        }
      ],
      "name": "getStatus",
      "outputs": [
        {
          "internalType": "enum Engine.Status",
          "name": "",
          "type": "uint8"
        }
      ],
      "stateMutability": "view",
      "type": "function"
    },
    {
      "inputs": [
        {
          "internalType": "uint256",
          "name": "_offerId",
          "type": "uint256"
        }
      ],
      "name": "endDate",
      "outputs": [
        {
          "internalType": "uint256",
          "name": "",
          "type": "uint256"
        }
      ],
      "stateMutability": "view",
      "type": "function"
    },
    {
      "inputs": [
        {
          "internalType": "uint256",
          "name": "_offerId",
          "type": "uint256"
        }
      ],
      "name": "getCurrentBidOwner",
      "outputs": [
        {
          "internalType": "address",
          "name": "",
          "type": "address"
        }
      ],
      "stateMutability": "view",
      "type": "function"
    },
    {
      "inputs": [
        {
          "internalType": "uint256",
          "name": "_offerId",
          "type": "uint256"
        }
      ],
      "name": "getCurrentBidAmount",
      "outputs": [
        {
          "internalType": "uint256",
          "name": "",
          "type": "uint256"
        }
      ],
      "stateMutability": "view",
      "type": "function"
    },
    {
      "inputs": [
        {
          "internalType": "uint256",
          "name": "_offerId",
          "type": "uint256"
        }
      ],
      "name": "getBidCount",
      "outputs": [
        {
          "internalType": "uint256",
          "name": "",
          "type": "uint256"
        }
      ],
      "stateMutability": "view",
      "type": "function"
    },
    {
      "inputs": [
        {
          "internalType": "uint256",
          "name": "_offerId",
          "type": "uint256"
        }
      ],
      "name": "getWinner",
      "outputs": [
        {
          "internalType": "address",
          "name": "",
          "type": "address"
        }
      ],
      "stateMutability": "view",
      "type": "function"
    },
    {
      "inputs": [
        {
          "internalType": "uint256",
          "name": "_offerId",
          "type": "uint256"
        }
      ],
      "name": "claimAsset",
      "outputs": [],
      "stateMutability": "nonpayable",
      "type": "function"
    },
    {
      "inputs": [],
      "name": "extractBalance",
      "outputs": [],
      "stateMutability": "nonpayable",
      "type": "function"
    }
  ],
  "bytecode": "0x6080604052600060015560006002553480156200001b57600080fd5b5060006200002e620000d260201b60201c565b9050806000806101000a81548173ffffffffffffffffffffffffffffffffffffffff021916908373ffffffffffffffffffffffffffffffffffffffff1602179055508073ffffffffffffffffffffffffffffffffffffffff16600073ffffffffffffffffffffffffffffffffffffffff167f8be0079c531659141344cd1fd0a4f28419497f9722a3daafe3b4186f6b6457e060405160405180910390a350620000da565b600033905090565b6146c880620000ea6000396000f3fe6080604052600436106101c25760003560e01c806374869089116100f75780639ca7dc7a11610095578063d96a094a11610064578063d96a094a146106b1578063e1489191146106cd578063e8ba6509146106f8578063f2fde38b14610735576101c2565b80639ca7dc7a146105e35780639f49be9c14610620578063ae6936731461065d578063d3c2a59214610688576101c2565b806386b46073116100d157806386b46073146104f35780638a72ea6a146105305780638da5cb5b14610578578063904194a3146105a3576101c2565b80637486908914610450578063787952111461048d57806382afd23b146104b6576101c2565b80634cac5b4b116101645780636975846a1161013e5780636975846a146103a85780636af83b24146103e5578063715018a6146103fc578063744d341114610413576101c2565b80634cac5b4b146102f15780635c622a0e1461032e5780635c6b047a1461036b576101c2565b80632f2e7b75116101a05780632f2e7b7514610244578063355e6b431461026f5780634129b2c914610298578063454a2ab3146102d5576101c2565b80631361a3b6146101c75780632241091b146101f05780632b86675914610219575b600080fd5b3480156101d357600080fd5b506101ee60048036038101906101e99190613788565b61075e565b005b3480156101fc57600080fd5b5061021760048036038101906102129190613788565b610b66565b005b34801561022557600080fd5b5061022e610fb6565b60405161023b9190613eb3565b60405180910390f35b34801561025057600080fd5b50610259610fbe565b6040516102669190613eb3565b60405180910390f35b34801561027b57600080fd5b5061029660048036038101906102919190613788565b610fcb565b005b3480156102a457600080fd5b506102bf60048036038101906102ba9190613788565b611051565b6040516102cc9190613ab1565b60405180910390f35b6102ef60048036038101906102ea9190613788565b61110e565b005b3480156102fd57600080fd5b5061031860048036038101906103139190613788565b61140a565b6040516103259190613eb3565b60405180910390f35b34801561033a57600080fd5b5061035560048036038101906103509190613788565b61147a565b6040516103629190613cf8565b60405180910390f35b34801561037757600080fd5b50610392600480360381019061038d9190613788565b611514565b60405161039f9190613eb3565b60405180910390f35b3480156103b457600080fd5b506103cf60048036038101906103ca9190613788565b611708565b6040516103dc9190613eb3565b60405180910390f35b3480156103f157600080fd5b506103fa61175d565b005b34801561040857600080fd5b50610411611832565b005b34801561041f57600080fd5b5061043a60048036038101906104359190613788565b61196c565b6040516104479190613eb3565b60405180910390f35b34801561045c57600080fd5b50610477600480360381019061047291906135e2565b6119c1565b6040516104849190613ab1565b60405180910390f35b34801561049957600080fd5b506104b460048036038101906104af91906136e4565b611a2a565b005b3480156104c257600080fd5b506104dd60048036038101906104d89190613788565b611c49565b6040516104ea9190613cdd565b60405180910390f35b3480156104ff57600080fd5b5061051a60048036038101906105159190613788565b611cce565b6040516105279190613ab1565b60405180910390f35b34801561053c57600080fd5b5061055760048036038101906105529190613788565b611d43565b60405161056f9c9b9a99989796959493929190613c23565b60405180910390f35b34801561058457600080fd5b5061058d611e2d565b60405161059a9190613ab1565b60405180910390f35b3480156105af57600080fd5b506105ca60048036038101906105c5919061375f565b611e56565b6040516105da9493929190613bae565b60405180910390f35b3480156105ef57600080fd5b5061060a600480360381019061060591906135e2565b611f4e565b6040516106179190613eb3565b60405180910390f35b34801561062c57600080fd5b506106476004803603810190610642919061361e565b611f97565b6040516106549190613eb3565b60405180910390f35b34801561066957600080fd5b506106726122bd565b60405161067f9190613eb3565b60405180910390f35b34801561069457600080fd5b506106af60048036038101906106aa9190613788565b6122c3565b005b6106cb60048036038101906106c69190613788565b612a33565b005b3480156106d957600080fd5b506106e26131f4565b6040516106ef9190613eb3565b60405180910390f35b34801561070457600080fd5b5061071f600480360381019061071a9190613788565b6131fa565b60405161072c9190613cdd565b60405180910390f35b34801561074157600080fd5b5061075c600480360381019061075791906135b9565b61327e565b005b60006003828154811061079a577f4e487b7100000000000000000000000000000000000000000000000000000000600052603260045260246000fd5b90600052602060002090600b0201604051806101800160405290816000820160009054906101000a900473ffffffffffffffffffffffffffffffffffffffff1673ffffffffffffffffffffffffffffffffffffffff1673ffffffffffffffffffffffffffffffffffffffff16815260200160018201548152602001600282015481526020016003820160009054906101000a900473ffffffffffffffffffffffffffffffffffffffff1673ffffffffffffffffffffffffffffffffffffffff1673ffffffffffffffffffffffffffffffffffffffff168152602001600482015481526020016005820160009054906101000a900460ff161515151581526020016005820160019054906101000a900460ff161515151581526020016006820154815260200160078201548152602001600882015481526020016009820160009054906101000a900473ffffffffffffffffffffffffffffffffffffffff1673ffffffffffffffffffffffffffffffffffffffff1673ffffffffffffffffffffffffffffffffffffffff168152602001600a820154815250509050806060015173ffffffffffffffffffffffffffffffffffffffff163373ffffffffffffffffffffffffffffffffffffffff16146109a6576040517f08c379a000000000000000000000000000000000000000000000000000000000815260040161099d90613e13565b60405180910390fd5b60008160a001901515908115158152505080600383815481106109f2577f4e487b7100000000000000000000000000000000000000000000000000000000600052603260045260246000fd5b90600052602060002090600b020160008201518160000160006101000a81548173ffffffffffffffffffffffffffffffffffffffff021916908373ffffffffffffffffffffffffffffffffffffffff160217905550602082015181600101556040820151816002015560608201518160030160006101000a81548173ffffffffffffffffffffffffffffffffffffffff021916908373ffffffffffffffffffffffffffffffffffffffff1602179055506080820151816004015560a08201518160050160006101000a81548160ff02191690831515021790555060c08201518160050160016101000a81548160ff02191690831515021790555060e08201518160060155610100820151816007015561012082015181600801556101408201518160090160006101000a81548173ffffffffffffffffffffffffffffffffffffffff021916908373ffffffffffffffffffffffffffffffffffffffff16021790555061016082015181600a01559050505050565b600060038281548110610ba2577f4e487b7100000000000000000000000000000000000000000000000000000000600052603260045260246000fd5b90600052602060002090600b0201604051806101800160405290816000820160009054906101000a900473ffffffffffffffffffffffffffffffffffffffff1673ffffffffffffffffffffffffffffffffffffffff1673ffffffffffffffffffffffffffffffffffffffff16815260200160018201548152602001600282015481526020016003820160009054906101000a900473ffffffffffffffffffffffffffffffffffffffff1673ffffffffffffffffffffffffffffffffffffffff1673ffffffffffffffffffffffffffffffffffffffff168152602001600482015481526020016005820160009054906101000a900460ff161515151581526020016005820160019054906101000a900460ff161515151581526020016006820154815260200160078201548152602001600882015481526020016009820160009054906101000a900473ffffffffffffffffffffffffffffffffffffffff1673ffffffffffffffffffffffffffffffffffffffff1673ffffffffffffffffffffffffffffffffffffffff168152602001600a820154815250509050806060015173ffffffffffffffffffffffffffffffffffffffff163373ffffffffffffffffffffffffffffffffffffffff1614610dae576040517f08c379a0000000000000000000000000000000000000000000000000000000008152600401610da590613e13565b60405180910390fd5b600081610160015114610df6576040517f08c379a0000000000000000000000000000000000000000000000000000000008152600401610ded90613d93565b60405180910390fd5b60008160c00190151590811515815250508060038381548110610e42577f4e487b7100000000000000000000000000000000000000000000000000000000600052603260045260246000fd5b90600052602060002090600b020160008201518160000160006101000a81548173ffffffffffffffffffffffffffffffffffffffff021916908373ffffffffffffffffffffffffffffffffffffffff160217905550602082015181600101556040820151816002015560608201518160030160006101000a81548173ffffffffffffffffffffffffffffffffffffffff021916908373ffffffffffffffffffffffffffffffffffffffff1602179055506080820151816004015560a08201518160050160006101000a81548160ff02191690831515021790555060c08201518160050160016101000a81548160ff02191690831515021790555060e08201518160060155610100820151816007015561012082015181600801556101408201518160090160006101000a81548173ffffffffffffffffffffffffffffffffffffffff021916908373ffffffffffffffffffffffffffffffffffffffff16021790555061016082015181600a01559050505050565b600042905090565b6000600380549050905090565b610fd3613427565b73ffffffffffffffffffffffffffffffffffffffff16610ff1611e2d565b73ffffffffffffffffffffffffffffffffffffffff1614611047576040517f08c379a000000000000000000000000000000000000000000000000000000000815260040161103e90613e33565b60405180910390fd5b8060018190555050565b600061105c826131fa565b61109b576040517f08c379a000000000000000000000000000000000000000000000000000000000815260040161109290613d33565b60405180910390fd5b600382815481106110d5577f4e487b7100000000000000000000000000000000000000000000000000000000600052603260045260246000fd5b90600052602060002090600b020160090160009054906101000a900473ffffffffffffffffffffffffffffffffffffffff169050919050565b60006003828154811061114a577f4e487b7100000000000000000000000000000000000000000000000000000000600052603260045260246000fd5b90600052602060002090600b02019050600073ffffffffffffffffffffffffffffffffffffffff168160030160009054906101000a900473ffffffffffffffffffffffffffffffffffffffff1673ffffffffffffffffffffffffffffffffffffffff1614156111b857600080fd5b806008015434116111fe576040517f08c379a00000000000000000000000000000000000000000000000000000000081526004016111f590613d53565b60405180910390fd5b600081600801541415801561128757508060030160009054906101000a900473ffffffffffffffffffffffffffffffffffffffff1673ffffffffffffffffffffffffffffffffffffffff168160090160009054906101000a900473ffffffffffffffffffffffffffffffffffffffff1673ffffffffffffffffffffffffffffffffffffffff1614155b1561135f578060090160009054906101000a900473ffffffffffffffffffffffffffffffffffffffff1673ffffffffffffffffffffffffffffffffffffffff166108fc82600801549081150290604051600060405180830381858888f193505050501580156112fa573d6000803e3d6000fd5b507f972fd66eadedfb87beff023a37f4d8c6a91fdd147fa0d3c036e0c6c5a0cdc795828260090160009054906101000a900473ffffffffffffffffffffffffffffffffffffffff16836008015460405161135693929190613ef7565b60405180910390a15b348160080181905550338160090160006101000a81548173ffffffffffffffffffffffffffffffffffffffff021916908373ffffffffffffffffffffffffffffffffffffffff1602179055506113c3600182600a015461342f90919063ffffffff16565b81600a01819055507fb8d756f2d1da4663767eb4d559780ace84f2f65a421a60ddcb47e8b2e5d2fd268233346040516113fe93929190613f2e565b60405180910390a15050565b60008060038381548110611447577f4e487b7100000000000000000000000000000000000000000000000000000000600052603260045260246000fd5b90600052602060002090600b020190506114728160070154826006015461342f90919063ffffffff16565b915050919050565b600080600383815481106114b7577f4e487b7100000000000000000000000000000000000000000000000000000000600052603260045260246000fd5b90600052602060002090600b0201905080600601544210156114dd57600091505061150f565b6114f88160070154826006015461342f90919063ffffffff16565b42101561150957600191505061150f565b60029150505b919050565b60008060038381548110611551577f4e487b7100000000000000000000000000000000000000000000000000000000600052603260045260246000fd5b90600052602060002090600b0201604051806101800160405290816000820160009054906101000a900473ffffffffffffffffffffffffffffffffffffffff1673ffffffffffffffffffffffffffffffffffffffff1673ffffffffffffffffffffffffffffffffffffffff16815260200160018201548152602001600282015481526020016003820160009054906101000a900473ffffffffffffffffffffffffffffffffffffffff1673ffffffffffffffffffffffffffffffffffffffff1673ffffffffffffffffffffffffffffffffffffffff168152602001600482015481526020016005820160009054906101000a900460ff161515151581526020016005820160019054906101000a900460ff161515151581526020016006820154815260200160078201548152602001600882015481526020016009820160009054906101000a900473ffffffffffffffffffffffffffffffffffffffff1673ffffffffffffffffffffffffffffffffffffffff1673ffffffffffffffffffffffffffffffffffffffff168152602001600a8201548152505090508061010001518160e001516117009190613fe8565b915050919050565b600060038281548110611744577f4e487b7100000000000000000000000000000000000000000000000000000000600052603260045260246000fd5b90600052602060002090600b0201600801549050919050565b611765613427565b73ffffffffffffffffffffffffffffffffffffffff16611783611e2d565b73ffffffffffffffffffffffffffffffffffffffff16146117d9576040517f08c379a00000000000000000000000000000000000000000000000000000000081526004016117d090613e33565b60405180910390fd5b60003390508073ffffffffffffffffffffffffffffffffffffffff166108fc6002549081150290604051600060405180830381858888f19350505050158015611826573d6000803e3d6000fd5b50600060028190555050565b61183a613427565b73ffffffffffffffffffffffffffffffffffffffff16611858611e2d565b73ffffffffffffffffffffffffffffffffffffffff16146118ae576040517f08c379a00000000000000000000000000000000000000000000000000000000081526004016118a590613e33565b60405180910390fd5b600073ffffffffffffffffffffffffffffffffffffffff1660008054906101000a900473ffffffffffffffffffffffffffffffffffffffff1673ffffffffffffffffffffffffffffffffffffffff167f8be0079c531659141344cd1fd0a4f28419497f9722a3daafe3b4186f6b6457e060405160405180910390a360008060006101000a81548173ffffffffffffffffffffffffffffffffffffffff021916908373ffffffffffffffffffffffffffffffffffffffff160217905550565b6000600382815481106119a8577f4e487b7100000000000000000000000000000000000000000000000000000000600052603260045260246000fd5b90600052602060002090600b0201600a01549050919050565b60006004600084846040516020016119da929190613a85565b60405160208183030381529060405280519060200120815260200190815260200160002060010160009054906101000a900473ffffffffffffffffffffffffffffffffffffffff16905092915050565b6103e8821115611a6f576040517f08c379a0000000000000000000000000000000000000000000000000000000008152600401611a6690613df3565b60405180910390fd5b600073ffffffffffffffffffffffffffffffffffffffff16600460008686604051602001611a9e929190613a85565b60405160208183030381529060405280519060200120815260200190815260200160002060010160009054906101000a900473ffffffffffffffffffffffffffffffffffffffff1673ffffffffffffffffffffffffffffffffffffffff161415611c435760405180608001604052808573ffffffffffffffffffffffffffffffffffffffff1681526020013373ffffffffffffffffffffffffffffffffffffffff16815260200183815260200182815250600460008686604051602001611b66929190613a85565b60405160208183030381529060405280519060200120815260200190815260200160002060008201518160000160006101000a81548173ffffffffffffffffffffffffffffffffffffffff021916908373ffffffffffffffffffffffffffffffffffffffff16021790555060208201518160010160006101000a81548173ffffffffffffffffffffffffffffffffffffffff021916908373ffffffffffffffffffffffffffffffffffffffff160217905550604082015181600201556060820151816003019080519060200190611c3e929190613445565b509050505b50505050565b600060016002811115611c85577f4e487b7100000000000000000000000000000000000000000000000000000000600052602160045260246000fd5b611c8e8361147a565b6002811115611cc6577f4e487b7100000000000000000000000000000000000000000000000000000000600052602160045260246000fd5b149050919050565b600060038281548110611d0a577f4e487b7100000000000000000000000000000000000000000000000000000000600052603260045260246000fd5b90600052602060002090600b020160090160009054906101000a900473ffffffffffffffffffffffffffffffffffffffff169050919050565b60038181548110611d5357600080fd5b90600052602060002090600b02016000915090508060000160009054906101000a900473ffffffffffffffffffffffffffffffffffffffff16908060010154908060020154908060030160009054906101000a900473ffffffffffffffffffffffffffffffffffffffff16908060040154908060050160009054906101000a900460ff16908060050160019054906101000a900460ff16908060060154908060070154908060080154908060090160009054906101000a900473ffffffffffffffffffffffffffffffffffffffff169080600a015490508c565b60008060009054906101000a900473ffffffffffffffffffffffffffffffffffffffff16905090565b60046020528060005260406000206000915090508060000160009054906101000a900473ffffffffffffffffffffffffffffffffffffffff16908060010160009054906101000a900473ffffffffffffffffffffffffffffffffffffffff1690806002015490806003018054611ecb906141fe565b80601f0160208091040260200160405190810160405280929190818152602001828054611ef7906141fe565b8015611f445780601f10611f1957610100808354040283529160200191611f44565b820191906000526020600020905b815481529060010190602001808311611f2757829003601f168201915b5050505050905084565b6000600460008484604051602001611f67929190613a85565b60405160208183030381529060405280519060200120815260200190815260200160002060020154905092915050565b6000808a9050888173ffffffffffffffffffffffffffffffffffffffff1662fdd58e338d6040518363ffffffff1660e01b8152600401611fd8929190613bfa565b60206040518083038186803b158015611ff057600080fd5b505afa158015612004573d6000803e3d6000fd5b505050506040513d601f19601f8201168201806040525081019061202891906137b1565b1015612069576040517f08c379a000000000000000000000000000000000000000000000000000000000815260040161206090613dd3565b60405180910390fd5b60006040518061018001604052808d73ffffffffffffffffffffffffffffffffffffffff1681526020018c81526020018b81526020013373ffffffffffffffffffffffffffffffffffffffff1681526020018881526020018a151581526020018915158152602001868152602001858152602001878152602001600073ffffffffffffffffffffffffffffffffffffffff1681526020016000815250905060038190806001815401808255809150506001900390600052602060002090600b020160009091909190915060008201518160000160006101000a81548173ffffffffffffffffffffffffffffffffffffffff021916908373ffffffffffffffffffffffffffffffffffffffff160217905550602082015181600101556040820151816002015560608201518160030160006101000a81548173ffffffffffffffffffffffffffffffffffffffff021916908373ffffffffffffffffffffffffffffffffffffffff1602179055506080820151816004015560a08201518160050160006101000a81548160ff02191690831515021790555060c08201518160050160016101000a81548160ff02191690831515021790555060e08201518160060155610100820151816007015561012082015181600801556101408201518160090160006101000a81548173ffffffffffffffffffffffffffffffffffffffff021916908373ffffffffffffffffffffffffffffffffffffffff16021790555061016082015181600a01555050600060016003805490506122a891906140c9565b90508093505050509998505050505050505050565b60025481565b6122cc816131fa565b61230b576040517f08c379a000000000000000000000000000000000000000000000000000000000815260040161230290613e73565b60405180910390fd5b600060038281548110612347577f4e487b7100000000000000000000000000000000000000000000000000000000600052603260045260246000fd5b90600052602060002090600b02019050600061236283611051565b90503373ffffffffffffffffffffffffffffffffffffffff168173ffffffffffffffffffffffffffffffffffffffff16146123d2576040517f08c379a00000000000000000000000000000000000000000000000000000000081526004016123c990613db3565b60405180910390fd5b600115158260050160019054906101000a900460ff1615151461242a576040517f08c379a000000000000000000000000000000000000000000000000000000000815260040161242190613e53565b60405180910390fd5b60008260000160009054906101000a900473ffffffffffffffffffffffffffffffffffffffff1690508073ffffffffffffffffffffffffffffffffffffffff1663f242432a8460030160009054906101000a900473ffffffffffffffffffffffffffffffffffffffff1633866001015487600201546040518563ffffffff1660e01b81526004016124be9493929190613acc565b600060405180830381600087803b1580156124d857600080fd5b505af11580156124ec573d6000803e3d6000fd5b505050507f35538759d80c1fd7bb450a0d05601db5a99fa8b5d073a07c847a9fd61029b1078483604051612521929190613ece565b60405180910390a1600061255d8460000160009054906101000a900473ffffffffffffffffffffffffffffffffffffffff1685600101546119c1565b905060006127106001548660080154612576919061406f565b612580919061403e565b905060008560030160009054906101000a900473ffffffffffffffffffffffffffffffffffffffff1673ffffffffffffffffffffffffffffffffffffffff168373ffffffffffffffffffffffffffffffffffffffff16146126ac576127106126108760000160009054906101000a900473ffffffffffffffffffffffffffffffffffffffff168860010154611f4e565b876008015461261f919061406f565b612629919061403e565b90508273ffffffffffffffffffffffffffffffffffffffff166108fc829081150290604051600060405180830381858888f19350505050158015612671573d6000803e3d6000fd5b507f54b960faf8b038c33ba9912fdb9ac1e8e0096c5f327d1c89e62b5d9c5357ddb683826040516126a3929190613b24565b60405180910390a15b6000818388600801546126bf91906140c9565b6126c991906140c9565b90508660030160009054906101000a900473ffffffffffffffffffffffffffffffffffffffff1673ffffffffffffffffffffffffffffffffffffffff166108fc829081150290604051600060405180830381858888f19350505050158015612735573d6000803e3d6000fd5b507fdc30cf33a72c513fcddf37a0bee2e04d50e197e511f1e1dc0a0fbcf470d810018760030160009054906101000a900473ffffffffffffffffffffffffffffffffffffffff1682896008015486868789886127919190613fe8565b61279b9190613fe8565b6040516127ad96959493929190613b4d565b60405180910390a182600260008282546127c79190613fe8565b9250508190555060008760050160016101000a81548160ff02191690831515021790555060008760050160006101000a81548160ff0219169083151502179055508660038981548110612843577f4e487b7100000000000000000000000000000000000000000000000000000000600052603260045260246000fd5b90600052602060002090600b02016000820160009054906101000a900473ffffffffffffffffffffffffffffffffffffffff168160000160006101000a81548173ffffffffffffffffffffffffffffffffffffffff021916908373ffffffffffffffffffffffffffffffffffffffff16021790555060018201548160010155600282015481600201556003820160009054906101000a900473ffffffffffffffffffffffffffffffffffffffff168160030160006101000a81548173ffffffffffffffffffffffffffffffffffffffff021916908373ffffffffffffffffffffffffffffffffffffffff160217905550600482015481600401556005820160009054906101000a900460ff168160050160006101000a81548160ff0219169083151502179055506005820160019054906101000a900460ff168160050160016101000a81548160ff0219169083151502179055506006820154816006015560078201548160070155600882015481600801556009820160009054906101000a900473ffffffffffffffffffffffffffffffffffffffff168160090160006101000a81548173ffffffffffffffffffffffffffffffffffffffff021916908373ffffffffffffffffffffffffffffffffffffffff160217905550600a82015481600a01559050505050505050505050565b60003390506000349050600060038481548110612a79577f4e487b7100000000000000000000000000000000000000000000000000000000600052603260045260246000fd5b90600052602060002090600b0201604051806101800160405290816000820160009054906101000a900473ffffffffffffffffffffffffffffffffffffffff1673ffffffffffffffffffffffffffffffffffffffff1673ffffffffffffffffffffffffffffffffffffffff16815260200160018201548152602001600282015481526020016003820160009054906101000a900473ffffffffffffffffffffffffffffffffffffffff1673ffffffffffffffffffffffffffffffffffffffff1673ffffffffffffffffffffffffffffffffffffffff168152602001600482015481526020016005820160009054906101000a900460ff161515151581526020016005820160019054906101000a900460ff161515151581526020016006820154815260200160078201548152602001600882015481526020016009820160009054906101000a900473ffffffffffffffffffffffffffffffffffffffff1673ffffffffffffffffffffffffffffffffffffffff1673ffffffffffffffffffffffffffffffffffffffff168152602001600a820154815250509050600115158160a00151151514612c5e576040517f08c379a0000000000000000000000000000000000000000000000000000000008152600401612c5590613e93565b60405180910390fd5b60008160800151905080831015612caa576040517f08c379a0000000000000000000000000000000000000000000000000000000008152600401612ca190613d13565b60405180910390fd5b7f35538759d80c1fd7bb450a0d05601db5a99fa8b5d073a07c847a9fd61029b1078585604051612cdb929190613ece565b60405180910390a16000826000015190508073ffffffffffffffffffffffffffffffffffffffff1663f242432a846060015133866020015187604001516040518563ffffffff1660e01b8152600401612d379493929190613acc565b600060405180830381600087803b158015612d5157600080fd5b505af1158015612d65573d6000803e3d6000fd5b505050506000612d798460000151886119c1565b9050600061271060015487612d8e919061406f565b612d98919061403e565b90506000856060015173ffffffffffffffffffffffffffffffffffffffff168373ffffffffffffffffffffffffffffffffffffffff1614612e7c57612710612de487600001518b611f4e565b88612def919061406f565b612df9919061403e565b90508273ffffffffffffffffffffffffffffffffffffffff166108fc829081150290604051600060405180830381858888f19350505050158015612e41573d6000803e3d6000fd5b507f54b960faf8b038c33ba9912fdb9ac1e8e0096c5f327d1c89e62b5d9c5357ddb68382604051612e73929190613b24565b60405180910390a15b6000818389612e8b91906140c9565b612e9591906140c9565b9050866060015173ffffffffffffffffffffffffffffffffffffffff166108fc829081150290604051600060405180830381858888f19350505050158015612ee1573d6000803e3d6000fd5b507fdc30cf33a72c513fcddf37a0bee2e04d50e197e511f1e1dc0a0fbcf470d810018760600151828a86866127106001548f612f1d919061406f565b612f27919061403e565b87612f329190613fe8565b604051612f4496959493929190613b4d565b60405180910390a1600115158760c0015115151415613002576000876101200151146130015786610140015173ffffffffffffffffffffffffffffffffffffffff166108fc8861012001519081150290604051600060405180830381858888f19350505050158015612fba573d6000803e3d6000fd5b507f972fd66eadedfb87beff023a37f4d8c6a91fdd147fa0d3c036e0c6c5a0cdc7958a886101400151896101200151604051612ff893929190613ef7565b60405180910390a15b5b82600260008282546130149190613fe8565b9250508190555060008760c001901515908115158152505060008760a00190151590811515815250508660038b81548110613078577f4e487b7100000000000000000000000000000000000000000000000000000000600052603260045260246000fd5b90600052602060002090600b020160008201518160000160006101000a81548173ffffffffffffffffffffffffffffffffffffffff021916908373ffffffffffffffffffffffffffffffffffffffff160217905550602082015181600101556040820151816002015560608201518160030160006101000a81548173ffffffffffffffffffffffffffffffffffffffff021916908373ffffffffffffffffffffffffffffffffffffffff1602179055506080820151816004015560a08201518160050160006101000a81548160ff02191690831515021790555060c08201518160050160016101000a81548160ff02191690831515021790555060e08201518160060155610100820151816007015561012082015181600801556101408201518160090160006101000a81548173ffffffffffffffffffffffffffffffffffffffff021916908373ffffffffffffffffffffffffffffffffffffffff16021790555061016082015181600a015590505050505050505050505050565b60015481565b6000600280811115613235577f4e487b7100000000000000000000000000000000000000000000000000000000600052602160045260246000fd5b61323e8361147a565b6002811115613276577f4e487b7100000000000000000000000000000000000000000000000000000000600052602160045260246000fd5b149050919050565b613286613427565b73ffffffffffffffffffffffffffffffffffffffff166132a4611e2d565b73ffffffffffffffffffffffffffffffffffffffff16146132fa576040517f08c379a00000000000000000000000000000000000000000000000000000000081526004016132f190613e33565b60405180910390fd5b600073ffffffffffffffffffffffffffffffffffffffff168173ffffffffffffffffffffffffffffffffffffffff16141561336a576040517f08c379a000000000000000000000000000000000000000000000000000000000815260040161336190613d73565b60405180910390fd5b8073ffffffffffffffffffffffffffffffffffffffff1660008054906101000a900473ffffffffffffffffffffffffffffffffffffffff1673ffffffffffffffffffffffffffffffffffffffff167f8be0079c531659141344cd1fd0a4f28419497f9722a3daafe3b4186f6b6457e060405160405180910390a3806000806101000a81548173ffffffffffffffffffffffffffffffffffffffff021916908373ffffffffffffffffffffffffffffffffffffffff16021790555050565b600033905090565b6000818361343d9190613fe8565b905092915050565b828054613451906141fe565b90600052602060002090601f01602090048101928261347357600085556134ba565b82601f1061348c57805160ff19168380011785556134ba565b828001600101855582156134ba579182015b828111156134b957825182559160200191906001019061349e565b5b5090506134c791906134cb565b5090565b5b808211156134e45760008160009055506001016134cc565b5090565b60006134fb6134f684613f8a565b613f65565b90508281526020810184848401111561351357600080fd5b61351e8482856141bc565b509392505050565b60008135905061353581614636565b92915050565b60008135905061354a8161464d565b92915050565b60008135905061355f81614664565b92915050565b600082601f83011261357657600080fd5b81356135868482602086016134e8565b91505092915050565b60008135905061359e8161467b565b92915050565b6000815190506135b38161467b565b92915050565b6000602082840312156135cb57600080fd5b60006135d984828501613526565b91505092915050565b600080604083850312156135f557600080fd5b600061360385828601613526565b92505060206136148582860161358f565b9150509250929050565b60008060008060008060008060006101208a8c03121561363d57600080fd5b600061364b8c828d01613526565b995050602061365c8c828d0161358f565b985050604061366d8c828d0161358f565b975050606061367e8c828d0161353b565b965050608061368f8c828d0161353b565b95505060a06136a08c828d0161358f565b94505060c06136b18c828d0161358f565b93505060e06136c28c828d0161358f565b9250506101006136d48c828d0161358f565b9150509295985092959850929598565b600080600080608085870312156136fa57600080fd5b600061370887828801613526565b94505060206137198782880161358f565b935050604061372a8782880161358f565b925050606085013567ffffffffffffffff81111561374757600080fd5b61375387828801613565565b91505092959194509250565b60006020828403121561377157600080fd5b600061377f84828501613550565b91505092915050565b60006020828403121561379a57600080fd5b60006137a88482850161358f565b91505092915050565b6000602082840312156137c357600080fd5b60006137d1848285016135a4565b91505092915050565b6137e381614174565b82525050565b6137f28161410f565b82525050565b613801816140fd565b82525050565b613818613813826140fd565b614261565b82525050565b61382781614121565b82525050565b61383681614186565b82525050565b600061384782613fbb565b6138518185613fd7565b93506138618185602086016141cb565b61386a8161437a565b840191505092915050565b6000613882601383613fd7565b915061388d82614398565b602082019050919050565b60006138a5601883613fd7565b91506138b0826143c1565b602082019050919050565b60006138c8600b83613fd7565b91506138d3826143ea565b602082019050919050565b60006138eb602683613fd7565b91506138f682614413565b604082019050919050565b600061390e600d83613fd7565b915061391982614462565b602082019050919050565b6000613931602583613fd7565b915061393c8261448b565b604082019050919050565b6000613954603783613fd7565b915061395f826144da565b604082019050919050565b6000613977601283613fd7565b915061398282614529565b602082019050919050565b600061399a601583613fd7565b91506139a582614552565b602082019050919050565b60006139bd602083613fd7565b91506139c88261457b565b602082019050919050565b60006139e0601283613fd7565b91506139eb826145a4565b602082019050919050565b6000613a03601b83613fd7565b9150613a0e826145cd565b602082019050919050565b6000613a26601683613fd7565b9150613a31826145f6565b602082019050919050565b6000613a49600083613fc6565b9150613a548261461f565b600082019050919050565b613a688161416a565b82525050565b613a7f613a7a8261416a565b614285565b82525050565b6000613a918285613807565b601482019150613aa18284613a6e565b6020820191508190509392505050565b6000602082019050613ac660008301846137f8565b92915050565b600060a082019050613ae160008301876137da565b613aee60208301866137f8565b613afb6040830185613a5f565b613b086060830184613a5f565b8181036080830152613b1981613a3c565b905095945050505050565b6000604082019050613b3960008301856137da565b613b466020830184613a5f565b9392505050565b600060c082019050613b6260008301896137da565b613b6f6020830188613a5f565b613b7c6040830187613a5f565b613b896060830186613a5f565b613b966080830185613a5f565b613ba360a0830184613a5f565b979650505050505050565b6000608082019050613bc360008301876137f8565b613bd060208301866137f8565b613bdd6040830185613a5f565b8181036060830152613bef818461383c565b905095945050505050565b6000604082019050613c0f60008301856137f8565b613c1c6020830184613a5f565b9392505050565b600061018082019050613c39600083018f6137f8565b613c46602083018e613a5f565b613c53604083018d613a5f565b613c60606083018c6137e9565b613c6d608083018b613a5f565b613c7a60a083018a61381e565b613c8760c083018961381e565b613c9460e0830188613a5f565b613ca2610100830187613a5f565b613cb0610120830186613a5f565b613cbe6101408301856137e9565b613ccc610160830184613a5f565b9d9c50505050505050505050505050565b6000602082019050613cf2600083018461381e565b92915050565b6000602082019050613d0d600083018461382d565b92915050565b60006020820190508181036000830152613d2c81613875565b9050919050565b60006020820190508181036000830152613d4c81613898565b9050919050565b60006020820190508181036000830152613d6c816138bb565b9050919050565b60006020820190508181036000830152613d8c816138de565b9050919050565b60006020820190508181036000830152613dac81613901565b9050919050565b60006020820190508181036000830152613dcc81613924565b9050919050565b60006020820190508181036000830152613dec81613947565b9050919050565b60006020820190508181036000830152613e0c8161396a565b9050919050565b60006020820190508181036000830152613e2c8161398d565b9050919050565b60006020820190508181036000830152613e4c816139b0565b9050919050565b60006020820190508181036000830152613e6c816139d3565b9050919050565b60006020820190508181036000830152613e8c816139f6565b9050919050565b60006020820190508181036000830152613eac81613a19565b9050919050565b6000602082019050613ec86000830184613a5f565b92915050565b6000604082019050613ee36000830185613a5f565b613ef060208301846137f8565b9392505050565b6000606082019050613f0c6000830186613a5f565b613f1960208301856137da565b613f266040830184613a5f565b949350505050565b6000606082019050613f436000830186613a5f565b613f5060208301856137f8565b613f5d6040830184613a5f565b949350505050565b6000613f6f613f80565b9050613f7b8282614230565b919050565b6000604051905090565b600067ffffffffffffffff821115613fa557613fa461434b565b5b613fae8261437a565b9050602081019050919050565b600081519050919050565b600082825260208201905092915050565b600082825260208201905092915050565b6000613ff38261416a565b9150613ffe8361416a565b9250827fffffffffffffffffffffffffffffffffffffffffffffffffffffffffffffffff038211156140335761403261428f565b5b828201905092915050565b60006140498261416a565b91506140548361416a565b925082614064576140636142be565b5b828204905092915050565b600061407a8261416a565b91506140858361416a565b9250817fffffffffffffffffffffffffffffffffffffffffffffffffffffffffffffffff04831182151516156140be576140bd61428f565b5b828202905092915050565b60006140d48261416a565b91506140df8361416a565b9250828210156140f2576140f161428f565b5b828203905092915050565b60006141088261414a565b9050919050565b600061411a8261414a565b9050919050565b60008115159050919050565b6000819050919050565b600081905061414582614622565b919050565b600073ffffffffffffffffffffffffffffffffffffffff82169050919050565b6000819050919050565b600061417f82614198565b9050919050565b600061419182614137565b9050919050565b60006141a3826141aa565b9050919050565b60006141b58261414a565b9050919050565b82818337600083830152505050565b60005b838110156141e95780820151818401526020810190506141ce565b838111156141f8576000848401525b50505050565b6000600282049050600182168061421657607f821691505b6020821081141561422a5761422961431c565b5b50919050565b6142398261437a565b810181811067ffffffffffffffff821117156142585761425761434b565b5b80604052505050565b600061426c82614273565b9050919050565b600061427e8261438b565b9050919050565b6000819050919050565b7f4e487b7100000000000000000000000000000000000000000000000000000000600052601160045260246000fd5b7f4e487b7100000000000000000000000000000000000000000000000000000000600052601260045260246000fd5b7f4e487b7100000000000000000000000000000000000000000000000000000000600052602160045260246000fd5b7f4e487b7100000000000000000000000000000000000000000000000000000000600052602260045260246000fd5b7f4e487b7100000000000000000000000000000000000000000000000000000000600052604160045260246000fd5b6000601f19601f8301169050919050565b60008160601b9050919050565b7f5072696365206973206e6f7420656e6f75676800000000000000000000000000600082015250565b7f41756374696f6e206e6f742066696e6973686564207965740000000000000000600082015250565b7f42696420746f6f206c6f77000000000000000000000000000000000000000000600082015250565b7f4f776e61626c653a206e6577206f776e657220697320746865207a65726f206160008201527f6464726573730000000000000000000000000000000000000000000000000000602082015250565b7f42696473206578697374696e6700000000000000000000000000000000000000600082015250565b7f596f7520617265206e6f74207468652077696e6e6572206f662074686520617560008201527f6374696f6e000000000000000000000000000000000000000000000000000000602082015250565b7f596f752061726520747279696e6720746f2073616c65206d6f7265206e66747360008201527f207468617420746865206f6e657320796f752068617665000000000000000000602082015250565b7f526f79616c7469657320746f6f20686967680000000000000000000000000000600082015250565b7f596f7520617265206e6f7420746865206f776e65720000000000000000000000600082015250565b7f4f776e61626c653a2063616c6c6572206973206e6f7420746865206f776e6572600082015250565b7f4e4654206e6f7420696e2061756374696f6e0000000000000000000000000000600082015250565b7f5468652061756374696f6e206973207374696c6c206163746976650000000000600082015250565b7f4e4654206e6f7420696e206469726563742073616c6500000000000000000000600082015250565b50565b60038110614633576146326142ed565b5b50565b61463f816140fd565b811461464a57600080fd5b50565b61465681614121565b811461466157600080fd5b50565b61466d8161412d565b811461467857600080fd5b50565b6146848161416a565b811461468f57600080fd5b5056fea264697066735822122095c0d31f298a10bd91cfff991c8beb5aa7756ced762d1bf367c0c38b1aa3e9e964736f6c63430008040033",
  "immutableReferences": {},
  "source": "// SPDX-License-Identifier: UNLICENSED\npragma solidity ^0.8.4;\n\nimport \"@openzeppelin/contracts/token/ERC1155/ERC1155.sol\";\nimport \"@openzeppelin/contracts/access/Ownable.sol\";\n//import \"./Base1155.sol\";\nimport \"@openzeppelin/contracts/utils/math/SafeMath.sol\";\n\ncontract Engine is Ownable {\n    using SafeMath for uint256;\n\n    event AuctionCreated(uint256 _index, address _creator, address _asset);\n    event AuctionBid(uint256 _index, address _bidder, uint256 amount);\n    event Claim(uint256 auctionIndex, address claimer);\n    event ReturnBidFunds(uint256 _index, address _bidder, uint256 amount);\n\n    event Royalties(address receiver, uint256 amount);\n    event PaymentToOwner(\n        address receiver,\n        uint256 amount,\n        uint256 paidByCustomer,\n        uint256 commission,\n        uint256 royalties,\n        uint256 safetyCheckValue\n    );\n\n    uint256 public commission = 0; // this is the commission that will charge the marketplace by default.\n    uint256 public accumulatedCommission = 0;\n\n    enum Status {pending, active, finished}\n    struct Offer {\n        address assetAddress; // address of the token\n        uint256 tokenId; // the tokenId returned when calling \"createItem\"\n        uint256 amount;\n        address payable creator; // who creates the offer\n        uint256 price; // price of each token\n        bool isOnSale; // is on sale or not\n        bool isAuction; // is this offer is for an auction\n        uint256 startTime;\n        uint256 duration;\n        uint256 currentBidAmount;\n        address payable currentBidOwner;\n        uint256 bidCount;\n    }\n    Offer[] public offers;\n\n    // Data of each token\n    struct TokenData {\n        address tokenAddr;\n        address creator;\n        uint256 royalties;\n        string lockedContent;\n    }\n    mapping(bytes32 => TokenData) public tokens;\n\n    // returns the creator of the token\n    function getCreator(address _tokenAddress, uint256 _id) public view returns (address) {\n        return tokens[keccak256(abi.encodePacked(_tokenAddress, _id))].creator;\n    }\n\n    function getRoyalties(address _tokenAddress, uint256 _id) public view returns (uint256) {\n        return tokens[keccak256(abi.encodePacked(_tokenAddress, _id))].royalties;\n    }    \n\n    function addTokenToMarketplace(\n        address _tokenAddr,\n        uint256 _tokenId,\n        uint256 _royalties,\n        string memory _lockedContent\n    ) public {\n        require(_royalties <= 1000, \"Royalties too high\"); // you cannot set all royalties + commision. So the limit is 2% for royalties\n\n        if (tokens[keccak256(abi.encodePacked(_tokenAddr, _tokenId))].creator == address(0)) {\n            // save the token data\n            tokens[keccak256(abi.encodePacked(_tokenAddr, _tokenId))] = TokenData({\n                tokenAddr: _tokenAddr,\n                creator: msg.sender,\n                royalties: _royalties,\n                lockedContent: _lockedContent\n            });\n        }\n    }\n\n    function createOffer(\n        address _assetAddress, // address of the token\n        uint256 _tokenId, // tokenId\n        uint256 _amount,\n        bool _isDirectSale, // true if can be bought on a direct sale\n        bool _isAuction, // true if can be bought in an auction\n        uint256 _price, // price that if paid in a direct sale, transfers the NFT\n        uint256 _startPrice, // minimum price on the auction\n        uint256 _startTime, // time when the auction will start. Check the format with frontend\n        uint256 _duration // duration in seconds of the auction\n    ) public returns (uint256) {\n        ERC1155 asset = ERC1155(_assetAddress);\n        require(\n            asset.balanceOf(msg.sender, _tokenId) >= _amount,\n            \"You are trying to sale more nfts that the ones you have\"\n        );\n\n        Offer memory offer =\n            Offer({\n                assetAddress: _assetAddress,\n                tokenId: _tokenId,\n                amount: _amount,\n                creator: payable(msg.sender),\n                price: _price,\n                isOnSale: _isDirectSale,\n                isAuction: _isAuction,\n                startTime: _startTime,\n                duration: _duration,\n                currentBidAmount: _startPrice,\n                currentBidOwner: payable(address(0)),\n                bidCount: 0\n            });\n        offers.push(offer);\n        uint256 index = offers.length - 1;\n        return index;\n    }\n\n    function getOffersCount() public view returns (uint256) {\n        return offers.length;\n    }\n\n    function ahora() public view returns (uint256) {\n        return block.timestamp;\n    }\n\n    function getEndDate(uint256 _offerId) public view returns (uint256) {\n        Offer memory offer = offers[_offerId];\n        return offer.startTime + offer.duration;\n    }\n\n    function removeFromAuction(uint256 _offerId) public {\n        Offer memory offer = offers[_offerId];\n        require(msg.sender == offer.creator, \"You are not the owner\");\n        require(offer.bidCount == 0, \"Bids existing\");\n        offer.isAuction = false;\n        offers[_offerId] = offer;\n    }\n\n    function removeFromSale(uint256 _offerId) public {\n        Offer memory offer = offers[_offerId];\n        require(msg.sender == offer.creator, \"You are not the owner\");\n        offer.isOnSale = false;\n        offers[_offerId] = offer;\n    }\n\n    // Changes the default commission. Only the owner of the marketplace can do that. In basic points\n    function setCommission(uint256 _commission) public onlyOwner {\n        commission = _commission;\n    }\n\n    function buy(uint256 _offerId) external payable {\n        address buyer = msg.sender;\n        uint256 paidPrice = msg.value;\n\n        Offer memory offer = offers[_offerId];\n        require(offer.isOnSale == true, \"NFT not in direct sale\");\n        uint256 price = offer.price;\n        require(paidPrice >= price, \"Price is not enough\");\n\n        emit Claim(_offerId, buyer);\n        ERC1155 asset = ERC1155(offer.assetAddress);\n        asset.safeTransferFrom(\n            offer.creator,\n            msg.sender,\n            offer.tokenId,\n            offer.amount,\n            \"\"\n        );\n\n        // now, pay the amount - commission - royalties to the auction creator\n        address payable creatorNFT = payable(getCreator(offer.assetAddress, _offerId));\n\n        uint256 commissionToPay = (paidPrice * commission) / 10000;\n        uint256 royaltiesToPay = 0;\n        if (creatorNFT != offer.creator) {\n            // It is a resale. Transfer royalties\n            royaltiesToPay = (paidPrice * getRoyalties(offer.assetAddress,_offerId)) / 10000;\n            creatorNFT.transfer(royaltiesToPay);\n            emit Royalties(creatorNFT, royaltiesToPay);\n        }\n        uint256 amountToPay = paidPrice - commissionToPay - royaltiesToPay;\n\n        offer.creator.transfer(amountToPay);\n        emit PaymentToOwner(\n            offer.creator,\n            amountToPay,\n            paidPrice,\n            commissionToPay,\n            royaltiesToPay,\n            amountToPay + ((paidPrice * commission) / 10000)\n        );\n\n        // is there is an auction open, we have to give back the last bid amount to the last bidder\n        if (offer.isAuction == true) {\n            if (offer.currentBidAmount != 0) {\n                // return funds to the previuos bidder\n                offer.currentBidOwner.transfer(offer.currentBidAmount);\n                emit ReturnBidFunds(\n                    _offerId,\n                    offer.currentBidOwner,\n                    offer.currentBidAmount\n                );\n            }\n        }\n\n        accumulatedCommission += commissionToPay;\n\n        offer.isAuction = false;\n        offer.isOnSale = false;\n        offers[_offerId] = offer;\n    }\n\n    // At the end of the call, the amount is saved on the marketplace wallet and the previous bid amount is returned to old bidder\n    // except in the case of the first bid, as could exists a minimum price set by the creator as first bid.\n    function bid(uint256 _offerId) public payable {\n        Offer storage offer = offers[_offerId];\n        require(offer.creator != address(0));\n        //  require(isActive(_offerId));\n        require(msg.value > offer.currentBidAmount, \"Bid too low\");\n        // we got a better bid. Return funds to the previous best bidder\n        // and register the sender as `currentBidOwner`\n\n        // this check is for not transferring back funds on the first bid, as the fist bid is the minimum price set by the auction creator\n        if (\n            offer.currentBidAmount != 0 &&\n            offer.currentBidOwner != offer.creator\n        ) {\n            // return funds to the previuos bidder\n            offer.currentBidOwner.transfer(offer.currentBidAmount);\n            emit ReturnBidFunds(\n                _offerId,\n                offer.currentBidOwner,\n                offer.currentBidAmount\n            );\n        }\n        // register new bidder\n        offer.currentBidAmount = msg.value;\n        offer.currentBidOwner = payable(msg.sender);\n        offer.bidCount = offer.bidCount.add(1);\n\n        emit AuctionBid(_offerId, msg.sender, msg.value);\n    }\n\n    function isActive(uint256 _offerId) public view returns (bool) {\n        return getStatus(_offerId) == Status.active;\n    }\n\n    function isFinished(uint256 _offerId) public view returns (bool) {\n        return getStatus(_offerId) == Status.finished;\n    }\n\n    function getStatus(uint256 _offerId) public view returns (Status) {\n        Offer storage offer = offers[_offerId];\n        if (block.timestamp < offer.startTime) {\n            return Status.pending;\n        } else if (block.timestamp < offer.startTime.add(offer.duration)) {\n            return Status.active;\n        } else {\n            return Status.finished;\n        }\n    }\n\n    function endDate(uint256 _offerId) public view returns (uint256) {\n        Offer storage offer = offers[_offerId];\n        return offer.startTime.add(offer.duration);\n    }\n\n    function getCurrentBidOwner(uint256 _offerId)\n        public\n        view\n        returns (address)\n    {\n        return offers[_offerId].currentBidOwner;\n    }\n\n    function getCurrentBidAmount(uint256 _offerId)\n        public\n        view\n        returns (uint256)\n    {\n        return offers[_offerId].currentBidAmount;\n    }\n\n    function getBidCount(uint256 _offerId) public view returns (uint256) {\n        return offers[_offerId].bidCount;\n    }\n\n    function getWinner(uint256 _offerId) public view returns (address) {\n        require(isFinished(_offerId), \"Auction not finished yet\");\n        return offers[_offerId].currentBidOwner;\n    }\n\n    function claimAsset(uint256 _offerId) public {\n        require(isFinished(_offerId), \"The auction is still active\");\n        Offer storage offer = offers[_offerId];\n\n        address winner = getWinner(_offerId);\n        require(winner == msg.sender, \"You are not the winner of the auction\");\n\n        // the token could be sold in direct sale or the owner cancelled the auction\n        require(offer.isAuction == true, \"NFT not in auction\");\n\n        ERC1155 asset = ERC1155(offer.assetAddress);\n        asset.safeTransferFrom(\n            offer.creator,\n            msg.sender,\n            offer.tokenId,\n            offer.amount,\n            \"\"\n        );\n\n        emit Claim(_offerId, winner);\n\n        // now, pay the amount - commission - royalties to the auction creator\n        address payable creatorNFT = payable(getCreator(offer.assetAddress, offer.tokenId));\n        uint256 commissionToPay = (offer.currentBidAmount * commission) / 10000;\n        uint256 royaltiesToPay = 0;\n        if (creatorNFT != offer.creator) {\n            // It is a resale. Transfer royalties\n            royaltiesToPay =\n                (offer.currentBidAmount * getRoyalties(offer.assetAddress, offer.tokenId)) /\n                10000;\n            creatorNFT.transfer(royaltiesToPay);\n            emit Royalties(creatorNFT, royaltiesToPay);\n        }\n        uint256 amountToPay =\n            offer.currentBidAmount - commissionToPay - royaltiesToPay;\n\n        offer.creator.transfer(amountToPay);\n        emit PaymentToOwner(\n            offer.creator,\n            amountToPay,\n            offer.currentBidAmount,\n            commissionToPay,\n            royaltiesToPay,\n            amountToPay + commissionToPay + royaltiesToPay\n        );\n\n        accumulatedCommission += commissionToPay;\n\n        offer.isAuction = false;\n        offer.isOnSale = false;\n        offers[_offerId] = offer;\n    }\n\n    function extractBalance() public onlyOwner {\n        address payable me = payable(msg.sender);\n        me.transfer(accumulatedCommission);\n        accumulatedCommission = 0;\n    }\n}\n",
  "sourcePath": "/home/linux/ether/XSigma1155/contracts/engine.sol",
  "compiler": {
    "name": "solc",
    "version": "0.8.4+commit.c7e474f2.Emscripten.clang"
  },
  "schemaVersion": "3.3.4",
  "updatedAt": "2021-06-08T15:35:25.323Z",
  "devdoc": {
    "kind": "dev",
    "methods": {
      "owner()": {
        "details": "Returns the address of the current owner."
      },
      "renounceOwnership()": {
        "details": "Leaves the contract without owner. It will not be possible to call `onlyOwner` functions anymore. Can only be called by the current owner. NOTE: Renouncing ownership will leave the contract without an owner, thereby removing any functionality that is only available to the owner."
      },
      "transferOwnership(address)": {
        "details": "Transfers ownership of the contract to a new account (`newOwner`). Can only be called by the current owner."
      }
    },
    "version": 1
  },
  "userdoc": {
    "kind": "user",
    "methods": {},
    "version": 1
  }
}